:100000000C9408020C9439020C9439020C943902B5
:100010000C9439020C9439020C9439020C94390274
:100020000C9439020C9439020C9439020C94390264
:100030000C9439020C9439020C9439020C94390254
:100040000C9439020C9439020C9439020C94390244
:100050000C9439020C9439020C9439020C948C1EC5
:100060000C9439020C94001F0C94D61E0C94390287
:100070000C9439020C9439020C9439020C94390214
:100080000C9439020C9439020C9439020C94390204
:100090000C9439020C9439020C9439020C943902F4
:1000A0000C9439020C9439020C9439020C943902E4
:1000B0000C9439020C9439020C9439020C943902D4
:1000C0000C9439020C9439020C9439020C943902C4
:1000D0000C9439020C9439020C9439020C943902B4
:1000E0000C9439020C9457130C9496040C94120837
:1000F0000C94A3030C94D0030C941F060C949A0543
:100100000C9443110C943C050C94CC030C94D61421
:100110000C9489030C94DA030C94C50E0C94AC1562
:100120000C94FE0E0C94361F0C9484030C942A1825
:100130000C949B030C94D6030C944C110C94711DDD
:100140000C948B0C0C94A30E0C94660B0C94A703CC
:100150000C9451080C9433080C9478050C944404C6
:100160000C949D180C94BE030C940A1A0C94BA03B8
:100170000C941E100C941B250C9428190C94AA03A3
:100180000C944F030C94C2030C9450140C94A419B7
:100190000C94041B0C9469050C94C8030C94F01483
:1001A0000C948C050C949A0C0C9431140C94A208A9
:1001B0000C94E6090C94B1080C9449080C94530370
:1001C0000C94870E0C9494120C947A140C947A0E5E
:1001D0000C9422050C94B0030C944D080C94AC08BC
:1001E0000C94AE080C94D2050C94B4030C949F03A9
:1001F0000C949E080C9468080C945A040C94CF1923
:100200000C9461080C9428080C942E1100407A106C
:10021000F35A00A0724E18090010A5D4E80000E8B7
:100220007648170000E40B54020000CA9A3B000015
:1002300000E1F505000080969800000040420F00A4
:100240000000A08601000000102700000000E80365
:10025000000000006400000000000A000000000030
:100260000100000000002C76D888DC674F0823DFEF
:10027000C1DFAE59E1B1B796E5E3E453C63AE651C2
:10028000997696E8E6C28426EB898C9B62ED407CE9
:100290006FFCEFBC9C9F40F2BAA56FA5F490055A85
:1002A0002AF75C936B6CF9676DC11BFCE0E40D47AA
:1002B000FEF520E6B500D0ED902E030094357705CD
:1002C0000080841E080000204E0A000000C80C3385
:1002D0003333330F986E12831141EF8D2114893B14
:1002E000E65516CFFEE6DB18D1844B381BF77C1D94
:1002F000901DA4BBE424203284725E228100C9F1E7
:1003000024ECA1E53D2700000A0B02090C0D0E08A4
:1003100007030401000000000000000000000000CE
:1003200000000000000000000000000000000000CD
:10033000000012111000000000000000000000008A
:10034000000000000000000000000000000022008B
:10035000250028002B002E0031003400020100008F
:10036000050108010B0100002100240027002A00DC
:100370002D003000330001010000040107010A01D3
:1003800005050505070508080808020202020A0A11
:10039000080804040404010101010101010103032F
:1003A000030303030303040707070C0C0C0C0C0CDA
:1003B0000C0C0202020206060606060606060B0BD7
:1003C0000B0B0B0B0B0B0102102020080810204018
:1003D0001020408002010201080402010102040809
:1003E0001020408080402010080402018004020197
:1003F00080402010080402010804020101020408E0
:10040000102040800102040810204080361F1B2568
:1004100011241FBECFEFD1E2DEBFCDBF00E00CBF85
:1004200013E0A0E0B2E0E0E9FAE500E00BBF02C0B3
:1004300007900D92A23FB107D9F726E0A2EFB3E0F3
:1004400001C01D92AD30B207E1F712E0C7E0D2E083
:1004500000E006C021970109802FFE010E94532A67
:10046000C630D10780E00807A9F70E9465200C94E8
:10047000362D0C94000090E0FC01EA53FC4F2491CF
:1004800080589C4FFC018491882399F090E0880F5C
:10049000991FFC01EA59FC4FA591B491FC01E45B62
:1004A000FC4F859194918FB7F894EC91E22BEC93EB
:1004B0008FBF0895CF93DF93E4E8F5E0EC018A81E4
:1004C0009B81AC81BD81838B948BA58BB68B8BE597
:1004D00097E0908F878BDF91CF910895AF92BF9275
:1004E000CF92DF92EF92FF920F931F93CF93DF9300
:1004F0001F921F92CDB7DEB75C01D12CC12CCA145C
:10050000DB04A0F04091BD055091BE056091BF0590
:100510007091C005E091D805F091D9058091D4057E
:100520009091D505199590E080E030C0E091DA0512
:10053000F091DB058091D6059091D70519957B0147
:100540008C011E141F0410061106F4F41A8219827D
:100550006091C6057091C7056C0D7D1DE091D205B7
:10056000F091D3059E012F5F3F4FA5014C195D0906
:100570008091CE059091CF051995009739F4898126
:100580009A81C80ED91EBBCF8CEF9FEF0F900F90B2
:10059000DF91CF911F910F91FF90EF90DF90CF905F
:1005A000BF90AF9008958F929F92AF92BF92CF92DB
:1005B000DF92EF92FF920F931F93CF93DF931F92DF
:1005C0001F92CDB7DEB79C01260F371F4091C4059F
:1005D0005091C5054217530708F44CC05B014C010C
:1005E000D12CC12CCA14DB0418F090E080E033C099
:1005F000E091DA05F091DB058091D6059091D70561
:1006000019957B018C011E141F04100611060CF5B0
:100610001A8219826091C8057091C905C4018C0DB8
:100620009D1D680F791FE091D005F091D1059E01C5
:100630002F5F3F4FA5014C195D098091CE05909128
:10064000CF051995009739F489819A81C80ED91E72
:10065000C9CF8CEF9FEF0F900F90DF91CF911F913B
:100660000F91FF90EF90DF90CF90BF90AF909F9051
:100670008F9008958FEF9FEFEECF20E3FC01208352
:100680003296862F82958F706F706A3030F4605D7D
:100690006293682F8111F5CF0895695CF9CFFC0151
:1006A000818D928D08950895282F30E0F901EA5F39
:1006B000FC4F9491F901EA53FC4F449120583C4F70
:1006C000F9012491222309F435C0992311F19150A5
:1006D0009231F8F4E92FF0E08827EE58FC4F8F4F65
:1006E0000C94532AA303A70384039B039F0389034A
:1006F000AA03B003B403BA03BE03C203C803CC0306
:100700008903D003D603DA03809180008F7780932A
:100710008000E22FF0E0EE0FFF1FE45BFC4FA5919D
:10072000B4918FB7F894EC91611148C040954E2375
:100730004C938FBF0895809180008F7DE8CF80918A
:100740008000877FE4CF84B58F7784BDE2CF84B506
:100750008F7DFBCF8091B0008F778093B000D9CF91
:100760008091B0008F7DF9CF809190008F7780933A
:100770009000CFCF809190008F7DF9CF8091900035
:10078000877FF5CF8091A0008F778093A000C1CFA5
:100790008091A0008F7DF9CF8091A000877FF5CF59
:1007A000809120018F7780932001B3CF8091200129
:1007B0008F7DF9CF80912001877FF5CF4E2BB8CF69
:1007C0003FB7F8948091650490916604A091670406
:1007D000B091680426B5A89B05C02F3F19F001967B
:1007E000A11DB11D3FBFBA2FA92F982F8827BC018B
:1007F000CD01620F711D811D911D42E0660F771FB3
:10080000881F991F4A95D1F708958F929F92AF92B2
:10081000BF92CF92DF92EF92FF926B017C010E9418
:10082000E0034B015C01C114D104E104F104B9F00F
:100830000E94E003681979098A099B09683E7340A0
:100840008105910580F321E0C21AD108E108F10881
:1008500088EE880E83E0981EA11CB11CE4CFFF90A7
:10086000EF90DF90CF90BF90AF909F908F900895C2
:100870002FB7F894609161047091620480916304D1
:10088000909164042FBF0895CF93DF93EC014C83C4
:100890005D836E837F83E885F985309741F01995F4
:1008A000688379838A839B83DF91CF9108950E9427
:1008B0003804F6CFCF92DF92EF92FF920F931F93FF
:1008C000CF93DF93EC01E885F985309739F11995DD
:1008D000088119812A813B8160177107820793077C
:1008E00000F50095109520953095600F711F821FBF
:1008F000931F0C811D812E813F8168017901C61AE9
:10090000D70AE80AF90AC701B601DF91CF911F9112
:100910000F91FF90EF90DF90CF9008950E943804E0
:10092000D7CF601B710B820B930BE3CF2F923F92BB
:100930004F925F926F927F928F929F92AF92BF92EF
:10094000CF92DF92EF92FF920F931F93CF93DF939B
:1009500000D01F92CDB7DEB79A8389836B015C8389
:100960004B831901270138010E9438044B015C01B7
:10097000D1011D921C92EB81FC81EF2B89F10E9429
:100980003804681979098A099B0964157505860573
:10099000970530F5A981BA818D919C91DC01ED918B
:1009A000FC910288F389E02D4B815C81B601199599
:1009B000181619069CF160E070E0CB010E94050456
:1009C000A981BA818D919C91DC01ED91FC91068801
:1009D000F789E02D19958111CECF8BEF9FEF07C0DE
:1009E000F10180819181892B51F190E080E00F909D
:1009F0000F900F900F90DF91CF911F910F91FF906B
:100A0000EF90DF90CF90BF90AF909F908F907F90AE
:100A10006F905F904F903F902F900895C80ED91E11
:100A2000D1012D913C911197280F391F2D933C93A3
:100A3000EB81FC81E81BF90BFC83EB839CCF8CEFF3
:100A40009FEFD5CFCF93DF93E901DC018D919C918E
:100A5000DC01ED91FC910280F381E02D19959983E1
:100A60008883892B29F090E080E0DF91CF91089571
:100A70008AEF9FEFFACF0895AF92BF92CF92DF92A5
:100A8000EF92FF920F931F93CF93DF936C017B0143
:100A90008B01040F151FEB015E01AE18BF08C017D4
:100AA000D10759F06991D601ED91FC910190F08147
:100AB000E02DC6011995892B79F7C501DF91CF91FA
:100AC0001F910F91FF90EF90DF90CF90BF90AF906C
:100AD0000895FC01538D448D252F30E0842F90E044
:100AE000821B930B541710F0CF9608950197089529
:100AF000FC01918D828D981761F0A28DAE0FBF2FF2
:100B0000B11D5D968C91928D9F5F9F73928F90E047
:100B100008958FEF9FEF0895FC01918D828D9817B6
:100B200031F0828DE80FF11D858D90E008958FEFF3
:100B30009FEF0895FC01918D228D892F90E0805CBC
:100B40009F4F821B91098F739927089582EA94E041
:100B50000E949A0521E0892B09F420E0822F089554
:100B6000FC01A48DA80FB92FB11DA35ABF4F2C9122
:100B7000848D90E001968F739927848FA689B78919
:100B80002C93A089B1898C91837080648C93938D10
:100B9000848D981306C00288F389E02D80818F7DB3
:100BA00080830895EF92FF920F931F93CF93DF936B
:100BB000EC0181E0888F9B8D8C8D98131AC0E88999
:100BC000F989808185FF15C09FB7F894EE89FF8968
:100BD0006083E889F98980818370806480839FBF06
:100BE00081E090E0DF91CF911F910F91FF90EF9006
:100BF0000895F62E0B8D10E00F5F1F4F0F73112716
:100C0000E02E8C8D8E110CC00FB607FCFACFE88950
:100C1000F989808185FFF5CFCE010E94B005F1CF23
:100C2000EB8DEC0FFD2FF11DE35AFF4FF0829FB7C4
:100C3000F8940B8FEA89FB8980818062CFCFCF93B4
:100C4000DF93EC01888D8823B9F0AA89BB89E889F4
:100C5000F9898C9185FD03C0808186FD0DC00FB69A
:100C600007FCF7CF8C9185FFF2CF808185FFEDCF18
:100C7000CE010E94B005E9CFDF91CF91089580E0C9
:100C800090E0892B29F00E94A60581110E940000A6
:100C900080E090E0892B49F080E090E0892B29F0FA
:100CA0000E94000081110E94000080E090E0892BEA
:100CB00049F080E090E0892B29F00E94000081112A
:100CC0000E94000080E090E0892B49F080E090E0F5
:100CD000892B29F00E94000081110C9400000895D6
:100CE0000F931F93CF93DF93EC01B0E0A0E0E88176
:100CF000F9818D010F5F1F4FCB018E1B9F0B80175A
:100D0000910758F1822F8F7797E056954795379541
:100D100027959A95D1F7211531054105510509F01F
:100D20008068EA0FFB1F80832115310541055105BD
:100D300069F488819981800F911F9983888390E05D
:100D400080E0DF91CF911F910F910895D801043079
:100D5000110569F68EEF9FEFF4CF8FEF9FEFF1CF84
:100D6000AF92BF92CF92DF92EF92FF920F931F93B9
:100D7000CF93DF931F921F92CDB7DEB77C01E60EB3
:100D8000F71E61E070E02630310511F070E060E0A0
:100D9000660F771FF4E0220F331FFA95E1F7622BFD
:100DA0008E159F0579F48FEF9FEF0F900F90DF91D5
:100DB000CF911F910F91FF90EF90DF90CF90BF9058
:100DC000AF9008955A016C01FC016193FA83E983A5
:100DD00022E030E040E050E0B701CE0101960E94F1
:100DE0007006009711F7E981FA81EE1AFF0A22E0F6
:100DF000E216F104C0F21083E981FA8101832981AE
:100E00003A812E5F3F4F2C193D09F5013183208334
:100E1000CCCF4F925F926F927F929F92AF92BF9290
:100E2000CF92DF92EF92FF920F931F93CF93DF93B6
:100E30006C018A01DA011D921D921D921C9213977A
:100E4000DC01ED91FC917B01EE1AFF0A5F01D0E01D
:100E5000C0E0412C512C320143942196EC16FD0642
:100E6000E0F1C530D105E1F1D5019D905D01A92DDD
:100E7000AF77B0E0A30192010E940F2AD8012D9113
:100E80003D914D915C911397260F371F481F591FB5
:100E90002D933D934D935C93139787E0440C551C21
:100EA000661C771C8A95D1F797FCD7CFEC0FFD1FF6
:100EB000D601ED93FC9390E080E0DF91CF911F91FC
:100EC0000F91FF90EF90DF90CF90BF90AF909F90E9
:100ED0007F906F905F904F9008958FEF9FEFEDCFD1
:100EE0008EEF9FEFEACFEF92FF920F931F93CF9376
:100EF000DF9300D000D0CDB7DEB7D9017C01E60E7C
:100F0000F71E8E159F0589F1FC013191FE83ED835B
:100F1000832F807F90E064E0959587956A95E1F74F
:100F200084179507E1F533FB332730F93C93AE0185
:100F30004F5F5F4FB701CE0105960E9409070097EA
:100F400009F549815A816B817C81423051056105E7
:100F5000710541F5ED81FE81EE1AFF0A22E0E216ED
:100F6000F10430F4F801118210828FEF9FEF0AC074
:100F7000208130E0322F22274181240F311DF801DA
:100F80003183208326960FB6F894DEBF0FBECDBF07
:100F9000DF91CF911F910F91FF90EF90089587EF10
:100FA0009FEFF0CF88EF9FEFEDCFFC0120812EBDAA
:100FB0009B012150310941F051810DB407FEFDCF55
:100FC0004EB55EBD4193F5CF61507109860F971FF5
:100FD0000DB407FEFDCF2EB5FC0120830895E091EE
:100FE000F403F091F50380819091F303892B8083C2
:100FF0000895E091F403F091F50390818091F3035B
:10100000809589238083089590E02091A104233363
:1010100039F40C96982F990F990F990F80E0089545
:101020004896F8CFCF93DF931F92CDB7DEB7698391
:10103000DC01ED91FC910280F381E02D41E050E074
:10104000BE016F5F7F4F19950F90DF91CF9108958B
:10105000FC019485FB018485981303C081E09830DE
:1010600008F080E00895CF93DF931F92CDB7DEB7ED
:101070006983DC01ED91FC910280F381E02D41E078
:1010800050E0BE016F5F7F4F19950F90DF91CF91B8
:101090000895FC01848595850895FC0184899589CE
:1010A00008952EE832E0FC0131832083FB01408962
:1010B000518962897389FC014283538364837583F8
:1010C0000895DC01ED91FC91048CF58DE02D1994CF
:1010D00090E080E00895CF93CFB7F8948091F20329
:1010E000811124C0E5EBF3E08491EBEFF3E0949100
:1010F000E82FF0E0EE0FFF1FEA59FC4FA591B491E5
:10110000EC91E92321F461E085E30E94540385E337
:101110000E943B028CB580618CBD8CB580648CBD17
:1011200084E30E943B0283E30E943B028091F2032E
:101130008F5F8093F203CFBFCF910895FC01768734
:1011400065870895DC01ED91FC91068CF78DE02D0B
:10115000199591E089270895862F089581E08627C3
:10116000089521E0FC018485883008F020E0822F7A
:10117000089508958EBD00000DB407FEFDCF8EB515
:101180000895AF92BF92CF92DF92EF92FF920F93AA
:101190001F93CF93DF9300D000D01F921F92CDB743
:1011A000DEB78C017B016A018091A1048333E1F4F5
:1011B0005801A40EB51EA016B10609F46FC00E9416
:1011C000F90780EF0E94BA08812F0E94BA08802F89
:1011D0000E94BA080F5F1F4FF70181917F010E94A3
:1011E000BA080E94EF07E7CF5B01A40EB51E843357
:1011F000C1F40E94F90719830A838D2D80688B83BF
:10120000CC8264E070E0CE0101960E94D507AE1456
:10121000BF0409F441C0F70181917F010E94BA081F
:10122000F6CF0E94F9070F3F110509F028F4198243
:101230000A8384E08B830CC017FD17C019820A83D0
:1012400033E0169507953A95E1F7007E0C600B8325
:1012500086E0C816D104A0F5F701DE011496EA1560
:10126000FB0599F081918D93FACFC80126E0969500
:1012700087952A95E1F7807E19830A830115104C22
:1012800010F48461D7CF8C61D5CFB6016D5F7F4FED
:10129000CE0101960E94D5070E94EF07C60128964D
:1012A0000FB6F894DEBF0FBECDBFDF91CF911F9177
:1012B0000F91FF90EF90DF90CF90BF90AF90089587
:1012C00063E070E0CE0101960E94D507F70181919D
:1012D0007F010E94BA08AE14BF04C1F7DDCFCF93DF
:1012E000DF931F92CDB7DEB7898341E050E0BE01A6
:1012F0006F5F7F4F90E080E00E94C1080F90DF9108
:10130000CF910895DA01E091F603F0E0FE2FEE2789
:10131000E60FF71F90E0982F8827A901BD018E0FD7
:101320009F1F0C94C108CF93DF931F921F92CDB7DC
:10133000DEB779836A8322E030E0AE014F5F5F4F12
:1013400060E170E00E9482090F900F90DF91CF91D1
:101350000895CF93DF931F921F92CDB7DEB77983A5
:101360006A8322E030E0AE014F5F5F4F64E070E0DF
:101370000E9482090F900F90DF91CF910895CF9333
:10138000DF931F92CDB7DEB72091F60330E0322F06
:101390002227260F371F90E0982F8827498341E0A6
:1013A00050E0BE016F5F7F4F820F931F0E94C10804
:1013B0000F90DF91CF91089544E050E0BC018FE0A1
:1013C00090E00C94C1088CBD9DBD0895FF920F93D1
:1013D0001F93CF93DF93EB01FC01178A168A2A81B2
:1013E000211109C02B81211106C02C81211103C0BC
:1013F0002D81222301F141155105E9F08A01FC01FB
:10140000F08C80E591E00E94E309AE014E5F5F4FF2
:1014100024E030E06CE070E08F2D0E948209B8017A
:101420008F2D0E94930981E090E0DF91CF911F9171
:101430000F91FF90089580E0F7CFDC018EE892E0F5
:101440008D939D9384E0FB0101900D928A95E1F7C5
:1014500008953F924F925F926F927F928F929F92E8
:10146000AF92BF92CF92DF92EF92FF920F931F93B2
:10147000CF93DF931F921F92CDB7DEB74C012B01A4
:101480005A018091910590919205009711F4312CA9
:1014900099C0DC01ED91FC910688F789E02D199542
:1014A0008130A9F73090DF05332089F340918D0515
:1014B00050918E0560918F0570919005F401019017
:1014C0000020E9F731978F010819190911F4912CBF
:1014D000812CE091D805F091D9058091D6059091A5
:1014E000D7051995E090C205F090C3056090C60538
:1014F0007090C7057A826982E60CF71C95010B2C67
:10150000000C440B550BC8010296280F391F411DD2
:10151000511D6E147F0409F46AC080E3F3018083D7
:1015200089819A8101969A838983B701CE010196B8
:101530000E947006009709F05CC0E981FA81C7013A
:101540008E1B9F0B029708F452C01083E981FA8129
:101550000183C980DA80F2E0CF0ED11CDA82C98221
:101560000115110579F0C7018C199D0980179107A4
:10157000F0F1A801B401C6010E94162D0C0D1D1D2D
:101580001A830983A114B10489F089819A81E81A28
:10159000F90AEA14FB0458F1A501B2010E94162DC4
:1015A00089819A81A80EB91EBA82A98289819A81FD
:1015B000861997090E946E020097D9F41092E305EC
:1015C0001092E205832D0F900F90DF91CF911F9124
:1015D0000F91FF90EF90DF90CF90BF90AF909F90D2
:1015E0008F907F906F905F904F903F9008958FEF16
:1015F0009FEF9093E3058093E2051092DF058091C1
:10160000910590919205DC01ED91FC910488F5899A
:10161000E02D19953CCFFB0101900020E9F73197AF
:10162000AF01461B570BDC01ED91FC910280F38169
:10163000E02D19948F929F92AF92BF92EF92FF92FA
:101640000F931F93CF93DF93CDB7DEB7A1970FB65C
:10165000F894DEBF0FBECDBF7C01FA01CB0119A209
:10166000223008F42AE08E010F5D1F4F822E912C4C
:10167000B12CA12CBF01A50194010E94222AF901DD
:10168000CA016A300CF5605DD8016E938D01232B81
:10169000242B252B79F790E080E0109721F0BD01F5
:1016A000C7010E940B0BA1960FB6F894DEBF0FBEC8
:1016B000CDBFDF91CF911F910F91FF90EF90BF9021
:1016C000AF909F908F900895695CDECF8F929F922C
:1016D000AF92BF92CF92DF92EF92FF920F931F9340
:1016E000CF93DF937C01EB016C0182E0C80ED11C2B
:1016F0004701E5E08E0E911C10E000E0F6014191FB
:101700006F0150E070E060E02AE0CE010E941A0B09
:101710005C01E881F9810190F081E02D6EE2CE015B
:1017200019958A0D9B1D080F191FC814D90431F78C
:10173000F701458150E070E060E02AE0CE010E94B0
:101740001A0B800F911FDF91CF911F910F91FF9086
:10175000EF90DF90CF90BF90AF909F908F900895C3
:10176000CF93DF93BC0182EA94E00E940B0BEC0163
:1017700060E972E082EA94E00E940B0B8C0F9D1FDF
:10178000DF91CF910895CF93DF93FC014481558180
:101790006081718182EA94E00E943C05EC0160E97D
:1017A00072E082EA94E00E940B0B8C0F9D1FDF9188
:1017B000CF910895AF92BF92CF92DF92EF92FF92B6
:1017C0000F931F93CF93DF9300D01F92CDB7DEB757
:1017D0008C016B017A018091A1048333E9F45B01F0
:1017E0006801C40ED51EC016D106A9F10E94F907E2
:1017F0008FE00E94BA08812F0E94BA08802F0E94B1
:10180000BA080F5F1F4F80E00E94BA08F50181936C
:101810005F010E94EF07E7CF843369F50E94F90763
:1018200019830A838F2D8F778B83EC8264E070E0BD
:10183000CE0101960E94D507A70170E060E0C601C5
:101840000E941F2DE114F10421F0B701C6010E948E
:10185000D5070E94EF07C7010F900F900F900F90D0
:10186000DF91CF911F910F91FF90EF90DF90CF907C
:10187000BF90AF9008950E94F9070F3F110509F03E
:1018800030F419820A831B8263E070E0D1CF17FD28
:101890000BC019820A8333E0169507953A95E1F754
:1018A000007E08600B83F0CFC80126E096958795EF
:1018B0002A95E1F7807E19830A830115104C18F4EC
:1018C00080618B83E1CF8861FCCF1F93CF93DF933F
:1018D0001F92CDB7DEB7182F80E591E00E94E30993
:1018E000812F0E94040827E0129FF0011124E7597C
:1018F000FB4F22813381377041E050E0BE016F5FC2
:101900007F4F820F931F0E94DA0B89810F90DF9126
:10191000CF911F910895FC01808D883040F4218D76
:10192000328D232B21F00E94650C90E008958FEFFB
:101930009FEF0895CF93DF93FC012485283028F092
:101940008FEF9FEFDF91CF910895EC010190F0812F
:10195000E02D0084F185E02D1995892B89F38C8584
:101960000E94650C90E0EECFCF93DF931F92CDB72E
:10197000DEB741E050E0BE016F5F7F4F0E94DA0B9F
:1019800089810F90DF91CF91089590E080E00C94D1
:10199000B40CCF93DF93C4E1D0E00E94C50C882340
:1019A00061F061E070E080E090E00E940504219722
:1019B000A1F780E0DF91CF91089581E0FBCF1F93E5
:1019C000CF93DF931F921F92CDB7DEB78091F703BD
:1019D0008111CFC060E372E080E090E00E940504D6
:1019E0000E946B0880910002282F30E0F901E05836
:1019F000FC4FE491F0E0EE0FFF1FE45BFC4F4591DC
:101A000054915093F5034093F403F901EA53FC4FCA
:101A1000E491E093F3030E943B020E94EF0780E50C
:101A200091E00E94E30984E38093A10480E80E948E
:101A30006F090E94C90C882391F188E00E946F0908
:101A40000E94C50C883059F580E10E946F090E9400
:101A5000C50C803121F580E00E946F090E94C50C01
:101A6000182F81111CC08FE190E00E94B40C8330CC
:101A7000B1F480E48093F60342E06EE170E0812FE0
:101A80000E94BF0942E06FE170E0812F0E94BF0910
:101A90001F5F183089F781E08093F70364C087E304
:101AA0008093A10480E80E946F090E94C90C8823DA
:101AB000F9F088E00E946F090E94C50C8830C1F4DB
:101AC00080E10E946F090E94C50C182F803181F4BB
:101AD00080E00E946F090E94C50C811109C089E352
:101AE00090E00E94B40C843019F41093F603D3CF25
:101AF00083E38093A10480E80E946F090E94C90CCF
:101B0000882371F180E10E946F090E94C50C803129
:101B100039F582E10E946F090E94C50C823101F5FE
:101B200080E00E946F090E94C50C811119C084E0F9
:101B30008093F60315E51A8341E050E0BE016E5F25
:101B40007F4F8BE190E00E94C108198341E050E093
:101B5000BE016F5F7F4F8AE190E00E94C1089BCF7A
:101B60001092A10480E00F900F90DF91CF911F9110
:101B7000089581E0F8CFCF92DF92EF92FF920F931A
:101B80001F93CF93DF93CDB7DEB7E0970FB6F894EE
:101B9000DEBF0FBECDBFFB01DC0112964D915D9102
:101BA0006D917C9115974DA75EA76FA778AB31E03B
:101BB00038AB8DA59EA5AFA5B8A98B8F9C8FAD8F97
:101BC000BE8FC280D380E480F5808EE892E09C8B4B
:101BD0008B8B2FEF2D8B2E8B2F8B188E9E878D87C7
:101BE0003E8F0B8D1C8D2D8D3E8D0F87188B298B75
:101BF0003A8BC986DA86EB86FC869A8389834B8387
:101C00005C836D837E830E94DF0C882371F180E505
:101C100091E00E94E30946E050E063E072E089E071
:101C200090E00E94C108CE0103960E94DC0944E0C6
:101C300050E0BE01615F7F4F81E090E00E94C108EB
:101C400044E050E0BE016B5E7F4F85E090E00E9473
:101C5000C10889859A85AB85BC8580937105909371
:101C60007205A0937305B0937405E0960FB6F894CF
:101C7000DEBF0FBECDBFDF91CF911F910F91FF90BF
:101C8000EF90DF90CF9008952091F60330E0322F4F
:101C90002227620F731F90E0982F8827860F971FC7
:101CA0000C94B40CCF93C82F462F61E070E00E94D3
:101CB000BF0961E070E08C2F0E94440E8111F9CFC2
:101CC000CF910895CF93C82F80E591E00E94E3095A
:101CD00068E070E08C2FCF910C94520ECF93C82FF8
:101CE00080E591E00E94E30960E170E08C2FCF91E4
:101CF0000C94520ECF93DF93EC01888D883020F442
:101D00000E946E0E88E0888FDF91CF910895CF9367
:101D1000FC01C08D80E591E00E94E30960E270E083
:101D20008C2F0E94520E81E090E0CF910895CF93C6
:101D3000C82F80E591E00E94E30963E070E08C2FFA
:101D4000CF910C94440ECF93DF93EC018C858830B7
:101D5000D0F40E94970E843189F0882379F088317D
:101D600069F021E08C3159F4E881F9810084F18532
:101D7000E02DCE01199521E0892B09F420E0822F76
:101D8000DF91CF91089580E0FBCFCF92DF92EF9269
:101D9000FF92CF93DF93EC018C85883068F40E942A
:101DA000620E0E9438046B017C018C850E94970EA4
:101DB000811109C088E08C87DF91CF91FF90EF906F
:101DC000DF90CF90089561E070E080E090E00E94A5
:101DD00005040E943804AB01BC014C195D096E0971
:101DE0007F098D859E85B0E0A0E0481759076A07F6
:101DF0007B07D8F28C850E946E0EDCCFCF93FC015E
:101E0000C08D80E591E00E94E30960E270E08C2FD4
:101E10000E94520E62E070E08C2F0E94440E84FDFE
:101E200016C062E070E08C2F0E94440E83FF0AC04F
:101E300048E162E070E08C2F0E94BF0980E090E0F2
:101E4000CF91089580E591E00E94E309E3CF40E15E
:101E500062E070E08C2F0E94BF0981E0F0CFDA01D0
:101E6000E091F603F0E0FE2FEE27E60FF71F90E07B
:101E7000982F8827A901BD018E0F9F1F0C94DA0BA4
:101E80008F929F92AF92BF92CF92DF92EF92FF928A
:101E90000F931F93CF93DF93CDB7DEB760970FB645
:101EA000F894DEBF0FBECDBF7C019091A1049111CB
:101EB00015C018E0812F60960FB6F894DEBF0FBEF4
:101EC000CDBFDF91CF911F910F91FF90EF90DF90E9
:101ED000CF90BF90AF909F908F90089508E093337C
:101EE00009F404E06B0180E591E00E94E3099E01A2
:101EF0002F5F3F4F5901490110E063E070E0812FEF
:101F00000E94440EF40181934F018823C1F01F5FAA
:101F10000113F3CF00E0F50181915F018D3149F0AC
:101F2000883139F08A51823020F00F5F1013F3CFDF
:101F3000C0CF60E170E0802F0E94520E102FA12EC2
:101F4000B12C83EE93E00197F1F742E870E060E096
:101F5000812F0E94BF094FEF62E070E0812F0E9445
:101F6000BF09B601C114D10491F48091010290918E
:101F7000020201968115F0EC9F0708F45CC0909373
:101F80000202809301026091010270910202812F8E
:101F90000E94A90986E0E3E1F2E0DE0119960190D2
:101FA0000D928A95E1F7F70183818F778C87848181
:101FB0008D8785818E87A7014E5F5F4F24E030E0DB
:101FC0006CE070E0812F0E948209B601812F0E948F
:101FD000930926E030E0AE01475F5F4F66E070E0B6
:101FE000812F0E94820961E070E0812F0E94520ED1
:101FF00027E02A9DC0012B9D900D11249C0127599B
:102000003B4F7901F9011182108222E030E0AE01EC
:10201000415F5F4F68E270E0812F0E942F0F8F8534
:102020009889982789279827F701938382831682B6
:10203000158214823FCF80E090ECA1CFCF92DF9247
:10204000EF92FF920F931F93CF93DF9300D000D0B6
:10205000CDB7DEB78C016B017A01FC01808D883031
:1020600010F40E946E0E8EE892E09A838983F60146
:1020700082819381A481B5818B839C83AD83BE8350
:10208000B701CE0101960E94400FF801808F883081
:10209000A0F4F586E486128E118E81E026960FB6A6
:1020A000F894DEBF0FBECDBFDF91CF911F910F918E
:1020B000FF90EF90DF90CF90089580E0EFCF7F9278
:1020C0008F929F92AF92BF92CF92DF92EF92FF9248
:1020D0000F931F93CF93DF931F921F92CDB7DEB75D
:1020E000782E8B014A01590122E030E0AE014F5FAA
:1020F0005F4F64E270E00E942F0FE980FA80FE24B7
:10210000EF24FE24E00EF11E970137704091A104E8
:10211000072D10E0433309F042C0085F1F4F102F16
:102120000027110F110F110FC901800F911F4733A5
:10213000C9F1A9014A0D5B1D4130584098F160E09A
:1021400078E06B01C21AD30AA601B4010E94C1084B
:10215000A5014C195D09B4016C0D7D1DC8010E94DB
:10216000C108EA0CFB1CF982EA8222E030E0AE01F1
:102170004F5F5F4F64E270E0872D0E9482090F90ED
:102180000F90DF91CF911F910F91FF90EF90DF9013
:10219000CF90BF90AF909F908F907F900895005FF9
:1021A0001F4FBDCFA501B401DACFEF92FF921F936D
:1021B000CF93DF931F921F92CDB7DEB7182F22E087
:1021C00030E0AE014F5F5F4F60E270E00E942F0F82
:1021D000E980FA80FE24EF24FE2422E030E0AE0104
:1021E0004F5F5F4F60E270E0812F0E942F0F898167
:1021F0009A81982789279827E816F90689F487E0B5
:10220000189FF0011124E759FB4FF582E482C701C2
:102210000F900F90DF91CF911F91FF90EF90089555
:102220007C01DBCF1F93CF93DF93182F80E591E0E4
:102230000E94E309812F0E94D510EC0163E070E059
:10224000812F0E94440E873121F08C3111F0D0E0B3
:10225000C0E0CE01DF91CF911F910895CF93DF931E
:10226000EC018C85883060F40E94970E873111F064
:102270008C3131F48C850E9412118115984088F3BD
:10228000DF91CF910895FC018485883010F40C947F
:10229000121190E080E008959F92AF92BF92CF928A
:1022A000DF92EF92FF920F931F93CF93DF938C01F6
:1022B0005B01942EE52EFC01C688D788F08C80E562
:1022C00091E00E94E3098F2D0E94D510C92DDE2DCB
:1022D0008C179D0708F4EC019E01A501B6018F2D16
:1022E0000E945F10F801868997898C0F9D1F978B3C
:1022F000868BCE01DF91CF911F910F91FF90EF90D0
:10230000DF90CF90BF90AF909F9008957F928F9273
:102310009F92AF92BF92CF92DF92EF92FF920F9374
:102320001F93CF93DF93CDB7DEB7A6970FB6F89480
:10233000DEBF0FBECDBF8C01762E942E852E20E2FF
:10234000A22ECE0101967C01DC01EA2D1D92EA95B8
:10235000E9F76801F3E4CF0ED11C8EE892E09AA36E
:1023600089A38FEF8BA38CA38DA38EA343E450E0AE
:10237000BE016F5D7F4FC6010E94E609019609F418
:10238000BFC081E089838A8386E0B82EBB821C822D
:10239000D80114966D917D918D919C9117970E9413
:1023A0005B2A6D837E838F83988789869A8680E8EF
:1023B00090E09C878B874CE150E0B701C6010E94FA
:1023C0004C11FE0137968AE1DF011D928A95E9F7EB
:1023D0004801B8E08B0E911CF401D70101900D92D9
:1023E000BA94E1F740E150E0B701C6010E944C11F8
:1023F000F7011192AA94E9F796E0A92EB12C40E2D8
:1024000050E0B701C6010E944C11F1E0AF1AB108CB
:10241000B1F783E6898392E89A8393E59B838C8363
:1024200085E38D8381E08E837F829DE3988797E0AB
:1024300099878A8786E0F401DE011B9601900D9250
:102440008A95E1F78CE0898B8A8B63E972E0CE0193
:1024500043960E942F2DD8011B966C91CE01499670
:102460000E943D03F8016485CE014B960E943D0316
:10247000D8011D966C91CE014D960E943D034EE110
:1024800050E0B701C6010E944C11B3E07B121EC0A0
:1024900082E3898384E08A83F80196859B8397850C
:1024A0009C8390899D8391899E8396E39F838887EF
:1024B000828D8987838D8A87848D8B87858D8C8794
:1024C0004CE050E0B701C6010E944C1187E38983BC
:1024D00086E08A8391E09B8393E09C838D838FE0E9
:1024E0008E838AE38F838BE388878FEF898749E028
:1024F00050E0B701C6010E944C11C6010E94FE0EB9
:10250000A6960FB6F894DEBF0FBECDBFDF91CF9178
:102510001F910F91FF90EF90DF90CF90BF90AF9001
:102520009F908F907F9008958F929F92AF92BF92CD
:10253000CF92DF92EF92FF920F931F93CF936C0194
:102540005B018A01FC01C485C830F0F57A01413095
:10255000584018F0E12C88E0F82E80E591E00E94C8
:10256000E3098C2F0E94D5104C0163E070E08C2FA2
:102570000E94440E873111F08C3149F58E149F046E
:1025800060F380E591E00E94E3099701A50170E006
:1025900060E08C2F0E945F1060E270E08C2F0E9440
:1025A000520E62E070E08C2F0E94440E84FD17C032
:1025B00063E070E08C2F0E94440E81110BC081E01B
:1025C00090E0F6019383828310E000E010C0F12CCC
:1025D000E12CD7CF80E591E00E94E309E2CF40E112
:1025E00062E070E08C2F0E94BF09EF2841F3C80120
:1025F000CF911F910F91FF90EF90DF90CF90BF9000
:10260000AF909F908F900895FF920F931F93CF9359
:10261000DF931F921F92CDB7DEB7F82E22E030E095
:10262000AE014F5F5F4F66E270E00E942F0F09819D
:102630001A8110270127102722E030E0AE014F5FFA
:102640005F4F66E270E08F2D0E942F0F89819A8183
:102650009827892798270817190749F4C8010F9068
:102660000F90DF91CF911F910F91FF9008958C01F2
:10267000E3CF1F93CF93DF93182F87E0189FE001DC
:102680001124C759DB4F88819981009761F480E557
:1026900091E00E94E309812F0E9404132E81821B86
:1026A000910999838883DF91CF911F910895FC014F
:1026B0008485883010F40C94391390E080E00895FC
:1026C0004F925F927F928F929F92AF92BF92CF92E2
:1026D000DF92EF92FF920F931F93CF93DF931F929E
:1026E0001F92CDB7DEB7782E6B014A01A82EB12C10
:1026F00027E0829FC0011124FC01E759FB4F7F01B5
:102700000081118180E591E00E94E3090815190517
:1027100054F4872D0E940413F70126818C01021BBB
:102720001109118300830115110529F563E070E09B
:10273000872D0E94440E843159F0882349F001E02E
:1027400010E08C3111F410E000E0119501951109B1
:10275000C8010F900F90DF91CF911F910F91FF90C3
:10276000EF90DF90CF90BF90AF909F908F907F9031
:102770005F904F900895801691060CF4840187E0D5
:102780008A9DF0018B9DF00D1124E759FB4FE280EB
:10279000F380C114D10451F12701F7E05F22872DA6
:1027A0000E940408840D951D2091A104273309F48B
:1027B00053C09801240D351D2130384008F44CC019
:1027C00020E038E0490184189508A401B6010E9470
:1027D000DA0B2601480C591C6801C818D908872D46
:1027E0000E940408A601B2010E94DA0BE00EF11E5D
:1027F00087E08A9DF0018B9DF00D1124E759FB4F76
:10280000F382E28220813181201B310B31832083CE
:102810008681800F912F911D8A3F910510F4232B03
:10282000F1F487E08A9DF0018B9DF00D1124E759AA
:10283000FB4F1682F982EA8222E030E0AE014F5F60
:102840005F4F68E270E0872D0E94820960E470E0CB
:10285000872D0E94520E7CCFA801B601C5CF86837A
:1028600077CFCF93DF93FC01218D328D2115310578
:1028700029F48FEF9FEFDF91CF910895EC01808DC8
:102880004217530708F0A9010E9460131816190691
:1028900084F7298D3A8D281B390B3A8F298FEBCF7E
:1028A0000F931F93CF93DF931F92CDB7DEB7FC0139
:1028B000218D328D232B41F48FEF9FEF0F90DF910D
:1028C000CF911F910F9108958C0141E050E0BE011E
:1028D0006F5F7F4FFC01808D0E94601318161906F0
:1028E0005CF7F801818D928D0197928F818F89819C
:1028F00090E0E4CF0F931F93CF93DF9300D000D0ED
:102900001F921F92CDB7DEB78C01D80159964D9119
:102910005C915A974115510551F0ED91FC91048C51
:10292000F58DE02D70E060E0C8011995EECFF8015B
:10293000808D0E943913892BB1F148E050E0BE012F
:102940006F5F7F4FD80158968C910E9460131816C4
:102950001906F4F4D801509684E0FE0131960190F6
:102960000D928A95E1F78D8190E0982F88272E812E
:10297000820F911DF801958B848B8F81282F30E079
:10298000322F22278885820F932F911D928F818F5E
:1029900028960FB6F894DEBF0FBECDBFDF91CF9162
:1029A0001F910F91089590E080E0F2CFCF93DF93D5
:1029B0001F92CDB7DEB741E050E0BE016F5F7F4FA1
:1029C000FC0184850E9460131816190634F489816D
:1029D00090E00F90DF91CF9108958FEF9FEFF9CFA7
:1029E000FC018485883010F40C94601390E080E042
:1029F00008958F929F92AF92BF92CF92DF92EF9203
:102A0000FF920F931F93CF93DF9300D000D000D09D
:102A10001F92CDB7DEB79091A104911115C018E0B7
:102A2000812F2A960FB6F894DEBF0FBECDBFDF917F
:102A3000CF911F910F91FF90EF90DF90CF90BF90BB
:102A4000AF909F908F90089528E0F22E933311F469
:102A500094E0F92E6B01082F80E591E00E94E309D4
:102A60009E012F5F3F4F5901490110E063E070E084
:102A7000812F0E94440EF40181934F018823C1F0FD
:102A80001F5FF112F3CFF12CF50191915F019D31A0
:102A900049F0983139F09A51923020F0F3941F1197
:102AA000F3CFBDCF60E170E08F2D0E94520E1F2D3D
:102AB000E12EF12C83EE93E00197F1F7402F70E0C7
:102AC00060E0812F0E94BF094FEF62E070E0812F2C
:102AD0000E94BF09B601CD2889F48091010290912E
:102AE000020201968115F0EC9F0798F19093020283
:102AF000809301026091010270910202812F0E9475
:102B0000A90961E070E0812F0E94520E27E02E9DFE
:102B1000C0012F9D900D11249C0127593B4F790135
:102B2000F9011182108222E030E0AE01475F5F4F71
:102B300068E270E0812F0E942F0F89859A8598277F
:102B400089279827F701938382831682158214823E
:102B500067CF80E090ECCACF0F931F93CF93DF93A2
:102B6000EC018B01888D883010F40E946E0EB80144
:102B700082E00E94F914888F883050F41D870C87FA
:102B80001A8E198E81E0DF91CF911F910F910895D8
:102B900080E0F9CF4F925F926F927F928F929F92D7
:102BA000AF92BF92CF92DF92EF92FF920F931F935B
:102BB000CF93DF93CDB7DEB763970FB6F894DEBF40
:102BC0000FBECDBF7C016B013A01FB0120E090E01C
:102BD00080E06AE03191332309F461C040ED430F96
:102BE0004A3008F04DC0689FA001699F500D112424
:102BF000CA01C097830F911D37FD9A958F3F9105AC
:102C000049F340F3F70142815381648175818091DA
:102C10004D0590914E05A0914F05B0915005481774
:102C200059076A077B0709F40DC28701085F1F4F28
:102C30000E9438046F7077277C5FC8010E94AC1532
:102C4000813009F004C28EE892E09A838983F7010B
:102C500082819381A481B5818B839C83AD83BE8364
:102C600045E350E0BE016F5F7F4FC8010E94E60957
:102C7000892BA9F5D12CC12CC8010E947A0E17C04E
:102C80003E3209F0BFCF233009F4BCCFD301A20FED
:102C9000B11D12968C932F5F90E080E09BCF233084
:102CA00009F0B0CFF3018583CC24C394D12CC601A5
:102CB00063960FB6F894DEBF0FBECDBFDF91CF9104
:102CC0001F910F91FF90EF90DF90CF90BF90AF904A
:102CD0009F908F907F906F905F904F9008950E948B
:102CE0003804F7017783668342E050E0B7016A5FFA
:102CF0007F4FC8010E944C1181E090E09A83898344
:102D000042E050E0BE016F5F7F4FC8010E944C114E
:102D100080E091E09A83898342E050E0BE016F5FDA
:102D20007F4FC8010E944C111A82198242E050E084
:102D3000BE016F5F7F4FC8010E944C1142E050E01E
:102D4000BE016F5F7F4FC8010E944C1142E050E00E
:102D5000BE016F5F7F4FC8010E944C115601F60102
:102D60008081882301F16501F60181912F0188237B
:102D700011F08E32B1F446018A189B081814190418
:102D800074F48D8641E050E0BE01635F7F4FC8015F
:102D90000E944C11A401B501C8010E944C115201BE
:102DA000DECF6201E1CF1D8641E050E0BE01635FEE
:102DB0007F4FC8010E944C11C12CDD24D394DA82CC
:102DC000C98242E050E0BE016F5F7F4FC8010E94A0
:102DD0004C11DA82C98242E050E0BE016F5F7F4F42
:102DE000C8010E944C11C8010E94FE0E892B09F4F3
:102DF00041CFF3E0AF2EB12C230122E0420E511C53
:102E0000D4C0F7014281538164817581808D918D99
:102E1000A28DB38D481759076A077B0709F008C1CF
:102E2000848D958DC59709F003C181A192A15DEFB5
:102E3000C52EDD24DA940C970CF4ADC04CE050E0C4
:102E4000BE016F5F7F4FC8010E9431148B819C814E
:102E50009827892798279A8B898BF7014681578174
:102E600029813A814217530709F0E7C097FFE5C06F
:102E70008F7092703BEFC32EDD24DA94892B09F01A
:102E80008AC06F8078847624672476242AEFC22E45
:102E9000DD24DA946114710409F47DC0D12CC12CB5
:102EA0008D819E81982789279827C816D906F8F41E
:102EB00041E050E0BE01635F7F4FC8010E943114C2
:102EC0004D85442331F050E070E060E0C8010E947D
:102ED00031148D858111ECCF44E050E070E060E06A
:102EE000C8010E943114FFEFCF1ADF0AD9CF912C0D
:102EF000812C41E050E0BE016D5E7F4FC8010E9411
:102F000031144B89842F807C09F06CC0442331F04C
:102F100050E070E060E0C8010E9431148B8981119B
:102F2000E8CF42E050E0BE01615F7F4FC8010E94E0
:102F3000311442E050E0BE01635F7F4FC8010E9440
:102F4000311444E050E070E060E0C8010E943114A8
:102F500042E050E0BE016F5E7F4FC8010E94311415
:102F60008F85988949895A898115914009F043C014
:102F7000CD84DE84DC24CD24DC2481E0C816D10499
:102F8000D1F54115544009F04AC044E050E0B20187
:102F9000C8010E94311421E0A21AB10809F46CCED4
:102FA000FFEFCF16DF0609F067CE0E9438043B0121
:102FB0004C01C8010E947A14181619060CF421CF8E
:102FC0000E9438046619770988099909693873419C
:102FD0008105910548F562E370E080E090E00E9491
:102FE0000504E7CF41E050E070E060E0C8010E94D6
:102FF00031141B8A93CF54274527542770E060E093
:10300000C8010E943114FFEF8F1A9F0A68147904D7
:1030100009F06FCF96EFC92EDD24DA94BCCFE7EF2D
:10302000CE2EDD24DA94B7CFCC24CA94DC2CB3CFD7
:103030006EEFC62EDD24DA94AECF4CEFC42EDD2425
:10304000DA94A9CF8EEFC82EDD24DA9430CED12CBD
:10305000C12C2DCECF92DF92EF92FF920F931F9350
:10306000CF93DF93CDB7DEB7AF970FB6F894DEBF3F
:103070000FBECDBF7C016A010EE812E01A830983FE
:103080001C861B8688EE93E0A0E0B0E08D879E87CB
:10309000AF87B88B8DE192E09A878987188F0F8B65
:1030A000198E1A8E1B8E1C8E88E089A31BA70AA777
:1030B0001CA61DA61EA61FA68091710590917205E3
:1030C000A0917305B09174058EA39FA3A8A7B9A77B
:1030D0008B839C83AD83BE8318861F82AE01465DC1
:1030E0005F4FCE0101960E94CA1581309105B1F45F
:1030F000D701ED91FC910488F589E02D1DA30CA367
:103100008CA59DA5AEA5BFA58EA39FA3A8A7B9A773
:10311000A601BE016C5D7F4FC7011995AF960FB632
:10312000F894DEBF0FBECDBFDF91CF911F910F91FD
:10313000FF90EF90DF90CF900895CF92DF92EF92C3
:10314000FF920F931F93CF93DF93CDB7DEB7AF9767
:103150000FB6F894DEBF0FBECDBF8C016B017A01B4
:103160008EE892E09A8389831B821C821D821E82D4
:103170001C861B8648EE53E060E070E04D875E875A
:103180006F87788B2DE132E03A872987988F8F8B74
:10319000198E1A8E1B8E1C8E28E029A39BA78AA746
:1031A0001CA61DA61EA61FA6D8011C968C918830B1
:1031B00060F40E94970E882321F0F80184850E9414
:1031C000620E88E0D8011C968C93809171059091D5
:1031D0007205A0917305B09174058EA39FA3A8A753
:1031E000B9A78B839C83AD83BE8318861F82AE01F3
:1031F000465D5F4FB601CE0101960E94CA15009749
:10320000C1F0D801ED91FC910684F785E02D8EE8A0
:1032100092E09DA38CA38CA59DA5AEA5BFA58EA372
:103220009FA3A8A7B9A7A701BE016C5D7F4FC801E6
:103230001995AF960FB6F894DEBF0FBECDBFDF91E4
:10324000CF911F910F91FF90EF90DF90CF90089555
:10325000CF92DF92EF92FF921F93CF93DF93EC0117
:103260007B016A018C85883048F40E94970E882380
:1032700019F08C850E94620E88E08C87F7018281AC
:103280009381A481B5810097A105B10551F490E027
:1032900080E0DF91CF911F91FF90EF90DF90CF9072
:1032A00008958F3F9F4FAF4FBF4F89F370E060E0AD
:1032B00081E20E94F914182F8C87883040F780E54E
:1032C00091E00E94E309A7014E5F5F4F24E030E0E8
:1032D0006CE070E0812F0E948209B601812F0E946C
:1032E000930964E070E0812F0E94520E0E9438041E
:1032F0006B017C018C850E94970E873111F18C3116
:1033000001F1882321F20E943804AB01BC014C1961
:103310005D096E097F098D859E85B0E0A0E0841768
:103320009507A607B70738F061E070E080E090E00D
:103330000E940504DFCF8C850E946E0E88E08C878A
:10334000A6CF81E090E0A5CF0F931F93CF93DF939B
:103350001F921F92CDB7DEB7FC0124852830E0F420
:103360008C0180E591E00E94E30922E030E0AE01AB
:103370004F5F5F4F60E170E0F80184850E942F0F7E
:1033800089819A819827892798270F900F90DF913C
:10339000CF911F910F91089590E080E0F6CFEF92CA
:1033A000FF920F931F93CF93DF9300D01F92CDB75F
:1033B000DEB78C017B01FB0184858830A8F08EE8A4
:1033C00092E0F80191838083128213821482158225
:1033D000C8010F900F900F900F90DF91CF911F9128
:1033E0000F91FF90EF90089580E591E00E94E3092E
:1033F00024E030E0AE014F5F5F4F6CE070E0F7011A
:1034000084850E942F0FBE016F5F7F4FC8010E940D
:103410001D0ADECF0F931F93CF93DF931F921F924E
:10342000CDB7DEB7FC0124852830E0F48C0180E5BF
:1034300091E00E94E30922E030E0AE014F5F5F4F70
:1034400064E070E0F80184850E942F0F89819A81E1
:103450009827892798270F900F90DF91CF911F9180
:103460000F91089590E080E0F6CF0F931F93CF93D4
:10347000DF93EC0188819981009759F02A813B8183
:103480002617370730F081E0DF91CF911F910F9120
:1034900008958B016F5F7F4F0E94282C009759F091
:1034A000998388831B830A832C813D81232B59F7C1
:1034B000FC011082E8CF80E0E7CFCF93DF93EC01EF
:1034C00088819981009711F00E949F2B19821882A0
:1034D0001D821C821B821A82DF91CF9108950F9367
:1034E0001F93CF93DF93EC010C811D810C5F1F4F65
:1034F000B8010E94351A882391F0288139818C8186
:103500009D816AE972E0820F931F0E942F2D1D8317
:103510000C83CE01DF91CF911F910F910895CE01C1
:103520000E945D1AF6CFEF92FF920F931F93CF93F5
:10353000DF93EC01FB01E080F180E114F10411F173
:103540000481158101151105A9F08C819D81080F59
:10355000191FB801CE010E94351A882399F02881DD
:1035600039818C819D81B701820F931F0E942F2D7D
:103570001D830C83CE01DF91CF911F910F91FF909E
:10358000EF900895CE010E945D1AF4CFEF92FF9262
:103590000F931F93CF93DF93EC017B018A01BA0154
:1035A0000E94351A81110BC0CE010E945D1ACE0116
:1035B000DF91CF911F910F91FF90EF9008951D83A0
:1035C0000C83B701888199810E942F2DF0CFFC01D7
:1035D0001182108213821282158214826115710584
:1035E00051F0FB0101900020E9F73197AF01461B34
:1035F000570B0C94C61A0895FC01808191810097A5
:1036000011F00C949F2B08954F925F926F927F92CE
:103610008F929F92AF92BF92CF92DF92EF92FF92E2
:103620000F931F93CF93DF93CDB7DEB769970FB694
:10363000F894DEBF0FBECDBF4B0129013A01AB8A22
:10364000BC8ACD8ADE8AEF8AF88E098FCDB6DEB6C7
:103650000E891F89A88CB98CC90101962DB73EB778
:10366000281B390B0FB6F8943EBF0FBE2DBF8DB788
:103670009EB701967C01A201B3010E94162D4E0C4B
:103680005F1CD2011C920115110521F0F801EA0D11
:10369000FB1D1082D4011496ED91FC911597309783
:1036A00039F19501A801B7018D919C9119950FB63B
:1036B000F894DEBE0FBECDBE0FB6F894DEBE0FBED0
:1036C000CDBE69960FB6F894DEBF0FBECDBFDF91B9
:1036D000CF911F910F91FF90EF90DF90CF90BF900F
:1036E000AF909F908F907F906F905F904F900895D4
:1036F000F40182819381892BD1F2B701CE01079623
:103700000E94E71A62E972E0CE010D960E94E71A64
:103710000115110509F1B801CE0101960E94E71AC1
:103720008D859E85009769F169817A8161157105A2
:1037300031F14F8558892D813E8142175307F8F0AA
:103740000E942F2D8D819E819A8B898B1E821D82D6
:10375000CE0101960E94FC1AD4011296ED91FC91C3
:10376000BE01635F7F4FCE0107961995CE010D967E
:103770000E94FC1ACE0107960E94FC1A98CF0E9464
:103780009F2B89819A819E878D878B819C81988BC5
:103790008F878D819E819A8B898B1A8219821C82D8
:1037A0001B82D4CF3F924F925F926F927F928F9203
:1037B0009F92AF92BF92CF92DF92EF92FF920F93C0
:1037C0001F93CF93DF93CDB7DEB7EA970FB6F89488
:1037D000DEBF0FBECDBF7C012A013B0169010E9403
:1037E00038044B015C0187010D5B1F4FC8010E942B
:1037F0007A14181619069CF00E9438046819790981
:103800008A099B09461657066806790608F466C1B8
:1038100062E370E080E090E00E940504E7CF42E2BE
:1038200050E0BE016F5F7F4FC8010E943114898153
:103830008230D1F0312C832DEA960FB6F894DEBF9A
:103840000FBECDBFDF91CF911F910F91FF90EF90F1
:10385000DF90CF90BF90AF909F908F907F906F90B0
:103860005F904F903F900895F80184899589833443
:10387000910501F76D817E818F8198850E945B2A79
:103880004B015C01F60180829182A282B38246E004
:1038900050E0B701685F7F4FCE014D960E94092D21
:1038A000892B41F6F70180819181A281B38188162D
:1038B0009906AA06BB0608F4BDCF84819581A6812E
:1038C000B78188159905AA05BB0508F4B3CF898986
:1038D0009A89AB89BC8986879787A08BB18B4EEC80
:1038E00050E070E060E0C8010E943114312CC70143
:1038F000829698AB8FA7F701B696FAABE9AB08961C
:103900009CAB8BAB67019AE1C90ED11CBD96FEAB97
:10391000EDABC701429698AF8FABFD97FAAFE9AF19
:103920004701FEE18F0E911CF801818D928D1816D2
:1039300019060CF080CFC8010E9450148333910502
:1039400009F4B2C014F58130910509F464C044F45F
:10395000892B51F3C8010E945014AC01552775C042
:103960008330910509F462C00697A1F7C8010E944F
:103970005014B82E44E050E0B401C8010E94311444
:10398000EB2DE450FF0BAF0160C08A33910509F4C1
:103990005FC084F585339105B1F1C697D9F6C801AA
:1039A0000E9450145C01B601CE0189960E941D0A46
:1039B0008BA59CA5ADA5BEA5892B8A2B8B2BB1F021
:1039C000EDA9FEA94080518062807380B601CE01CE
:1039D00083960E941D0A8DA19EA1AFA1B8A5A50145
:1039E000481659066A067B0609F0B8CF44E050E055
:1039F000B60118C08B33910509F440C08F3F910583
:103A000009F492CFA7CFC8010E945014C8010E94A8
:103A10005014382E89CFC8010E94501444E050E061
:103A20006FA978ADC8010E9431147ECFC8010E94F1
:103A30005014B82E44E050E069AD7AADC8010E9440
:103A400031148B2D8450990BAC0170E060E0EACF0B
:103A5000C8010E94501444E050E069A97AA9C80145
:103A60000E943114F70166A177A180A591A50E945B
:103A70005B2A66A377A380A791A756CFC8010E94AF
:103A8000501444E050E06BA97CA9C8010E94311495
:103A9000F70162A573A584A595A50E945B2A62A77C
:103AA00073A784A795A740CFC8010E94501444E093
:103AB00050E06FA578A9C8010E943114F70162A1F6
:103AC00073A184A195A10E945B2A62A373A384A31E
:103AD00095A366A777A780AB91AB26CF33243A9402
:103AE000AACEAF92BF92CF92DF92EF92FF920F9346
:103AF0001F93CF93DF93CDB7DEB7A7970FB6F89498
:103B0000DEBF0FBECDBF7C016B016FE972E08E019D
:103B10000F5F1F4FC8010E94E71AB701C8010E943A
:103B2000931A0E946F1AB6010E94931A0E94C30B47
:103B3000C8010E94FC1AF70184819581892B09F440
:103B4000D7C0A080B1806CEA72E0C5010E94262D2A
:103B5000892B09F0C6C0F60180819181009709F494
:103B6000B2C00E9415260E94D32820E030E048EC25
:103B700052E40E94622A20E030EF4FE755E40E94B1
:103B800032296B017C0120E030EF4FE755E40E94C1
:103B9000CC2887FF9CC0C701B6010E94D42A7B01B4
:103BA0006701FFE0DF226894D4F8809107069091C6
:103BB00008060E94E30960E080917C050E9454039E
:103BC0008D2D0E94BA088C2D0E94BA0861E0809168
:103BD0007C050E94540380917B05882351F060E0AE
:103BE00080917D050E94540361E080917D050E94D3
:103BF00054031BA21AA21DA21CA21FA21EA24AE0CD
:103C0000B801C7010E945126F80101900020E9F790
:103C10003197AF01401B510BB801CE0182960E9433
:103C2000C61A6AA17BA1FB0101900020E9F7319738
:103C3000AF01461B570B88EC92E00E94290ACE0187
:103C400082960E94FC1A1BA21AA21DA21CA21FA2ED
:103C50001EA222E044E060E070E088EC92E40E9462
:103C600053250097C9F1FC0101900020E9F7319735
:103C7000AF01481B590BBC01CE0182960E94C61AA7
:103C80006AA17BA1FB0101900020E9F73197AF0108
:103C9000461B570B8BEE92E00E94290ACE018296BA
:103CA0000E94FC1AA7960FB6F894DEBF0FBECDBFD8
:103CB000DF91CF911F910F91FF90EF90DF90CF9008
:103CC000BF90AF90089560E070E0CB014CCFEE2440
:103CD000EA948FE0F82E64CFCE0182960E945D1A9E
:103CE000CFCF6CE073E0C5010E94262D892BD1F265
:103CF00067E273E0C8010E94E71AB701C8010E9499
:103D0000931A0E946F1AB6010E94931A0E94C30B65
:103D1000C8010E94FC1AC6CF1F920F920FB60F92D5
:103D200011242F933F938F939F93AF93BF938091D1
:103D3000610490916204A0916304B0916404309195
:103D4000600423E0230F2D3758F50196A11DB11D06
:103D5000209360048093610490936204A0936304B1
:103D6000B09364048091650490916604A091670407
:103D7000B09168040196A11DB11D809365049093D4
:103D80006604A0936704B0936804BF91AF919F91BC
:103D90008F913F912F910F900FBE0F901F9018950C
:103DA00026E8230F0296A11DB11DD2CF1F920F92BC
:103DB0000FB60F9211240BB60F922F933F934F9390
:103DC0005F936F937F938F939F93AF93BF93EF9383
:103DD000FF9382EA94E00E94B005FF91EF91BF91BA
:103DE000AF919F918F917F916F915F914F913F9193
:103DF0002F910F900BBE0F900FBE0F901F90189534
:103E00001F920F920FB60F9211240BB60F922F93A1
:103E10008F939F93EF93FF93E091B204F091B304DB
:103E20008081E091B804F091B90482FD1DC09081B9
:103E30008091BB048F5F8F732091BC04821741F087
:103E4000E091BB04F0E0EE55FB4F958F8093BB04EF
:103E5000FF91EF919F918F912F910F900BBE0F903B
:103E60000FBE0F901F9018958081F2CFCF92DF92F6
:103E7000EF92FF920F931F93CF93DF93E2EAF4E068
:103E80001382128288EE93E0A0E0B0E084839583F1
:103E9000A683B7832EE432E03183208325EC30E023
:103EA0003587248724EC30E03787268720EC30E004
:103EB000318B208B21EC30E0338B228B22EC30E0F5
:103EC000358B248B26EC30E0378B268B118E128EAF
:103ED000138E148EEFE3F5E00EE812E011830083F9
:103EE0001282138214821582E5E4F5E011830083C7
:103EF0001282138214821582EBE4F5E011830083B1
:103F00001282138214821582E1E5F5E011830083A9
:103F10001282138214821582E7E5F5E01183008393
:103F20001282138214821582EDE5F5E0118300837D
:103F30001282138214821582E3E6F5E01183008376
:103F40001282138214821582E9E6F5E01183008360
:103F50001282138214821582E5E7F5E01183008353
:103F60001282138214821582EFE6F5E0118300833A
:103F70001282138214821582E1E0F6E0118300833D
:103F80001282138214821582EBEFF5E01183008315
:103F900020ECD22ED28238EAE32EE38244E6F42EDD
:103FA000F48222EB2583E5EFF5E011830083D282D2
:103FB000E382F482CC24C394C582E6EEF5E013825A
:103FC000128284839583A683B78320E632E031830F
:103FD000208328E0248728EE33E036872587C4E84D
:103FE000D5E02AE030E03F832E83C88689879A8710
:103FF000AB87BC871E861D86188A1F861A8B098B85
:104000001B8A1C8A1D8A1E8A188E1F8A1A8E198E78
:104010001C8E1B8E1E8E1D8E18A21F8E1AA219A218
:104020001BA21CA21DA21EA21FA218A619A61AA698
:104030001CA61BA61DA61EA61FA618AA19AA1AAA68
:104040001BAA1CAA1EAA1DAAEBEBF5E084E2DF0165
:104050001D928A95E9F71092DF051092E105109202
:10406000E0051092E3051092E2051092E50510922A
:10407000E40580E890E09983888381E890E00E94DD
:10408000032B9B838A8380E890E00E94032B9D830F
:104090008C83EEE7F5E011830083D282E382F48221
:1040A0008BE98583EBE7F5E0108211821282E7E06D
:1040B000F6E080E58083C182DF91CF911F910F915F
:1040C000FF90EF90DF90CF900895CF93DF93CDB71F
:1040D000DEB72C970FB6F894DEBF0FBECDBF789435
:1040E00084B5826084BD84B5816084BD85B58260FD
:1040F00085BD85B5816085BD80916E0081608093AE
:104100006E00109281008091810082608093810016
:104110008091810081608093810080918000816026
:10412000809380008091B10084608093B100809181
:10413000B00081608093B000809191008260809394
:104140009100809191008160809391008091900016
:104150008160809390008091A10082608093A10093
:104160008091A10081608093A1008091A000816076
:104170008093A00080912101826080932101809131
:1041800021018160809321018091200181608093D1
:10419000200180917A00846080937A0080917A0077
:1041A000826080937A0080917A00816080937A00A7
:1041B00080917A00806880937A001092C100E0912B
:1041C000B204F091B30482E08083E091AE04F091F8
:1041D000AF041082E091B004F091B10480E18083DB
:1041E0001092BA04E091B604F091B70486E080839F
:1041F000E091B404F091B504808180618083E09106
:10420000B404F091B504808188608083E091B404A7
:10421000F091B504808180688083E091B404F091CE
:10422000B50480818F7D80838DE00E943B028CE00D
:104230000E943B028BE00E943B0280E380937C055E
:1042400010927B0561E00E94540380917C050E94DE
:104250003B020E946B0811E010937B058FE2809374
:104260007D0561E00E94540380917D050E943B0220
:1042700087E18093000280915804811129C0109237
:10428000400410923F0488EE93E0A0E0B0E08093F9
:10429000410490934204A0934304B09344048DE1FD
:1042A00092E090933E0480933D048EE892E09093D8
:1042B0004C0480934B0410924D0410924E041092C3
:1042C0004F041092500488E08093550410935804D2
:1042D0008AEF93E09093F9038093F8030E94DF0C38
:1042E000882309F444C380E591E00E94E30946E095
:1042F00050E063E072E089E090E00E94C1088EE83F
:1043000092E09A8389831B821C821D821E82CE01C9
:1043100003960E94DC0910921C0410921D04109256
:104320001E0410921F041092200410922104109277
:104330002204109223041092240410922504109257
:1043400026041092270480E69AEEA0E0B0E0809365
:10435000300490933104A0933204B093330480EA84
:104360009FE0A0E0B0E08093340490933504A093E4
:104370003604B0933704E8E0F4E084E1DF011D92F5
:104380008A95E9F786E0E3E0F2E0A2E0B4E001908C
:104390000D928A95E1F710923C040E94BD252FEC06
:1043A00037E040E050E00E94F029DC01CB010196AB
:1043B000A11DB11D8093FE039093FF03A093000401
:1043C000B09301048093FA039093FB03A093FC0342
:1043D000B093FD038DE394E00E947A0E64E470E0F4
:1043E0008DE394E00E94AC15882309F4C0C20E94BA
:1043F00038046B017C0148EE442E43E0542E612CBE
:10440000712C53E0952E02E0B12CA12C80913C043C
:10441000833009F440C08111A9C18091FE039091BD
:10442000FF03A0910004B09101040196A11DB11DEC
:104430008093FE039093FF03A0930004B0930104C4
:104440000E9438046C197D098E099F09A30192010D
:104450000E94222AA90161E08AEF93E00E9486115E
:1044600081E080933C0491E0A916B10479F20E94A6
:1044700038046C197D098E099F0920913004309110
:10448000310440913204509133042617370748070E
:10449000590708F0B9CF8DE394E00E947A0E80911D
:1044A000FE039091FF03A0910004B09101040196D6
:1044B000A11DB11D8093FE039093FF03A093000400
:1044C000B09301040E943804609338047093390457
:1044D00080933A0490933B04AA94AB2809F047C216
:1044E00080E591E00E94E3090091F8031091F9033F
:1044F000B801625F7F4FCE0101960E941D0ACE0176
:1045000003960E94DC09B8016A5E7F4FCE010196D6
:104510000E941D0A44E050E0BE016D5F7F4F81E0C4
:1045200090E00E94C108B8016E5E7F4FCE010196F7
:104530000E941D0A44E050E0BE016D5F7F4F85E0A0
:1045400090E00E94C108B801625E7F4FCE010196E3
:104550000E941D0A8B819C81AD81BE818093710573
:1045600090937205A0937305B09374050E94E003C5
:104570007F738091010290910202682779277093DE
:1045800002026093010263E473E082EA94E00E9415
:104590000B0B8EE892E09A8389831B821C821D821A
:1045A0001E8280E591E00E94E30944E050E0BE01F4
:1045B0006D5F7F4F8FE090E00E94DA0B62EA74E05B
:1045C000CE0101960E94660B60E972E082EA94E0F7
:1045D0000E940B0B8091800590918105A09182052E
:1045E000B091830589879A87AB87BC8786EE95E073
:1045F0009093920580939105809184059091850513
:104600002091860530918705409188055091890554
:1046100061E070E07093BC056093BB051092BD052E
:104620001092BE051092BF051092C0051092C105F0
:104630005093C7054093C6059093C3058093C20568
:104640003093C9052093C8059093C5058093C40590
:104650001092CB051092CA051092CD051092CC0590
:104660001092CF051092CE051092D1051092D00570
:104670001092D3051092D2051092DC051092DE053F
:104680001092DD0587EA95E09093D5058093D405D7
:1046900081EB95E09093D7058093D60584E494E070
:1046A0009093D9058093D8058AE594E09093DB0533
:1046B0008093DA0540E050E0BA0187EA95E00E9475
:1046C0004404E091D805F091D90540E050E0BA01EA
:1046D0008091D6059091D705199585EA95E090933C
:1046E000CF058093CE0586E994E09093D105809321
:1046F000D00582E295E09093D3058093D2058FE9AF
:1047000095E09093CD058093CC0584E09BE1909358
:10471000CB058093CA058EE892E09A8389838985C8
:104720009A85AB85BC858B839C83AD83BE83CE018C
:1047300001960E945A0284E895E09093A005809328
:104740009F0581E79DE19093A2058093A1051092BA
:10475000A4051092A30586EE93E00E94B00B8EEEA6
:1047600093E00E94B00B0E943F06F9CF843031F5F0
:104770008091FE039091FF03A0910004B091010489
:104780000196A11DB11D8093FE039093FF03A0939A
:104790000004B09301040E9438046C197D098E094D
:1047A0009F09A30192010E94222AA90163E08AEFD6
:1047B00093E00E94861100933C0455CE813091F520
:1047C000409134045091350460913604709137045F
:1047D0009E012F5F3F4F8AEF93E00E94D21B182F5C
:1047E000823009F0C1C089819A81AB81BC818093FC
:1047F000FE039093FF03A0930004B09301040E9472
:1048000038046C197D098E099F09A30192010E9449
:10481000222AA90163E08AEF93E00E948611109397
:104820003C0421CE823009F01ECE409134045091D8
:10483000350460913604709137049E012F5F3F4F1D
:104840008AEF93E00E94D21B182F853009F087C0B1
:1048500090923C0480911C0490911D04A0911E0430
:10486000B0911F04892B8A2B8B2B61F484E893E091
:10487000A0E0B0E080931C0490931D04A0931E045C
:10488000B0931F048091200490912104A0912204F0
:10489000B0912304892B8A2B8B2BA1F480911C04CB
:1048A00090911D04A0911E04B0911F04B695A79588
:1048B000979587958093200490932104A0932204D8
:1048C000B09323048091240490912504A0912604A0
:1048D000B0912704892B8A2B8B2BE9F480911C043F
:1048E00090911D04A0911E04B0911F04AC01BD0164
:1048F00023E076956795579547952A95D1F7841BC0
:10490000950BA60BB70B8093240490932504A093DA
:104910002604B09327048091200490912104A09153
:104920002204B09123048093280490932904A09337
:104930002A04B0932B048091240490912504A09123
:104940002604B091270480932C0490932D04A09307
:104950002E04B0932F04AA24A394B12C84CD8630C6
:1049600019F410923C047FCD1F3FD9F37CCD87E52D
:1049700093E00E94B00BE091A104E353E53030F4E2
:10498000F0E0EB5BFD4F808181110BC08FE793E07E
:104990000E94B00B61E070E080E090E00E940504AE
:1049A000F9CF0E94DF0C882331F08091A104843379
:1049B00041F18733A9F18EE892E098878F83409187
:1049C000F7055091F8056091F9057091FA0549874E
:1049D0005A876B877C879A8389838091FD059091A4
:1049E000FE05A091FF05B09100068B839C83AD83EB
:1049F000BE83BE01695F7F4FCE0101960E94BB0D51
:104A0000E9CD80E591E00E94E30985E390E00E9412
:104A1000B40C85FDD0CF85EC93E00E94B00BCBCFDA
:104A200080E591E00E94E3098EE290E00E94B40CE0
:104A300080FDC1CFF0CFE0919D05F0919E053097AC
:104A4000F1F087819085892B21F0818592850E94E4
:104A50009F2BE0919D05F0919E0580819181892B8E
:104A600021F0828193810E949F2B80919D059091DE
:104A70009E050E949F2B10929E0510929D0580918D
:104A8000930590919405009711F00E949F2B8091BF
:104A90008605909187050E949F2B809188059091B3
:104AA00089050C949F2BEF920F931F93CF93DF9365
:104AB000E80134E047FD34E1042E000C550B57FFAC
:104AC00003C0519541955109E32E022F242FAE01C9
:104AD0000E946B26CE01DF91CF911F910F91EF9035
:104AE00008958F929F92AF92BF92CF92DF92EF92F2
:104AF000FF92CF93DF93EC01688179818A819B815A
:104B0000611571058105910521F464E279ED8BE56C
:104B100097E02DE133EF41E050E00E94F029490198
:104B20005A019B01AC01A7EAB1E40E940F2A6B0174
:104B30007C01ACEEB4EFA50194010E941D2AC60EC3
:104B4000D71EE81EF91EF7FE06C081E0C81AD1087C
:104B5000E10880E8F80AC882D982EA82FB82C701AC
:104B6000B6019F77DF91CF91FF90EF90DF90CF90CC
:104B7000BF90AF909F908F9008958F929F92AF9229
:104B8000BF92CF92DF92EF92FF92609109027091F3
:104B90000A0280910B0290910C026115710581054A
:104BA000910521F464E279ED8BE597E02DE133EF97
:104BB00041E050E00E94F02949015A019B01AC01FB
:104BC000A7EAB1E40E940F2A6B017C01ACEEB4EFBE
:104BD000A50194010E941D2AC60ED71EE81EF91ECB
:104BE000F7FE06C081E0C81AD108E10880E8F80A9B
:104BF000C0920902D0920A02E0920B02F0920C02DB
:104C0000C701B6019F77FF90EF90DF90CF90BF90E4
:104C1000AF909F908F9008956093090270930A025D
:104C200080930B0290930C0208951F93FC01992727
:104C30008827BC01E89411911032E9F3193010F083
:104C40001E30C8F31B3251F01D3249F4689406C07F
:104C50000E943C26610F711D811D911D1191105301
:104C60001A30B0F33EF490958095709561957F4F22
:104C70008F4F9F4F1F910895592F482F372F262F61
:104C8000660F771F881F991F660F771F881F991F50
:104C9000620F731F841F951F660F771F881F991F50
:104CA0000895BB27FB015527AA27880F991FAA1F24
:104CB000A41710F0A41B83955051B9F7A05DAA3337
:104CC00008F0A95DA193009779F7B111B193119202
:104CD000CB010C94BC288F929F92AF92BF92CF923F
:104CE000DF92EF92FF920F931F93CF93DF9300D049
:104CF00000D000D0CDB7DEB76A01F22EB02E102F53
:104D0000FBE3AF2EA01608F41BE31F5F012F27E083
:104D1000AE014F5F5F4F0E94E427BC018981982F4D
:104D20009970913009F44EC09BE2E1FC04C09E2DC5
:104D30009170E0FC49C05E2D5071E82FE87083FF50
:104D400055C084E0911101C083E0EF2DE81B8F1561
:104D500008F0E0E0D6018E2F20E25523C9F1992317
:104D600029F0D6019C93C60101966C0196012D5F36
:104D70003F4FE2FE33C08EE4D6018C9391E411964E
:104D80009C93119712968C93D9018E2F90E28111EA
:104D90002AC0E20FF32FF11D10828EEF9FEF2996AC
:104DA0000FB6F894DEBF0FBECDBFDF91CF911F913C
:104DB0000F91FF90EF90DF90CF90BF90AF909F90BA
:104DC0008F9008959DE2B7CF90E2B5CF2D9381509B
:104DD0008111FCCFCE0ED11CE0E0C1CF8EE6D60112
:104DE0008C9391E6CCCF9D938150D1CF482F4470C6
:104DF00082FF3DC084E0911101C083E08F1510F463
:104E0000EF2DE81BD6018E2F20E2552309F19923BF
:104E100029F0D6019C93C60101966C0196012D5F85
:104E20003F4FE2FE1BC089E4D6018C938EE41196BD
:104E30008C93119786E412968C93D9018E2F90E271
:104E4000882309F4A6CF9D938150FACF2D938150EA
:104E50008111FCCFCE0ED11CE0E0D9CF89E6D6017E
:104E60008C938EE611968C93119786E6E4CF9B0186
:104E700077FF02C030E020E0A1E0B0E0911102C075
:104E8000B0E0A0E0F9013196AE0FBF1F8B2C912C42
:104E9000BB2009F461C05401EFEFAE1ABE0AAA0D9F
:104EA000BB1DFA161B0619F014F04F2D4A1B5111A9
:104EB00088C0E3FC59C07601A42FB0E2A1114FC015
:104EC000C40ED11C992309F45BC040E0D6011196B1
:104ED000F60190836D01552309F448C0012F060F98
:104EE0009A81582F507184FF03C0913309F4015007
:104EF00010160CF047C0093008F008E0EEE2FE2E74
:104F00005B01A01AB10885019194819491082F3F0B
:104F1000320729F4D601FC92F60131966F0162172F
:104F2000730794F1021713077CF5DB01A21BB30B87
:104F3000AA24A394B12CAC0EBD1EAA0DBB1D1196C4
:104F40008C9121503109D601119628153905F4F0BC
:104F5000F60180836D01DBCFB12CA12CA0CFF7012E
:104F6000B1937F01A150AACF9111B0CFD601942F58
:104F700050E302C05D9391509111FCCFC40ED11C3F
:104F800040E0ACCF01E0BACF80E3DBCF621773071C
:104F900031F4963388F4953311F4552369F0F60112
:104FA0008083FD01842F90E2811108C0A40FB11D00
:104FB0001C9290E080E0F3CE81E3F1CF9193815099
:104FC000F3CF911183CF8ACF283008F027E0332721
:104FD000DA01990F311D87FD916000966105710519
:104FE00039F432602E5F3D9330E32A95E1F708955E
:104FF0009F3F30F080387105610509F03C5F3C5FF0
:105000003D93913008F08068911DDF93CF931F93FB
:105010000F93FF92EF92192F987F9695E92F96950F
:105020009695E90FFF27EA59FD4F99273327EE247C
:10503000FF24A701E70105900894079428F4360F90
:10504000E71EF81E491F511D660F771F881F991F05
:105050000694A1F70590079428F4E70EF81E491F5F
:10506000561FC11D770F881F991F661F0694A1F751
:105070000590079428F4F80E491F561FC71FD11D2D
:10508000880F991F661F771F0694A1F70590079454
:1050900020F4490F561FC71FD81F990F661F771F8F
:1050A000881F0694A9F784911095177041F0D69542
:1050B000C79557954795F794E7941A95C1F7ECE093
:1050C000F2E0689415901591359165919591059050
:1050D0007FE27395E118F10A430B560BC90BD00917
:1050E000C0F7E10CF11E431F561FC91FD01D7EF4EF
:1050F000703311F48A95E6CFE894015030F0080F30
:105100000AF40027021708F4202F2395022F7A3380
:1051100028F079E37D932A95E9F710C07D932A95CD
:1051200089F6069497956795379517951794E11822
:10513000F10A430B560BC90BD00998F023957E91C9
:1051400073957A3308F070E37C932013B8F77E915F
:1051500070617D9330F0839571E37D9370E32A95C0
:10516000E1F71124EF90FF900F911F91CF91DF9104
:10517000992787FD90950895DC01FC01672F7191B7
:105180007723E1F7329704C07C916D93708362912D
:10519000AE17BF07C8F308950E940E2908F481E0F6
:1051A0000895E89409C097FB3EF49095809570951A
:1051B00061957F4F8F4F9F4F9923A9F0F92F96E963
:1051C000BB279395F695879577956795B795F111D8
:1051D000F8CFFAF4BB0F11F460FF1BC06F5F7F4F75
:1051E0008F4F9F4F16C0882311F096E911C0772387
:1051F00021F09EE8872F762F05C0662371F096E890
:10520000862F70E060E02AF09A95660F771F881F5E
:10521000DAF7880F9695879597F90895990F000802
:10522000550FAA0BE0E8FEEF16161706E807F90778
:10523000C0F012161306E407F50798F0621B730B13
:10524000840B950B39F40A2661F0232B242B252B94
:1052500021F408950A2609F4A140A6958FEF811D37
:10526000811D08950E9445290C94B6290E94A82901
:1052700038F00E94AF2920F0952311F00C949F295B
:105280000C94A52911240C94EA290E94C72970F3D3
:10529000959FC1F3950F50E0551F629FF001729FDB
:1052A000BB27F00DB11D639FAA27F00DB11DAA1FEA
:1052B000649F6627B00DA11D661F829F2227B00D37
:1052C000A11D621F739FB00DA11D621F839FA00DC2
:1052D000611D221F749F3327A00D611D231F849F12
:1052E000600D211D822F762F6A2F11249F57504069
:1052F0009AF0F1F088234AF0EE0FFF1FBB1F661FE4
:10530000771F881F91505040A9F79E3F510580F0AC
:105310000C949F290C94EA295F3FE4F3983ED4F360
:10532000869577956795B795F795E7959F5FC1F750
:10533000FE2B880F911D9695879597F9089597F9FB
:105340009F6780E870E060E008959FEF80EC08952B
:1053500000240A9416161706180609060895002454
:105360000A9412161306140605060895092E0394CE
:10537000000C11F4882352F0BB0F40F4BF2B11F442
:1053800060FF04C06F5F7F4F8F4F9F4F089557FDA1
:105390009058440F551F59F05F3F71F04795880FA3
:1053A00097FB991F61F09F3F79F08795089512163A
:1053B00013061406551FF2CF4695F1DF08C01616E6
:1053C00017061806991FF1CF869571056105089497
:1053D0000895E894BB2766277727CB0197F90895AE
:1053E000052E97FB1EF400940E94072A57FD07D054
:1053F0000E94222A07FC03D04EF40C94072A5095F1
:105400004095309521953F4F4F4F5F4F08959095B0
:105410008095709561957F4F8F4F9F4F08950E94A3
:10542000442AA59F900DB49F900DA49F800D911DBF
:1054300011240895B7FF0C940F2A0E940F2A821B93
:10544000930B0895A1E21A2EAA1BBB1BFD010DC0F0
:10545000AA1FBB1FEE1FFF1FA217B307E407F50724
:1054600020F0A21BB30BE40BF50B661F771F881F00
:10547000991F1A9469F760957095809590959B0196
:10548000AC01BD01CF010895A29FB001B39FC0013F
:10549000A39F700D811D1124911DB29F700D811D60
:1054A0001124911D0895EE0FFF1F881F8BBF0790D9
:1054B000F691E02D19946927962769277827872781
:1054C000782708950E94762A0C94B6290E94AF2965
:1054D00058F00E94A82940F029F45F3F29F00C946D
:1054E0009F2951110C94EA290C94A5290E94C729DF
:1054F00068F39923B1F3552391F3951B550BBB2703
:10550000AA2762177307840738F09F5F5F4F220F47
:10551000331F441FAA1FA9F335D00E2E3AF0E0E83E
:1055200032D091505040E695001CCAF72BD0FE2F88
:1055300029D0660F771F881FBB1F2617370748071C
:10554000AB07B0E809F0BB0B802DBF01FF279358D4
:105550005F4F3AF09E3F510578F00C949F290C94D0
:10556000EA295F3FE4F3983ED4F3869577956795F3
:10557000B795F7959F5FC9F7880F911D9695879509
:1055800097F90895E1E0660F771F881FBB1F621728
:1055900073078407BA0720F0621B730B840BBA0BE6
:1055A000EE1F88F7E09508950E94CF2988F09F5755
:1055B00098F0B92F9927B751B0F0E1F0660F771F37
:1055C000881F991F1AF0BA95C9F714C0B13091F02D
:1055D0000E94E929B1E008950C94E929672F782FFA
:1055E0008827B85F39F0B93FCCF3869577956795F2
:1055F000B395D9F73EF490958095709561957F4F5E
:105600008F4F9F4F08950F931F93CF93DF93823057
:10561000910510F482E090E0E0910B06F0910C0609
:1056200030E020E0B0E0A0E0309799F4211531059A
:1056300009F44AC0281B390B24303105D8F58A817A
:105640009B816115710589F1FB0193838283FE01C2
:1056500011C0408151810281138148175907E0F040
:105660004817590799F4109761F012960C93129706
:1056700013961C933296CF01DF91CF911F910F911A
:10568000089500930B0610930C06F4CF21153105F5
:1056900051F04217530738F0A901DB019A01BD010F
:1056A000DF01F801C1CFEF01F9CF90930C06809391
:1056B0000B06CDCFFE01E20FF31F81939193225091
:1056C000310939832883D7CF2091090630910A0602
:1056D000232B41F420910F023091100230930A06DF
:1056E0002093090620910D0230910E0221153105FB
:1056F00041F42DB73EB74091110250911202241B84
:10570000350BE0910906F0910A06E217F307A0F4C1
:105710002E1B3F0B2817390778F0AC014E5F5F4F07
:105720002417350748F04E0F5F1F50930A06409329
:105730000906819391939FCFF0E0E0E09CCFCF9357
:10574000DF930097E9F0FC01329713821282A09157
:105750000B06B0910C06ED0130E020E01097A1F4AB
:1057600020813181820F931F2091090630910A0612
:105770002817390709F061C0F0930A06E09309067B
:10578000DF91CF910895EA01CE17DF07E8F54A814E
:105790005B819E0141155105B1F7E901FB83EA8365
:1057A00049915991C40FD51FEC17FD0761F4808111
:1057B00091810296840F951FE901998388838281E4
:1057C00093819B838A83F0E0E0E012968D919C9117
:1057D00013970097B9F52D913C911197CD01029641
:1057E000820F931F2091090630910A062817390766
:1057F00039F6309751F510920C0610920B06B093C3
:105800000A06A0930906BCCFD383C283408151818D
:10581000840F951FC817D90761F44E5F5F4F8881C9
:105820009981480F591F518340838A819B819383BB
:1058300082832115310509F0B0CFF0930C06E09377
:105840000B069ECFFD01DC01C0CF13821282D7CFA1
:105850004F925F926F927F928F929F92AF92BF9280
:10586000CF92DF92EF92FF920F931F93CF93DF932C
:105870008C01009799F4CB01DF91CF911F910F918B
:10588000FF90EF90DF90CF90BF90AF909F908F9060
:105890007F906F905F904F900C94032BFC01E60F6C
:1058A000F71F9C0122503109E217F30708F4AEC03C
:1058B000D901CD91DC911197C617D70720F1C530DA
:1058C000D10578F0CE0104978617970750F0C61BD4
:1058D000D70B2297C193D1936D937C93CF010E94F4
:1058E0009F2BC801DF91CF911F910F91FF90EF90F7
:1058F000DF90CF90BF90AF909F908F907F906F90F0
:105900005F904F9008955B01AC1ABD0A4C018C0E5C
:105910009D1EA0910B06B0910C06512C412CF12C30
:10592000E12C109731F58091090690910A068815AF
:10593000990509F05CC04616570608F058C08091DA
:105940000D0290910E02009741F48DB79EB74091E1
:10595000110250911202841B950BE817F90708F009
:1059600055C0F0930A06E0930906F901718360833C
:10597000B8CF8D919C91119712966C9012971396B7
:105980007C901397A815B90559F56C0142E0C40E37
:10599000D11CCA14DB0420F1AC014A195B09DA01FD
:1059A0001296159780F06282738251834083D901E9
:1059B0006D937C93E114F10471F0D7011396FC937D
:1059C000EE9312978ECF22968C0F9D1FF901918333
:1059D0008083F301EFCFF0930C06E0930B0681CFA9
:1059E0004816590608F42C017D01D3019ACFCB014A
:1059F0000E94032B7C01009749F0AE01B8010E9480
:105A0000162DC8010E949F2B87016BCF10E000E08C
:105A100068CFFB01DC0104C08D910190801921F455
:105A200041505040C8F7881B990B0895FB01DC01D9
:105A300002C001900D9241505040D8F70895DC010A
:105A400001C06D9341505040E0F70895FB01DC0127
:105A50008D91019080190110D9F3990B0895FB01E4
:105A6000DC0101900D920020E1F7089512E0C7E0FB
:105A7000D2E000E006C0802FFE010E94532A21964A
:105A8000011DC830D10780E00807A9F7F894FFCFBF
:105A90000A00C0DEADBEEFFEED0100000000000D0B
:105AA00006800001005E0000000000000012084CAB
:105AB00011680853034F0350148B0CAC151E107A59
:105AC0000EE6092A18FE0E7A143114610851084DA9
:105AD00008870E4908010200000300000000D205FB
