:100000000C9408020C9439020C9439020C943902B5
:100010000C9439020C9439020C9439020C94390274
:100020000C9439020C9439020C9439020C94390264
:100030000C9439020C9439020C9439020C94390254
:100040000C9439020C9439020C9439020C94390244
:100050000C9439020C9439020C9439020C94EC255E
:100060000C9439020C9460260C9436260C943902B8
:100070000C9439020C9439020C9439020C94390214
:100080000C9439020C9439020C9439020C94390204
:100090000C9439020C9439020C9439020C943902F4
:1000A0000C9439020C9439020C9439020C943902E4
:1000B0000C9439020C9439020C9439020C943902D4
:1000C0000C9439020C9439020C9439020C943902C4
:1000D0000C9439020C9439020C9439020C943902B4
:1000E0000C9439020C94250D0C94880B0C94E0139D
:1000F0000C94DF030C94ED030C94B21A0C945D0580
:100100000C94E9030C9470030C9407200C94E10BFD
:100110000C94510B0C94E3030C94BB050C94281B1A
:100120000C94F1030C948F190C94CB030C9440069F
:100130000C94292D0C94CD150C94670B0C94F3059D
:100140000C94DB030C94F00B0C94E41B0C940B1636
:100150000C9489180C94A70B0C94B70D0C94900B6D
:100160000C9443050C9492180C94FB030C94720BA2
:100170000C9474030C94EB0B0C94D51E0C948A0510
:100180000C94C0150C94ED0B0C9444160C94621E48
:100190000C94BC030C94B7040C94AA030C9499051A
:1001A0000C9474180C9426220C9493240C94C80379
:1001B0000C940E1B0C948C0B0C94A00B0C94E91556
:1001C0000C94D5030C94C0030C9465040C94D103D7
:1001D0000C94691A0C94C4030C947B040C9496261A
:1001E0000C9464170C94DD0B0C94601F0C94CC18C9
:1001F0000C94A5030C94AD050C94F7030C94881A89
:100200000C94DC1F0C94D1130C94422000407A1003
:10021000F35A00A0724E18090010A5D4E80000E8B7
:100220007648170000E40B54020000CA9A3B000015
:1002300000E1F505000080969800000040420F00A4
:100240000000A08601000000102700000000E80365
:10025000000000006400000000000A000000000030
:100260000100000000002C76D888DC674F0823DFEF
:10027000C1DFAE59E1B1B796E5E3E453C63AE651C2
:10028000997696E8E6C28426EB898C9B62ED407CE9
:100290006FFCEFBC9C9F40F2BAA56FA5F490055A85
:1002A0002AF75C936B6CF9676DC11BFCE0E40D47AA
:1002B000FEF520E6B500D0ED902E030094357705CD
:1002C0000080841E080000204E0A000000C80C3385
:1002D0003333330F986E12831141EF8D2114893B14
:1002E000E65516CFFEE6DB18D1844B381BF77C1D94
:1002F000901DA4BBE424203284725E228100C9F1E7
:1003000024ECA1E53D2700000A0B02090C0D0E08A4
:1003100007030401000000000000000000000000CE
:1003200000000000000000000000000000000000CD
:10033000000012111000000000000000000000008A
:10034000000000000000000000000000000022008B
:10035000250028002B002E0031003400020100008F
:10036000050108010B0100002100240027002A00DC
:100370002D003000330001010000040107010A01D3
:1003800005050505070508080808020202020A0A11
:10039000080804040404010101010101010103032F
:1003A000030303030303040707070C0C0C0C0C0CDA
:1003B0000C0C0202020206060606060606060B0BD7
:1003C0000B0B0B0B0B0B0102102020080810204018
:1003D0001020408002010201080402010102040809
:1003E0001020408080402010080402018004020197
:1003F00080402010080402010804020101020408E0
:100400001020408001020408102040809626292DEB
:1004100011241FBECFEFD1E2DEBFCDBF00E00CBF85
:1004200014E0A0E0B2E0ECEAFAE600E00BBF02C0A4
:1004300007900D92A033B107D9F726E0A0E3B4E00E
:1004400001C01D92AB34B207E1F712E0C7E0D2E081
:1004500000E006C021970109802FFE010E94613251
:10046000C630D10780E00807A9F70E94C5270C9481
:1004700044350C94000090E0FC01EA53FC4F2491B9
:1004800080589C4FFC018491882399F090E0880F5C
:10049000991FFC01EA59FC4FA591B491FC01E45B62
:1004A000FC4F859194918FB7F894EC91E22BEC93EB
:1004B0008FBF0895CF93DF93E2ECF5E0EC018A81E2
:1004C0009B81AC81BD81838B948BA58BB68B8BE597
:1004D00097E0908F878BDF91CF91089510921D0642
:1004E0008091CF059091D005DC01ED91FC910488BD
:1004F000F589E02D1994AF92BF92CF92DF92EF92DF
:10050000FF920F931F93CF93DF931F921F92CDB74C
:10051000DEB75C01D12CC12CCA14DB04A0F04091E1
:10052000FB055091FC056091FD057091FE05E09181
:100530001606F091170680911206909113061995F0
:1005400090E080E030C0E0911806F09119068091AB
:1005500014069091150619957B018C011E141F0439
:1005600010061106F4F41A82198260910406709143
:1005700005066C0D7D1DE0911006F09111069E019F
:100580002F5F3F4FA5014C195D0980910C0690919A
:100590000D061995009739F489819A81C80ED91EE4
:1005A000BBCF8CEF9FEF0F900F90DF91CF911F91FA
:1005B0000F91FF90EF90DF90CF90BF90AF90089594
:1005C0008F929F92AF92BF92CF92DF92EF92FF9263
:1005D0000F931F93CF93DF931F921F92CDB7DEB778
:1005E0009C01260F371F40910206509103064217C7
:1005F000530708F44CC05B014C01D12CC12CCA1428
:10060000DB0418F090E080E033C0E0911806F09130
:100610001906809114069091150619957B018C019D
:100620001E141F04100611060CF51A82198260911F
:10063000060670910706C4018C0D9D1D680F791F79
:10064000E0910E06F0910F069E012F5F3F4FA5012E
:100650004C195D0980910C0690910D061995009733
:1006600039F489819A81C80ED91EC9CF8CEF9FEFCA
:100670000F900F90DF91CF911F910F91FF90EF900E
:10068000DF90CF90BF90AF909F908F9008958FEFA5
:100690009FEFEECF8091CF059091D005009711F498
:1006A00080E00895DC01ED91FC910688F789E02D4A
:1006B00019958130A9F780911D06089520E3FC016A
:1006C00020833296862F82958F706F706A3030F457
:1006D000605D6293682F8111F5CF0895695CF9CF51
:1006E000FC01818D928D08950895282F30E0F90145
:1006F000EA5FFC4F9491F901EA53FC4F4491205872
:100700003C4FF9012491222309F435C0992311F1BA
:1007100091509231F8F4E92FF0E08827ED56FC4F24
:100720008F4F0C946132C403C803A503BC03C003FC
:10073000AA03CB03D103D503DB03DF03E303E90300
:10074000ED03AA03F103F703FB03809180008F7789
:1007500080938000E22FF0E0EE0FFF1FE45BFC4F80
:10076000A591B4918FB7F894EC91611148C0409570
:100770004E234C938FBF0895809180008F7DE8CFEA
:1007800080918000877FE4CF84B58F7784BDE2CFEE
:1007900084B58F7DFBCF8091B0008F778093B000C0
:1007A000D9CF8091B0008F7DF9CF809190008F7765
:1007B00080939000CFCF809190008F7DF9CF809172
:1007C0009000877FF5CF8091A0008F778093A00065
:1007D000C1CF8091A0008F7DF9CF8091A000877F4D
:1007E000F5CF809120018F7780932001B3CF809146
:1007F00020018F7DF9CF80912001877FF5CF4E2B8F
:10080000B8CF3FB7F8948091A3049091A404A0912D
:10081000A504B091A60426B5A89B05C02F3F19F0EA
:100820000196A11DB11D3FBFBA2FA92F982F882770
:10083000BC01CD01620F711D811D911D42E0660F4B
:10084000771F881F991F4A95D1F708958F929F921D
:10085000AF92BF92CF92DF92EF92FF926B017C0139
:100860000E9401044B015C01C114D104E104F104B4
:10087000B9F00E940104681979098A099B09683E48
:1008800073408105910580F321E0C21AD108E10887
:10089000F10888EE880E83E0981EA11CB11CE4CFFD
:1008A000FF90EF90DF90CF90BF90AF909F908F9090
:1008B00008952FB7F89460919F047091A0048091DF
:1008C000A1049091A2042FBF0895CF93DF93EC0170
:1008D0004C835D836E837F83E885F985309741F093
:1008E0001995688379838A839B83DF91CF910895DB
:1008F0000E945904F6CFCF92DF92EF92FF920F93AE
:100900001F93CF93DF93EC01E885F985309739F198
:100910001995088119812A813B8160177107820727
:10092000930700F50095109520953095600F711F85
:10093000821F931F0C811D812E813F8168017901E7
:10094000C61AD70AE80AF90AC701B601DF91CF91A2
:100950001F910F91FF90EF90DF90CF9008950E942C
:100960005904D7CF601B710B820B930BE3CF2F92EF
:100970003F924F925F926F927F928F929F92AF922F
:10098000BF92CF92DF92EF92FF920F931F93CF937C
:10099000DF9300D01F92CDB7DEB79A8389836B01B6
:1009A0005C834B831901270138010E9459044B01D4
:1009B0005C01D1011D921C92EB81FC81EF2B89F12E
:1009C0000E945904681979098A099B0964157505FB
:1009D0008605970530F5A981BA818D919C91DC013E
:1009E000ED91FC910288F389E02D4B815C81B60189
:1009F0001995181619069CF160E070E0CB010E9471
:100A00002604A981BA818D919C91DC01ED91FC9124
:100A10000688F789E02D19958111CECF8BEF9FEFD6
:100A200007C0F10180819181892B51F190E080E034
:100A30000F900F900F900F90DF91CF911F910F911A
:100A4000FF90EF90DF90CF90BF90AF909F908F90EE
:100A50007F906F905F904F903F902F900895C80EB9
:100A6000D91ED1012D913C911197280F391F2D933B
:100A70003C93EB81FC81E81BF90BFC83EB839CCF5F
:100A80008CEF9FEFD5CFCF93DF93E901DC018D9100
:100A90009C91DC01ED91FC910280F381E02D199590
:100AA00099838883892B29F090E080E0DF91CF91B2
:100AB00008958AEF9FEFFACF0895AF92BF92CF9239
:100AC000DF92EF92FF920F931F93CF93DF936C010E
:100AD0007B018B01040F151FEB015E01AE18BF08EF
:100AE000C017D10759F06991D601ED91FC910190A1
:100AF000F081E02DC6011995892B79F7C501DF91A9
:100B0000CF911F910F91FF90EF90DF90CF90BF900A
:100B1000AF900895FC01538D448D252F30E0842F34
:100B200090E0821B930B541710F0CF960895019715
:100B30000895FC01918D828D981761F0A28DAE0F02
:100B4000BF2FB11D5D968C91928D9F5F9F73928F89
:100B500090E008958FEF9FEF0895FC01918D828DB5
:100B6000981731F0828DE80FF11D858D90E0089582
:100B70008FEF9FEF0895FC01918D228D892F90E0DA
:100B8000805C9F4F821B91098F739927089580EE97
:100B900094E00E94BB0521E0892B09F420E0822F1C
:100BA0000895FC01A48DA80FB92FB11DA35ABF4F02
:100BB0002C91848D90E001968F739927848FA6895C
:100BC000B7892C93A089B1898C91837080648C93B0
:100BD000938D848D981306C00288F389E02D80815F
:100BE0008F7D80830895EF92FF920F931F93CF9391
:100BF000DF93EC0181E0888F9B8D8C8D98131AC058
:100C0000E889F989808185FF15C09FB7F894EE893E
:100C1000FF896083E889F98980818370806480839B
:100C20009FBF81E090E0DF91CF911F910F91FF90E6
:100C3000EF900895F62E0B8D10E00F5F1F4F0F738E
:100C40001127E02E8C8D8E110CC00FB607FCFACF49
:100C5000E889F989808185FFF5CFCE010E94D10511
:100C6000F1CFEB8DEC0FFD2FF11DE35AFF4FF0821A
:100C70009FB7F8940B8FEA89FB8980818062CFCF80
:100C8000CF93DF93EC01888D8823B9F0AA89BB89C3
:100C9000E889F9898C9185FD03C0808186FD0DC0AE
:100CA0000FB607FCF7CF8C9185FFF2CF808185FFCF
:100CB000EDCFCE010E94D105E9CFDF91CF9108950C
:100CC00080E090E0892B29F00E94C70581110E94E5
:100CD000000080E090E0892B49F080E090E0892BD3
:100CE00029F00E94000081110E94000080E090E045
:100CF000892B49F080E090E0892B29F00E940000C8
:100D000081110E94000080E090E0892B49F080E092
:100D100090E0892B29F00E94000081110C940000C2
:100D200008950F931F93CF93DF93EC01B0E0A0E001
:100D3000E881F9818D010F5F1F4FCB018E1B9F0B47
:100D40008017910758F1822F8F7797E05695479536
:100D5000379527959A95D1F721153105410551050C
:100D600009F08068EA0FFB1F8083211531054105DA
:100D7000510569F488819981800F911F9983888337
:100D800090E080E0DF91CF911F910F910895D801FD
:100D90000430110569F68EEF9FEFF4CF8FEF9FEFD0
:100DA000F1CF4F925F926F927F929F92AF92BF92DC
:100DB000CF92DF92EF92FF920F931F93CF93DF9327
:100DC0006C018A01DA011D921D921D921C921397EB
:100DD000DC01ED91FC917B01EE1AFF0A5F01D0E08E
:100DE000C0E0412C512C320143942196EC16FD06B3
:100DF000E0F1C530D105E1F1D5019D905D01A92D4E
:100E0000AF77B0E0A30192010E941D32D8012D916D
:100E10003D914D915C911397260F371F481F591F25
:100E20002D933D934D935C93139787E0440C551C91
:100E3000661C771C8A95D1F797FCD7CFEC0FFD1F66
:100E4000D601ED93FC9390E080E0DF91CF911F916C
:100E50000F91FF90EF90DF90CF90BF90AF909F9059
:100E60007F906F905F904F9008958FEF9FEFEDCF41
:100E70008EEF9FEFEACFFA01603871058105910589
:100E800038F481E090E09183808390E080E00895E1
:100E9000611520E472078105910518F482E090E065
:100EA000F2CF6F3F2FEF72072FE18207910518F401
:100EB00083E090E0E8CF6F3F7F4F8F4F9F4018F463
:100EC00084E090E0E0CF118210828EEF9FEF0895D2
:100ED000FC01A081B181A617B70729F4DA011C92A1
:100EE0008FEF9FEF08958C91DA018C93808191812F
:100EF00001969183808390E080E00895FC01A081B9
:100F0000B1816A1B7B0B6230710568F05C93A08134
:100F1000B18111964C938081918102969183808357
:100F200090E080E008958FEF9FEF0895AF92BF9219
:100F3000CF92DF92EF92FF920F931F93CF93DF93A5
:100F40001F921F92CDB7DEB77C01E60EF71EE1E0DF
:100F5000F0E02630310511F0F0E0E0E0EE0FFF1F89
:100F600074E0220F331F7A95E1F7E22BE816F906B9
:100F700069F16A015C01DC01ED93BA83A98322E087
:100F800030E040E050E0B701CE0101960E949106AA
:100F9000009779F4A801B701CE0101960E947E075F
:100FA000009739F429813A812A193B09F6013183E6
:100FB00020830F900F90DF91CF911F910F91FF90A1
:100FC000EF90DF90CF90BF90AF9008958FEF9FEF9D
:100FD000F0CFCF93DF93DC01ED91FC9111976E1B65
:100FE0007F0B6230710540F4EA01198218828FEF9D
:100FF0009FEFDF91CF910895208130E0322F22279B
:101000009181290F311DEA01398328833296ED93AE
:10101000FC9390E080E0EDCFAF92BF92CF92DF9251
:10102000EF92FF920F931F93CF93DF9300D000D0E6
:101030001F92CDB7DEB75A0169019E838D837C0173
:10104000E60EF71E1F82AE01495F5F4FB701CE016A
:1010500005960E946807009749F52F81822F807FAF
:1010600090E034E0959587953A95E1F78A159B05D0
:1010700071F523FB222720F9F6012083AE014F5F93
:101080005F4FB701CE0105960E94D106009771F41B
:1010900089819A81AB81BC810297A105B105D1F408
:1010A000A801B701CE0105960E94E90727960FB661
:1010B000F894DEBF0FBECDBFDF91CF911F910F918E
:1010C000FF90EF90DF90CF90BF90AF90089587EFA3
:1010D0009FEFECCF88EF9FEFE9CF2F923F924F9297
:1010E0005F926F927F928F929F92AF92BF92CF92B8
:1010F000DF92EF92FF920F931F93CF93DF93CDB7C1
:10110000DEB766970FB6F894DEBF0FBECDBF3C01C9
:101110007E8B6D8B1A01F12CE12CF3011182108270
:1011200061E070E090E080E00E94E0028C3FFFEF21
:101130009F0709F420C1009709F05AC06091060684
:1011400070910706F301118210827A8369836F5FC1
:101150007F4FAE01485F5F4FCE0101960E94680746
:10116000009709F045C08885807F90E034E0959530
:1011700087953A95E1F7F301918380838930910552
:1011800079F04CF40297069758F0F301118210821F
:1011900087EF9FEF2DC08B30910511F00D97A9F7C8
:1011A00019821A821B821C8210E000E02801FFEFE6
:1011B0004F1A5F0A61E070E0C2010E94E0020097EE
:1011C000B9F460910606709107066F5F7F4F7987CB
:1011D0006887640D751DAE014F5F5F4FCE010896A5
:1011E0000E94D1068E3F2FEF9207D9F489EF9FEF2F
:1011F00066960FB6F894DEBF0FBECDBFDF91CF91DC
:101200001F910F91FF90EF90DF90CF90BF90AF9024
:101210009F908F907F906F905F904F903F902F9016
:1012200008950097C9F469817A818B819C814B0173
:1012300020911A0621111AC06115710581059105C9
:1012400009F091C089809A80FFEF8F1A9F0A8E0C57
:101250009F1C840C951C35C019821A821B821C822B
:1012600082018F3F980709F4A1CFC2CF98012E5F6A
:101270003F4F5B016C01A20EB31EC11CD11C20911B
:1012800002063091030650E040E02A153B054C056C
:101290005D0590F68114910489F5F30111821082A5
:1012A000E0911B06F0911C06309759F080819181E6
:1012B000A281B3810196A11DB11D80839183A28378
:1012C000B383F30180819181009709F491C1853046
:1012D000910509F43AC108F050C0039709F457C0CA
:1012E0002114310409F47BC1F30180819181281616
:1012F000390609F080C190E080E07ACFE0911806CD
:10130000F0911906809114069091150619957B01AC
:101310008C011E141F041006110614F540910206DC
:10132000509103068416950608F4A40119861886C0
:101330006091060670910706E0910E06F0910F0687
:101340009E01285F3F4F80910C0690910D061995E4
:10135000009709F04DCF88859985881A990A9ACF08
:101360008CEF9FEF45CFC80102960E94E0020097E4
:1013700009F468CF3DCF4701A4CF8630910509F429
:1013800010C10D9709F0ACCF1092FF05A9CF809145
:10139000020690910306E0900606F0900706FF868D
:1013A000EE86E80EF91EAE01405F5F4FB701CE0139
:1013B0000E960E946807009709F01ACF8889982F27
:1013C000907F903309F0E4CE982F91709B838670C4
:1013D00090E095958795813009F49AC0512C412C65
:1013E000823019F492E0492E512CAE01485F5F4FD4
:1013F000B701CE010E960E94D106009709F0F8CEF3
:10140000488559856A857B8542305105610571059E
:1014100008F498C00E851F85E01AF10AC701FF0C79
:10142000AA0BBB0B84179507A607B70708F4DDC006
:10143000040F151FAE01445F5F4FB801CE010E9639
:101440000E94E907009709F0D3CE2C853D85211530
:10145000310509F061C01C8A1B8A3A8B298B411423
:10146000510409F469C0AE01445F5F4FB801CE0179
:101470000E960E94E907009709F0BACE8E859F85E7
:10148000081B190B1F830E83012B09F058C01D8206
:101490001C82E0910806F09109063097A1F0609156
:1014A0000A0670910B06A42C5A824982BA80CB801E
:1014B000DC80ED80FE800F8129893A894B895C8927
:1014C00089EF95E019954114510409F409CF24E0FE
:1014D00030E04A94452811F025E030E00C851D8568
:1014E0006091000670910106AE01485F5F4F8091E8
:1014F0000406909105060E949607009709F078CEA1
:10150000888599850E947B02009709F4E9CE70CE08
:1015100044244394512C69CF8E859F85A801481B94
:10152000590B4217530708F460C09C8B8B8B820FBA
:10153000931F9F878E8791CF1D861C869FCF9D838B
:101540008C83A7CF88EF9FEF53CE609102067091F6
:1015500003068E01085F1F4F9E01245F3F4F45E049
:1015600050E080910606909107060E940C080097B3
:1015700009F03ECE0885198560910006709101063C
:1015800026E030E0AE014F5F5F4F809104069091FE
:1015900005060E949607009709F02ACE89819A8154
:1015A000B1CF60910206709103068E01085F1F4F54
:1015B0009E01245F3F4F46E050E0809106069091E7
:1015C00007060E940C08009709F012CE08851985BD
:1015D000609100067091010627E030E0D3CF8D893D
:1015E0009E89892B09F080CE86CE8FEF9FEF00CEAB
:1015F00021143104A1F3E0911806F09119068091AD
:101600001406909115061995161617061806190650
:101610000CF071CEED89FE89309721F08E169F0671
:1016200008F069CE740179CDFC0120812EBD9B01AB
:101630002150310941F051810DB407FEFDCF4EB567
:101640005EBD4193F5CF61507109860F971F0DB4B0
:1016500007FEFDCF2EB5FC0120830895E0913204F2
:10166000F0913304808190913104892B8083089517
:10167000E0913204F091330490818091310480959F
:1016800089238083089590E02091DF04233339F487
:101690000C96982F990F990F990F80E0089548960E
:1016A000F8CFCF93DF931F92CDB7DEB76983DC010C
:1016B000ED91FC910280F381E02D41E050E0BE010C
:1016C0006F5F7F4F19950F90DF91CF910895FC01C7
:1016D0009485FB018485981303C081E0983008F05D
:1016E00080E00895CF93DF931F92CDB7DEB7698373
:1016F000DC01ED91FC910280F381E02D41E050E0AE
:10170000BE016F5F7F4F19950F90DF91CF910895C4
:10171000FC01848595850895FC0184899589089547
:101720002DE932E0FC0131832083FB01408951899E
:1017300062897389FC0142835383648375830895AE
:10174000DC01ED91FC91048CF58DE02D199490E075
:1017500080E00895CF93CFB7F89480913004811141
:1017600024C0E5EBF3E08491EBEFF3E09491E82FF4
:10177000F0E0EE0FFF1FEA59FC4FA591B491EC91F8
:10178000E92321F461E085E30E94750385E30E946B
:101790003B028CB580618CBD8CB580648CBD84E3CC
:1017A0000E943B0283E30E943B02809130048F5FE2
:1017B00080933004CFBFCF910895FC017687658771
:1017C0000895DC01ED91FC91068CF78DE02D1995C3
:1017D00091E089270895862F089581E0862708954E
:1017E00021E0FC018485883008F020E0822F0895F4
:1017F00008958EBD00000DB407FEFDCF8EB508958F
:10180000AF92BF92CF92DF92EF92FF920F931F930E
:10181000CF93DF9300D000D01F921F92CDB7DEB7D9
:101820008C017B016A018091DF048333E1F458016C
:10183000A40EB51EA016B10609F46FC00E94380BA5
:1018400080EF0E94F90B812F0E94F90B802F0E94DC
:10185000F90B0F5F1F4FF70181917F010E94F90B78
:101860000E942E0BE7CF5B01A40EB51E8433C1F49A
:101870000E94380B19830A838D2D80688B83CC825C
:1018800064E070E0CE0101960E94140BAE14BF0418
:1018900009F441C0F70181917F010E94F90BF6CF55
:1018A0000E94380B0F3F110509F028F419820A83B2
:1018B00084E08B830CC017FD17C019820A8333E0C4
:1018C000169507953A95E1F7007E0C600B8386E04C
:1018D000C816D104A0F5F701DE011496EA15FB0540
:1018E00099F081918D93FACFC80126E0969587955E
:1018F0002A95E1F7807E19830A830115104C10F4B4
:101900008461D7CF8C61D5CFB6016D5F7F4FCE019B
:1019100001960E94140B0E942E0BC60128960FB64A
:10192000F894DEBF0FBECDBFDF91CF911F910F9115
:10193000FF90EF90DF90CF90BF90AF90089563E05D
:1019400070E0CE0101960E94140BF70181917F0196
:101950000E94F90BAE14BF04C1F7DDCFCF93DF9324
:101960001F92CDB7DEB7898341E050E0BE016F5FC3
:101970007F4F90E080E00E94000C0F90DF91CF91AC
:101980000895DA01E0913404F0E0FE2FEE27E60F2F
:10199000F71F90E0982F8827A901BD018E0F9F1F88
:1019A0000C94000CCF93DF931F921F92CDB7DEB73C
:1019B00079836A8322E030E0AE014F5F5F4F60E1E0
:1019C00070E00E94C10C0F900F90DF91CF910895AD
:1019D000CF93DF931F921F92CDB7DEB779836A83CF
:1019E00022E030E0AE014F5F5F4F64E070E00E94A4
:1019F000C10C0F900F90DF91CF910895CF93DF939B
:101A00001F92CDB7DEB72091340430E0322F222769
:101A1000260F371F90E0982F8827498341E050E038
:101A2000BE016F5F7F4F820F931F0E94000C0F90CB
:101A3000DF91CF91089544E050E0BC018FE090E049
:101A40000C94000C8CBD9DBD0895FF920F931F93C5
:101A5000CF93DF93EB01FC01178A168A2A812111AB
:101A600009C02B81211106C02C81211103C02D81B9
:101A7000222301F141155105E9F08A01FC01F08CA6
:101A800080E591E00E94220DAE014E5F5F4F24E0A1
:101A900030E06CE070E08F2D0E94C10CB8018F2DFA
:101AA0000E94D20C81E090E0DF91CF911F910F91C5
:101AB000FF90089580E0F7CFFB0101900020E9F747
:101AC0003197AF01461B570BDC01ED91FC91028071
:101AD000F381E02D19948F929F92AF92BF92EF9273
:101AE000FF920F931F93CF93DF93CDB7DEB7A197EC
:101AF0000FB6F894DEBF0FBECDBF7C01FA01CB015B
:101B000019A2223008F42AE08E010F5D1F4F822EA9
:101B1000912CB12CA12CBF01A50194010E9430325F
:101B2000F901CA016A300CF5605DD8016E938D0130
:101B3000232B242B252B79F790E080E0109721F0C0
:101B4000BD01C7010E945C0DA1960FB6F894DEBFDF
:101B50000FBECDBFDF91CF911F910F91FF90EF90FE
:101B6000BF90AF909F908F900895695CDECF8F9269
:101B70009F92AF92BF92CF92DF92EF92FF920F931C
:101B80001F93CF93DF937C01EB016C0182E0C80EC1
:101B9000D11C4701E5E08E0E911C10E000E0F6013B
:101BA00041916F0150E070E060E02AE0CE010E94B8
:101BB0006B0D5C01E881F9810190F081E02D6EE20E
:101BC000CE0119958A0D9B1D080F191FC814D90441
:101BD00031F7F701458150E070E060E02AE0CE0186
:101BE0000E946B0D800F911FDF91CF911F910F917C
:101BF000FF90EF90DF90CF90BF90AF909F908F902D
:101C00000895CF93DF93D0E0C0E0009731F0BC019E
:101C100080EE94E00E945C0DEC016FE972E080EED2
:101C200094E00E945C0D8C0F9D1FDF91CF91089571
:101C3000DC0160E070E0CB01109709F40895FD012C
:101C400001900020E9F73197EA1BFB0BB9F3BF01C4
:101C5000CD010895DC018DE992E08D939D9384E0A0
:101C6000FB0101900D928A95E1F708950F931F9360
:101C7000CF93DF93EC012115310591F08881998193
:101C8000681B790B6217730790F08901BA01A901EB
:101C90000E94243528813981200F311F3983288300
:101CA00090E080E0DF91CF911F910F9108958FEF29
:101CB0009FEFF8CFCF92DF92EF92FF920F931F9397
:101CC000CF93DF93EC018B0169017A01A9010E9496
:101CD0007E07009771F49601A701B801CE01DF914C
:101CE000CF911F910F91FF90EF90DF90CF900C94C8
:101CF000360EDF91CF911F910F91FF90EF90DF9003
:101D0000CF9008952F923F924F925F926F927F9261
:101D10008F929F92AF92BF92CF92DF92EF92FF92FB
:101D20000F931F93CF93DF9300D01F921F92CDB7D5
:101D3000DEB78C01FB01C080D180F601019000204C
:101D4000E9F731977F01EC18FD080E944A038D8363
:101D5000882309F475C08090CB059090CC05A090A5
:101D6000CD05B090CE05C8010E94180E2B013C0194
:101D7000E0911606F0911706B501A40180911406B2
:101D8000909115061995009100061091010620907A
:101D90000406309005063C822B82020D131DC20101
:101DA00002964701B12CA12C880E991EA11CB11CD2
:101DB000AE014F5F5F4FC501B4010E943B07029621
:101DC000C1F1EB81FC81E017F10709F452C080E317
:101DD00080838B819C8101969C838B83A5019401D8
:101DE000B801CE0103960E9491060097D1F4A30199
:101DF0009201B801CE0103960E945A0E009789F411
:101E00009701A601B801CE0103960E94360E0097F5
:101E100041F48B819C81821993090E947B02009777
:101E200059F090932106809320060E946E021D8235
:101E300007C089EF9FEFF5CF109221061092200680
:101E40008D810F900F900F900F900F90DF91CF9199
:101E50001F910F91FF90EF90DF90CF90BF90AF90C8
:101E60009F908F907F906F905F904F903F902F90BA
:101E700008958FEF9FEFD5CF2F923F924F925F92B1
:101E80006F927F928F929F92AF92BF92CF92DF928A
:101E9000EF92FF920F931F93CF93DF93CDB7DEB7EF
:101EA000EB970FB6F894DEBF0FBECDBF82EA92E08B
:101EB0000E94010E26E0822E912C37EF232E332430
:101EC0003A940E944A0381110E946E028091CF05CC
:101ED0009091D0059093E4058093E3056091D1053E
:101EE0007091D2054091D9055091DA05DC01ED9150
:101EF000FC9161157105D1F00088F189E02D1995EB
:101F00001816190654F18DEF9FEF909321068093D8
:101F100020066EEA72E080EE94E00E945C0D68EEAE
:101F200073E080E090E00E942604CBCF0684F78522
:101F3000E02D2DE932E038A32F8F0091D5051091C7
:101F4000D6052091D7053091D80509A31AA32BA354
:101F50003CA3BE01615E7F4FD2CF8FE0E3E1F2E0B0
:101F6000DE015F9601900D928A95E1F7A090C80579
:101F7000B090C9053091CA053AAF80EB92E00E945B
:101F8000180E6F8F78A389A39AA34091CB05509127
:101F9000CC056091CD057091CE05E090DB05F09009
:101FA000DC05BCA2ABA28AAD8DA38FE0FE017F96BB
:101FB000DE01509601900D928A95E1F7E0911606A8
:101FC000F0911706809114069091150619959501C8
:101FD000A8EEB3E00E945232AB01BC014093FB0576
:101FE0005093FC056093FD057093FE05E091160685
:101FF000F091170680911206909113061995109290
:10200000FF0590921F0680921E0600910006109117
:102010000106C0900406D09005068FE0FE01709680
:10202000DE01119601900D928A95E1F74888598852
:10203000DBAACAAA0C0D1D1D92E0490E511C712C81
:10204000612CAAE04A0E511C611C711CE114F104C0
:1020500061F0F7018081918127813085820F931F84
:102060000496480E591E611C711CAE01425D5F4F03
:10207000C301B2010E943B07029609F408C1EAA914
:10208000FBA9E017F10709F4D5C280E180838AA992
:102090009BA901969BAB8AABA3019201B801CE012B
:1020A000C2960E949106009709F0ECC085EB92E081
:1020B0000E94180E9B01AC01B801CE01C2960E948D
:1020C0005A0E009709F0DEC0EAA9FBA9E017F10754
:1020D00009F4B0C284E08083EAA9FBA99F012F5FC5
:1020E0003F4F3BAB2AAB8AAD482F50E0440F551F02
:1020F000842FE114F10489F0D70114968C91149780
:10210000880F880F880F4460842B8F7D16964C9122
:10211000B0E24B9FA0011124842B2017310709F452
:1021200089C281838AA99BA901969BAB8AABA50131
:10213000B801CE01C2960E947E07009709F0A2C0A6
:1021400029813A814B815C81B801CE01C2960E94FF
:102150005A0E009709F096C0E114F10409F06EC020
:102160008AA99BA98C199D090E947B02009709F0FE
:1021700089C01DAA1CAA42E050E070E060E0CE01D8
:10218000C4960E946D08009709F07CC08CA99DA997
:10219000029709F075C180910206909103060091A3
:1021A0000606109107061BAB0AAB080F191FAE01FC
:1021B000475C5F4FB801CE01C2960E946807009746
:1021C00009F060C089AD807F803209F053C1AE0153
:1021D000425D5F4FB801CE01C2960E94D1060097C2
:1021E00009F050C08EA59FA5A8A9B9A90297A1057D
:1021F000B10509F03CC1AE01485C5F4FB801CE01AA
:10220000C2960E9468070097E9F5AE014A5C5F4FED
:10221000B801CE01C2960E946807009799F58EA971
:10222000823009F41BC1B0F58823F1F1813009F443
:102230000EC190921F0680921E063AC0F7012081BF
:10224000318142815381B801CE01C2960E945A0E5B
:102250000097C1F4D70117964D915C91B801CE015A
:10226000C2960E947E07009769F4F70127813085A6
:1022700041855285B801CE01C2960E94360E009764
:1022800009F46ECF9093210680932006FDC089EF5C
:102290009FEFF8CF843009F4E7C008F4E2C085303E
:1022A00041F685E090E0D5C010921F0610921E0600
:1022B00080911E0690911F06892B09F0DEC01092B6
:1022C00021061092200681E080931D068AEB92E0A1
:1022D0000E94010E67EC72E080EE94E00E945C0DBB
:1022E0008DED92E00E94010E0E944A03882309F4BA
:1022F000E3C0C090CB05D090CC05E090CD05F09028
:10230000CE058DED92E00E94180E4B015C01E0912C
:102310001606F0911706B701A60180911406909158
:1023200015061995C090F905D090FA05FFEFCF1664
:10233000DF0609F0ACC021E030E03093FA052093CD
:10234000F905CC24C394D12CE0900006F09001064E
:1023500080910406909105069BAF8AAF9FA78EA738
:10236000E80EF91E140193E0290E311C512C412C6A
:10237000A2E02A0E311C411C511CAE01415E5F4F90
:10238000C201B1010E943B07029609F488C0EEA584
:10239000FFA5EE15FF0509F450C182E880838EA5E4
:1023A0009FA501969FA78EA7A2019101B701CE011B
:1023B0008E960E9491068C01892B09F007C1A60117
:1023C000B701CE018E960E947E078C01892B09F001
:1023D000FDC0A5019401B701CE018E960E945A0E50
:1023E0008C01892B09F0F2C0EEA5FFA5EE15FF05C3
:1023F00009F423C110828EA59FA50196EAADFBAD1D
:102400008E1B9F0B0E947B028C01892B09F0DEC082
:102410001FAA1EAA49E050E070E060E0CE01C69617
:102420000E946D088C01892B09F0D0C08EA99FA94C
:10243000099709F447C00FB6F894DEBF0FBECDBFB1
:1024400087EF9FEF909321068093200633C081E0B1
:1024500090E090931F0680931E062ACF82E090E0C2
:10246000F8CF83E090E0F5CF84E090E0F2CF88EF02
:102470009FEF08CF87EF9FEF05CF86EF9FEF02CF4B
:1024800030922106209220060E946E0242CD3FEF3C
:10249000C31AD30AD092FA05C092F90555CF0FB6E8
:1024A000F894DEBF0FBECDBF29EF3FEF309321067A
:1024B000209320060E946E0263E280EE94E00E9468
:1024C000F30512CF8091020690910306E090060674
:1024D000F0900706FBAAEAAAE80EF91EAE01475CD7
:1024E0005F4FB701CE01C2960E9468078C01892B0D
:1024F00009F06CC089AD807F803909F09CCFAE01B6
:10250000415E5F4FB701CE01C2960E94D1068C0199
:10251000892B09F05BC08F8D98A1A9A1BAA103975F
:10252000A105B10540F40FB6F894DEBF0FBECDBFD4
:1025300088EF9FEF87CFAE014C5C5F4FB701CE01B4
:10254000C2960E94E9078C01892B09F03FC04E0119
:102550003EE2830E911C6401B12CA12C8F8D98A1B9
:102560000297A816B9061CF090E080E05CC082E0FB
:10257000A816B10441F1AE01485C5F4FB701CE012E
:10258000C2960E946807009701F588AD8130A9F0D6
:1025900050F0E2E0F0E0823011F0E0E8F0E0D60147
:1025A000ED93FC9303C0D6011D921C92FFEFAF1A6E
:1025B000BF0A22E0C20ED11CD1CF21E030E0F601EB
:1025C00031832083F3CF84EF9FEF8C010FB6F89413
:1025D000DEBF0FBECDBF1093210600932006012B56
:1025E00009F068CFEB960FB6F894DEBF0FBECDBFF3
:1025F000DF91CF911F910F91FF90EF90DF90CF90DF
:10260000BF90AF909F908F907F906F905F904F9012
:102610003F902F900895D4012D913D914D01203888
:10262000310529F001968A159B05A9F7CFCF05EF53
:102630001FEFCCCF8FEF9FEF25CE0FEF1FEFC6CF51
:10264000AF92BF92CF92DF92EF92FF920F931F93C0
:10265000CF93DF9300D01F92CDB7DEB78C016B0113
:102660007A018091DF048333E9F45B016801C40ED1
:10267000D51EC016D106A9F10E94380B8FE00E942A
:10268000F90B812F0E94F90B802F0E94F90B0F5F2D
:102690001F4F80E00E94F90BF50181935F010E94BA
:1026A0002E0BE7CF843369F50E94380B19830A8318
:1026B0008F2D8F778B83EC8264E070E0CE010196E2
:1026C0000E94140BA70170E060E0C6010E942D3546
:1026D000E114F10421F0B701C6010E94140B0E941D
:1026E0002E0BC7010F900F900F900F90DF91CF919D
:1026F0001F910F91FF90EF90DF90CF90BF90AF9020
:1027000008950E94380B0F3F110509F030F419822B
:102710000A831B8263E070E0D1CF17FD0BC01982E2
:102720000A8333E0169507953A95E1F7007E086035
:102730000B83F0CFC80126E0969587952A95E1F79F
:10274000807E19830A830115104C18F480618B83F5
:10275000E1CF8861FCCF1F93CF93DF931F92CDB75A
:10276000DEB7182F80E591E00E94220D812F0E9494
:10277000430B27E0129FF0011124E955FB4F228102
:102780003381377041E050E0BE016F5F7F4F820FB1
:10279000931F0E94201389810F90DF91CF911F9189
:1027A0000895FC01808D883040F4218D328D232BDB
:1027B00021F00E94AB1390E008958FEF9FEF0895F2
:1027C000CF93DF93FC012485283028F08FEF9FEF13
:1027D000DF91CF910895EC010190F081E02D00840C
:1027E000F185E02D1995892B89F38C850E94AB1317
:1027F00090E0EECFCF93DF931F92CDB7DEB741E0ED
:1028000050E0BE016F5F7F4F0E94201389810F90BF
:10281000DF91CF91089590E080E00C94FA13CF936C
:10282000DF93C4E1D0E00E940B14882361F061E0E3
:1028300070E080E090E00E9426042197A1F780E0FC
:10284000DF91CF91089581E0FBCF1F93CF93DF936A
:102850001F921F92CDB7DEB7809135048111CFC092
:1028600060E372E080E090E00E9426040E94AA0BE0
:1028700080910002282F30E0F901E058FC4FE491EC
:10288000F0E0EE0FFF1FE45BFC4F45915491509335
:10289000330440933204F901EA53FC4FE491E0938E
:1028A00031040E943B020E942E0B80E591E00E94C1
:1028B000220D84E38093DF0480E80E94AE0C0E9426
:1028C0000F14882391F188E00E94AE0C0E940B1433
:1028D000883059F580E10E94AE0C0E940B148031C3
:1028E00021F580E00E94AE0C0E940B14182F81117C
:1028F0001CC08FE190E00E94FA138330B1F480E4B1
:102900008093340442E06EE170E0812F0E94FE0C5F
:1029100042E06FE170E0812F0E94FE0C1F5F1830D3
:1029200089F781E08093350464C087E38093DF04F6
:1029300080E80E94AE0C0E940F148823F9F088E012
:102940000E94AE0C0E940B148830C1F480E10E94FA
:10295000AE0C0E940B14182F803181F480E00E948D
:10296000AE0C0E940B14811109C089E390E00E9413
:10297000FA13843019F410933404D3CF83E3809393
:10298000DF0480E80E94AE0C0E940F14882371F1CE
:1029900080E10E94AE0C0E940B14803139F582E177
:1029A0000E94AE0C0E940B14823101F580E00E945F
:1029B000AE0C0E940B14811119C084E08093340482
:1029C00015E51A8341E050E0BE016E5F7F4F8BE159
:1029D00090E00E94000C198341E050E0BE016F5F5F
:1029E0007F4F8AE190E00E94000C9BCF1092DF04A1
:1029F00080E00F900F90DF91CF911F91089581E0BB
:102A0000F8CFCF92DF92EF92FF920F931F93CF9365
:102A1000DF93CDB7DEB7E0970FB6F894DEBF0FBEF9
:102A2000CDBFFB01DC0112964D915D916D917C91C2
:102A300015974DA75EA76FA778AB31E038AB8DA592
:102A40009EA5AFA5B8A98B8F9C8FAD8FBE8FC2807E
:102A5000D380E480F5808DE992E09C8B8B8B2FEF07
:102A60002D8B2E8B2F8B188E9E878D873E8F0B8DF7
:102A70001C8D2D8D3E8D0F87188B298B3A8BC98627
:102A8000DA86EB86FC869A8389834B835C836D832D
:102A90007E830E942514882371F180E591E00E94D5
:102AA000220D46E050E063E072E089E090E00E9491
:102AB000000CCE0103960E941B0D44E050E0BE01C5
:102AC000615F7F4F81E090E00E94000C44E050E0A5
:102AD000BE016B5E7F4F85E090E00E94000C89850F
:102AE0009A85AB85BC858093AF059093B005A09384
:102AF000B105B093B205E0960FB6F894DEBF0FBEF5
:102B0000CDBFDF91CF911F910F91FF90EF90DF909C
:102B1000CF9008952091340430E0322F2227620FA5
:102B2000731F90E0982F8827860F971F0C94FA1335
:102B3000CF93C82F462F61E070E00E94FE0C61E049
:102B400070E08C2F0E948A158111F9CFCF910895E2
:102B5000CF93C82F80E591E00E94220D68E070E0DD
:102B60008C2FCF910C949815CF93C82F80E591E0CE
:102B70000E94220D60E170E08C2FCF910C9498158B
:102B8000CF93DF93EC01888D883020F40E94B41538
:102B900088E0888FDF91CF910895CF93FC01C08D9D
:102BA00080E591E00E94220D60E270E08C2F0E948F
:102BB000981581E090E0CF910895CF93C82F80E5DC
:102BC00091E00E94220D63E070E08C2FCF910C9475
:102BD0008A15CF93DF93EC018C858830D0F40E9466
:102BE000DD15843189F0882379F0883169F021E09E
:102BF0008C3159F4E881F9810084F185E02DCE0112
:102C0000199521E0892B09F420E0822FDF91CF91E3
:102C1000089580E0FBCFCF92DF92EF92FF92CF93A7
:102C2000DF93EC018C85883068F40E94A8150E941F
:102C300059046B017C018C850E94DD15811109C04E
:102C400088E08C87DF91CF91FF90EF90DF90CF905D
:102C5000089561E070E080E090E00E9426040E9408
:102C60005904AB01BC014C195D096E097F098D85C2
:102C70009E85B0E0A0E0481759076A077B07D8F2A5
:102C80008C850E94B415DCCFCF93FC01C08D80E50C
:102C900091E00E94220D60E270E08C2F0E94981556
:102CA00062E070E08C2F0E948A1584FD16C062E0FD
:102CB00070E08C2F0E948A1583FF0AC048E162E011
:102CC00070E08C2F0E94FE0C80E090E0CF91089580
:102CD00080E591E00E94220DE3CF40E162E070E0E8
:102CE0008C2F0E94FE0C81E0F0CFDA01E0913404D9
:102CF000F0E0FE2FEE27E60FF71F90E0982F8827D1
:102D0000A901BD018E0F9F1F0C9420138F929F92DB
:102D1000AF92BF92CF92DF92EF92FF920F931F93E9
:102D2000CF93DF93CDB7DEB760970FB6F894DEBFD1
:102D30000FBECDBF7C019091DF04911115C018E04A
:102D4000812F60960FB6F894DEBF0FBECDBFDF9126
:102D5000CF911F910F91FF90EF90DF90CF90BF9098
:102D6000AF909F908F90089508E0933309F404E0AA
:102D70006B0180E591E00E94220D9E012F5F3F4F85
:102D80005901490110E063E070E0812F0E948A152B
:102D9000F40181934F018823C1F01F5F0113F3CF2A
:102DA00000E0F50181915F018D3149F0883139F002
:102DB0008A51823020F00F5F1013F3CFC0CF60E153
:102DC00070E0802F0E949815102FA12EB12C83EE59
:102DD00093E00197F1F742E870E060E0812F0E94F4
:102DE000FE0C4FEF62E070E0812F0E94FE0CB601F6
:102DF000C114D10491F480910102909102020196D4
:102E00008115F0EC9F0708F45CC090930202809358
:102E100001026091010270910202812F0E94E80C70
:102E200086E0E2E2F2E0DE01199601900D928A95C9
:102E3000E1F7F70183818F778C8784818D87858186
:102E40008E87A7014E5F5F4F24E030E06CE070E0BA
:102E5000812F0E94C10CB601812F0E94D20C26E066
:102E600030E0AE01475F5F4F66E070E0812F0E9467
:102E7000C10C61E070E0812F0E94981527E02A9D27
:102E8000C0012B9D900D11249C0129553B4F7901C8
:102E9000F9011182108222E030E0AE01415F5F4F04
:102EA00068E270E0812F0E9475168F8598899827B7
:102EB00089279827F70193838283168215821482CB
:102EC0003FCF80E090ECA1CFCF92DF92EF92FF92C4
:102ED0000F931F93CF93DF9300D000D0CDB7DEB711
:102EE0008C016B017A01FC01808D883010F40E9406
:102EF000B4158DE992E09A838983F60182819381EA
:102F0000A481B5818B839C83AD83BE83B701CE0141
:102F100001960E948616F801808F8830A0F4F5860D
:102F2000E486128E118E81E026960FB6F894DEBFED
:102F30000FBECDBFDF91CF911F910F91FF90EF900A
:102F4000DF90CF90089580E0EFCF7F928F929F9295
:102F5000AF92BF92CF92DF92EF92FF920F931F93A7
:102F6000CF93DF931F921F92CDB7DEB7782E8B01E0
:102F70004A01590122E030E0AE014F5F5F4F64E249
:102F800070E00E947516E980FA80FE24EF24FE248A
:102F9000E00EF11E970137704091DF04072D10E01D
:102FA000433309F042C0085F1F4F102F0027110F55
:102FB000110F110FC901800F911F4733C9F1A901EA
:102FC0004A0D5B1D4130584098F160E078E06B019C
:102FD000C21AD30AA601B4010E94000CA5014C1923
:102FE0005D09B4016C0D7D1DC8010E94000CEA0C46
:102FF000FB1CF982EA8222E030E0AE014F5F5F4FB6
:1030000064E270E0872D0E94C10C0F900F90DF9159
:10301000CF911F910F91FF90EF90DF90CF90BF90D5
:10302000AF909F908F907F900895005F1F4FBDCF0E
:10303000A501B401DACFEF92FF921F93CF93DF93F4
:103040001F921F92CDB7DEB7182F22E030E0AE01FD
:103050004F5F5F4F60E270E00E947516E980FA8072
:10306000FE24EF24FE2422E030E0AE014F5F5F4FEC
:1030700060E270E0812F0E94751689819A819827FD
:1030800089279827E816F90689F487E0189FF00148
:103090001124E955FB4FF582E482C7010F900F9090
:1030A000DF91CF911F91FF90EF9008957C01DBCFCE
:1030B0001F93CF93DF93182F80E591E00E94220D9C
:1030C000812F0E941B18EC0163E070E0812F0E94A9
:1030D0008A15873121F08C3111F0D0E0C0E0CE01AB
:1030E000DF91CF911F910895CF93DF93EC018C85F1
:1030F000883060F40E94DD15873111F08C3131F495
:103100008C850E9458188115984088F3DF91CF91E3
:103110000895FC018485883010F40C94581890E0D0
:1031200080E008959F92AF92BF92CF92DF92EF928C
:10313000FF920F931F93CF93DF938C015B01942E2B
:10314000E52EFC01C688D788F08C80E591E00E94CE
:10315000220D8F2D0E941B18C92DDE2D8C179D0767
:1031600008F4EC019E01A501B6018F2D0E94A51760
:10317000F801868997898C0F9D1F978B868BCE01CE
:10318000DF91CF911F910F91FF90EF90DF90CF9043
:10319000BF90AF909F9008958F929F92AF92BF92F1
:1031A000CF92DF92EF92FF920F931F93CF936C0118
:1031B0005B018A01FC01C485C830F0F57A01413019
:1031C000584018F0E12C88E0F82E80E591E00E944C
:1031D000220D8C2F0E941B184C0163E070E08C2F95
:1031E0000E948A15873111F08C3149F58E149F04A5
:1031F00060F380E591E00E94220D9701A50170E047
:1032000060E08C2F0E94A51760E270E08C2F0E9476
:10321000981562E070E08C2F0E948A1584FD17C01B
:1032200063E070E08C2F0E948A1581110BC081E051
:1032300090E0F6019383828310E000E010C0F12C4F
:10324000E12CD7CF80E591E00E94220DE2CF40E152
:1032500062E070E08C2F0E94FE0CEF2841F3C80161
:10326000CF911F910F91FF90EF90DF90CF90BF9083
:10327000AF909F908F900895FF920F931F93CF93DD
:10328000DF931F921F92CDB7DEB7F82E22E030E019
:10329000AE014F5F5F4F66E270E00E9475160981D4
:1032A0001A8110270127102722E030E0AE014F5F7E
:1032B0005F4F66E270E08F2D0E94751689819A81BA
:1032C0009827892798270817190749F4C8010F90EC
:1032D0000F90DF91CF911F910F91FF9008958C0176
:1032E000E3CF1F93CF93DF93182F87E0189FE00160
:1032F0001124C955DB4F88819981009761F480E5DD
:1033000091E00E94220D812F0E943C192E81821B88
:10331000910999838883DF91CF911F910895FC01D2
:103320008485883010F40C94711990E080E0089541
:103330004F925F927F928F929F92AF92BF92CF9265
:10334000DF92EF92FF920F931F93CF93DF931F9221
:103350001F92CDB7DEB7782E6B014A01A82EB12C93
:1033600027E0829FC0011124FC01E955FB4F7F013A
:103370000081118180E591E00E94220D0815190558
:1033800054F4872D0E943C19F70126818C01021B01
:103390001109118300830115110529F563E070E01F
:1033A000872D0E948A15843159F0882349F001E065
:1033B00010E08C3111F410E000E011950195110935
:1033C000C8010F900F90DF91CF911F910F91FF9047
:1033D000EF90DF90CF90BF90AF909F908F907F90B5
:1033E0005F904F900895801691060CF4840187E059
:1033F0008A9DF0018B9DF00D1124E955FB4FE28071
:10340000F380C114D10451F12701F7E05F22872D29
:103410000E94430B840D951D2091DF04273309F48E
:1034200053C09801240D351D2130384008F44CC09C
:1034300020E038E0490184189508A401B6010E94F3
:1034400020132601480C591C6801C818D908872D7B
:103450000E94430BA601B2010E942013E00EF11E50
:1034600087E08A9DF0018B9DF00D1124E955FB4FFB
:10347000F382E28220813181201B310B3183208352
:103480008681800F912F911D8A3F910510F4232B87
:10349000F1F487E08A9DF0018B9DF00D1124E95530
:1034A000FB4F1682F982EA8222E030E0AE014F5FE4
:1034B0005F4F68E270E0872D0E94C10C60E470E00D
:1034C000872D0E9498157CCFA801B601C5CF8683B1
:1034D00077CFCF93DF93FC01218D328D21153105FC
:1034E00029F48FEF9FEFDF91CF910895EC01808D4C
:1034F0004217530708F0A9010E94981918161906D7
:1035000084F7298D3A8D281B390B3A8F298FEBCF01
:103510000F931F93CF93DF931F92CDB7DEB7FC01BC
:10352000218D328D232B41F48FEF9FEF0F90DF9190
:10353000CF911F910F9108958C0141E050E0BE01A1
:103540006F5F7F4FFC01808D0E9498191816190635
:103550005CF7F801818D928D0197928F818F89811F
:1035600090E0E4CF0F931F93CF93DF9300D000D070
:103570001F921F92CDB7DEB78C01D80159964D919D
:103580005C915A974115510551F0ED91FC91048CD5
:10359000F58DE02D70E060E0C8011995EECFF801DF
:1035A000808D0E947119892BB1F148E050E0BE0175
:1035B0006F5F7F4FD80158968C910E94981918160A
:1035C0001906F4F4D801509684E0FE01319601907A
:1035D0000D928A95E1F78D8190E0982F88272E81B2
:1035E000820F911DF801958B848B8F81282F30E0FD
:1035F000322F22278885820F932F911D928F818FE2
:1036000028960FB6F894DEBF0FBECDBFDF91CF91E5
:103610001F910F91089590E080E0F2CFCF93DF9358
:103620001F92CDB7DEB741E050E0BE016F5F7F4F24
:10363000FC0184850E9498191816190634F48981B2
:1036400090E00F90DF91CF9108958FEF9FEFF9CF2A
:10365000FC018485883010F40C94981990E080E087
:1036600008958F929F92AF92BF92CF92DF92EF9286
:10367000FF920F931F93CF93DF9300D000D000D021
:103680001F92CDB7DEB79091DF04911115C018E0FD
:10369000812F2A960FB6F894DEBF0FBECDBFDF9103
:1036A000CF911F910F91FF90EF90DF90CF90BF903F
:1036B000AF909F908F90089528E0F22E933311F4ED
:1036C00094E0F92E6B01082F80E591E00E94220D15
:1036D0009E012F5F3F4F5901490110E063E070E008
:1036E000812F0E948A15F40181934F018823C1F034
:1036F0001F5FF112F3CFF12CF50191915F019D3124
:1037000049F0983139F09A51923020F0F3941F111A
:10371000F3CFBDCF60E170E08F2D0E9498151F2D73
:10372000E12EF12C83EE93E00197F1F7402F70E04A
:1037300060E0812F0E94FE0C4FEF62E070E0812F6D
:103740000E94FE0CB601CD2889F48091010290916F
:10375000020201968115F0EC9F0798F19093020206
:10376000809301026091010270910202812F0E94F8
:10377000E80C61E070E0812F0E94981527E02E9DF3
:10378000C0012F9D900D11249C0129553B4F7901BB
:10379000F9011182108222E030E0AE01475F5F4FF5
:1037A00068E270E0812F0E94751689859A859827B6
:1037B00089279827F70193838283168215821482C2
:1037C00067CF80E090ECCACF0F931F93CF93DF9326
:1037D000EC018B01888D883010F40E94B415B8017B
:1037E00082E00E94311B888F883050F41D870C873F
:1037F0001A8E198E81E0DF91CF911F910F9108955C
:1038000080E0F9CF4F925F926F927F928F929F925A
:10381000AF92BF92CF92DF92EF92FF920F931F93DE
:10382000CF93DF93CDB7DEB763970FB6F894DEBFC3
:103830000FBECDBF7C016B013A01FB0120E090E09F
:1038400080E06AE03191332309F461C040ED430F19
:103850004A3008F04DC0689FA001699F500D1124A7
:10386000CA01C097830F911D37FD9A958F3F91052F
:1038700049F340F3F701428153816481758180915E
:103880008B0590918C05A0918D05B0918E05481700
:1038900059076A077B0709F40DC28701085F1F4FAC
:1038A0000E9459046F7077277C5FC8010E94E41B57
:1038B000813009F004C28DE992E09A838983F7018F
:1038C00082819381A481B5818B839C83AD83BE83E8
:1038D00045E350E0BE016F5F7F4FC8010E94250D98
:1038E000892BA9F5D12CC12CC8010E94C01517C085
:1038F0003E3209F0BFCF233009F4BCCFD301A20F71
:10390000B11D12968C932F5F90E080E09BCF233007
:1039100009F0B0CFF3018583CC24C394D12CC60128
:1039200063960FB6F894DEBF0FBECDBFDF91CF9187
:103930001F910F91FF90EF90DF90CF90BF90AF90CD
:103940009F908F907F906F905F904F9008950E940E
:103950005904F7017783668342E050E0B7016A5F5C
:103960007F4FC8010E94921881E090E09A8389837A
:1039700042E050E0BE016F5F7F4FC8010E94921885
:1039800080E091E09A83898342E050E0BE016F5F5E
:103990007F4FC8010E9492181A82198242E050E0BB
:1039A000BE016F5F7F4FC8010E94921842E050E055
:1039B000BE016F5F7F4FC8010E94921842E050E045
:1039C000BE016F5F7F4FC8010E9492185601F60139
:1039D0008081882301F16501F60181912F018823FF
:1039E00011F08E32B1F446018A189B08181419049C
:1039F00074F48D8641E050E0BE01635F7F4FC801E3
:103A00000E949218A401B501C8010E9492185201A7
:103A1000DECF6201E1CF1D8641E050E0BE01635F71
:103A20007F4FC8010E949218C12CDD24D394DA8202
:103A3000C98242E050E0BE016F5F7F4FC8010E9423
:103A40009218DA82C98242E050E0BE016F5F7F4F78
:103A5000C8010E949218C8010E944416892B09F4DB
:103A600041CFF3E0AF2EB12C230122E0420E511CD6
:103A7000D4C0F7014281538164817581808D918D1D
:103A8000A28DB38D481759076A077B0709F008C153
:103A9000848D958DC59709F003C181A192A15DEF39
:103AA000C52EDD24DA940C970CF4ADC04CE050E048
:103AB000BE016F5F7F4FC8010E94691A8B819C8194
:103AC0009827892798279A8B898BF70146815781F8
:103AD00029813A814217530709F0E7C097FFE5C0F3
:103AE0008F7092703BEFC32EDD24DA94892B09F09E
:103AF0008AC06F8078847624672476242AEFC22EC9
:103B0000DD24DA946114710409F47DC0D12CC12C38
:103B10008D819E81982789279827C816D906F8F4A1
:103B200041E050E0BE01635F7F4FC8010E94691A07
:103B30004D85442331F050E070E060E0C8010E9400
:103B4000691A8D858111ECCF44E050E070E060E0AF
:103B5000C8010E94691AFFEFCF1ADF0AD9CF912C52
:103B6000812C41E050E0BE016D5E7F4FC8010E9494
:103B7000691A4B89842F807C09F06CC0442331F092
:103B800050E070E060E0C8010E94691A8B898111E1
:103B9000E8CF42E050E0BE01615F7F4FC8010E9464
:103BA000691A42E050E0BE01635F7F4FC8010E9486
:103BB000691A44E050E070E060E0C8010E94691AB0
:103BC00042E050E0BE016F5E7F4FC8010E94691A5B
:103BD0008F85988949895A898115914009F043C098
:103BE000CD84DE84DC24CD24DC2481E0C816D1041D
:103BF000D1F54115544009F04AC044E050E0B2010B
:103C0000C8010E94691A21E0A21AB10809F46CCE19
:103C1000FFEFCF16DF0609F067CE0E9459043B0183
:103C20004C01C8010E94B21A181619060CF421CFD3
:103C30000E945904661977098809990969387341FE
:103C40008105910548F562E370E080E090E00E9414
:103C50002604E7CF41E050E070E060E0C8010E9438
:103C6000691A1B8A93CF54274527542770E060E0D8
:103C7000C8010E94691AFFEF8F1A9F0A681479041D
:103C800009F06FCF96EFC92EDD24DA94BCCFE7EFB1
:103C9000CE2EDD24DA94B7CFCC24CA94DC2CB3CF5B
:103CA0006EEFC62EDD24DA94AECF4CEFC42EDD24A9
:103CB000DA94A9CF8EEFC82EDD24DA9430CED12C41
:103CC000C12C2DCECF92DF92EF92FF920F931F93D4
:103CD000CF93DF93CDB7DEB7AF970FB6F894DEBFC3
:103CE0000FBECDBF7C016A010DE912E01A83098382
:103CF0001C861B8688EE93E0A0E0B0E08D879E874F
:103D0000AF87B88B8CE292E09A878987188F0F8BE8
:103D1000198E1A8E1B8E1C8E88E089A31BA70AA7FA
:103D20001CA61DA61EA61FA68091AF059091B005EA
:103D3000A091B105B091B2058EA39FA3A8A7B9A782
:103D40008B839C83AD83BE8318861F82AE01465D44
:103D50005F4FCE0101960E94021C81309105B1F4A3
:103D6000D701ED91FC910488F589E02D1DA30CA3EA
:103D70008CA59DA5AEA5BFA58EA39FA3A8A7B9A7F7
:103D8000A601BE016C5D7F4FC7011995AF960FB6B6
:103D9000F894DEBF0FBECDBFDF91CF911F910F9181
:103DA000FF90EF90DF90CF900895CF92DF92EF9247
:103DB000FF920F931F93CF93DF93CDB7DEB7AF97EB
:103DC0000FB6F894DEBF0FBECDBF8C016B017A0138
:103DD0008DE992E09A8389831B821C821D821E8258
:103DE0001C861B8648EE53E060E070E04D875E87DE
:103DF0006F87788B2CE232E03A872987988F8F8BF8
:103E0000198E1A8E1B8E1C8E28E029A39BA78AA7C9
:103E10001CA61DA61EA61FA6D8011C968C91883034
:103E200060F40E94DD15882321F0F80184850E944A
:103E3000A81588E0D8011C968C938091AF059091CD
:103E4000B005A091B105B091B2058EA39FA3A8A71C
:103E5000B9A78B839C83AD83BE8318861F82AE0176
:103E6000465D5F4FB601CE0101960E94021C00978D
:103E7000C1F0D801ED91FC910684F785E02D8DE924
:103E800092E09DA38CA38CA59DA5AEA5BFA58EA3F6
:103E90009FA3A8A7B9A7A701BE016C5D7F4FC8016A
:103EA0001995AF960FB6F894DEBF0FBECDBFDF9168
:103EB000CF911F910F91FF90EF90DF90CF900895D9
:103EC000CF92DF92EF92FF921F93CF93DF93EC019B
:103ED0007B016A018C85883048F40E94DD158823B7
:103EE00019F08C850E94A81588E08C87F7018281E3
:103EF0009381A481B5810097A105B10551F490E0AB
:103F000080E0DF91CF911F91FF90EF90DF90CF90F5
:103F100008958F3F9F4FAF4FBF4F89F370E060E030
:103F200081E20E94311B182F8C87883040F780E592
:103F300091E00E94220DA7014E5F5F4F24E030E028
:103F40006CE070E0812F0E94C10CB601812F0E94AD
:103F5000D20C64E070E0812F0E9498150E945904F1
:103F60006B017C018C850E94DD15873111F18C314C
:103F700001F1882321F20E945904AB01BC014C19C4
:103F80005D096E097F098D859E85B0E0A0E08417EC
:103F90009507A607B70738F061E070E080E090E091
:103FA0000E942604DFCF8C850E94B41588E08C87A0
:103FB000A6CF81E090E0A5CF0F931F93CF93DF931F
:103FC0001F921F92CDB7DEB7FC0124852830E0F4A4
:103FD0008C0180E591E00E94220D22E030E0AE01EC
:103FE0004F5F5F4F60E170E0F80184850E947516B5
:103FF00089819A819827892798270F900F90DF91C0
:10400000CF911F910F91089590E080E0F6CFEF924D
:10401000FF920F931F93CF93DF9300D01F92CDB7E2
:10402000DEB78C017B01FB0184858830A8F08DE927
:1040300092E0F801918380831282138214821582A8
:10404000C8010F900F900F900F90DF91CF911F91AB
:104050000F91FF90EF90089580E591E00E94220D6E
:1040600024E030E0AE014F5F5F4F6CE070E0F7019D
:1040700084850E947516BE016F5F7F4FC8010E9444
:104080002A0EDECF0F931F93CF93DF931F921F92C1
:10409000CDB7DEB7FC0124852830E0F48C0180E543
:1040A00091E00E94220D22E030E0AE014F5F5F4FB1
:1040B00064E070E0F80184850E94751689819A8118
:1040C0009827892798270F900F90DF91CF911F9104
:1040D0000F91089590E080E0F6CF7F928F929F92AB
:1040E000AF92BF92CF92DF92EF92FF920F931F9306
:1040F000CF93DF93CDB7DEB7A6970FB6F894DEBFA8
:104100000FBECDBF8C01762E942E852E20E2A22EDE
:10411000CE0101967C01DC01EA2D1D92EA95E9F7BA
:104120006801F3E4CF0ED11C8DE992E09AA389A334
:104130008FEF8BA38CA38DA38EA343E450E0BE012D
:104140006F5D7F4FC6010E94250D019609F4BFC027
:1041500081E089838A8386E0B82EBB821C82D801E5
:1041600014966D917D918D919C9117970E94693263
:104170006D837E838F83988789869A8680E890E016
:104180009C878B874CE150E0B701C6010E949218D2
:10419000FE0137968AE1DF011D928A95E9F7480111
:1041A000B8E08B0E911CF401D70101900D92BA94E6
:1041B000E1F740E150E0B701C6010E949218F70113
:1041C0001192AA94E9F796E0A92EB12C40E250E0B2
:1041D000B701C6010E949218F1E0AF1AB108B1F719
:1041E00083E6898392E89A8393E59B838C8385E3B6
:1041F0008D8381E08E837F829DE3988797E0998706
:104200008A8786E0F401DE011B9601900D928A9563
:10421000E1F78CE0898B8A8B69EE72E0CE014396E0
:104220000E943D35D8011B966C91CE0149960E94A3
:104230005E03F8016485CE014B960E945E03D801AF
:104240001D966C91CE014D960E945E034EE150E0AA
:10425000B701C6010E949218B3E07B121EC082E330
:10426000898384E08A83F80196859B8397859C8364
:1042700090899D8391899E8396E39F838887828D11
:104280008987838D8A87848D8B87858D8C874CE089
:1042900050E0B701C6010E94921887E3898386E047
:1042A0008A8391E09B8393E09C838D838FE08E8350
:1042B0008AE38F838BE388878FEF898749E050E01B
:1042C000B701C6010E949218C6010E944416A69624
:1042D0000FB6F894DEBF0FBECDBFDF91CF911F9117
:1042E0000F91FF90EF90DF90CF90BF90AF909F9095
:1042F0008F907F9008950F931F93CF93DF93EC01DE
:1043000088819981009759F02A813B8126173707C8
:1043100030F081E0DF91CF911F910F9108958B01D3
:104320006F5F7F4F0E943634009759F099838883DE
:104330001B830A832C813D81232B59F7FC011082BA
:10434000E8CF80E0E7CFCF93DF93EC0188819981BC
:10435000009711F00E94AD33198218821D821C82D1
:104360001B821A82DF91CF910895EF92FF920F93F3
:104370001F93CF93DF93EC01FB01E080F180E11408
:10438000F10411F10481158101151105A9F08C8149
:104390009D81080F191FB801CE010E947B2188233F
:1043A00099F0288139818C819D81B701820F931FFB
:1043B0000E943D351D830C83CE01DF91CF911F916B
:1043C0000F91FF90EF900895CE010E94A321F4CFAA
:1043D000EF92FF920F931F93CF93DF93EC017B013A
:1043E0008A01BA010E947B2181110BC0CE010E947B
:1043F000A321CE01DF91CF911F910F91FF90EF90FC
:1044000008951D830C83B701888199810E943D35F1
:10441000F0CFFC0111821082138212821582148265
:104420006115710551F0FB0101900020E9F731970A
:10443000AF01461B570B0C94E8210895FC018081C5
:104440009181009711F00C94AD3308954F925F92D3
:104450006F927F928F929F92AF92BF92CF92DF9294
:10446000EF92FF920F931F93CF93DF93CDB7DEB7F9
:1044700069970FB6F894DEBF0FBECDBF4B0129017F
:104480003A01AB8ABC8ACD8ADE8AEF8AF88E098F20
:10449000CDB6DEB60E891F89A88CB98CC9010196EC
:1044A0002DB73EB7281B390B0FB6F8943EBF0FBE91
:1044B0002DBF8DB79EB701967C01A201B3010E946A
:1044C00024354E0C5F1CD2011C920115110521F000
:1044D000F801EA0DFB1D1082D4011496ED91FC91B8
:1044E0001597309739F19501A801B7018D919C91ED
:1044F00019950FB6F894DEBE0FBECDBE0FB6F89478
:10450000DEBE0FBECDBE69960FB6F894DEBF0FBEFD
:10451000CDBFDF91CF911F910F91FF90EF90DF9072
:10452000CF90BF90AF909F908F907F906F905F9053
:104530004F900895F40182819381892BD1F2B701C4
:10454000CE0107960E94092261EA72E0CE010D9623
:104550000E9409220115110509F1B801CE01019649
:104560000E9409228D859E85009769F169817A8173
:104570006115710531F14F8558892D813E814217B2
:104580005307F8F00E943D358D819E819A8B898B6F
:104590001E821D82CE0101960E941E22D401129617
:1045A000ED91FC91BE01635F7F4FCE010796199597
:1045B000CE010D960E941E22CE0107960E941E2259
:1045C00098CF0E94AD3389819A819E878D878B8198
:1045D0009C81988B8F878D819E819A8B898B1A8283
:1045E00019821C821B82D4CF3F924F925F926F92AE
:1045F0007F928F929F92AF92BF92CF92DF92EF9273
:10460000FF920F931F93CF93DF93CDB7DEB7EA9757
:104610000FB6F894DEBF0FBECDBF7C012A013B016F
:1046200069010E9459044B015C0187010D5B1F4F1A
:10463000C8010E94B21A181619069CF00E9459046B
:10464000681979098A099B0946165706680679068A
:1046500008F466C162E370E080E090E00E94260406
:10466000E7CF42E250E0BE016F5F7F4FC8010E947A
:10467000691A89818230D1F0312C832DEA960FB6E8
:10468000F894DEBF0FBECDBFDF91CF911F910F9188
:10469000FF90EF90DF90CF90BF90AF909F908F9062
:1046A0007F906F905F904F903F900895F8018489BC
:1046B00095898334910501F76D817E818F8198857D
:1046C0000E9469324B015C01F60180829182A282D4
:1046D000B38246E050E0B701685F7F4FCE014D9650
:1046E0000E941735892B41F6F70180819181A281C3
:1046F000B38188169906AA06BB0608F4BDCF84814B
:104700009581A681B78188159905AA05BB0508F48E
:10471000B3CF89899A89AB89BC8986879787A08B13
:10472000B18B4EEC50E070E060E0C8010E94691A65
:10473000312CC701829698AB8FA7F701B696FAABDA
:10474000E9AB08969CAB8BAB67019AE1C90ED11C13
:10475000BD96FEABEDABC701429698AF8FABFD9710
:10476000FAAFE9AF4701FEE18F0E911CF801818D90
:10477000928D181619060CF080CFC8010E94881A75
:104780008333910509F4B2C014F58130910509F421
:1047900064C044F4892B51F3C8010E94881AAC010B
:1047A000552775C08330910509F462C00697A1F7BB
:1047B000C8010E94881AB82E44E050E0B401C80134
:1047C0000E94691AEB2DE450FF0BAF0160C08A33E1
:1047D000910509F45FC084F585339105B1F1C69761
:1047E000D9F6C8010E94881A5C01B601CE018996EB
:1047F0000E942A0E8BA59CA5ADA5BEA5892B8A2B50
:104800008B2BB1F0EDA9FEA94080518062807380AE
:10481000B601CE0183960E942A0E8DA19EA1AFA162
:10482000B8A5A501481659066A067B0609F0B8CF57
:1048300044E050E0B60118C08B33910509F440C044
:104840008F3F910509F492CFA7CFC8010E94881A23
:10485000C8010E94881A382E89CFC8010E94881A80
:1048600044E050E06FA978ADC8010E94691A7ECF7C
:10487000C8010E94881AB82E44E050E069AD7AADB4
:10488000C8010E94691A8B2D8450990BAC0170E00D
:1048900060E0EACFC8010E94881A44E050E069A9AC
:1048A0007AA9C8010E94691AF70166A177A180A5BB
:1048B00091A50E94693266A377A380A791A756CFDE
:1048C000C8010E94881A44E050E06BA97CA9C80185
:1048D0000E94691AF70162A573A584A595A50E9497
:1048E000693262A773A784A795A740CFC8010E9429
:1048F000881A44E050E06FA578A9C8010E94691A9F
:10490000F70162A173A184A195A10E94693262A3FB
:1049100073A384A395A366A777A780AB91AB26CF9B
:1049200033243A94AACE8F929F92AF92BF92CF92A5
:10493000DF92EF92FF920F931F93CF93DF93CDB748
:10494000DEB7A7970FB6F894DEBF0FBECDBF5C01F0
:104950004B0160EF72E08E010F5F1F4FC8010E9494
:104960000922B501C8010E94B5217C01FC01C48067
:10497000D580F4E0CF0ED11CB6010E947B218823A4
:1049800009F418C1F70120813181848195816DEF8F
:1049900072E0820F931F0E943D35F701D582C482D9
:1049A000B401C7010E94B521FC0144815581608199
:1049B000718180EE94E00E945D056FE972E080EE07
:1049C00094E00E945C0DC8010E941E22F5018481C2
:1049D0009581892B09F4DBC062E073E080819181CD
:1049E0000E943435892B09F0D2C0F4018081918175
:1049F000009709F4E3C00E94232E0E94E13020E0DA
:104A000030E048EC52E40E94703220E030EF4FE793
:104A100055E40E9440316B017C0120E030EF4FE70C
:104A200055E40E94DA3087FFCDC0C701B6010E946D
:104A3000E2327B016701FFE0DF226894D4F88091C5
:104A40004506909146060E94220D60E08091BA05CD
:104A50000E9475038D2D0E94F90B8C2D0E94F90B7D
:104A600061E08091BA050E9475038091B9058823A1
:104A700051F060E08091BB050E94750361E0809178
:104A8000BB050E9475031BA21AA21DA21CA21FA295
:104A90001EA24AE0B801C7010E945F2EF8010190F2
:104AA0000020E9F73197AF01401B510BB801CE014F
:104AB00082960E94E821BE016E5D7F4F8EE193E0F9
:104AC0000E94820ECE0182960E941E221BA21AA272
:104AD0001DA21CA21FA21EA222E044E060E070E022
:104AE00088EC92E40E94612D009709F470C0FC01EB
:104AF00001900020E9F73197AF01481B590BBC0129
:104B0000CE0182960E94E821BE016E5D7F4F81E456
:104B100093E00E94820ECE0182960E941E2262E6DF
:104B200073E080EE94E00E945C0DA70170E060E00D
:104B30002AE080EE94E00E946B0D65E773E080EE62
:104B400094E00E945C0D2AE044E650E060E070E0F2
:104B500080EE94E00E946B0D6EE280EE94E00E9485
:104B6000F3052AE040E050E0BA0180EE94E00E94B4
:104B70006B0D2AE040E050E0BA0180EE94E00E9424
:104B80006B0D6FE972E080EE94E00E945C0DA796D9
:104B90000FB6F894DEBF0FBECDBFDF91CF911F914E
:104BA0000F91FF90EF90DF90CF90BF90AF909F90CC
:104BB0008F900895C7010E94A321F2CE60E070E0BB
:104BC000CB011BCFEE24EA948FE0F82E33CFCE0139
:104BD00082960E94A32198CF1F920F920FB60F9238
:104BE00011242F933F938F939F93AF93BF93809103
:104BF0009F049091A004A091A104B091A2043091CF
:104C00009E0423E0230F2D3758F50196A11DB11DF9
:104C100020939E0480939F049093A004A093A104EA
:104C2000B093A2048091A3049091A404A091A50440
:104C3000B091A6040196A11DB11D8093A304909389
:104C4000A404A093A504B093A604BF91AF919F9133
:104C50008F913F912F910F900FBE0F901F9018953D
:104C600026E8230F0296A11DB11DD2CF1F920F92ED
:104C70000FB60F9211240BB60F922F933F934F93C1
:104C80005F936F937F938F939F93AF93BF93EF93B4
:104C9000FF9380EE94E00E94D105FF91EF91BF91C8
:104CA000AF919F918F917F916F915F914F913F91C4
:104CB0002F910F900BBE0F900FBE0F901F90189565
:104CC0001F920F920FB60F9211240BB60F922F93D3
:104CD0008F939F93EF93FF93E091F004F091F10491
:104CE0008081E091F604F091F70482FD1DC090816F
:104CF0008091F9048F5F8F732091FA04821741F03D
:104D0000E091F904F0E0E052FB4F958F8093F904B5
:104D1000FF91EF919F918F912F910F900BBE0F906C
:104D20000FBE0F901F9018958081F2CFCF92DF9227
:104D3000EF92FF920F931F93CF93DF93E0EEF4E097
:104D40001382128288EE93E0A0E0B0E08483958322
:104D5000A683B7832DE532E03183208325EC30E054
:104D60003587248724EC30E03787268720EC30E035
:104D7000318B208B21EC30E0338B228B22EC30E026
:104D8000358B248B26EC30E0378B268B118E128EE0
:104D9000138E148EEDE7F5E00DE912E01183008328
:104DA0001282138214821582E3E8F5E011830083F6
:104DB0001282138214821582E9E8F5E011830083E0
:104DC0001282138214821582EFE8F5E011830083CA
:104DD0001282138214821582E5E9F5E011830083C3
:104DE0001282138214821582EBE9F5E011830083AD
:104DF0001282138214821582E1EAF5E011830083A6
:104E00001282138214821582E7EAF5E0118300838F
:104E10001282138214821582E3EBF5E01183008382
:104E20001282138214821582EDEAF5E01183008369
:104E30001282138214821582EFE3F6E0118300835D
:104E40001282138214821582E9E3F6E01183008353
:104E500020ECD22ED28238EAE32EE38244E6F42E0E
:104E6000F48222EB2583E3E3F6E011830083D28210
:104E7000E382F482CC24C394C582E4E2F6E0138298
:104E8000128284839583A683B7832FE632E0318331
:104E9000208328E0248728EE33E036872587C2EC7C
:104EA000D5E02AE030E03F832E83C88689879A8741
:104EB000AB87BC871E861D86188A1F861A8B098BB6
:104EC0001B8A1C8A1D8A1E8A188E1F8A1A8E198EAA
:104ED0001C8E1B8E1E8E1D8E18A21F8E1AA219A24A
:104EE0001BA21CA21DA21EA21FA218A619A61AA6CA
:104EF0001CA61BA61DA61EA61FA618AA19AA1AAA9A
:104F00001BAA1CAA1EAA1DAAE9EFF5E084E2DF0194
:104F10001D928A95E9F710921D0610921F061092B5
:104F20001E0610922106109220061092230610925F
:104F3000220680E890E09983888381E890E00E94CF
:104F400011339B838A8380E890E00E9411339D8314
:104F50008C83ECEBF5E011830083D282E382F48250
:104F60008BE98583E9EBF5E0108211821282E5E49A
:104F7000F6E080E58083C182DF91CF911F910F9190
:104F8000FF90EF90DF90CF900895CF93DF93CDB750
:104F9000DEB72C970FB6F894DEBF0FBECDBF789466
:104FA00084B5826084BD84B5816084BD85B582602E
:104FB00085BD85B5816085BD80916E0081608093DF
:104FC0006E00109281008091810082608093810048
:104FD0008091810081608093810080918000816058
:104FE000809380008091B10084608093B1008091B3
:104FF000B00081608093B0008091910082608093C6
:105000009100809191008160809391008091900047
:105010008160809390008091A10082608093A100C4
:105020008091A10081608093A1008091A0008160A7
:105030008093A00080912101826080932101809162
:105040002101816080932101809120018160809302
:10505000200180917A00846080937A0080917A00A8
:10506000826080937A0080917A00816080937A00D8
:1050700080917A00806880937A001092C100E0915C
:10508000F004F091F10482E08083E091EC04F0916F
:10509000ED041082E091EE04F091EF0480E1808352
:1050A0001092F804E091F404F091F50486E0808316
:1050B000E091F204F091F304808180618083E091BB
:1050C000F204F091F304808188608083E091F2041F
:1050D000F091F304808180688083E091F204F09184
:1050E000F30480818F7D80838DE00E943B028CE001
:1050F0000E943B028BE00E943B0280E38093BA0552
:105100001092B90561E00E9475038091BA050E9472
:105110003B020E94AA0B11E01093B9058FE2809325
:10512000BB0561E00E9475038091BB050E943B02B4
:1051300087E18093000280919604811129C010922A
:105140007E0410927D0488EE93E0A0E0B0E08093AE
:105150007F0490938004A0938104B09382048CE236
:1051600092E090937C0480937B048DE992E090938D
:105170008A048093890410928B0410928C041092FC
:105180008D0410928E0488E080939304109396040B
:1051900088E394E090933704809336040E942514AA
:1051A000882309F4E4C380E591E00E94220D46E0E3
:1051B00050E063E072E089E090E00E94000C8DE92D
:1051C00092E09A8389831B821C821D821E82CE01FB
:1051D00003960E941B0D10925A0410925B041092C9
:1051E0005C0410925D0410925E0410925F041092B1
:1051F0006004109261041092620410926304109291
:1052000064041092650480E69AEEA0E0B0E080931A
:105210006E0490936F04A0937004B093710480EABD
:105220009FE0A0E0B0E08093720490937304A09399
:105230007404B0937504E6E4F4E084E1DF011D92A8
:105240008A95E9F786E0E3E0F2E0A0E4B4E00190BB
:105250000D928A95E1F710927A040E94CB2D2FECE3
:1052600037E040E050E00E94FE31DC01CB010196C6
:10527000A11DB11D80933C0490933D04A0933E0476
:10528000B0933F048093380490933904A0933A0478
:10529000B0933B048BE794E00E94C01564E470E097
:1052A0008BE794E00E94E41B882309F460C30E940A
:1052B00059046B017C0158EE452E53E0552E612CAC
:1052C000712C63E0962E02E0B12CA12C80917A041F
:1052D000833009F440C0811149C280913C0490910F
:1052E0003D04A0913E04B0913F040196A11DB11D63
:1052F00080933C0490933D04A0933E04B0933F04FC
:105300000E9459046C197D098E099F09A30192011D
:105310000E943032A90161E088E394E00E946D2090
:1053200081E080937A0491E0A916B10479F20E9499
:1053300059046C197D098E099F0920916E043091E2
:105340006F04409170045091710426173707480785
:10535000590708F0B9CF8BE794E00E94C0158091FF
:105360003C0490913D04A0913E04B0913F0401960D
:10537000A11DB11D80933C0490933D04A0933E0475
:10538000B0933F040E9459046093760470937704AD
:105390008093780490937904AA94AB2809F0E7C22B
:1053A00080E591E00E94220D0091360410913704AF
:1053B000B801625F7F4FCE0101960E942A0ECE0196
:1053C00003960E941B0DB8016A5E7F4FCE010196C5
:1053D0000E942A0E44E050E0BE016D5F7F4F81E0E5
:1053E00090E00E94000CB8016E5E7F4FCE010196E6
:1053F0000E942A0E44E050E0BE016D5F7F4F85E0C1
:1054000090E00E94000CB801625E7F4FCE010196D1
:105410000E942A0E8B819C81AD81BE818093AF0555
:105420009093B005A093B105B093B2050E9401041A
:105430007F7380910102909102026827792770930F
:1054400002026093010264E873E080EE94E00E943F
:105450005C0D8DE992E09A8389831B821C821D82F8
:105460001E8280E591E00E94220D44E050E0BE01E2
:105470006D5F7F4F8FE090E00E94201360EE74E03C
:10548000CE0101960E94B70D6FE972E080EE94E0C4
:105490000E945C0D8091BE059091BF05A091C00552
:1054A000B091C10589879A87AB87BC8784E296E073
:1054B0009093D0058093CF058091C2059091C3054C
:1054C0002091C4053091C5054091C6055091C7058E
:1054D00061E070E07093FA056093F9051092FB05A6
:1054E0001092FC051092FD051092FE051092FF052A
:1054F000509305064093040690930106809300069E
:1055000030930706209306069093030680930206C5
:10551000109209061092080610920B0610920A06C5
:1055200010920D0610920C0610920F0610920E06A5
:10553000109211061092100610921A0610921C0674
:1055400010921B0685EE95E0909313068093120649
:105550008FEE95E0909315068093140685E694E00F
:1055600090931706809316068BE794E090931906A4
:105570008093180640E050E0BA0185EE95E00E9465
:105580006504E0911606F091170640E050E0BA017C
:105590008091140690911506199583EE95E09093ED
:1055A0000D0680930C0687EB94E090930F06809392
:1055B0000E0683E495E090931106809310068DED1E
:1055C00095E090930B0680930A0686E292E2909310
:1055D0000906809308068DE992E09A83898389857C
:1055E0009A85AB85BC858B839C83AD83BE83CE01BE
:1055F00001960E945A0282EC95E09093DE0580931A
:10560000DD0583E994E29093E0058093DF05109235
:10561000E2051092E1050E943C0F87E294E00E94AF
:10562000010E83EFE82EFF24FA9490ECD92ECC24BF
:10563000C3940E944A03882309F48FC08091CF0548
:105640009091D005DC01ED91FC910084F185E02D75
:1056500019958C01892B09F14091CB055091CC050E
:105660006091CD057091CE05E0911606F091170678
:10567000809114069091150619951A82198250E0AE
:1056800040E0B801CE0101960E946D08009709F034
:10569000DBC110922106109220064091CB0550915B
:1056A000CC056091CD057091CE05E0911606F09184
:1056B0001706809114069091150619958091FB05A7
:1056C0009091FC05A091FD05B091FE05892B8A2BD8
:1056D0008B2B09F43EC0E0911806F09119068091D9
:1056E0001206909113061995161617061806190634
:1056F00084F18091FF0581119EC160910006709137
:10570000010600910406109105061A830983600FB3
:10571000711F6017710709F495C1F801D082898162
:105720009A8101969A83898320E030E0A901CE0115
:1057300001960E949106009709F086C189819A819D
:10574000801B910B0E947B02009709F07DC1C092E3
:10575000FF0510922106109220060E944A03811133
:1057600002C00E943C0F0E94600663CF843031F576
:1057700080913C0490913D04A0913E04B0913F047F
:105780000196A11DB11D80933C0490933D04A0930C
:105790003E04B0933F040E9459046C197D098E09A0
:1057A0009F09A30192010E943032A90163E088E3BE
:1057B00094E00E946D2000937A04B5CD813091F57C
:1057C0004091720450917304609174047091750457
:1057D0009E012F5F3F4F88E394E00E94F422182F30
:1057E000823009F0C1C089819A81AB81BC818093EC
:1057F0003C0490933D04A0933E04B0933F040E9468
:1058000059046C197D098E099F09A30192010E9418
:105810003032A90163E088E394E00E946D20109388
:105820007A0481CD823009F07ECD4091720450918E
:10583000730460917404709175049E012F5F3F4F53
:1058400088E394E00E94F422182F853009F087C085
:1058500090927A0480915A0490915B04A0915C0428
:10586000B0915D04892B8A2B8B2B61F484E893E043
:10587000A0E0B0E080935A0490935B04A0935C0492
:10588000B0935D0480915E0490915F04A0916004E8
:10589000B0916104892B8A2B8B2BA1F480915A043F
:1058A00090915B04A0915C04B0915D04B695A795BE
:1058B0009795879580935E0490935F04A09360040E
:1058C000B09361048091620490916304A091640498
:1058D000B0916504892B8A2B8B2BE9F480915A04B3
:1058E00090915B04A0915C04B0915D04AC01BD019A
:1058F00033E076956795579547953A95D1F7841B90
:10590000950BA60BB70B8093620490936304A0934E
:105910006404B093650480915E0490915F04A0914B
:105920006004B09161048093660490936704A0932F
:105930006804B09369048091620490916304A0911B
:105940006404B091650480936A0490936B04A093FF
:105950006C04B0936D04AA24A394B12CE4CC8630DB
:1059600019F410927A04DFCC1F3FD9F3DCCC88E91C
:1059700093E00E94010EE091DF04E353E53030F440
:10598000F0E0EC5AFD4F808181110BC080EC93E078
:105990000E94010E61E070E080E090E00E94260429
:1059A000F9CF0E942514882331F08091DF048433DD
:1059B00041F18733A9F18DE992E09A83898340917F
:1059C00035065091360660913706709138064B8344
:1059D0005C836D837E8398878F8380913B06909153
:1059E0003C06A0913D06B0913E0689879A87AB8719
:1059F000BC87BE016F5F7F4FCE0107960E940115E5
:105A000049CD80E591E00E94220D85E390E00E945F
:105A1000FA1385FDD0CF86E094E00E94010ECBCF33
:105A200080E591E00E94220D8EE290E00E94FA1340
:105A300080FDC1CFF0CFF0922106E09220060E94B7
:105A40006E028BCE8FEF9FEF9093210680932006FE
:105A5000F6CFE091DB05F091DC053097F1F087811E
:105A60009085892B21F0818592850E94AD33E0914C
:105A7000DB05F091DC0580819181892B21F0828109
:105A800093810E94AD338091DB059091DC050E94EB
:105A9000AD331092DC051092DB058091D105909119
:105AA000D205009711F00E94AD338091C40590910A
:105AB000C5050E94AD338091C6059091C7050C9431
:105AC000AD33EF920F931F93CF93DF93E80134E050
:105AD00047FD34E1042E000C550B57FF03C05195D0
