:100000000C9426020C9457020C9457020C9457023D
:100010000C9457020C9457020C9457020C945702FC
:100020000C9457020C9457020C9457020C945702EC
:100030000C9457020C9457020C9457020C945702DC
:100040000C9457020C9457020C9457020C945702CC
:100050000C9457020C9457020C9457020C94D0281D
:100060000C9457020C9444290C941A290C945702AE
:100070000C9457020C9457020C9457020C9457029C
:100080000C9457020C9457020C9457020C9457028C
:100090000C9457020C9457020C9457020C9457027C
:1000A0000C9457020C9457020C9457020C9457026C
:1000B0000C9457020C9457020C9457020C9457025C
:1000C0000C9457020C9457020C9457020C9457024C
:1000D0000C9457020C9457020C9457020C9457023C
:1000E0000C9457020C94090C0C94D5200C94CB055D
:1000F0000C940D300C94430D0C940B0C0C940104D7
:100100000C9484190C9483040C9462200C94B21CFB
:100110000C94E9030C9466190C94FB0B0C94B70532
:100120000C9407220C94BE0B0C94E6030C947B19E0
:100130000C94C3030C9436170C9420280C940B04D5
:100140000C945E060C940F040C947B050C94850BA8
:100150000C94CC1A0C94BF160C94A60B0C94281D6E
:100160000C94691C0C94FD030C94FD160C94D5049E
:100170000C9411060C94DE030C946F0B0C9456181F
:100180000C9419040C94D9050C94881C0C94FF0B46
:100190000C94A8050C94EF030C94B3250C94E41D67
:1001A0000C9442220C94C3140C9492030C94900B64
:1001B0000C9415040C940E0C0C9407040C94E2039C
:1001C0000C94C50B0C94AE0B0C94DA030C94F9034D
:1001D0000C948F1B0C94D50D0C94DB160C947A297F
:1001E0000C9461050C94C8030C94D2140C94F30382
:1001F0000C9460210C94AA0B0C940E1D0C94B21656
:100200000C948E030C94DC210C9499044E414E49BD
:100210004E495459494E46CDCCCC3D0AD7233C17C4
:10022000B7D13877CC2B329595E6241FB14F0A0011
:100230000020410000C84200401C4620BCBE4CCA01
:100240001B0E5AAEC59D7400407A10F35A00A0727E
:100250004E18090010A5D4E80000E8764817000001
:10026000E40B54020000CA9A3B000000E1F50500CF
:100270000080969800000040420F000000A0860118
:10028000000000102700000000E8030000000064E8
:1002900000000000000A0000000000010000000053
:1002A000002C76D888DC674F0823DFC1DFAE59E128
:1002B000B1B796E5E3E453C63AE651997696E8E697
:1002C000C28426EB898C9B62ED407C6FFCEFBC9C6A
:1002D0009F40F2BAA56FA5F490055A2AF75C936B7C
:1002E0006CF9676DC11BFCE0E40D47FEF520E6B537
:1002F00000D0ED902E0300943577050080841E0811
:100300000000204E0A000000C80C333333330F982E
:100310006E12831141EF8D2114893BE65516CFFEF5
:10032000E6DB18D1844B381BF77C1D901DA4BBE481
:1003300024203284725E228100C9F124ECA1E53DC3
:100340002700000A0B02090C0D0E08070304010028
:10035000000000000000000000000000000000009D
:10036000000000000000000000000000001211105A
:10037000000000000000000000000000000000007D
:100380000000000000000000002200250028002BD3
:10039000002E003100340002010000050108010BAD
:1003A0000100002100240027002A002D0030003326
:1003B0000001010000040107010A01050505050708
:1003C0000508080808020202020A0A0808040404D0
:1003D00004010101010101010103030303030303FC
:1003E00003040707070C0C0C0C0C0C0C0C0202028B
:1003F0000206060606060606060B0B0B0B0B0B0B7E
:100400000B0102102020080810204010204080021C
:10041000010201080402010102040810204080804A
:1004200040201008040201800402018040201008CE
:1004300004020108040201010204081020408001A6
:1004400002040810204080007A290D3011241FBEBC
:10045000CFEFD1E2DEBFCDBF00E00CBF14E0A0E0E3
:10046000B2E0EAE1F4E700E00BBF02C007900D92B2
:10047000A83DB107D9F727E0A8EDB4E001C01D926F
:10048000AA30B207E1F712E0C5E2D2E000E006C010
:1004900021970109802FFE010E94A136C432D107A5
:1004A00080E00807A9F70E94A92A0C94FB390C9454
:1004B000000090E0FC01EF5FFB4F249185549C4FBE
:1004C000FC018491882399F090E0880F991FFC012A
:1004D000EF55FC4FA591B491FC01E957FC4F859174
:1004E00094918FB7F894EC91E22BEC938FBF089521
:1004F000CF93DF93EFE7F6E0EC018A819B81AC813B
:10050000BD81838B948BA58BB68B8BE597E0908F09
:10051000878BDF91CF9108951092DA0680918C0637
:1005200090918D06DC01ED91FC910488F589E02D18
:100530001994AF92BF92CF92DF92EF92FF920F93F6
:100540001F93CF93DF931F921F92CDB7DEB75C014D
:10055000D12CC12CCA14DB04A0F04091B8065091F4
:10056000B9066091BA067091BB06E091D306F0918E
:10057000D4068091CF069091D006199590E080E046
:1005800030C0E091D506F091D6068091D1069091C9
:10059000D20619957B018C011E141F04100611064A
:1005A000F4F41A8219826091C1067091C2066C0D32
:1005B0007D1DE091CD06F091CE069E012F5F3F4F4D
:1005C000A5014C195D098091C9069091CA0619953B
:1005D000009739F489819A81C80ED91EBBCF8CEF60
:1005E0009FEF0F900F90DF91CF911F910F91FF9090
:1005F000EF90DF90CF90BF90AF9008958F929F9231
:10060000AF92BF92CF92DF92EF92FF920F931F9320
:10061000CF93DF931F921F92CDB7DEB79C01260FB9
:10062000371F4091BF065091C0064217530708F488
:100630004CC05B014C01D12CC12CCA14DB0418F056
:1006400090E080E033C0E091D506F091D60680912D
:10065000D1069091D20619957B018C011E141F04BE
:10066000100611060CF51A8219826091C30670916A
:10067000C406C4018C0D9D1D680F791FE091CB0647
:10068000F091CC069E012F5F3F4FA5014C195D09EB
:100690008091C9069091CA061995009739F489810D
:1006A0009A81C80ED91EC9CF8CEF9FEF0F900F9083
:1006B000DF91CF911F910F91FF90EF90DF90CF903E
:1006C000BF90AF909F908F9008958FEF9FEFEECFE8
:1006D00080918C0690918D06009711F480E008952A
:1006E000DC01ED91FC910688F789E02D19958130A8
:1006F000A9F78091DA06089520E3FC012083329661
:10070000862F82958F706F706A3030F4605D6293CF
:10071000682F8111F5CF0895695CF9CFFC01818DB7
:10072000928D08950895282F30E0F901EF5BFC4F7A
:100730009491F901EF5FFB4F449125543C4FF9012F
:100740002491222309F435C0992311F1915092315B
:10075000F8F4E92FF0E08827EF54FC4F8F4F0C940A
:10076000A136E203E603C303DA03DE03C803E903A9
:10077000EF03F303F903FD03010407040B04C803AB
:100780000F0415041904809180008F7780938000F6
:10079000E22FF0E0EE0FFF1FE957FC4FA591B49157
:1007A0008FB7F894EC91611148C040954E234C935B
:1007B0008FBF0895809180008F7DE8CF8091800069
:1007C000877FE4CF84B58F7784BDE2CF84B58F7DFA
:1007D000FBCF8091B0008F778093B000D9CF80910C
:1007E000B0008F7DF9CF809190008F77809390003B
:1007F000CFCF809190008F7DF9CF80919000877F3F
:10080000F5CF8091A0008F778093A000C1CF809119
:10081000A0008F7DF9CF8091A000877FF5CF8091D8
:1008200020018F7780932001B3CF809120018F7DAD
:10083000F9CF80912001877FF5CF4E2BB8CF3FB7FE
:10084000F89480914B0590914C05A0914D05B09185
:100850004E0526B5A89B05C02F3F19F00196A11D96
:10086000B11D3FBFBA2FA92F982F8827BC01CD01FA
:10087000620F711D811D911D42E0660F771F881F59
:10088000991F4A95D1F708958F929F92AF92BF9288
:10089000CF92DF92EF92FF926B017C010E941F04C6
:1008A0004B015C01C114D104E104F104B9F00E94D0
:1008B0001F04681979098A099B09683E73408105FC
:1008C000910580F321E0C21AD108E108F10888EE11
:1008D000880E83E0981EA11CB11CE4CFFF90EF901E
:1008E000DF90CF90BF90AF909F908F9008952FB7DB
:1008F000F894609147057091480580914905909161
:100900004A052FBF0895CF93DF93EC014C835D839D
:100910006E837F83E885F985309741F01995688368
:1009200079838A839B83DF91CF9108950E94770416
:10093000F6CFCF92DF92EF92FF920F931F93CF9358
:10094000DF93EC01E885F985309739F11995088135
:1009500019812A813B81601771078207930700F58F
:100960000095109520953095600F711F821F931F81
:100970000C811D812E813F8168017901C61AD70A39
:10098000E80AF90AC701B601DF91CF911F910F91D3
:10099000FF90EF90DF90CF9008950E947704D7CF1B
:1009A000601B710B820B930BE3CF2F923F924F9200
:1009B0005F926F927F928F929F92AF92BF92CF92EF
:1009C000DF92EF92FF920F931F93CF93DF9300D0AC
:1009D0001F92CDB7DEB79A8389836B015C834B830B
:1009E0001901270138010E9477044B015C01D101F4
:1009F0001D921C92EB81FC81EF2B89F10E94770400
:100A0000681979098A099B09641575058605970592
:100A100030F5A981BA818D919C91DC01ED91FC9119
:100A20000288F389E02D4B815C81B6011995181677
:100A300019069CF160E070E0CB010E944404A9819A
:100A4000BA818D919C91DC01ED91FC910688F7892A
:100A5000E02D19958111CECF8BEF9FEF07C0F101EB
:100A600080819181892B51F190E080E00F900F906F
:100A70000F900F90DF91CF911F910F91FF90EF900A
:100A8000DF90CF90BF90AF909F908F907F906F90AE
:100A90005F904F903F902F900895C80ED91ED101BE
:100AA0002D913C911197280F391F2D933C93EB8189
:100AB000FC81E81BF90BFC83EB839CCF8CEF9FEF51
:100AC000D5CFCF93DF93E901DC018D919C91DC01BF
:100AD000ED91FC910280F381E02D19959983888333
:100AE000892B29F090E080E0DF91CF9108958AEF83
:100AF0009FEFFACF0895AF92BF92CF92DF92EF921D
:100B0000FF920F931F93CF93DF936C017B018B01B7
:100B1000040F151FEB015E01AE18BF08C017D10707
:100B200059F06991D601ED91FC910190F081E02D91
:100B3000C6011995892B79F7C501DF91CF911F91D6
:100B40000F91FF90EF90DF90CF90BF90AF900895FE
:100B5000FC01538D448D252F30E0842F90E0821BC3
:100B6000930B541710F0CF96089501970895FC0148
:100B7000918D828D981761F0A28DAE0FBF2FB11DA0
:100B80005D968C91928D9F5F9F73928F90E00895F8
:100B90008FEF9FEF0895FC01918D828D981731F0B2
:100BA000828DE80FF11D858D90E008958FEF9FEF06
:100BB0000895FC01918D228D892F90E0805C9F4FDC
:100BC000821B91098F73992708958DE995E00E9402
:100BD000D90521E0892B09F420E0822F0895FC013A
:100BE000A48DA80FB92FB11DA35ABF4F2C91848D8E
:100BF00090E001968F739927848FA689B7892C93EB
:100C0000A089B1898C91837080648C93938D848D3D
:100C1000981306C00288F389E02D80818F7D808340
:100C20000895EF92FF920F931F93CF93DF93EC0100
:100C300081E0888F9B8D8C8D98131AC0E889F98983
:100C4000808185FF15C09FB7F894EE89FF89608386
:100C5000E889F98980818370806480839FBF81E007
:100C600090E0DF91CF911F910F91FF90EF90089549
:100C7000F62E0B8D10E00F5F1F4F0F731127E02E24
:100C80008C8D8E110CC00FB607FCFACFE889F9895C
:100C9000808185FFF5CFCE010E94EF05F1CFEB8D6E
:100CA000EC0FFD2FF11DE35AFF4FF0829FB7F89430
:100CB0000B8FEA89FB8980818062CFCFCF93DF934E
:100CC000EC01888D8823B9F0AA89BB89E889F98964
:100CD0008C9185FD03C0808186FD0DC00FB607FC99
:100CE000F7CF8C9185FFF2CF808185FFEDCFCE01CC
:100CF0000E94EF05E9CFDF91CF91089580E090E069
:100D0000892B29F00E94E50581110E94000080E0F6
:100D100090E0892B49F080E090E0892B29F00E9437
:100D2000000081110E94000080E090E0892B49F0D2
:100D300080E090E0892B29F00E94000081110E9440
:100D4000000080E090E0892B49F080E090E0892B62
:100D500029F00E94000081110C94000008950F9367
:100D60001F93CF93DF93EC01B0E0A0E0E881F9811D
:100D70008D010F5F1F4FCB018E1B9F0B80179107BB
:100D800058F1822F8F7797E056954795379527959D
:100D90009A95D1F7211531054105510509F0806873
:100DA000EA0FFB1F8083211531054105510569F4C8
:100DB00088819981800F911F9983888390E080E0DA
:100DC000DF91CF911F910F910895D8010430110543
:100DD00069F68EEF9FEFF4CF8FEF9FEFF1CF4F9239
:100DE0005F926F927F929F92AF92BF92CF92DF926B
:100DF000EF92FF920F931F93CF93DF936C018A01C1
:100E0000DA011D921D921D921C921397DC01ED9147
:100E1000FC917B01EE1AFF0A5F01D0E0C0E0412C9B
:100E2000512C320143942196EC16FD06E0F1C530B9
:100E3000D105E1F1D5019D905D01A92DAF77B0E01D
:100E4000A30192010E945D36D8012D913D914D91F3
:100E50005C911397260F371F481F591F2D933D9301
:100E60004D935C93139787E0440C551C661C771CCC
:100E70008A95D1F797FCD7CFEC0FFD1FD601ED93E4
:100E8000FC9390E080E0DF91CF911F910F91FF9054
:100E9000EF90DF90CF90BF90AF909F907F906F903A
:100EA0005F904F9008958FEF9FEFEDCF8EEF9FEF04
:100EB000EACFFA01603871058105910538F481E0C7
:100EC00090E09183808390E080E00895611520E4B4
:100ED00072078105910518F482E090E0F2CF6F3F30
:100EE0002FEF72072FE18207910518F483E090E05D
:100EF000E8CF6F3F7F4F8F4F9F4018F484E090E022
:100F0000E0CF118210828EEF9FEF0895FC01A08147
:100F1000B181A617B70729F4DA011C928FEF9FEF72
:100F200008958C91DA018C9380819181019691834F
:100F3000808390E080E00895FC01A081B1816A1B6C
:100F40007B0B6230710568F05C93A081B1811196D2
:100F50004C938081918102969183808390E080E020
:100F600008958FEF9FEF0895AF92BF92CF92DF92D7
:100F7000EF92FF920F931F93CF93DF931F921F92D5
:100F8000CDB7DEB77C01E60EF71EE1E0F0E02630DB
:100F9000310511F0F0E0E0E0EE0FFF1F74E0220FEA
:100FA000331F7A95E1F7E22BE816F90669F16A0139
:100FB0005C01DC01ED93BA83A98322E030E040E0DC
:100FC00050E0B701CE0101960E94AF06009779F478
:100FD000A801B701CE0101960E949C07009739F441
:100FE00029813A812A193B09F601318320830F9028
:100FF0000F90DF91CF911F910F91FF90EF90DF90B5
:10100000CF90BF90AF9008958FEF9FEFF0CFCF9329
:10101000DF93DC01ED91FC9111976E1B7F0B623029
:10102000710540F4EA01198218828FEF9FEFDF917A
:10103000CF910895208130E0322F22279181290F0E
:10104000311DEA01398328833296ED93FC9390E0B9
:1010500080E0EDCFAF92BF92CF92DF92EF92FF92FE
:101060000F931F93CF93DF9300D000D01F92CDB783
:10107000DEB75A0169019E838D837C01E60EF71E5F
:101080001F82AE01495F5F4FB701CE0105960E94F6
:101090008607009749F52F81822F807F90E034E00A
:1010A000959587953A95E1F78A159B0571F523FB90
:1010B000222720F9F6012083AE014F5F5F4FB70171
:1010C000CE0105960E94EF06009771F489819A81FE
:1010D000AB81BC810297A105B105D1F4A801B7018C
:1010E000CE0105960E94070827960FB6F894DEBF3A
:1010F0000FBECDBFDF91CF911F910F91FF90EF9069
:10110000DF90CF90BF90AF90089587EF9FEFECCF27
:1011100088EF9FEFE9CF2F923F924F925F926F92AD
:101120007F928F929F92AF92BF92CF92DF92EF9277
:10113000FF920F931F93CF93DF93CDB7DEB76697E0
:101140000FB6F894DEBF0FBECDBF3C017E8B6D8B1A
:101150001A01F12CE12CF3011182108261E070E0A0
:1011600090E080E00E94FE028C3FFFEF9F0709F4B1
:1011700020C1009709F05AC06091C3067091C4065F
:10118000F301118210827A8369836F5F7F4FAE0112
:10119000485F5F4FCE0101960E948607009709F0D5
:1011A00045C08885807F90E034E0959587953A9595
:1011B000E1F7F301918380838930910579F04CF454
:1011C0000297069758F0F3011182108287EF9FEF84
:1011D0002DC08B30910511F00D97A9F719821A8255
:1011E0001B821C8210E000E02801FFEF4F1A5F0A0B
:1011F00061E070E0C2010E94FE020097B9F46091C4
:10120000C3067091C4066F5F7F4F79876887640D4E
:10121000751DAE014F5F5F4FCE0108960E94EF062D
:101220008E3F2FEF9207D9F489EF9FEF66960FB6A6
:10123000F894DEBF0FBECDBFDF91CF911F910F910C
:10124000FF90EF90DF90CF90BF90AF909F908F90E6
:101250007F906F905F904F903F902F9008950097F0
:10126000C9F469817A818B819C814B012091D706D9
:1012700021111AC0611571058105910509F091C010
:1012800089809A80FFEF8F1A9F0A8E0C9F1C840C16
:10129000951C35C019821A821B821C8282018F3FE5
:1012A000980709F4A1CFC2CF98012E5F3F4F5B0191
:1012B0006C01A20EB31EC11CD11C2091BF0630913F
:1012C000C00650E040E02A153B054C055D0590F650
:1012D0008114910489F5F30111821082E091D806FE
:1012E000F091D906309759F080819181A281B38124
:1012F0000196A11DB11D80839183A283B383F30165
:1013000080819181009709F491C18530910509F49C
:101310003AC108F050C0039709F457C021143104B2
:1013200009F47BC1F301808191812816390609F007
:1013300080C190E080E07ACFE091D506F091D606AA
:101340008091D1069091D20619957B018C011E14D3
:101350001F041006110614F54091BF065091C006F7
:101360008416950608F4A401198618866091C306B0
:101370007091C406E091CB06F091CC069E01285FE7
:101380003F4F8091C9069091CA061995009709F0C0
:101390004DCF88859985881A990A9ACF8CEF9FEF4F
:1013A00045CFC80102960E94FE02009709F468CF5B
:1013B0003DCF4701A4CF8630910509F410C10D97A8
:1013C00009F0ACCF1092BC06A9CF8091BF069091D6
:1013D000C006E090C306F090C406FF86EE86E80ED5
:1013E000F91EAE01405F5F4FB701CE010E960E941D
:1013F0008607009709F01ACF8889982F907F90333D
:1014000009F0E4CE982F91709B83867090E09595BB
:101410008795813009F49AC0512C412C823019F4FF
:1014200092E0492E512CAE01485F5F4FB701CE01CB
:101430000E960E94EF06009709F0F8CE4885598570
:101440006A857B85423051056105710508F498C0B5
:101450000E851F85E01AF10AC701FF0CAA0BBB0B12
:1014600084179507A607B70708F4DDC0040F151FFA
:10147000AE01445F5F4FB801CE010E960E9407088F
:10148000009709F0D3CE2C853D852115310509F053
:1014900061C01C8A1B8A3A8B298B4114510409F4C0
:1014A00069C0AE01445F5F4FB801CE010E960E9445
:1014B0000708009709F0BACE8E859F85081B190B87
:1014C0001F830E83012B09F058C01D821C82E091FE
:1014D000C506F091C6063097A1F06091C7067091DD
:1014E000C806A42C5A824982BA80CB80DC80ED8069
:1014F000FE800F8129893A894B895C8986EB96E0C9
:1015000019954114510409F409CF24E030E04A94BC
:10151000452811F025E030E00C851D856091BD0661
:101520007091BE06AE01485F5F4F8091C1069091F9
:10153000C2060E94B407009709F078CE8885998585
:101540000E949902009709F4E9CE70CE4424439496
:10155000512C69CF8E859F85A801481B590B4217D6
:10156000530708F460C09C8B8B8B820F931F9F875F
:101570008E8791CF1D861C869FCF9D838C83A7CF9E
:1015800088EF9FEF53CE6091BF067091C0068E0129
:10159000085F1F4F9E01245F3F4F45E050E0809160
:1015A000C3069091C4060E942A08009709F03ECE17
:1015B000088519856091BD067091BE0626E030E071
:1015C000AE014F5F5F4F8091C1069091C2060E94AD
:1015D000B407009709F02ACE89819A81B1CF609132
:1015E000BF067091C0068E01085F1F4F9E01245FE9
:1015F0003F4F46E050E08091C3069091C4060E94A0
:101600002A08009709F012CE088519856091BD0659
:101610007091BE0627E030E0D3CF8D899E89892B5B
:1016200009F080CE86CE8FEF9FEF00CE21143104DB
:10163000A1F3E091D506F091D6068091D106909164
:10164000D206199516161706180619060CF071CE53
:10165000ED89FE89309721F08E169F0608F069CE3D
:10166000740179CDFC0120812EBD9B0121503109EF
:1016700041F051810DB407FEFDCF4EB55EBD4193E3
:10168000F5CF61507109860F971F0DB407FEFDCF8E
:101690002EB5FC0120830895E091DA04F091DB047B
:1016A00080819091D904892B80830895E091DA0498
:1016B000F091DB0490818091D90480958923808307
:1016C000089590E020918705233339F40C96982FE4
:1016D000990F990F990F80E008954896F8CFCF930E
:1016E000DF931F92CDB7DEB76983DC01ED91FC91EA
:1016F0000280F381E02D41E050E0BE016F5F7F4F3B
:1017000019950F90DF91CF910895FC019485FB010D
:101710008485981303C081E0983008F080E0089534
:10172000CF93DF931F92CDB7DEB76983DC01ED91D4
:10173000FC910280F381E02D41E050E0BE016F5F3B
:101740007F4F19950F90DF91CF910895FC0184850B
:1017500095850895FC0184899589089523EA32E0EE
:10176000FC0131832083FB0140895189628973899F
:10177000FC0142835383648375830895DC01ED91FA
:10178000FC91048CF58DE02D199490E080E0089593
:10179000CF93CFB7F8948091D804811124C0E0EFA3
:1017A000F3E08491E6E3F4E09491E82FF0E0EE0FAB
:1017B000FF1FEF55FC4FA591B491EC91E92321F463
:1017C00061E085E30E94930385E30E9459028CB592
:1017D00080618CBD8CB580648CBD84E30E9459020D
:1017E00083E30E9459028091D8048F5F8093D804CC
:1017F000CFBFCF910895FC01768765870895DC01FE
:10180000ED91FC91068CF78DE02D199591E08927DB
:101810000895862F089581E08627089521E0FC0130
:101820008485883008F020E0822F089508958EBDC9
:1018300000000DB407FEFDCF8EB50895AF92BF92A4
:10184000CF92DF92EF92FF920F931F93CF93DF938C
:1018500000D000D01F921F92CDB7DEB78C017B0164
:101860006A01809187058333E1F45801A40EB51E07
:10187000A016B10609F46FC00E94560B80EF0E94BB
:10188000170C812F0E94170C802F0E94170C0F5FDE
:101890001F4FF70181917F010E94170C0E944C0B92
:1018A000E7CF5B01A40EB51E8433C1F40E94560B32
:1018B00019830A838D2D80688B83CC8264E070E06D
:1018C000CE0101960E94320BAE14BF0409F441C050
:1018D000F70181917F010E94170CF6CF0E94560BF1
:1018E0000F3F110509F028F419820A8384E08B83E5
:1018F0000CC017FD17C019820A8333E016950795AF
:101900003A95E1F7007E0C600B8386E0C816D1049F
:10191000A0F5F701DE011496EA15FB0599F0819117
:101920008D93FACFC80126E0969587952A95E1F721
:10193000807E19830A830115104C10F48461D7CF7F
:101940008C61D5CFB6016D5F7F4FCE0101960E94AD
:10195000320B0E944C0BC60128960FB6F894DEBFDE
:101960000FBECDBFDF91CF911F910F91FF90EF90F0
:10197000DF90CF90BF90AF90089563E070E0CE010C
:1019800001960E94320BF70181917F010E94170C92
:10199000AE14BF04C1F7DDCFCF93DF931F92CDB755
:1019A000DEB7898341E050E0BE016F5F7F4F90E07A
:1019B00080E00E941E0C0F90DF91CF910895DA0114
:1019C000E091DC04F0E0FE2FEE27E60FF71F90E039
:1019D000982F8827A901BD018E0F9F1F0C941E0C04
:1019E000CF93DF931F921F92CDB7DEB779836A83BF
:1019F00022E030E0AE014F5F5F4F60E170E00E9497
:101A0000DF0C0F900F90DF91CF910895CF93DF936C
:101A10001F921F92CDB7DEB779836A8322E030E050
:101A2000AE014F5F5F4F64E070E00E94DF0C0F90EB
:101A30000F90DF91CF910895CF93DF931F92CDB791
:101A4000DEB72091DC0430E0322F2227260F371F2B
:101A500090E0982F8827498341E050E0BE016F5FF6
:101A60007F4F820F931F0E941E0C0F90DF91CF912A
:101A7000089544E050E0BC018FE090E00C941E0C0F
:101A80008CBD9DBD0895FF920F931F93CF93DF935D
:101A9000EB01FC01178A168A2A81211109C02B81CA
:101AA000211106C02C81211103C02D81222301F1B7
:101AB00041155105E9F08A01FC01F08C80E591E0C7
:101AC0000E94400DAE014E5F5F4F24E030E06CE0BD
:101AD00070E08F2D0E94DF0CB8018F2D0E94F00C5A
:101AE00081E090E0DF91CF911F910F91FF900895D9
:101AF00080E0F7CFFB0101900020E9F73197AF01BB
:101B0000461B570BDC01ED91FC910280F381E02D27
:101B100019948F929F92AF92BF92EF92FF920F9380
:101B20001F93CF93DF93CDB7DEB7A1970FB6F8948D
:101B3000DEBF0FBECDBF7C01FA01CB0119A222305E
:101B400008F42AE08E010F5D1F4F822E912CB12CDC
:101B5000A12CBF01A50194010E947036F901CA01B0
:101B60006A300CF5605DD8016E938D01232B242B18
:101B7000252B79F790E080E0109721F0BD01C70197
:101B80000E947A0DA1960FB6F894DEBF0FBECDBFAE
:101B9000DF91CF911F910F91FF90EF90BF90AF9089
:101BA0009F908F900895695CDECF8F929F92AF9245
:101BB000BF92CF92DF92EF92FF920F931F93CF933A
:101BC000DF937C01EB016C0182E0C80ED11C470160
:101BD000E5E08E0E911C10E000E0F60141916F01EE
:101BE00050E070E060E02AE0CE010E94890D5C01C7
:101BF000E881F9810190F081E02D6EE2CE01199526
:101C00008A0D9B1D080F191FC814D90431F7F7015D
:101C1000458150E070E060E02AE0CE010E94890D2D
:101C2000800F911FDF91CF911F910F91FF90EF9047
:101C3000DF90CF90BF90AF909F908F9008954F927C
:101C40005F926F927F928F929F92AF92BF92CF924C
:101C5000DF92EF92FF926B017C01AC019B010E942D
:101C6000C33765EA72E081111AC046015701E89452
:101C7000B7F82FEF3FEF4FE75FE7C501B4010E94D0
:101C8000C337811126C02FEF3FEF4FE75FE7C50154
:101C9000B4010E9417351816E4F469EA72E08DE980
:101CA00095E00E947A0D7C0161EB72E08DE995E090
:101CB0000E947A0D8E0D9F1DFF90EF90DF90CF90C8
:101CC000BF90AF909F908F907F906F905F904F905C
:101CD00008952FEF3FEF4FE75FE4C701B6010E9481
:101CE000BE3718161CF46DEA72E0D9CF2FEF3FEF24
:101CF0004FE75FECC701B6010E94173587FDF3CFB0
:101D000020E030E0A901C701B6010E941735B12CCF
:101D1000A12C87FF0AC06DE28DE995E00E941106B3
:101D20005C01F7FAF094F7F8F0942AE037ED43EA13
:101D30005BE3C701B6010E94B1362B013C010E9452
:101D40008F376B017C010E941C359B01AC01C301E4
:101D5000B2010E94B0362B013C012AE0B701A60176
:101D60008DE995E00E94890D7C01EA0CFB1C6EE276
:101D70008DE995E00E941106E80EF91E20E030E0A2
:101D800040E251E4C301B2010E947D352B013C01C8
:101D90000E948F374B01B12CA12C2AE0B501A40180
:101DA0008DE995E00E94890DE80EF91EC501B40188
:101DB0000E941C359B01AC01C301B2010E94B036E8
:101DC00020E030E040E251E40E947D350E948F37F0
:101DD000AB0170E060E02AE08DE995E00E94890D9A
:101DE000E80EF91E61CFCF93DF93D0E0C0E00097FB
:101DF00031F0BC018DE995E00E947A0DEC0161EBB8
:101E000072E08DE995E00E947A0D8C0F9D1FDF91A5
:101E1000CF910895DC0160E070E0CB01109709F4E8
:101E20000895FD0101900020E9F73197EA1BFB0BB3
:101E3000B9F3BF01CD010895DC0183EA92E08D93EF
:101E40009D9384E0FB0101900D928A95E1F708953E
:101E50000F931F93CF93DF93EC012115310591F080
:101E600088819981681B790B6217730790F089014B
:101E7000BA01A9010E94DB3928813981200F311F65
:101E80003983288390E080E0DF91CF911F910F91FB
:101E900008958FEF9FEFF8CFCF92DF92EF92FF92EE
:101EA0000F931F93CF93DF93EC018B0169017A01AC
:101EB000A9010E949C07009771F49601A701B8013F
:101EC000CE01DF91CF911F910F91FF90EF90DF90A6
:101ED000CF900C94280FDF91CF911F910F91FF901D
:101EE000EF90DF90CF9008952F923F924F925F92A4
:101EF0006F927F928F929F92AF92BF92CF92DF921A
:101F0000EF92FF920F931F93CF93DF9300D01F9216
:101F10001F92CDB7DEB78C01FB01C080D180F601E6
:101F200001900020E9F731977F01EC18FD080E942D
:101F300068038D83882309F475C08090880690908B
:101F40008906A0908A06B0908B06C8010E940A0FED
:101F50002B013C01E091D306F091D406B501A40118
:101F60008091D1069091D20619950091BD061091ED
:101F7000BE062090C1063090C2063C822B82020D24
:101F8000131DC20102964701B12CA12C880E991E87
:101F9000A11CB11CAE014F5F5F4FC501B4010E948F
:101FA00059070296C1F1EB81FC81E017F10709F4B2
:101FB00052C080E380838B819C8101969C838B83BC
:101FC000A5019401B801CE0103960E94AF060097C7
:101FD000D1F4A3019201B801CE0103960E944C0FE7
:101FE000009789F49701A601B801CE0103960E94DB
:101FF000280F009741F48B819C81821993090E94DC
:102000009902009759F09093DE068093DD060E94B6
:102010008C021D8207C089EF9FEFF5CF1092DE067C
:102020001092DD068D810F900F900F900F900F9002
:10203000DF91CF911F910F91FF90EF90DF90CF90A4
:10204000BF90AF909F908F907F906F905F904F90D8
:102050003F902F9008958FEF9FEFD5CF2F923F9213
:102060004F925F926F927F928F929F92AF92BF92A8
:10207000CF92DF92EF92FF920F931F93CF93DF9354
:10208000CDB7DEB7EB970FB6F894DEBF0FBECDBF6E
:1020900084EB92E00E94F30E26E0822E912C37EF23
:1020A000232E33243A940E94680381110E948C02EB
:1020B00080918C0690918D069093A1068093A00646
:1020C00060918E0670918F0640919606509197060A
:1020D000DC01ED91FC9161157105D1F00088F18969
:1020E000E02D19951816190654F18DEF9FEF909376
:1020F000DE068093DD0660EC72E08DE995E00E94DB
:102100007A0D68EE73E080E090E00E944404CBCF4B
:102110000684F785E02D23EA32E038A32F8F009163
:10212000920610919306209194063091950609A38A
:102130001AA32BA33CA3BE01615E7F4FD2CF8FE0D9
:10214000E9E1F2E0DE015F9601900D928A95E1F7F8
:10215000A0908506B0908606309187063AAF82EC53
:1021600092E00E940A0F6F8F78A389A39AA34091EF
:1021700088065091890660918A0670918B06E090DE
:102180009806F0909906BCA2ABA28AAD8DA38FE011
:10219000FE017F96DE01509601900D928A95E1F73F
:1021A000E091D306F091D4068091D1069091D206A9
:1021B00019959501A8EEB3E00E949236AB01BC01DF
:1021C0004093B8065093B9066093BA067093BB0665
:1021D000E091D306F091D4068091CF069091D0067D
:1021E00019951092BC069092DC068092DB06009155
:1021F000BD061091BE06C090C106D090C2068FE009
:10220000FE017096DE01119601900D928A95E1F71C
:1022100048885988DBAACAAA0C0D1D1D92E0490EF8
:10222000511C712C612CAAE04A0E511C611C711CBE
:10223000E114F10461F0F7018081918127813085FB
:10224000820F931F0496480E591E611C711CAE012B
:10225000425D5F4FC301B2010E945907029609F423
:1022600008C1EAA9FBA9E017F10709F4D5C280E18A
:1022700080838AA99BA901969BAB8AABA30192019B
:10228000B801CE01C2960E94AF06009709F0ECC0DB
:1022900087EC92E00E940A0F9B01AC01B801CE01CD
:1022A000C2960E944C0F009709F0DEC0EAA9FBA974
:1022B000E017F10709F4B0C284E08083EAA9FBA922
:1022C0009F012F5F3F4F3BAB2AAB8AAD482F50E0B9
:1022D000440F551F842FE114F10489F0D70114969F
:1022E0008C911497880F880F880F4460842B8F7D02
:1022F00016964C91B0E24B9FA0011124842B20171D
:10230000310709F489C281838AA99BA901969BABF5
:102310008AABA501B801CE01C2960E949C07009726
:1023200009F0A2C029813A814B815C81B801CE01BC
:10233000C2960E944C0F009709F096C0E114F10478
:1023400009F06EC08AA99BA98C199D090E94990267
:10235000009709F089C01DAA1CAA42E050E070E075
:1023600060E0CE01C4960E948B08009709F07CC003
:102370008CA99DA9029709F075C18091BF06909123
:10238000C0060091C3061091C4061BAB0AAB080F30
:10239000191FAE01475C5F4FB801CE01C2960E9483
:1023A0008607009709F060C089AD807F803209F010
:1023B00053C1AE01425D5F4FB801CE01C2960E948B
:1023C000EF06009709F050C08EA59FA5A8A9B9A94E
:1023D0000297A105B10509F03CC1AE01485C5F4F11
:1023E000B801CE01C2960E9486070097E9F5AE01BA
:1023F0004A5C5F4FB801CE01C2960E9486070097E3
:1024000099F58EA9823009F41BC1B0F58823F1F14A
:10241000813009F40EC19092DC068092DB063AC04E
:10242000F7012081318142815381B801CE01C296EA
:102430000E944C0F0097C1F4D70117964D915C9103
:10244000B801CE01C2960E949C07009769F4F7017B
:102450002781308541855285B801CE01C2960E9400
:10246000280F009709F46ECF9093DE068093DD0667
:10247000FDC089EF9FEFF8CF843009F4E7C008F47E
:10248000E2C0853041F685E090E0D5C01092DC06D0
:102490001092DB068091DB069091DC06892B09F017
:1024A000DEC01092DE061092DD0681E08093DA062F
:1024B0008CEC92E00E94F30E69ED72E08DE995E0FC
:1024C0000E947A0D8FEE92E00E94F30E0E94680344
:1024D000882309F4E3C0C0908806D0908906E09074
:1024E0008A06F0908B068FEE92E00E940A0F4B0155
:1024F0005C01E091D306F091D406B701A60180916A
:10250000D1069091D2061995C090B606D090B70624
:10251000FFEFCF16DF0609F0ACC021E030E03093CA
:10252000B7062093B606CC24C394D12CE090BD0608
:10253000F090BE068091C1069091C2069BAF8AAF13
:102540009FA78EA7E80EF91E140193E0290E311CF7
:10255000512C412CA2E02A0E311C411C511CAE0111
:10256000415E5F4FC201B1010E945907029609F412
:1025700088C0EEA5FFA5EE15FF0509F450C182E85D
:1025800080838EA59FA501969FA78EA7A20191018A
:10259000B701CE018E960E94AF068C01892B09F0FF
:1025A00007C1A601B701CE018E960E949C078C013F
:1025B000892B09F0FDC0A5019401B701CE018E96CB
:1025C0000E944C0F8C01892B09F0F2C0EEA5FFA5EB
:1025D000EE15FF0509F423C110828EA59FA5019673
:1025E000EAADFBAD8E1B9F0B0E9499028C01892BDB
:1025F00009F0DEC01FAA1EAA49E050E070E060E0CA
:10260000CE01C6960E948B088C01892B09F0D0C0A0
:102610008EA99FA9099709F447C00FB6F894DEBFA9
:102620000FBECDBF87EF9FEF9093DE068093DD0650
:1026300033C081E090E09093DC068093DB062ACFE4
:1026400082E090E0F8CF83E090E0F5CF84E090E086
:10265000F2CF88EF9FEF08CF87EF9FEF05CF86EF90
:102660009FEF02CF3092DE062092DD060E948C02A0
:1026700042CD3FEFC31AD30AD092B706C092B60636
:1026800055CF0FB6F894DEBF0FBECDBF29EF3FEF99
:102690003093DE062093DD060E948C0263E28DE912
:1026A00095E00E94110612CF8091BF069091C0065E
:1026B000E090C306F090C406FBAAEAAAE80EF91E51
:1026C000AE01475C5F4FB701CE01C2960E948607FC
:1026D0008C01892B09F06CC089AD807F803909F0AD
:1026E0009CCFAE01415E5F4FB701CE01C2960E9402
:1026F000EF068C01892B09F05BC08F8D98A1A9A1F1
:10270000BAA10397A105B10540F40FB6F894DEBF56
:102710000FBECDBF88EF9FEF87CFAE014C5C5F4F00
:10272000B701CE01C2960E9407088C01892B09F0DF
:102730003FC04E013EE2830E911C6401B12CA12CDE
:102740008F8D98A10297A816B9061CF090E080E042
:102750005CC082E0A816B10441F1AE01485C5F4F55
:10276000B701CE01C2960E948607009701F588AD99
:102770008130A9F050F0E2E0F0E0823011F0E0E8C2
:10278000F0E0D601ED93FC9303C0D6011D921C929C
:10279000FFEFAF1ABF0A22E0C20ED11CD1CF21E059
:1027A00030E0F60131832083F3CF84EF9FEF8C017B
:1027B0000FB6F894DEBF0FBECDBF1093DE060093B8
:1027C000DD06012B09F068CFEB960FB6F894DEBF5B
:1027D0000FBECDBFDF91CF911F910F91FF90EF9072
:1027E000DF90CF90BF90AF909F908F907F906F9031
:1027F0005F904F903F902F900895D4012D913D917F
:102800004D012038310529F001968A159B05A9F75D
:10281000CFCF05EF1FEFCCCF8FEF9FEF25CE0FEF80
:102820001FEFC6CFAF92BF92CF92DF92EF92FF928F
:102830000F931F93CF93DF9300D01F92CDB7DEB7D6
:102840008C016B017A01809187058333E9F45B0188
:102850006801C40ED51EC016D106A9F10E94560B00
:102860008FE00E94170C812F0E94170C802F0E946E
:10287000170C0F5F1F4F80E00E94170CF50181932A
:102880005F010E944C0BE7CF843369F50E94560B21
:1028900019830A838F2D8F778B83EC8264E070E03D
:1028A000CE0101960E94320BA70170E060E0C601E4
:1028B0000E94E439E114F10421F0B701C6010E943D
:1028C000320B0E944C0BC7010F900F900F900F908E
:1028D000DF91CF911F910F91FF90EF90DF90CF90FC
:1028E000BF90AF9008950E94560B0F3F110509F05D
:1028F00030F419820A831B8263E070E0D1CF17FDA8
:102900000BC019820A8333E0169507953A95E1F7D3
:10291000007E08600B83F0CFC80126E0969587956E
:102920002A95E1F7807E19830A830115104C18F46B
:1029300080618B83E1CF8861FCCF1F93CF93DF93BE
:102940001F92CDB7DEB7182F80E591E00E94400DB1
:10295000812F0E94610B27E0129FF0011124E15B9F
:10296000FA4F22813381377041E050E0BE016F5F42
:102970007F4F820F931F0E94121489810F90DF9165
:10298000CF911F910895FC01808D883040F4218DF6
:10299000328D232B21F00E949D1490E008958FEF3B
:1029A0009FEF0895CF93DF93FC012485283028F012
:1029B0008FEF9FEFDF91CF910895EC010190F081AF
:1029C000E02D0084F185E02D1995892B89F38C8504
:1029D0000E949D1490E0EECFCF93DF931F92CDB76E
:1029E000DEB741E050E0BE016F5F7F4F0E941214DE
:1029F00089810F90DF91CF91089590E080E00C9451
:102A0000EC14CF93DF93C4E1D0E00E94FD1488233F
:102A100061F061E070E080E090E00E944404219762
:102A2000A1F780E0DF91CF91089581E0FBCF1F9364
:102A3000CF93DF931F921F92CDB7DEB78091DD0455
:102A40008111CFC060E372E080E090E00E94440416
:102A50000E94C80B80910202282F30E0F901E55452
:102A6000FC4FE491F0E0EE0FFF1FE957FC4F45915A
:102A700054915093DB044093DA04F901EF5FFB4F6C
:102A8000E491E093D9040E9459020E944C0B80E526
:102A900091E00E94400D84E38093870580E80E94C6
:102AA000CC0C0E940115882391F188E00E94CC0C87
:102AB0000E94FD14883059F580E10E94CC0C0E94E0
:102AC000FD14803121F580E00E94CC0C0E94FD14A1
:102AD000182F81111CC08FE190E00E94EC1483300C
:102AE000B1F480E48093DC0442E06EE170E0812F79
:102AF0000E941C0D42E06FE170E0812F0E941C0DCE
:102B00001F5F183089F781E08093DD0464C087E39C
:102B10008093870580E80E94CC0C0E9401158823D1
:102B2000F9F088E00E94CC0C0E94FD148830C1F4BA
:102B300080E10E94CC0C0E94FD14182F803181F49A
:102B400080E00E94CC0C0E94FD14811109C089E331
:102B500090E00E94EC14843019F41093DC04D3CF7D
:102B600083E38093870580E80E94CC0C0E940115C6
:102B7000882371F180E10E94CC0C0E94FD14803109
:102B800039F582E10E94CC0C0E94FD14823101F5DE
:102B900080E00E94CC0C0E94FD14811119C084E0D9
:102BA0008093DC0415E51A8341E050E0BE016E5FBE
:102BB0007F4F8BE190E00E941E0C198341E050E0B2
:102BC000BE016F5F7F4F8AE190E00E941E0C9BCF99
:102BD0001092870580E00F900F90DF91CF911F91A9
:102BE000089581E0F8CFCF92DF92EF92FF920F939A
:102BF0001F93CF93DF93CDB7DEB7E0970FB6F8946E
:102C0000DEBF0FBECDBFFB01DC0112964D915D9181
:102C10006D917C9115974DA75EA76FA778AB31E0BA
:102C200038AB8DA59EA5AFA5B8A98B8F9C8FAD8F16
:102C3000BE8FC280D380E480F58083EA92E09C8BD3
:102C40008B8B2FEF2D8B2E8B2F8B188E9E878D8746
:102C50003E8F0B8D1C8D2D8D3E8D0F87188B298BF4
:102C60003A8BC986DA86EB86FC869A8389834B8306
:102C70005C836D837E830E941715882371F180E544
:102C800091E00E94400D46E050E065E072E089E08E
:102C900090E00E941E0CCE0103960E94390D44E084
:102CA00050E0BE01615F7F4F81E090E00E941E0C0A
:102CB00044E050E0BE016B5E7F4F85E090E00E94F3
:102CC0001E0C89859A85AB85BC8580936C06909394
:102CD0006D06A0936E06B0936F06E0960FB6F8945B
:102CE000DEBF0FBECDBFDF91CF911F910F91FF903F
:102CF000EF90DF90CF9008952091DC0430E0322FE8
:102D00002227620F731F90E0982F8827860F971F46
:102D10000C94EC14CF93C82F462F61E070E00E9412
:102D20001C0D61E070E08C2F0E947C168111F9CFA0
:102D3000CF910895CF93C82F80E591E00E94400D78
:102D400068E070E08C2FCF910C948A16CF93C82F37
:102D500080E591E00E94400D60E170E08C2FCF9102
:102D60000C948A16CF93DF93EC01888D883020F481
:102D70000E94A61688E0888FDF91CF910895CF93A7
:102D8000FC01C08D80E591E00E94400D60E270E0A2
:102D90008C2F0E948A1681E090E0CF910895CF9306
:102DA000C82F80E591E00E94400D63E070E08C2F19
:102DB000CF910C947C16CF93DF93EC018C858830F7
:102DC000D0F40E94CF16843189F0882379F08831BD
:102DD00069F021E08C3159F4E881F9810084F185B2
:102DE000E02DCE01199521E0892B09F420E0822FF6
:102DF000DF91CF91089580E0FBCFCF92DF92EF92E9
:102E0000FF92CF93DF93EC018C85883068F40E94A9
:102E10009A160E9477046B017C018C850E94CF1664
:102E2000811109C088E08C87DF91CF91FF90EF90EE
:102E3000DF90CF90089561E070E080E090E00E9424
:102E400044040E947704AB01BC014C195D096E0972
:102E50007F098D859E85B0E0A0E0481759076A0775
:102E60007B07D8F28C850E94A616DCCFCF93FC019D
:102E7000C08D80E591E00E94400D60E270E08C2FF3
:102E80000E948A1662E070E08C2F0E947C1684FDFE
:102E900016C062E070E08C2F0E947C1683FF0AC08F
:102EA00048E162E070E08C2F0E941C0D80E090E011
:102EB000CF91089580E591E00E94400DE3CF40E17D
:102EC00062E070E08C2F0E941C0D81E0F0CFDA01EF
:102ED000E091DC04F0E0FE2FEE27E60FF71F90E014
:102EE000982F8827A901BD018E0F9F1F0C941214E3
:102EF0008F929F92AF92BF92CF92DF92EF92FF920A
:102F00000F931F93CF93DF93CDB7DEB760970FB6C4
:102F1000F894DEBF0FBECDBF7C0190918705911163
:102F200015C018E0812F60960FB6F894DEBF0FBE73
:102F3000CDBFDF91CF911F910F91FF90EF90DF9068
:102F4000CF90BF90AF909F908F90089508E09333FB
:102F500009F404E06B0180E591E00E94400D9E01C0
:102F60002F5F3F4F5901490110E063E070E0812F6E
:102F70000E947C16F40181934F018823C1F01F5FEA
:102F80000113F3CF00E0F50181915F018D3149F02C
:102F9000883139F08A51823020F00F5F1013F3CF5F
:102FA000C0CF60E170E0802F0E948A16102FA12E02
:102FB000B12C83EE93E00197F1F742E870E060E016
:102FC000812F0E941C0D4FEF62E070E0812F0E9464
:102FD0001C0DB601C114D10491F4809103029091AB
:102FE000040201968115F0EC9F0708F45CC09093F1
:102FF0000402809303026091030270910402812F06
:103000000E94060D86E0E8E2F2E0DE0119960190EA
:103010000D928A95E1F7F70183818F778C87848100
:103020008D8785818E87A7014E5F5F4F24E030E05A
:103030006CE070E0812F0E94DF0CB601812F0E94AE
:10304000F00C26E030E0AE01475F5F4F66E070E0D5
:10305000812F0E94DF0C61E070E0812F0E948A16B0
:1030600027E02A9DC0012B9D900D11249C01215B1E
:103070003A4F7901F9011182108222E030E0AE016D
:10308000415F5F4F68E270E0812F0E9467178F8574
:103090009889982789279827F70193838283168236
:1030A000158214823FCF80E090ECA1CFCF92DF92C7
:1030B000EF92FF920F931F93CF93DF9300D000D036
:1030C000CDB7DEB78C016B017A01FC01808D8830B1
:1030D00010F40E94A61683EA92E09A838983F6018F
:1030E00082819381A481B5818B839C83AD83BE83D0
:1030F000B701CE0101960E947817F801808F8830C1
:10310000A0F4F586E486128E118E81E026960FB625
:10311000F894DEBF0FBECDBFDF91CF911F910F910D
:10312000FF90EF90DF90CF90089580E0EFCF7F92F7
:103130008F929F92AF92BF92CF92DF92EF92FF92C7
:103140000F931F93CF93DF931F921F92CDB7DEB7DC
:10315000782E8B014A01590122E030E0AE014F5F29
:103160005F4F64E270E00E946717E980FA80FE24F6
:10317000EF24FE24E00EF11E970137704091870581
:10318000072D10E0433309F042C0085F1F4F102F96
:103190000027110F110F110FC901800F911F473325
:1031A000C9F1A9014A0D5B1D4130584098F160E01A
:1031B00078E06B01C21AD30AA601B4010E941E0C6A
:1031C000A5014C195D09B4016C0D7D1DC8010E945B
:1031D0001E0CEA0CFB1CF982EA8222E030E0AE0110
:1031E0004F5F5F4F64E270E0872D0E94DF0C0F900D
:1031F0000F90DF91CF911F910F91FF90EF90DF9093
:10320000CF90BF90AF909F908F907F900895005F78
:103210001F4FBDCFA501B401DACFEF92FF921F93EC
:10322000CF93DF931F921F92CDB7DEB7182F22E006
:1032300030E0AE014F5F5F4F60E270E00E946717C1
:10324000E980FA80FE24EF24FE2422E030E0AE0183
:103250004F5F5F4F60E270E0812F0E9467178981A6
:103260009A81982789279827E816F90689F487E034
:10327000189FF0011124E15BFA4FF582E482C70147
:103280000F900F90DF91CF911F91FF90EF900895D5
:103290007C01DBCF1F93CF93DF93182F80E591E064
:1032A0000E94400D812F0E940D19EC0163E070E037
:1032B000812F0E947C16873121F08C3111F0D0E0F3
:1032C000C0E0CE01DF91CF911F910895CF93DF939E
:1032D000EC018C85883060F40E94CF16873111F0A4
:1032E0008C3131F48C850E944A198115984088F3FD
:1032F000DF91CF910895FC018485883010F40C94FF
:103300004A1990E080E008959F92AF92BF92CF92C9
:10331000DF92EF92FF920F931F93CF93DF938C0175
:103320005B01942EE52EFC01C688D788F08C80E5E1
:1033300091E00E94400D8F2D0E940D19C92DDE2DA8
:103340008C179D0708F4EC019E01A501B6018F2D95
:103350000E949718F801868997898C0F9D1F978B7B
:10336000868BCE01DF91CF911F910F91FF90EF904F
:10337000DF90CF90BF90AF909F9008957F928F92F3
:103380009F92AF92BF92CF92DF92EF92FF920F93F4
:103390001F93CF93DF93CDB7DEB7A6970FB6F89400
:1033A000DEBF0FBECDBF8C01762E942E852E20E27F
:1033B000A22ECE0101967C01DC01EA2D1D92EA9538
:1033C000E9F76801F3E4CF0ED11C83EA92E09AA3F7
:1033D00089A38FEF8BA38CA38DA38EA343E450E02E
:1033E000BE016F5D7F4FC6010E94430D019609F437
:1033F000BFC081E089838A8386E0B82EBB821C82AD
:10340000D80114966D917D918D919C9117970E9492
:10341000A9366D837E838F83988789869A8680E814
:1034200090E09C878B874CE150E0B701C6010E9479
:103430008419FE0137968AE1DF011D928A95E9F72A
:103440004801B8E08B0E911CF401D70101900D9258
:10345000BA94E1F740E150E0B701C6010E94841937
:10346000F7011192AA94E9F796E0A92EB12C40E257
:1034700050E0B701C6010E948419F1E0AF1AB1080B
:10348000B1F783E6898392E89A8393E59B838C83E3
:1034900085E38D8381E08E837F829DE3988797E02B
:1034A00099878A8786E0F401DE011B9601900D92D0
:1034B0008A95E1F78CE0898B8A8B6BEF72E0CE0105
:1034C00043960E94F439D8011B966C91CE0149961F
:1034D0000E947C03F8016485CE014B960E947C0318
:1034E000D8011D966C91CE014D960E947C034EE151
:1034F00050E0B701C6010E948419B3E07B121EC0E0
:1035000082E3898384E08A83F80196859B8397858B
:103510009C8390899D8391899E8396E39F8388876E
:10352000828D8987838D8A87848D8B87858D8C8713
:103530004CE050E0B701C6010E94841987E38983FB
:1035400086E08A8391E09B8393E09C838D838FE068
:103550008E838AE38F838BE388878FEF898749E0A7
:1035600050E0B701C6010E948419C6010E943617B7
:10357000A6960FB6F894DEBF0FBECDBFDF91CF91F8
:103580001F910F91FF90EF90DF90CF90BF90AF9081
:103590009F908F907F9008958F929F92AF92BF924D
:1035A000CF92DF92EF92FF920F931F93CF936C0114
:1035B0005B018A01FC01C485C830F0F57A01413015
:1035C000584018F0E12C88E0F82E80E591E00E9448
:1035D000400D8C2F0E940D194C0163E070E08C2F80
:1035E0000E947C16873111F08C3149F58E149F04AE
:1035F00060F380E591E00E94400D9701A50170E025
:1036000060E08C2F0E94971860E270E08C2F0E947F
:103610008A1662E070E08C2F0E947C1684FD17C031
:1036200063E070E08C2F0E947C1681110BC081E05A
:1036300090E0F6019383828310E000E010C0F12C4B
:10364000E12CD7CF80E591E00E94400DE2CF40E130
:1036500062E070E08C2F0E941C0DEF2841F3C8013E
:10366000CF911F910F91FF90EF90DF90CF90BF907F
:10367000AF909F908F900895FF920F931F93CF93D9
:10368000DF931F921F92CDB7DEB7F82E22E030E015
:10369000AE014F5F5F4F66E270E00E9467170981DD
:1036A0001A8110270127102722E030E0AE014F5F7A
:1036B0005F4F66E270E08F2D0E94671789819A81C3
:1036C0009827892798270817190749F4C8010F90E8
:1036D0000F90DF91CF911F910F91FF9008958C0172
:1036E000E3CF1F93CF93DF93182F87E0189FE0015C
:1036F0001124C15BDA4F88819981009761F480E5DC
:1037000091E00E94400D812F0E943C1B2E81821B64
:10371000910999838883DF91CF911F910895FC01CE
:103720008485883010F40C94711B90E080E008953B
:103730004F925F927F928F929F92AF92BF92CF9261
:10374000DF92EF92FF920F931F93CF93DF931F921D
:103750001F92CDB7DEB7782E6B014A01A82EB12C8F
:1037600027E0829FC0011124FC01E15BFA4F7F0139
:103770000081118180E591E00E94400D0815190536
:1037800054F4872D0E943C1BF70126818C01021BFB
:103790001109118300830115110529F563E070E01B
:1037A000872D0E947C16843159F0882349F001E06E
:1037B00010E08C3111F410E000E011950195110931
:1037C000C8010F900F90DF91CF911F910F91FF9043
:1037D000EF90DF90CF90BF90AF909F908F907F90B1
:1037E0005F904F900895801691060CF4840187E055
:1037F0008A9DF0018B9DF00D1124E15BFA4FE28070
:10380000F380C114D10451F12701F7E05F22872D25
:103810000E94610B840D951D20918705273309F4C3
:1038200053C09801240D351D2130384008F44CC098
:1038300020E038E0490184189508A401B6010E94EF
:1038400012142601480C591C6801C818D908872D84
:103850000E94610BA601B2010E941214E00EF11E3B
:1038600087E08A9DF0018B9DF00D1124E15BFA4FFA
:10387000F382E28220813181201B310B318320834E
:103880008681800F912F911D8A3F910510F4232B83
:10389000F1F487E08A9DF0018B9DF00D1124E15B2E
:1038A000FA4F1682F982EA8222E030E0AE014F5FE1
:1038B0005F4F68E270E0872D0E94DF0C60E470E0EB
:1038C000872D0E948A167CCFA801B601C5CF8683BA
:1038D00077CFCF93DF93FC01218D328D21153105F8
:1038E00029F48FEF9FEFDF91CF910895EC01808D48
:1038F0004217530708F0A9010E94981B18161906D1
:1039000084F7298D3A8D281B390B3A8F298FEBCFFD
:103910000F931F93CF93DF931F92CDB7DEB7FC01B8
:10392000218D328D232B41F48FEF9FEF0F90DF918C
:10393000CF911F910F9108958C0141E050E0BE019D
:103940006F5F7F4FFC01808D0E94981B181619062F
:103950005CF7F801818D928D0197928F818F89811B
:1039600090E0E4CF0F931F93CF93DF9300D000D06C
:103970001F921F92CDB7DEB78C01D80159964D9199
:103980005C915A974115510551F0ED91FC91048CD1
:10399000F58DE02D70E060E0C8011995EECFF801DB
:1039A000808D0E94711B892BB1F148E050E0BE016F
:1039B0006F5F7F4FD80158968C910E94981B181604
:1039C0001906F4F4D801509684E0FE013196019076
:1039D0000D928A95E1F78D8190E0982F88272E81AE
:1039E000820F911DF801958B848B8F81282F30E0F9
:1039F000322F22278885820F932F911D928F818FDE
:103A000028960FB6F894DEBF0FBECDBFDF91CF91E1
:103A10001F910F91089590E080E0F2CFCF93DF9354
:103A20001F92CDB7DEB741E050E0BE016F5F7F4F20
:103A3000FC0184850E94981B1816190634F48981AC
:103A400090E00F90DF91CF9108958FEF9FEFF9CF26
:103A5000FC018485883010F40C94981B90E080E081
:103A600008958F929F92AF92BF92CF92DF92EF9282
:103A7000FF920F931F93CF93DF9300D000D000D01D
:103A80001F92CDB7DEB790918705911115C018E050
:103A9000812F2A960FB6F894DEBF0FBECDBFDF91FF
:103AA000CF911F910F91FF90EF90DF90CF90BF903B
:103AB000AF909F908F90089528E0F22E933311F4E9
:103AC00094E0F92E6B01082F80E591E00E94400DF3
:103AD0009E012F5F3F4F5901490110E063E070E004
:103AE000812F0E947C16F40181934F018823C1F03D
:103AF0001F5FF112F3CFF12CF50191915F019D3120
:103B000049F0983139F09A51923020F0F3941F1116
:103B1000F3CFBDCF60E170E08F2D0E948A161F2D7C
:103B2000E12EF12C83EE93E00197F1F7402F70E046
:103B300060E0812F0E941C0D4FEF62E070E0812F4A
:103B40000E941C0DB601CD2889F48091030290914A
:103B5000040201968115F0EC9F0798F190930402FE
:103B6000809303026091030270910402812F0E94EE
:103B7000060D61E070E0812F0E948A1627E02E9DDD
:103B8000C0012F9D900D11249C01215B3A4F7901BA
:103B9000F9011182108222E030E0AE01475F5F4FF1
:103BA00068E270E0812F0E94671789859A859827BF
:103BB00089279827F70193838283168215821482BE
:103BC00067CF80E090ECCACF0F931F93CF93DF9322
:103BD000EC018B01888D883010F40E94A616B80184
:103BE00082E00E94311D888F883050F41D870C8739
:103BF0001A8E198E81E0DF91CF911F910F91089558
:103C000080E0F9CF4F925F926F927F928F929F9256
:103C1000AF92BF92CF92DF92EF92FF920F931F93DA
:103C2000CF93DF93CDB7DEB763970FB6F894DEBFBF
:103C30000FBECDBF7C016B013A01FB0120E090E09B
:103C400080E06AE03191332309F461C040ED430F15
:103C50004A3008F04DC0689FA001699F500D1124A3
:103C6000CA01C097830F911D37FD9A958F3F91052B
:103C700049F340F3F701428153816481758180915A
:103C8000480690914906A0914A06B0914B06481704
:103C900059076A077B0709F40DC28701085F1F4FA8
:103CA0000E9477046F7077277C5FC8010E94E41D33
:103CB000813009F004C283EA92E09A838983F70194
:103CC00082819381A481B5818B839C83AD83BE83E4
:103CD00045E350E0BE016F5F7F4FC8010E94430D76
:103CE000892BA9F5D12CC12CC8010E94B21617C08E
:103CF0003E3209F0BFCF233009F4BCCFD301A20F6D
:103D0000B11D12968C932F5F90E080E09BCF233003
:103D100009F0B0CFF3018583CC24C394D12CC60124
:103D200063960FB6F894DEBF0FBECDBFDF91CF9183
:103D30001F910F91FF90EF90DF90CF90BF90AF90C9
:103D40009F908F907F906F905F904F9008950E940A
:103D50007704F7017783668342E050E0B7016A5F3A
:103D60007F4FC8010E94841981E090E09A83898383
:103D700042E050E0BE016F5F7F4FC8010E9484198E
:103D800080E091E09A83898342E050E0BE016F5F5A
:103D90007F4FC8010E9484191A82198242E050E0C4
:103DA000BE016F5F7F4FC8010E94841942E050E05E
:103DB000BE016F5F7F4FC8010E94841942E050E04E
:103DC000BE016F5F7F4FC8010E9484195601F60142
:103DD0008081882301F16501F60181912F018823FB
:103DE00011F08E32B1F446018A189B081814190498
:103DF00074F48D8641E050E0BE01635F7F4FC801DF
:103E00000E948419A401B501C8010E9484195201BD
:103E1000DECF6201E1CF1D8641E050E0BE01635F6D
:103E20007F4FC8010E948419C12CDD24D394DA820B
:103E3000C98242E050E0BE016F5F7F4FC8010E941F
:103E40008419DA82C98242E050E0BE016F5F7F4F81
:103E5000C8010E948419C8010E943617892B09F4F1
:103E600041CFF3E0AF2EB12C230122E0420E511CD2
:103E7000D4C0F7014281538164817581808D918D19
:103E8000A28DB38D481759076A077B0709F008C14F
:103E9000848D958DC59709F003C181A192A15DEF35
:103EA000C52EDD24DA940C970CF4ADC04CE050E044
:103EB000BE016F5F7F4FC8010E94691C8B819C818E
:103EC0009827892798279A8B898BF70146815781F4
:103ED00029813A814217530709F0E7C097FFE5C0EF
:103EE0008F7092703BEFC32EDD24DA94892B09F09A
:103EF0008AC06F8078847624672476242AEFC22EC5
:103F0000DD24DA946114710409F47DC0D12CC12C34
:103F10008D819E81982789279827C816D906F8F49D
:103F200041E050E0BE01635F7F4FC8010E94691C01
:103F30004D85442331F050E070E060E0C8010E94FC
:103F4000691C8D858111ECCF44E050E070E060E0A9
:103F5000C8010E94691CFFEFCF1ADF0AD9CF912C4C
:103F6000812C41E050E0BE016D5E7F4FC8010E9490
:103F7000691C4B89842F807C09F06CC0442331F08C
:103F800050E070E060E0C8010E94691C8B898111DB
:103F9000E8CF42E050E0BE01615F7F4FC8010E9460
:103FA000691C42E050E0BE01635F7F4FC8010E9480
:103FB000691C44E050E070E060E0C8010E94691CA8
:103FC00042E050E0BE016F5E7F4FC8010E94691C55
:103FD0008F85988949895A898115914009F043C094
:103FE000CD84DE84DC24CD24DC2481E0C816D10419
:103FF000D1F54115544009F04AC044E050E0B20107
:10400000C8010E94691C21E0A21AB10809F46CCE13
:10401000FFEFCF16DF0609F067CE0E9477043B0161
:104020004C01C8010E94B21C181619060CF421CFCD
:104030000E947704661977098809990969387341DC
:104040008105910548F562E370E080E090E00E9410
:104050004404E7CF41E050E070E060E0C8010E9416
:10406000691C1B8A93CF54274527542770E060E0D2
:10407000C8010E94691CFFEF8F1A9F0A6814790417
:1040800009F06FCF96EFC92EDD24DA94BCCFE7EFAD
:10409000CE2EDD24DA94B7CFCC24CA94DC2CB3CF57
:1040A0006EEFC62EDD24DA94AECF4CEFC42EDD24A5
:1040B000DA94A9CF8EEFC82EDD24DA9430CED12C3D
:1040C000C12C2DCECF92DF92EF92FF920F931F93D0
:1040D000CF93DF93CDB7DEB7AF970FB6F894DEBFBF
:1040E0000FBECDBF7C016A0103EA12E01A83098387
:1040F0001C861B8688EE93E0A0E0B0E08D879E874B
:10410000AF87B88B82E392E09A878987188F0F8BED
:10411000198E1A8E1B8E1C8E88E089A31BA70AA7F6
:104120001CA61DA61EA61FA680916C0690916D066A
:10413000A0916E06B0916F068EA39FA3A8A7B9A702
:104140008B839C83AD83BE8318861F82AE01465D40
:104150005F4FCE0101960E94021E81309105B1F49D
:10416000D701ED91FC910488F589E02D1DA30CA3E6
:104170008CA59DA5AEA5BFA58EA39FA3A8A7B9A7F3
:10418000A601BE016C5D7F4FC7011995AF960FB6B2
:10419000F894DEBF0FBECDBFDF91CF911F910F917D
:1041A000FF90EF90DF90CF900895CF92DF92EF9243
:1041B000FF920F931F93CF93DF93CDB7DEB7AF97E7
:1041C0000FB6F894DEBF0FBECDBF8C016B017A0134
:1041D00083EA92E09A8389831B821C821D821E825D
:1041E0001C861B8648EE53E060E070E04D875E87DA
:1041F0006F87788B22E332E03A872987988F8F8BFD
:10420000198E1A8E1B8E1C8E28E029A39BA78AA7C5
:104210001CA61DA61EA61FA6D8011C968C91883030
:1042200060F40E94CF16882321F0F80184850E9453
:104230009A1688E0D8011C968C9380916C06909118
:104240006D06A0916E06B0916F068EA39FA3A8A7DE
:10425000B9A78B839C83AD83BE8318861F82AE0172
:10426000465D5F4FB601CE0101960E94021E009787
:10427000C1F0D801ED91FC910684F785E02D83EA29
:1042800092E09DA38CA38CA59DA5AEA5BFA58EA3F2
:104290009FA3A8A7B9A7A701BE016C5D7F4FC80166
:1042A0001995AF960FB6F894DEBF0FBECDBFDF9164
:1042B000CF911F910F91FF90EF90DF90CF900895D5
:1042C000CF92DF92EF92FF921F93CF93DF93EC0197
:1042D0007B016A018C85883048F40E94CF168823C0
:1042E00019F08C850E949A1688E08C87F7018281EC
:1042F0009381A481B5810097A105B10551F490E0A7
:1043000080E0DF91CF911F91FF90EF90DF90CF90F1
:1043100008958F3F9F4FAF4FBF4F89F370E060E02C
:1043200081E20E94311D182F8C87883040F780E58C
:1043300091E00E94400DA7014E5F5F4F24E030E006
:104340006CE070E0812F0E94DF0CB601812F0E948B
:10435000F00C64E070E0812F0E948A160E947704BE
:104360006B017C018C850E94CF16873111F18C3155
:1043700001F1882321F20E947704AB01BC014C19A2
:104380005D096E097F098D859E85B0E0A0E08417E8
:104390009507A607B70738F061E070E080E090E08D
:1043A0000E944404DFCF8C850E94A61688E08C878B
:1043B000A6CF81E090E0A5CF0F931F93CF93DF931B
:1043C0001F921F92CDB7DEB7FC0124852830E0F4A0
:1043D0008C0180E591E00E94400D22E030E0AE01CA
:1043E0004F5F5F4F60E170E0F80184850E946717BE
:1043F00089819A819827892798270F900F90DF91BC
:10440000CF911F910F91089590E080E0F6CFEF9249
:10441000FF920F931F93CF93DF9300D01F92CDB7DE
:10442000DEB78C017B01FB0184858830A8F083EA2C
:1044300092E0F801918380831282138214821582A4
:10444000C8010F900F900F900F90DF91CF911F91A7
:104450000F91FF90EF90089580E591E00E94400D4C
:1044600024E030E0AE014F5F5F4F6CE070E0F70199
:1044700084850E946717BE016F5F7F4FC8010E944D
:104480001C0FDECF0F931F93CF93DF931F921F92CA
:10449000CDB7DEB7FC0124852830E0F48C0180E53F
:1044A00091E00E94400D22E030E0AE014F5F5F4F8F
:1044B00064E070E0F80184850E94671789819A8121
:1044C0009827892798270F900F90DF91CF911F9100
:1044D0000F91089590E080E0F6CFFC0124813581B2
:1044E000232B39F421E0FB018081882349F020E06F
:1044F00007C0808191810E94EB3921E0892BB9F7B7
:10450000822F08950F931F93CF93DF93EC0188813F
:104510009981009759F02A813B812617370730F09F
:1045200081E0DF91CF911F910F9108958B016F5F13
:104530007F4F0E94ED38009759F0998388831B8341
:104540000A832C813D81232B59F7FC011082E8CF8F
:1045500080E0E7CFCF93DF93EC01888199810097CA
:1045600011F00E946438198218821D821C821B82FD
:104570001A82DF91CF910895EF92FF920F931F93CC
:10458000CF93DF93EC01198218821B821A821D825D
:104590001C826115710521F18B01FB010190002046
:1045A000E9F731977F01E61AF70AB7010E948222E4
:1045B000811109C0CE01DF91CF911F910F91FF9022
:1045C000EF900C94AA22FD82EC82B8018881998137
:1045D000DF91CF911F910F91FF90EF900C94F439E0
:1045E000DF91CF911F910F91FF90EF900895CF929F
:1045F000DF92EF92FF920F931F93CF93DF93CDB78C
:10460000DEB7A1970FB6F894DEBF0FBECDBF7C0119
:10461000CB01BA01F7011182108213821282158236
:1046200014828E010F5F1F4F22E044E00E9445304C
:104630006C01009771F0FC0101900020E9F73197BF
:104640008F01081B190BB801C7010E94822281113A
:1046500012C0C7010E94AA22A1960FB6F894DEBF2D
:104660000FBECDBFDF91CF911F910F91FF90EF90C3
:10467000DF90CF900895F70115830483B601808100
:1046800091810E94F439E8CFFC01808191810097EB
:1046900011F00C94643808958F929F92AF92BF925C
:1046A000CF92DF92EF92FF920F931F93CF93DF93FE
:1046B00000D000D0CDB7DEB74B015C0120E030E088
:1046C00040E85AE30E947D3520E030EF4FE755E4A3
:1046D0000E947D356B017C0120E030EF4FE755E40F
:1046E0000E9417350FEF1FE087FF05C0C701B60115
:1046F0000E948F378B0178018FE0F8226894F4F8DC
:1047000080910207909103070E94400D60E0809124
:1047100077060E9493038F2D0E94170C8E2D0E9406
:10472000170C61E0809177060E94930380917606D2
:10473000882351F060E0809178060E94930361E045
:10474000809178060E9493038092990590929A0531
:10475000A0929B05B0929C05B501A401CE010196E3
:104760000E94F722BE016F5F7F4F82E093E00E94BC
:10477000740FCE0101960E94442340E050E060E8AF
:1047800074E4CE0101960E94F722BE016F5F7F4F55
:1047900085E293E00E94740FCE0101960E944423AB
:1047A00066E473E08DE995E00E947A0DA80170E05F
:1047B00060E02AE08DE995E00E94890D69E573E0EB
:1047C0008DE995E00E947A0D60E070E080E894E465
:1047D0000E941F0E26960FB6F894DEBF0FBECDBF07
:1047E000DF91CF911F910F91FF90EF90DF90CF90CD
:1047F000BF90AF909F908F9008954F925F926F926D
:104800007F928F929F92AF92BF92CF92DF92EF9260
:10481000FF920E947704072E000C880B990B0E94D0
:104820001E354B015C01209191053091920540911C
:104830009305509194050E94B0366B017C0120E0F5
:1048400030E0A9010E94BE37181624F0F7FAF09460
:10485000F7F8F0942091890530918A0540918B05F5
:1048600050918C0560910B0270910C0280910D02A9
:1048700090910E020E94B0362B013C016091000223
:1048800070910102072E000C880B990B0E941E35B7
:104890009B01AC01C301B2010E941D37A701960123
:1048A0000E947D356B017C0168E673E08DE995E03F
:1048B0000E947A0DC701B6010E941F0E20E030E071
:1048C0004AE754E4C701B6010E941D3720919905BB
:1048D00030919A0540919B0550919C050E94B136FC
:1048E0000E944C238092910590929205A09293058C
:1048F000B0929405FF90EF90DF90CF90BF90AF9073
:104900009F908F907F906F905F904F9008954F92FF
:104910005F926F927F928F929F92AF92BF92CF924F
:10492000DF92EF92FF920E947704072E000C880B13
:10493000990B0E941E354B015C012091910530912D
:10494000920540919305509194050E94B0366B01F9
:104950007C0120E030E0A9010E94BE37181624F047
:10496000F7FAF094F7F8F0942091890530918A05D0
:1049700040918B0550918C0560910B0270910C0257
:1049800080910D0290910E020E94B0362B013C01E5
:104990006091000270910102072E000C880B990BA8
:1049A0000E941E359B01AC01C301B2010E941D375C
:1049B000A70196010E947D356B017C010E941F0EAC
:1049C00063E773E08DE995E00E947A0DC701B601B7
:1049D0000E941F0E20E030E04AE754E4C701B60110
:1049E0000E941D379B01AC016091990570919A0559
:1049F00080919B0590919C050E94B0360E944C23AB
:104A00008092910590929205A0929305B0929405A0
:104A1000FF90EF90DF90CF90BF90AF909F908F90DE
:104A20007F906F905F904F9008954F925F926F923A
:104A30007F928F929F92AF92BF92CF92DF92EF922E
:104A4000FF9220E030E0A9016091950570919605F4
:104A500080919705909198050E941735811125C086
:104A60000E9477040E941C3560939505709396050B
:104A700080939705909398050E9477040E941C35B7
:104A8000609391057093920580939305909394059C
:104A9000FF90EF90DF90CF90BF90AF909F908F905E
:104AA0007F906F905F904F900895C0908D05D0904B
:104AB0008E05E0908F05F09090058090890590908C
:104AC0008A05A0908B05B0908C05A5019401C701C3
:104AD000B6010E94173587FF0EC0FF90EF90DF9060
:104AE000CF90BF90AF909F908F907F906F905F908E
:104AF0004F900C94FD2340900B0250900C0260905C
:104B00000D0270900E02A3019201C701B6010E942E
:104B1000BE3718168CF481E080938805FF90EF90E3
:104B2000DF90CF90BF90AF909F908F907F906F90CD
:104B30005F904F900C948724A3019201C701B601A6
:104B40000E94173587FFA4CFA5019401C701B601C4
:104B50000E94BE3718160CF09BCF809188058823E1
:104B600009F4BBCFDBCF4F925F926F927F928F920F
:104B70009F92AF92BF92CF92DF92EF92FF920F93EC
:104B80001F93CF93DF93CDB7DEB769970FB6F89435
:104B9000DEBF0FBECDBF4B0129013A01AB8ABC8AF3
:104BA000CD8ADE8AEF8AF88E098FCDB6DEB60E8901
:104BB0001F89A88CB98CC90101962DB73EB7281B57
:104BC000390B0FB6F8943EBF0FBE2DBF8DB79EB701
:104BD00001967C01A201B3010E94DB394E0C5F1CDF
:104BE000D2011C920115110521F0F801EA0DFB1DFF
:104BF0001082D4011496ED91FC911597309739F1FC
:104C00009501A801B7018D919C9119950FB6F89463
:104C1000DEBE0FBECDBE0FB6F894DEBE0FBECDBE5B
:104C200069960FB6F894DEBF0FBECDBFDF91CF916E
:104C30001F910F91FF90EF90DF90CF90BF90AF90BA
:104C40009F908F907F906F905F904F900895F401A8
:104C500082819381892BD1F2B701CE0107960E9400
:104C6000BC2263EB72E0CE010D960E94BC220115BE
:104C7000110509F1B801CE0101960E94BC228D8573
:104C80009E85009769F169817A816115710531F11D
:104C90004F8558892D813E8142175307F8F00E94B5
:104CA000F4398D819E819A8B898B1E821D82CE0163
:104CB00001960E944423D4011296ED91FC91BE010D
:104CC000635F7F4FCE0107961995CE010D960E9426
:104CD0004423CE0107960E94442398CF0E94643853
:104CE00089819A819E878D878B819C81988B8F8704
:104CF0008D819E819A8B898B1A8219821C821B82DC
:104D0000D4CF3F924F925F926F927F928F929F92F9
:104D1000AF92BF92CF92DF92EF92FF920F931F93C9
:104D2000CF93DF93CDB7DEB7EA970FB6F894DEBF27
:104D30000FBECDBF7C012A013B0169010E947704AF
:104D40004B015C0187010D5B1F4FC8010E94B21C23
:104D5000181619069CF00E947704681979098A09C7
:104D60009B09461657066806790608F466C162E391
:104D700070E080E090E00E944404E7CF42E250E01F
:104D8000BE016F5F7F4FC8010E94691C898182301C
:104D9000D1F0312C832DEA960FB6F894DEBF0FBE0A
:104DA000CDBFDF91CF911F910F91FF90EF90DF90DA
:104DB000CF90BF90AF909F908F907F906F905F90BB
:104DC0004F903F900895F801848995898334910527
:104DD00001F76D817E818F8198850E94A9364B01F4
:104DE0005C01F60180829182A282B38246E050E0AB
:104DF000B701685F7F4FCE014D960E94CE39892B57
:104E000041F6F70180819181A281B38188169906CC
:104E1000AA06BB0608F4BDCF84819581A681B7811F
:104E200088159905AA05BB0508F4B3CF89899A8925
:104E3000AB89BC8986879787A08BB18B4EEC50E0FD
:104E400070E060E0C8010E94691C312CC7018296A5
:104E500098AB8FA7F701B696FAABE9AB08969CAB77
:104E60008BAB67019AE1C90ED11CBD96FEABEDABD1
:104E7000C701429698AF8FABFD97FAAFE9AF4701F4
:104E8000FEE18F0E911CF801818D928D1816190686
:104E90000CF080CFC8010E94881C8333910509F46F
:104EA000B2C014F58130910509F464C044F4892B33
:104EB00051F3C8010E94881CAC01552775C083308E
:104EC000910509F462C00697A1F7C8010E94881CE9
:104ED000B82E44E050E0B401C8010E94691CEB2DDB
:104EE000E450FF0BAF0160C08A33910509F45FC045
:104EF00084F585339105B1F1C697D9F6C8010E94B2
:104F0000881C5C01B601CE0189960E941C0F8BA5FE
:104F10009CA5ADA5BEA5892B8A2B8B2BB1F0EDA945
:104F2000FEA94080518062807380B601CE018396D5
:104F30000E941C0F8DA19EA1AFA1B8A5A501481686
:104F400059066A067B0609F0B8CF44E050E0B60186
:104F500018C08B33910509F440C08F3F910509F4C7
:104F600092CFA7CFC8010E94881CC8010E94881C4C
:104F7000382E89CFC8010E94881C44E050E06FA9F8
:104F800078ADC8010E94691C7ECFC8010E94881CB0
:104F9000B82E44E050E069AD7AADC8010E94691CAA
:104FA0008B2D8450990BAC0170E060E0EACFC80112
:104FB0000E94881C44E050E069A97AA9C8010E94B7
:104FC000691CF70166A177A180A591A50E94A93669
:104FD00066A377A380A791A756CFC8010E94881C1B
:104FE00044E050E06BA97CA9C8010E94691CF7014C
:104FF00062A573A584A595A50E94A93662A773A78B
:1050000084A795A740CFC8010E94881C44E050E0C7
:105010006FA578A9C8010E94691CF70162A173A15C
:1050200084A195A10E94A93662A373A384A395A32A
:1050300066A777A780AB91AB26CF33243A94AACE4C
:105040000F931F93CF93DF93EC018B016EE773E017
:105050000E946D22882399F0F80180819181009748
:1050600051F00E940B310E941E35DF91CF911F91AC
:105070000F910C944C2360E070E0CB01F4CF6AE90F
:1050800073E0CE010E946D2281112BC065EB73E0AD
:10509000CE010E946D22882371F010929505109226
:1050A00096051092970510929805DF91CF911F9168
:1050B0000F910C94152565EC73E0CE010E946D22D2
:1050C0008823C1F0F80180819181009779F00E94D6
:1050D000073160930B0270930C0280930D02909342
:1050E0000E02DF91CF911F910F91089560E070E063
:1050F000CB01EFCF6EED73E0CE010E946D228823CD
:10510000A1F0F80180819181009759F00E94073148
:105110006093890570938A0580938B0590938C0525
:10512000E0CF60E070E0CB01F3CF67EF73E0CE013A
:105130000E946D228823C1F0109295051092960569
:105140001092970510929805F8018081918100973F
:1051500039F00E940B317093010260930002C1CFBD
:1051600060E070E0CB01F7CF60E174E0CE010E9417
:105170006D22882309F4B5CFF801808191810097D1
:1051800059F00E94073160938D0570938E058093CE
:105190008F059093900589CF60E070E0CB01F3CF4D
:1051A0001F920F920FB60F9211242F933F938F935C
:1051B0009F93AF93BF938091470590914805A0912D
:1051C0004905B0914A053091460523E0230F2D375C
:1051D00058F50196A11DB11D209346058093470502
:1051E00090934805A0934905B0934A0580914B05DB
:1051F00090914C05A0914D05B0914E050196A11DD1
:10520000B11D80934B0590934C05A0934D05B09331
:105210004E05BF91AF919F918F913F912F910F902C
:105220000FBE0F901F90189526E8230F0296A11D20
:10523000B11DD2CF1F920F920FB60F9211240BB651
:105240000F922F933F934F935F936F937F938F931F
:105250009F93AF93BF93EF93FF938DE995E00E94E7
:10526000EF05FF91EF91BF91AF919F918F917F914A
:105270006F915F914F913F912F910F900BBE0F90C7
:105280000FBE0F901F9018951F920F920FB60F929E
:1052900011240BB60F922F938F939F93EF93FF934D
:1052A000E091AD05F091AE058081E091B305F091FC
:1052B000B40582FD1DC090818091B6058F5F8F730C
:1052C0002091B705821741F0E091B605F0E0E35672
:1052D000FA4F958F8093B605FF91EF919F918F9133
:1052E0002F910F900BBE0F900FBE0F901F9018952F
:1052F0008081F2CFCF92DF92EF92FF920F931F93B4
:10530000CF93DF93EDE9F5E01382128288EE93E00C
:10531000A0E0B0E084839583A683B78323E632E0E0
:105320003183208325EC30E03587248724EC30E07E
:105330003787268720EC30E0318B208B21EC30E062
:10534000338B228B22EC30E0358B248B26EC30E043
:10535000378B268B118E128E138E148EEAE3F6E0B5
:1053600003EA12E0118300831282138214821582F1
:10537000E0E4F6E011830083128213821482158226
:10538000E6E4F6E011830083128213821482158210
:10539000ECE4F6E0118300831282138214821582FA
:1053A000E2E5F6E0118300831282138214821582F3
:1053B000E8E5F6E0118300831282138214821582DD
:1053C000EEE5F6E0118300831282138214821582C7
:1053D000E4E6F6E0118300831282138214821582C0
:1053E000E0E7F6E0118300831282138214821582B3
:1053F000EAE6F6E01183008312821382148215829A
:10540000ECEFF6E01183008312821382148215827E
:10541000E6EFF6E01183008320ECD22ED28238EA48
:10542000E32EE38244E6F42EF48222EB2583E0EFC0
:10543000F6E011830083D282E382F482CC24C39409
:10544000C582E1EEF6E01382128284839583A683FF
:10545000B78325E732E03183208328E0248728EED4
:1054600033E036872587CFE7D6E02AE030E03F8378
:105470002E83C88689879A87AB87BC871E861D8640
:10548000188A1F861A8B098B1B8A1C8A1D8A1E8A02
:10549000188E1F8A1A8E198E1C8E1B8E1E8E1D8EC4
:1054A00018A21F8E1AA219A21BA21CA21DA21EA224
:1054B0001FA218A619A61AA61CA61BA61DA61EA6E4
:1054C0001FA618AA19AA1AAA1BAA1CAA1EAA1DAAB4
:1054D000E6EBF6E084E2DF011D928A95E9F710928F
:1054E000DA061092DC061092DB061092DE061092AD
:1054F000DD061092E0061092DF0680E890E09983C6
:10550000888381E890E00E94C8379B838A8380E883
:1055100090E00E94C8379D838C83E9E7F6E0118311
:105520000083D282E382F4828BE98583E6E7F6E0AA
:10553000108211821282E2E0F7E080E58083C1826E
:10554000DF91CF911F910F91FF90EF90DF90CF905F
:105550000895CF93DF93CDB7DEB72C970FB6F894AD
:10556000DEBF0FBECDBF789484B5826084BD84B5A4
:10557000816084BD85B5826085BD85B5816085BD4E
:1055800080916E00816080936E0010928100809106
:10559000810082608093810080918100816080938E
:1055A0008100809180008160809380008091B100B3
:1055B00084608093B1008091B00081608093B000DE
:1055C0008091910082608093910080919100816030
:1055D00080939100809190008160809390008091F1
:1055E000A10082608093A1008091A10081608093DE
:1055F000A1008091A00081608093A0008091210192
:10560000826080932101809121018160809321013A
:105610008091200181608093200180917A008460D4
:1056200080937A0080917A00826080937A008091E2
:105630007A00816080937A0080917A0080688093FC
:105640007A001092C100E091AD05F091AE0582E0C4
:105650008083E091A905F091AA051082E091AB0545
:10566000F091AC0580E180831092B505E091B10521
:10567000F091B20586E08083E091AF05F091B0052E
:10568000808180618083E091AF05F091B0058081D9
:1056900088608083E091AF05F091B00580818068DB
:1056A0008083E091AF05F091B00580818F7D80838C
:1056B0008DE00E9459028CE00E9459028BE00E940A
:1056C000590280E3809377061092760661E00E948B
:1056D0009303809177060E9459020E94C80B11E043
:1056E000109376068FE28093780661E00E94930320
:1056F000809178060E94590287E18093020280918E
:105700003E05811129C0109226051092250588EECC
:1057100093E0A0E0B0E08093270590932805A09344
:105720002905B0932A0582E392E0909324058093A3
:10573000230583EA92E0909332058093310510921D
:10574000330510923405109235051092360588E025
:1057500080933B0510933E0580EE94E09093DF0428
:105760008093DE040E941715882309F4E4C380E5C2
:1057700091E00E94400D46E050E065E072E089E073
:1057800090E00E941E0C83EA92E09A8389831B8238
:105790001C821D821E82CE0103960E94390D10923A
:1057A000020510920305109204051092050510924F
:1057B000060510920705109208051092090510922F
:1057C0000A0510920B0510920C0510920D0580E64B
:1057D0009AEEA0E0B0E08093160590931705A09391
:1057E0001805B093190580EA9FE0A0E0B0E080932F
:1057F0001A0590931B05A0931C05B0931D05EEEEB2
:10580000F4E084E1DF011D928A95E9F786E0E5E0A6
:10581000F2E0A8EEB4E001900D928A95E1F71092C3
:1058200022050E94AF302FEC37E040E050E00E94AC
:105830003E36DC01CB010196A11DB11D8093E4042D
:105840009093E504A093E604B093E7048093E0040A
:105850009093E104A093E204B093E30483E295E023
:105860000E94B21664E470E083E295E00E94E41DB9
:10587000882309F460C30E9477046B017C0158EE11
:10588000452E53E0552E612C712C63E0962E02E0DC
:10589000B12CA12C80912205833009F440C08111E4
:1058A00049C28091E4049091E504A091E604B0918E
:1058B000E7040196A11DB11D8093E4049093E504D3
:1058C000A093E604B093E7040E9477046C197D0965
:1058D0008E099F09A30192010E947036A90161E01F
:1058E00080EE94E00E94BE1981E08093220591E051
:1058F000A916B10479F20E9477046C197D098E090A
:105900009F09209116053091170540911805509177
:105910001905261737074807590708F0B9CF83E25A
:1059200095E00E94B2168091E4049091E504A09164
:10593000E604B091E7040196A11DB11D8093E40433
:105940009093E504A093E604B093E7040E947704E3
:1059500060931E0570931F05809320059093210589
:10596000AA94AB2809F0E7C280E591E00E94400DBF
:105970000091DE041091DF04B801625F7F4FCE0119
:1059800001960E941C0FCE0103960E94390DB801AA
:105990006A5E7F4FCE0101960E941C0F44E050E0EA
:1059A000BE016D5F7F4F81E090E00E941E0CB80148
:1059B0006E5E7F4FCE0101960E941C0F44E050E0C6
:1059C000BE016D5F7F4F85E090E00E941E0CB80124
:1059D000625E7F4FCE0101960E941C0F8B819C81DD
:1059E000AD81BE8180936C0690936D06A0936E0688
:1059F000B0936F060E941F047F7380910302909101
:105A000004026827792770930402609303026CE212
:105A100074E08DE995E00E947A0D83EA92E09A8322
:105A200089831B821C821D821E8280E591E00E9478
:105A3000400D44E050E0BE016D5F7F4F8FE090E08D
:105A40000E9412146DE975E0CE0101960E94D50DF9
:105A500061EB72E08DE995E00E947A0D80917B0602
:105A600090917C06A0917D06B0917E0689879A87E9
:105A7000AB87BC8781EE96E090938D0680938C0671
:105A800080917F0690918006209181063091820658
:105A9000409183065091840661E070E07093B706F0
:105AA0006093B6061092B8061092B9061092BA0624
:105AB0001092BB061092BC065093C2064093C106DA
:105AC0009093BE068093BD063093C4062093C30610
:105AD0009093C0068093BF061092C6061092C5062A
