:100000000C9498010C94C9010C94C9010C94C90179
:100010000C94C9010C94C9010C94C9010C94C90138
:100020000C94C9010C94C9010C94C9010C94C90128
:100030000C94C9010C94C9010C94C9010C94C90118
:100040000C94C9010C94C9010C94C9010C94C90108
:100050000C94C9010C94C9010C94C9010C94AF26ED
:100060000C94C9010C9423270C94F9260C94C90113
:100070000C94C9010C94C9010C94C9010C94C901D8
:100080000C94C9010C94C9010C94C9010C94C901C8
:100090000C94C9010C94C9010C94C9010C94C901B8
:1000A0000C94C9010C94C9010C94C9010C94C901A8
:1000B0000C94C9010C94C9010C94C9010C94C90198
:1000C0000C94C9010C94C9010C94C9010C94C90188
:1000D0000C94C9010C94C9010C94C9010C94C90178
:1000E0000C94C9010C9417060C9438030C94E8077F
:1000F0000C949F1A0C9451170C94BA150C944F033E
:100100000C94AD150C9492050C943B030C94FB1AC3
:100110000C94DA220C94E20C0C94F41F0C94260339
:100120000C94DD070C94751A0C94B9180C94030305
:100130000C9467030C94D11B0C9461180C947C19DB
:100140000C9459030C941A050C945D030C945303FE
:100150000C949F130C9461030C942C030C9455087D
:100160000C9442240C94151B0C9445080C942F20DD
:100170000C94561A0C945C080C9466030C9470054D
:100180000C9461050C9459270C943C040C94F00CCD
:100190000C947F180C946F0D0C943D080C94C91F9F
:1001A0000C9484050C944F1E0C9452040C94C707B5
:1001B0000C9430030C94C21E0C94CA050C943403A6
:1001C0000C94D6150C9441030C9406080C949013CF
:1001D0000C94F50C0C9476180C9407030C94322FA5
:1001E0000C948E040C946B030C9431160C94F8153B
:1001F0000C944D1F0C94F20C0C94E60C0C944108DA
:100200000C9434050C9445030C944B03000020001F
:100210002300260029002C002F00320000010000DE
:1002200003010601090100000A0B02090C0D0E086A
:1002300007030401000000000000000000000000AF
:1002400000000000000000000000000000000000AE
:10025000000012111000000000000000000000006B
:10026000000000000000000000000000000022006C
:10027000250028002B002E00310034000201000070
:10028000050108010B0100002100240027002A00BD
:100290002D003000330001010000040107010A01B4
:1002A00005050505070508080808020202020A0AF2
:1002B0000808040404040101010101010101030310
:1002C000030303030303040707070C0C0C0C0C0CBB
:1002D0000C0C0202020206060606060606060B0BB8
:1002E0000B0B0B0B0B0B01021020200808102040F9
:1002F00010204080020102010804020101020408EA
:100300001020408080402010080402018004020177
:1003100080402010080402010804020101020408C0
:100320001020408001020408102040805927322FFD
:1003300011241FBECFEFD1E2DEBFCDBF00E00CBF66
:1003400015E0A0E0B2E0E4EFF5E600E00BBF02C08C
:1003500007900D92A230B107D9F727E0A2E0B5E0EF
:1003600001C01D92A432B207E1F711E0C7E9D1E064
:1003700000E006C021970109802FFE010E94A630EF
:10038000C639D10780E00807A9F70E947B280C94A2
:10039000E8320C940000CF93DF93EDE9F6E0EC0136
:1003A0008A819B81AC81BD81838B948BA58BB68B1D
:1003B0008BE597E0908F878BDF91CF910895109216
:1003C000F8068091AA069091AB06DC01ED91FC91B4
:1003D0000488F589E02D1994AF92BF92CF92DF92F5
:1003E000EF92FF920F931F93CF93DF931F921F9271
:1003F000CDB7DEB75C01D12CC12CCA14DB04A0F050
:100400004091D6065091D7066091D8067091D906D2
:10041000E091F106F091F2068091ED069091EE06E2
:10042000199590E080E030C0E091F306F091F40679
:100430008091EF069091F00619957B018C011E14B6
:100440001F0410061106F4F41A8219826091DF0667
:100450007091E0066C0D7D1DE091EB06F091EC06CD
:100460009E012F5F3F4FA5014C195D098091E70662
:100470009091E8061995009739F489819A81C80E00
:10048000D91EBBCF8CEF9FEF0F900F90DF91CF91D4
:100490001F910F91FF90EF90DF90CF90BF90AF90A2
:1004A00008958F929F92AF92BF92CF92DF92EF9278
:1004B000FF920F931F93CF93DF931F921F92CDB79D
:1004C000DEB79C01260F371F4091DD065091DE06F6
:1004D0004217530708F44CC05B014C01D12CC12CCE
:1004E000CA14DB0418F090E080E033C0E091F3061A
:1004F000F091F4068091EF069091F00619957B013A
:100500008C011E141F04100611060CF51A821982A4
:100510006091E1067091E206C4018C0D9D1D680F8B
:10052000791FE091E906F091EA069E012F5F3F4FA7
:10053000A5014C195D098091E7069091E80619958F
:10054000009739F489819A81C80ED91EC9CF8CEFE2
:100550009FEF0F900F90DF91CF911F910F91FF9020
:10056000EF90DF90CF90BF90AF909F908F900895C5
:100570008FEF9FEFEECF8091AA069091AB06009788
:1005800011F480E00895DC01ED91FC910688F78973
:10059000E02D19958130A9F78091F80608958CBD5A
:1005A0009DBD089590E0FC01EA51FD4F24918056D5
:1005B0009D4FFC018491882399F090E0880F991F4A
:1005C000FC01EA57FD4FA591B491FC01E459FD4FA0
:1005D000859194918FB7F894EC91E22BEC938FBFB7
:1005E000089520E3FC0120833296862F82958F7038
:1005F0006F706A3030F4605D6293682F8111F5CFBF
:100600000895695CF9CFFC01818D928D089508955C
:100610008150823108F05AC0E82FF0E08827EC5E64
:10062000FC4F8F4F0C94A6303403380326032C0361
:10063000300366033B03410345034B034F0353035E
:1006400059035D036603610367036B0380918000B8
:100650008F77809380000895809180008F7DF9CFFF
:1006600080918000877FF5CF84B58F7784BD089512
:1006700084B58F7DFBCF8091B0008F778093B000E1
:1006800008958091B0008F7DF9CF809190008F7791
:10069000809390000895809190008F7DF9CF809194
:1006A0009000877FF5CF8091A0008F778093A00086
:1006B00008958091A0008F7DF9CF8091A000877F61
:1006C000F5CF809120018F7780932001089580914C
:1006D00020018F7DF9CF80912001877FF5CFCF93C7
:1006E000DF93EFE5F2E08491EFE1F3E0D491E9EDFF
:1006F000F2E0C491CC23A1F081110E940803EC2FF9
:10070000F0E0EE0FFF1FE45FFD4FA591B491EC9177
:10071000ED2381E090E009F480E0DF91CF9108952E
:1007200080E090E0FACF1F93CF93DF93282F30E043
:10073000F901EA5DFD4F8491F901EA51FD4FD49131
:10074000F901E056FD4FC491CC23A9F0162F811179
:100750000E940803EC2FF0E0EE0FFF1FE459FD4F5D
:10076000A591B4918FB7F894EC91111108C0D09570
:10077000DE23DC938FBFDF91CF911F910895DE2B95
:10078000F8CF90917B00977F90937B008653806495
:1007900080937C0080917A00806480937A008091BD
:1007A0007A0086FDFCCF80917800909179000895C1
:1007B0003FB7F8948091810590918205A0918305BF
:1007C000B091840526B5A89B05C02F3F19F001966E
:1007D000A11DB11D3FBFBA2FA92F982F8827BC019B
:1007E000CD01620F711D811D911D42E0660F771FC3
:1007F000881F991F4A95D1F708958F929F92AF92C3
:10080000BF92CF92DF92EF92FF926B017C010E9428
:10081000D8034B015C01C114D104E104F104B9F027
:100820000E94D803681979098A099B09683E7340B8
:100830008105910580F321E0C21AD108E108F10891
:1008400088EE880E83E0981EA11CB11CE4CFFF90B7
:10085000EF90DF90CF90BF90AF909F908F900895D2
:100860002FB7F89460917D0570917E0580917F058A
:10087000909180052FBF0895CF93DF93EC014C83B7
:100880005D836E837F83E885F985309741F0199504
:10089000688379838A839B83DF91CF9108950E9437
:1008A0003004F6CFCF92DF92EF92FF920F931F9317
:1008B000CF93DF93EC01E885F985309739F11995ED
:1008C000088119812A813B8160177107820793078C
:1008D00000F50095109520953095600F711F821FCF
:1008E000931F0C811D812E813F8168017901C61AF9
:1008F000D70AE80AF90AC701B601DF91CF911F9123
:100900000F91FF90EF90DF90CF9008950E943004F8
:10091000D7CF601B710B820B930BE3CF2F923F92CB
:100920004F925F926F927F928F929F92AF92BF92FF
:10093000CF92DF92EF92FF920F931F93CF93DF93AB
:1009400000D01F92CDB7DEB79A8389836B015C8399
:100950004B831901270138010E9430044B015C01CF
:10096000D1011D921C92EB81FC81EF2B89F10E9439
:100970003004681979098A099B096415750586058B
:10098000970530F5A981BA818D919C91DC01ED919B
:10099000FC910288F389E02D4B815C81B6011995A9
:1009A000181619069CF160E070E0CB010E94FD036F
:1009B000A981BA818D919C91DC01ED91FC91068811
:1009C000F789E02D19958111CECF8BEF9FEF07C0EE
:1009D000F10180819181892B51F190E080E00F90AD
:1009E0000F900F900F90DF91CF911F910F91FF907B
:1009F000EF90DF90CF90BF90AF909F908F907F90BF
:100A00006F905F904F903F902F900895C80ED91E21
:100A1000D1012D913C911197280F391F2D933C93B3
:100A2000EB81FC81E81BF90BFC83EB839CCF8CEF03
:100A30009FEFD5CFCF93DF93E901DC018D919C919E
:100A4000DC01ED91FC910280F381E02D19959983F1
:100A50008883892B29F090E080E0DF91CF91089581
:100A60008AEF9FEFFACF0895AF92BF92CF92DF92B5
:100A7000EF92FF920F931F93CF93DF936C017B0153
:100A80008B01040F151FEB015E01AE18BF08C017E4
:100A9000D10759F06991D601ED91FC910190F08157
:100AA000E02DC6011995892B79F7C501DF91CF910A
:100AB0001F910F91FF90EF90DF90CF90BF90AF907C
:100AC0000895FC01538D448D252F30E0842F90E054
:100AD000821B930B541710F0CF9608950197089539
:100AE000FC01918D828D981761F0A28DAE0FBF2F02
:100AF000B11D5D968C91928D9F5F9F73928F90E058
:100B000008958FEF9FEF0895FC01918D828D9817C6
:100B100031F0828DE80FF11D858D90E008958FEF03
:100B20009FEF0895FC01918D228D892F90E0805CCC
:100B30009F4F821B91098F73992708958EEB95E043
:100B40000E94920521E0892B09F420E0822F08956C
:100B5000FC01A48DA80FB92FB11DA35ABF4F2C9132
:100B6000848D90E001968F739927848FA689B78929
:100B70002C93A089B1898C91837080648C93938D20
:100B8000848D981306C00288F389E02D80818F7DC3
:100B900080830895EF92FF920F931F93CF93DF937B
:100BA000EC0181E0888F9B8D8C8D98131AC0E889A9
:100BB000F989808185FF15C09FB7F894EE89FF8978
:100BC0006083E889F98980818370806480839FBF16
:100BD00081E090E0DF91CF911F910F91FF90EF9016
:100BE0000895F62E0B8D10E00F5F1F4F0F73112726
:100BF000E02E8C8D8E110CC00FB607FCFACFE88961
:100C0000F989808185FFF5CFCE010E94A805F1CF3B
:100C1000EB8DEC0FFD2FF11DE35AFF4FF0829FB7D4
:100C2000F8940B8FEA89FB8980818062CFCFCF93C4
:100C3000DF93EC01888D8823B9F0AA89BB89E88904
:100C4000F9898C9185FD03C0808186FD0DC00FB6AA
:100C500007FCF7CF8C9185FFF2CF808185FFEDCF28
:100C6000CE010E94A805E9CFDF91CF91089580E0E1
:100C700090E0892B29F00E949E0581110E940000BE
:100C800080E090E0892B49F080E090E0892B29F00A
:100C90000E94000081110E94000080E090E0892BFA
:100CA00049F080E090E0892B29F00E94000081113A
:100CB0000E94000080E090E0892B49F080E090E005
:100CC000892B29F00E94000081110C9400000895E6
:100CD000FC0120812EBD9B012150310941F0518141
:100CE0000DB407FEFDCF4EB55EBD4193F5CF61500B
:100CF0007109860F971F0DB407FEFDCF2EB5FC01BD
:100D000020830895E0910305F0910405808190917E
:100D10000205892B80830895E0910305F091040575
:100D200090818091020580958923808308958EBDEE
:100D300000000DB407FEFDCF8EB50895AF92BF92AF
:100D4000CF92DF92EF92FF920F931F93CF93DF9397
:100D500000D000D01F921F92CDB7DEB78C017B016F
:100D60006A018091BD058333E1F45801A40EB51EDC
:100D7000A016B10609F46FC00E948C0680EF0E9495
:100D80009706812F0E949706802F0E9497060F5F7B
:100D90001F4FF70181917F010E9497060E948206F2
:100DA000E7CF5B01A40EB51E8433C1F40E948C060C
:100DB00019830A838D2D80688B83CC8264E070E078
:100DC000CE0101960E946806AE14BF0409F441C02A
:100DD000F70181917F010E949706F6CF0E948C0651
:100DE0000F3F110509F028F419820A8384E08B83F0
:100DF0000CC017FD17C019820A8333E016950795BA
:100E00003A95E1F7007E0C600B8386E0C816D104AA
:100E1000A0F5F701DE011496EA15FB0599F0819122
:100E20008D93FACFC80126E0969587952A95E1F72C
:100E3000807E19830A830115104C10F48461D7CF8A
:100E40008C61D5CFB6016D5F7F4FCE0101960E94B8
:100E500068060E948206C60128960FB6F894DEBF87
:100E60000FBECDBFDF91CF911F910F91FF90EF90FB
:100E7000DF90CF90BF90AF90089563E070E0CE0117
:100E800001960E946806F70181917F010E949706F2
:100E9000AE14BF04C1F7DDCFCF93DF931F92CDB760
:100EA000DEB7898341E050E0BE016F5F7F4F90E085
:100EB00080E00E949E060F90DF91CF91089590E010
:100EC0002091BD05233339F40C96982F990F990F73
:100ED000990F80E008954896F8CFDA01E091060571
:100EE000F0E0FE2FEE27E60FF71F90E0982F8827FF
:100EF000A901BD018E0F9F1F0C949E06CF93DF9317
:100F00001F921F92CDB7DEB779836A8322E030E06B
:100F1000AE014F5F5F4F60E170E00E946D070F9080
:100F20000F90DF91CF910895CF93DF931F921F927F
:100F3000CDB7DEB779836A8322E030E0AE014F5F40
:100F40005F4F64E070E00E946D070F900F90DF919B
:100F5000CF910895CF93DF931F92CDB7DEB7209145
:100F6000060530E0322F2227260F371F90E0982FFA
:100F70008827498341E050E0BE016F5F7F4F820FB9
:100F8000931F0E949E060F90DF91CF910895CF93FB
:100F9000DF931F92CDB7DEB76983DC01ED91FC9141
:100FA0000280F381E02D41E050E0BE016F5F7F4F92
:100FB00019950F90DF91CF910895FC019485FB0165
:100FC0008485981303C081E0983008F080E008958C
:100FD000CF93DF931F92CDB7DEB76983DC01ED912C
:100FE000FC910280F381E02D41E050E0BE016F5F93
:100FF0007F4F19950F90DF91CF91089544E050E015
:10100000BC018FE090E00C949E060895FF920F9330
:101010001F93CF93DF93EB01FC01178A168A2A8175
:10102000211109C02B81211106C02C81211103C07F
:101030002D81222301F141155105E9F08A01FC01BE
:10104000F08C80E591E00E94CF02AE014E5F5F4FD1
:1010500024E030E06CE070E08F2D0E946D07B80155
:101060008F2D0E947E0781E090E0DF91CF911F914C
:101070000F91FF90089580E0F7CFFC01848595855E
:101080000895FC018489958908952DE932E0FC01D9
:1010900031832083FB014089518962897389FC0176
:1010A00042835383648375830895DC01ED91FC9141
:1010B000048CF58DE02D199490E080E008950F9355
:1010C0001F93CF93DF93EC01B0E0A0E0E881F981BA
:1010D0008D010F5F1F4FCB018E1B9F0B8017910758
:1010E00058F1822F8F7797E056954795379527953A
:1010F0009A95D1F7211531054105510509F0806810
:10110000EA0FFB1F8083211531054105510569F464
:1011100088819981800F911F9983888390E080E076
:10112000DF91CF911F910F910895D80104301105DF
:1011300069F68EEF9FEFF4CF8FEF9FEFF1CF4F92D5
:101140005F926F927F929F92AF92BF92CF92DF9207
:10115000EF92FF920F931F93CF93DF936C018A015D
:10116000DA011D921D921D921C921397DC01ED91E4
:10117000FC917B01EE1AFF0A5F01D0E0C0E0412C38
:10118000512C320143942196EC16FD06E0F1C53056
:10119000D105E1F1D5019D905D01A92DAF77B0E0BA
:1011A000A30192010E946230D8012D913D914D9191
:1011B0005C911397260F371F481F591F2D933D939E
:1011C0004D935C93139787E0440C551C661C771C69
:1011D0008A95D1F797FCD7CFEC0FFD1FD601ED9381
:1011E000FC9390E080E0DF91CF911F910F91FF90F1
:1011F000EF90DF90CF90BF90AF909F907F906F90D7
:101200005F904F9008958FEF9FEFEDCF8EEF9FEFA0
:10121000EACFFA01603871058105910538F481E063
:1012200090E09183808390E080E00895611520E450
:1012300072078105910518F482E090E0F2CF6F3FCC
:101240002FEF72072FE18207910518F483E090E0F9
:10125000E8CF6F3F7F4F8F4F9F4018F484E090E0BE
:10126000E0CF118210828EEF9FEF0895FC01A081E4
:10127000B181A617B70729F4DA011C928FEF9FEF0F
:1012800008958C91DA018C938081918101969183EC
:10129000808390E080E00895FC01A081B1816A1B09
:1012A0007B0B6230710568F05C93A081B18111966F
:1012B0004C938081918102969183808390E080E0BD
:1012C00008958FEF9FEF0895AF92BF92CF92DF9274
:1012D000EF92FF920F931F93CF93DF931F921F9272
:1012E000CDB7DEB77C01E60EF71EE1E0F0E0263078
:1012F000310511F0F0E0E0E0EE0FFF1F74E0220F87
:10130000331F7A95E1F7E22BE816F90669F16A01D5
:101310005C01DC01ED93BA83A98322E030E040E078
:1013200050E0B701CE0101960E945F08009779F462
:10133000A801B701CE0101960E944C09009739F42B
:1013400029813A812A193B09F601318320830F90C4
:101350000F90DF91CF911F910F91FF90EF90DF9051
:10136000CF90BF90AF9008958FEF9FEFF0CFCF93C6
:10137000DF93DC01ED91FC9111976E1B7F0B6230C6
:10138000710540F4EA01198218828FEF9FEFDF9117
:10139000CF910895208130E0322F22279181290FAB
:1013A000311DEA01398328833296ED93FC9390E056
:1013B00080E0EDCFAF92BF92CF92DF92EF92FF929B
:1013C0000F931F93CF93DF9300D000D01F92CDB720
:1013D000DEB75A0169019E838D837C01E60EF71EFC
:1013E0001F82AE01495F5F4FB701CE0105960E9493
:1013F0003609009749F52F81822F807F90E034E0F5
:10140000959587953A95E1F78A159B0571F523FB2C
:10141000222720F9F6012083AE014F5F5F4FB7010D
:10142000CE0105960E949F08009771F489819A81E8
:10143000AB81BC810297A105B105D1F4A801B70128
:10144000CE0105960E94B70927960FB6F894DEBF25
:101450000FBECDBFDF91CF911F910F91FF90EF9005
:10146000DF90CF90BF90AF90089587EF9FEFECCFC4
:1014700088EF9FEFE9CF2F923F924F925F926F924A
:101480007F928F929F92AF92BF92CF92DF92EF9214
:10149000FF920F931F93CF93DF93CDB7DEB766977D
:1014A0000FB6F894DEBF0FBECDBF3C017E8B6D8BB7
:1014B0001A01F12CE12CF3011182108261E070E03D
:1014C00090E080E00E9451028C3FFFEF9F0709F4FB
:1014D00020C1009709F05AC06091E1067091E206C0
:1014E000F301118210827A8369836F5F7F4FAE01AF
:1014F000485F5F4FCE0101960E943609009709F0C0
:1015000045C08885807F90E034E0959587953A9531
:10151000E1F7F301918380838930910579F04CF4F0
:101520000297069758F0F3011182108287EF9FEF20
:101530002DC08B30910511F00D97A9F719821A82F1
:101540001B821C8210E000E02801FFEF4F1A5F0AA7
:1015500061E070E0C2010E9451020097B9F460910D
:10156000E1067091E2066F5F7F4F79876887640DAF
:10157000751DAE014F5F5F4FCE0108960E949F0818
:101580008E3F2FEF9207D9F489EF9FEF66960FB643
:10159000F894DEBF0FBECDBFDF91CF911F910F91A9
:1015A000FF90EF90DF90CF90BF90AF909F908F9083
:1015B0007F906F905F904F903F902F90089500978D
:1015C000C9F469817A818B819C814B012091F50658
:1015D00021111AC0611571058105910509F091C0AD
:1015E00089809A80FFEF8F1A9F0A8E0C9F1C840CB3
:1015F000951C35C019821A821B821C8282018F3F82
:10160000980709F4A1CFC2CF98012E5F3F4F5B012D
:101610006C01A20EB31EC11CD11C2091DD063091BD
:10162000DE0650E040E02A153B054C055D0590F6CE
:101630008114910489F5F30111821082E091F6067C
:10164000F091F706309759F080819181A281B381A2
:101650000196A11DB11D80839183A283B383F30101
:1016600080819181009709F491C18530910509F439
:101670003AC108F050C0039709F457C0211431044F
:1016800009F47BC1F301808191812816390609F0A4
:1016900080C190E080E07ACFE091F306F091F4060B
:1016A0008091EF069091F00619957B018C011E1434
:1016B0001F041006110614F54091DD065091DE0658
:1016C0008416950608F4A401198618866091E1062F
:1016D0007091E206E091E906F091EA069E01285F2A
:1016E0003F4F8091E7069091E8061995009709F021
:1016F0004DCF88859985881A990A9ACF8CEF9FEFEC
:1017000045CFC80102960E945102009709F468CFA4
:101710003DCF4701A4CF8630910509F410C10D9744
:1017200009F0ACCF1092DA06A9CF8091DD06909136
:10173000DE06E090E106F090E206FF86EE86E80E17
:10174000F91EAE01405F5F4FB701CE010E960E94B9
:101750003609009709F01ACF8889982F907F903327
:1017600009F0E4CE982F91709B83867090E0959558
:101770008795813009F49AC0512C412C823019F49C
:1017800092E0492E512CAE01485F5F4FB701CE0168
:101790000E960E949F08009709F0F8CE488559855B
:1017A0006A857B85423051056105710508F498C052
:1017B0000E851F85E01AF10AC701FF0CAA0BBB0BAF
:1017C00084179507A607B70708F4DDC0040F151F97
:1017D000AE01445F5F4FB801CE010E960E94B7097B
:1017E000009709F0D3CE2C853D852115310509F0F0
:1017F00061C01C8A1B8A3A8B298B4114510409F45D
:1018000069C0AE01445F5F4FB801CE010E960E94E1
:10181000B709009709F0BACE8E859F85081B190B72
:101820001F830E83012B09F058C01D821C82E0919A
:10183000E306F091E4063097A1F06091E50670911F
:10184000E606A42C5A824982BA80CB80DC80ED80E7
:10185000FE800F8129893A894B895C8984ED96E065
:1018600019954114510409F409CF24E030E04A9459
:10187000452811F025E030E00C851D856091DB06E0
:101880007091DC06AE01485F5F4F8091DF0690915A
:10189000E0060E946409009709F078CE8885998552
:1018A0000E94EC01009709F4E9CE70CE44244394E1
:1018B000512C69CF8E859F85A801481B590B421773
:1018C000530708F460C09C8B8B8B820F931F9F87FC
:1018D0008E8791CF1D861C869FCF9D838C83A7CF3B
:1018E00088EF9FEF53CE6091DD067091DE068E018A
:1018F000085F1F4F9E01245F3F4F45E050E08091FD
:10190000E1069091E2060E94DA09009709F03ECEC6
:10191000088519856091DB067091DC0626E030E0D1
:10192000AE014F5F5F4F8091DF069091E0060E940D
:101930006409009709F02ACE89819A81B1CF60911C
:10194000DD067091DE068E01085F1F4F9E01245F49
:101950003F4F46E050E08091E1069091E2060E9400
:10196000DA09009709F012CE088519856091DB0627
:101970007091DC0627E030E0D3CF8D899E89892BDA
:1019800009F080CE86CE8FEF9FEF00CE2114310478
:10199000A1F3E091F306F091F4068091EF069091A7
:1019A000F006199516161706180619060CF071CED2
:1019B000ED89FE89309721F08E169F0608F069CEDA
:1019C000740179CDFC01768765870895DC01ED917E
:1019D000FC91068CF78DE02D199591E089270895EB
:1019E000862F089581E08627089521E0FC018485F3
:1019F000883008F020E0822F0895FB01019000203C
:101A0000E9F73197AF01461B570BDC01ED91FC91D3
:101A10000280F381E02D1994CF93DF93FC01448180
:101A20005581608171818EEB95E00E943405EC0157
:101A30006FE972E08EEB95E00E94FD0C8C0F9D1F0C
:101A4000DF91CF9108958F929F92AF92BF92EF92C4
:101A5000FF920F931F93CF93DF93CDB7DEB7A1977C
:101A60000FB6F894DEBF0FBECDBF7C01FA01CB01EB
:101A700019A2223008F42AE08E010F5D1F4F822E3A
:101A8000912CB12CA12CBF01A50194010E947530AD
:101A9000F901CA016A300CF5605DD8016E938D01C1
:101AA000232B242B252B79F790E080E0109721F051
:101AB000BD01C7010E94FD0CA1960FB6F894DEBFD0
:101AC0000FBECDBFDF91CF911F910F91FF90EF908F
:101AD000BF90AF909F908F900895695CDECF8F92FA
:101AE0009F92AF92BF92CF92DF92EF92FF920F93AD
:101AF0001F93CF93DF937C01EB016C0182E0C80E52
:101B0000D11C4701E5E08E0E911C10E000E0F601CB
:101B100041916F0150E070E060E02AE0CE010E9448
:101B2000230D5C01E881F9810190F081E02D6EE2E6
:101B3000CE0119958A0D9B1D080F191FC814D904D1
:101B400031F7F701458150E070E060E02AE0CE0116
:101B50000E94230D800F911FDF91CF911F910F9154
:101B6000FF90EF90DF90CF90BF90AF909F908F90BD
:101B70000895CF93DF93D0E0C0E0009731F0BC012F
:101B80008EEB95E00E94FD0CEC016FE972E08EEBAC
:101B900095E00E94FD0C8C0F9D1FDF91CF91089561
:101BA000DC0160E070E0CB01109709F40895FD01BD
:101BB00001900020E9F73197EA1BFB0BB9F3BF0155
:101BC000CD010895DC018DE992E08D939D9384E031
:101BD000FB0101900D928A95E1F708950F931F93F1
:101BE000CF93DF93EC012115310591F08881998124
:101BF000681B790B6217730790F08901BA01A9017C
:101C00000E94C83228813981200F311F39832883EF
:101C100090E080E0DF91CF911F910F9108958FEFB9
:101C20009FEFF8CFCF92DF92EF92FF920F931F9327
:101C3000CF93DF93EC018B0169017A01A9010E9426
:101C40004C09009771F49601A701B801CE01DF910C
:101C5000CF911F910F91FF90EF90DF90CF900C9458
:101C6000EE0DDF91CF911F910F91FF90EF90DF90DC
:101C7000CF9008952F923F924F925F926F927F92F2
:101C80008F929F92AF92BF92CF92DF92EF92FF928C
:101C90000F931F93CF93DF9300D01F921F92CDB766
:101CA000DEB78C01FB01C080D180F60101900020DD
:101CB000E9F731977F01EC18FD080E94BB028D8384
:101CC000882309F475C08090A6069090A706A0907E
:101CD000A806B090A906C8010E94D00D2B013C01B6
:101CE000E091F106F091F206B501A4018091EF06B2
:101CF0009091F00619950091DB061091DC0620907A
:101D0000DF063090E0063C822B82020D131DC201DB
:101D100002964701B12CA12C880E991EA11CB11C62
:101D2000AE014F5F5F4FC501B4010E9409090296E1
:101D3000C1F1EB81FC81E017F10709F452C080E3A7
:101D400080838B819C8101969C838B83A501940168
:101D5000B801CE0103960E945F080097D1F4A30159
:101D60009201B801CE0103960E94120E009789F4E9
:101D70009701A601B801CE0103960E94EE0D0097CF
:101D800041F48B819C81821993090E94EC01009798
:101D900059F09093FC068093FB060E94DF011D82A0
:101DA00007C089EF9FEFF5CF1092FC061092FB065B
:101DB0008D810F900F900F900F900F90DF91CF912A
:101DC0001F910F91FF90EF90DF90CF90BF90AF9059
:101DD0009F908F907F906F905F904F903F902F904B
:101DE00008958FEF9FEFD5CF2F923F924F925F9242
:101DF0006F927F928F929F92AF92BF92CF92DF921B
:101E0000EF92FF920F931F93CF93DF93CDB7DEB77F
:101E1000EB970FB6F894DEBF0FBECDBF62EA72E05B
:101E20008EEB95E00E94FD0C26E0822E912C37EF80
:101E3000232E33243A940E94BB0281110E94DF01B9
:101E40008091AA069091AB069093BF068093BE0640
:101E50006091AC067091AD064091B4065091B50604
:101E6000DC01ED91FC9161157105D1F00088F189DB
:101E7000E02D19951816190654F18DEF9FEF9093E8
:101E8000FC068093FB066EEA72E08EEB95E00E9402
:101E9000FD0C68EE73E080E090E00E94FD03CBCF84
:101EA0000684F785E02D2DE932E038A32F8F0091CD
:101EB000B0061091B1062091B2063091B30609A385
:101EC0001AA32BA33CA3BE01615E7F4FD2CF8FE04C
:101ED000E3E1F2E0DE015F9601900D928A95E1F771
:101EE000A090A306B090A4063091A5063AAF80EB6F
:101EF00092E00E94D00D6F8F78A389A39AA340919E
:101F0000A6065091A7066091A8067091A906E090D8
:101F1000B606F090B706BCA2ABA28AAD8DA38FE047
:101F2000FE017F96DE01509601900D928A95E1F7B1
:101F3000E091F106F091F2068091EF069091F006A3
:101F400019959501A8EEB3E00E949730AB01BC0152
:101F50004093D6065093D7066093D8067093D9065F
:101F6000E091F106F091F2068091ED069091EE0677
:101F700019951092DA069092FA068092F90600916D
:101F8000DB061091DC06C090DF06D090E0068FE003
:101F9000FE017096DE01119601900D928A95E1F78F
:101FA00048885988DBAACAAA0C0D1D1D92E0490E6B
:101FB000511C712C612CAAE04A0E511C611C711C31
:101FC000E114F10461F0F70180819181278130856E
:101FD000820F931F0496480E591E611C711CAE019E
:101FE000425D5F4FC301B2010E940909029609F4E4
:101FF00008C1EAA9FBA9E017F10709F4DAC280E1F8
:1020000080838AA99BA901969BAB8AABA30192010D
:10201000B801CE01C2960E945F08009709F0ECC09B
:1020200089EB92E00E94D00D9B01AC01B801CE017A
:10203000C2960E94120E009709F0DEC0EAA9FBA921
:10204000E017F10709F4B5C284E08083EAA9FBA98F
:102050009F012F5F3F4F3BAB2AAB8AAD482F50E02B
:10206000440F551F842FE114F10489F0D701149611
:102070008C911497880F880F880F4460842B8F7D74
:1020800016964C91B0E24B9FA0011124842B20178F
:10209000310709F48EC281838AA99BA901969BAB63
:1020A0008AABA501B801CE01C2960E944C090097E7
:1020B00009F0A2C029813A814B815C81B801CE012F
:1020C000C2960E94120E009709F096C0E114F10426
:1020D00009F06EC08AA99BA98C199D090E94EC0188
:1020E000009709F089C01DAA1CAA42E050E070E0E8
:1020F00060E0CE01C4960E943B0A009709F07CC0C4
:102100008CA99DA9029709F075C18091DD06909177
:10211000DE060091E1061091E2061BAB0AAB080F48
:10212000191FAE01475C5F4FB801CE01C2960E94F5
:102130003609009709F060C089AD807F803209F0D0
:1021400053C1AE01425D5F4FB801CE01C2960E94FD
:102150009F08009709F050C08EA59FA5A8A9B9A90E
:102160000297A105B10509F03CC1AE01485C5F4F83
:10217000B801CE01C2960E9436090097E9F5AE017A
:102180004A5C5F4FB801CE01C2960E9436090097A3
:1021900099F58EA9823009F41BC1B0F58823F1F1BD
:1021A000813009F40EC19092FA068092F9063AC085
:1021B000F7012081318142815381B801CE01C2965D
:1021C0000E94120E0097C1F4D70117964D915C91B1
:1021D000B801CE01C2960E944C09009769F4F7013C
:1021E0002781308541855285B801CE01C2960E9473
:1021F000EE0D009709F46ECF9093FC068093FB06DA
:10220000FDC089EF9FEFF8CF843009F4E7C008F4F0
:10221000E2C0853041F685E090E0D5C01092FA0624
:102220001092F9068091F9069091FA06892B09F02F
:10223000DEC01092FC061092FB0681E08093F80647
:102240008EEB92E00E94B90D6AEC72E08EEB95E0A5
:102250000E94FD0C81EE92E00E94B90D0E94BB022B
:10226000882309F4E3C0C090A606D090A706E090AA
:10227000A806F090A90681EE92E00E94D00D4B01D5
:102280005C01E091F106F091F206B701A6018091A0
:10229000EF069091F0061995C090D406D090D5061F
:1022A000FFEFCF16DF0609F0ACC021E030E030933D
:1022B000D5062093D406CC24C394D12CE090DB0621
:1022C000F090DC068091DF069091E0069BAF8AAF2C
:1022D0009FA78EA7E80EF91E140193E0290E311C6A
:1022E000512C412CA2E02A0E311C411C511CAE0184
:1022F000415E5F4FC201B1010E940909029609F4D3
:1023000088C0EEA5FFA5EE15FF0509F455C182E8CA
:1023100080838EA59FA501969FA78EA7A2019101FC
:10232000B701CE018E960E945F088C01892B09F0BF
:1023300008C1A601B701CE018E960E944C098C01FE
:10234000892B09F0FEC0A5019401B701CE018E963C
:102350000E94120E8C01892B09F0F3C0EEA5FFA597
:10236000EE15FF0509F428C110828EA59FA50196E0
:10237000EAADFBAD8E1B9F0B0E94EC018C01892BFB
:1023800009F0DFC01FAA1EAA49E050E070E060E03B
:10239000CE01C6960E943B0A8C01892B09F0D1C060
:1023A0008EA99FA9099709F448C00FB6F894DEBF1B
:1023B0000FBECDBF87EF9FEF9093FC068093FB0687
:1023C00033C081E090E09093FA068093F9062ACF1B
:1023D00082E090E0F8CF83E090E0F5CF84E090E0F9
:1023E000F2CF88EF9FEF08CF87EF9FEF05CF86EF03
:1023F0009FEF02CF3092FC062092FB060E94DF0185
:1024000042CD3FEFC31AD30AD092D506C092D4066C
:1024100055CF0FB6F894DEBF0FBECDBF29EF3FEF0B
:102420003093FC062093FB060E94DF016BEE72E006
:102430008EEB95E00E94FD0C11CF8091DD0690910E
:10244000DE06E090E106F090E206FBAAEAAAE80EBA
:10245000F91EAE01475C5F4FB701CE01C2960E94E4
:1024600036098C01892B09F06CC089AD807F8039D9
:1024700009F09BCFAE01415E5F4FB701CE01C2961E
:102480000E949F088C01892B09F05BC08F8D98A159
:10249000A9A1BAA10397A105B10540F40FB6F8941C
:1024A000DEBF0FBECDBF88EF9FEF86CFAE014C5C85
:1024B0005F4FB701CE01C2960E94B7098C01892BEC
:1024C00009F03FC04E013EE2830E911C6401B12C25
:1024D000A12C8F8D98A10297A816B9061CF090E048
:1024E00080E060C082E0A816B10441F1AE01485C12
:1024F0005F4FB701CE01C2960E943609009701F5E1
:1025000088AD8130A9F050F0E2E0F0E0823011F0C7
:10251000E0E8F0E0D601ED93FC9303C0D6011D92F4
:102520001C92FFEFAF1ABF0A22E0C20ED11CD1CF1E
:1025300021E030E0F60131832083F3CF84EF9FEF79
:102540008C010FB6F894DEBF0FBECDBF1093FC0612
:102550000093FB06012B09F067CF8DEE92E00E94FD
:10256000B90DEB960FB6F894DEBF0FBECDBFDF916D
:10257000CF911F910F91FF90EF90DF90CF90BF9080
:10258000AF909F908F907F906F905F904F903F9013
:102590002F900895D4012D913D914D0120383105A2
:1025A00029F001968A159B05A9F7CBCF05EF1FEF00
:1025B000C8CF8FEF9FEF20CE0FEF1FEFC2CFAF92AC
:1025C000BF92CF92DF92EF92FF920F931F93CF9320
:1025D000DF9300D01F92CDB7DEB78C016B017A017B
:1025E0008091BD058333E9F45B016801C40ED51EFB
:1025F000C016D106A9F10E948C068FE00E949706B2
:10260000812F0E949706802F0E9497060F5F1F4F11
:1026100080E00E949706F50181935F010E94820687
:10262000E7CF843369F50E948C0619830A838F2DC6
:102630008F778B83EC8264E070E0CE0101960E947C
:102640006806A70170E060E0C6010E94D132E11483
:10265000F10421F0B701C6010E9468060E948206BB
:10266000C7010F900F900F900F90DF91CF911F91A6
:102670000F91FF90EF90DF90CF90BF90AF900895B3
:102680000E948C060F3F110509F030F419820A836D
:102690001B8263E070E0D1CF17FD0BC019820A8363
:1026A00033E0169507953A95E1F7007E08600B83B5
:1026B000F0CFC80126E0969587952A95E1F7807EB0
:1026C00019830A830115104C18F480618B83E1CFC4
:1026D0008861FCCF1F93CF93DF931F92CDB7DEB7F6
:1026E000182F80E591E00E94CF02812F0E945F07A2
:1026F00027E0129FF0011124EB57FA4F228133811A
:10270000377041E050E0BE016F5F7F4F820F931F33
:102710000E94DF1289810F90DF91CF911F91089560
:10272000FC01808D883040F4218D328D232B21F0E7
:102730000E946A1390E008958FEF9FEF0895CF9362
:10274000DF93FC012485283028F08FEF9FEFDF9185
:10275000CF910895EC010190F081E02D0084F18586
:10276000E02D1995892B89F38C850E946A1390E0DE
:10277000EECFCF93DF931F92CDB7DEB741E050E0AD
:10278000BE016F5F7F4F0E94DF1289810F90DF9142
:10279000CF91089590E080E00C94B913CF93DF932C
:1027A000C4E1D0E00E94CA13882361F061E070E0C8
:1027B00080E090E00E94FD032197A1F780E0DF9187
:1027C000CF91089581E0FBCF1F93CF93DF931F92AA
:1027D0001F92CDB7DEB7809107058111FDC060E380
:1027E00072E080E090E00E94FD031FB7F8948091B2
:1027F0000505811124C0E5EDF2E08491EBE1F3E001
:102800009491E82FF0E0EE0FFF1FEA57FD4FA591DE
:10281000B491EC91E92321F461E085E30E949303F4
:1028200085E30E94D2028CB580618CBD8CB580643A
:102830008CBD84E30E94D20283E30E94D202809185
:1028400005058F5F809305051FBF80910002282F2B
:1028500030E0F901E056FD4FE491F0E0EE0FFF1F8C
:10286000E459FD4F4591549150930405409303055D
:10287000F901EA51FD4FE491E09302050E94D20272
:102880000E94820680E591E00E94CF0284E380935B
:10289000BD0580E80E944C070E94CE13882391F169
:1028A00088E00E944C070E94CA13883059F580E1E5
:1028B0000E944C070E94CA13803121F580E00E94DB
:1028C0004C070E94CA13182F81111CC08FE190E0A1
:1028D0000E94B9138330B1F480E48093060542E08E
:1028E0006EE170E0812F0E94AA0742E06FE170E084
:1028F000812F0E94AA071F5F183089F781E080931B
:10290000070564C087E38093BD0580E80E944C07FB
:102910000E94CE138823F9F088E00E944C070E94A1
:10292000CA138830C1F480E10E944C070E94CA1388
:10293000182F803181F480E00E944C070E94CA1356
:10294000811109C089E390E00E94B913843019F421
:1029500010930605D3CF83E38093BD0580E80E94E2
:102960004C070E94CE13882371F180E10E944C072E
:102970000E94CA13803139F582E10E944C070E94FF
:10298000CA13823101F580E00E944C070E94CA13ED
:10299000811119C084E08093060515E51A8341E092
:1029A00050E0BE016E5F7F4F8BE190E00E949E067B
:1029B000198341E050E0BE016F5F7F4F8AE190E0F4
:1029C0000E949E069BCF1092BD0580E00F900F9055
:1029D000DF91CF911F91089581E0F8CFCF92DF92E0
:1029E000EF92FF920F931F93CF93DF93CDB7DEB794
:1029F000E0970FB6F894DEBF0FBECDBFFB01DC0140
:102A000012964D915D916D917C9115974DA75EA7A2
:102A10006FA778AB31E038AB8DA59EA5AFA5B8A95F
:102A20008B8F9C8FAD8FBE8FC280D380E480F5806A
:102A30008DE992E09C8B8B8B2FEF2D8B2E8B2F8B28
:102A4000188E9E878D873E8F0B8D1C8D2D8D3E8D14
:102A50000F87188B298B3A8BC986DA86EB86FC8622
:102A60009A8389834B835C836D837E830E94E41306
:102A7000882371F180E591E00E94CF0246E050E0AA
:102A800063E072E089E090E00E949E06CE0103962A
:102A90000E94FE0744E050E0BE01615F7F4F81E08D
:102AA00090E00E949E0644E050E0BE016B5E7F4FC6
:102AB00085E090E00E949E0689859A85AB85BC855D
:102AC0008093870690938806A0938906B0938A0620
:102AD000E0960FB6F894DEBF0FBECDBFDF91CF9169
:102AE0001F910F91FF90EF90DF90CF90089520916C
:102AF000060530E0322F2227620F731F90E0982FD7
:102B00008827860F971F0C94B913CF93C82F462F91
:102B100061E070E00E94AA0761E070E08C2F0E94E3
:102B200077158111F9CFCF910895CF93C82F80E504
:102B300091E00E94CF0268E070E08C2FCF910C945E
:102B40008515CF93C82F80E591E00E94CF0260E108
:102B500070E08C2FCF910C948515CF93DF93EC010F
:102B6000888D883020F40E94A11588E0888FDF913D
:102B7000CF910895CF93FC01C08D80E591E00E9434
:102B8000CF0260E270E08C2F0E94851581E090E01A
:102B9000CF910895CF93C82F80E591E00E94CF0296
:102BA00063E070E08C2FCF910C947715CF93DF9377
:102BB000EC018C858830D0F40E94CA15843189F0EC
:102BC000882379F0883169F021E08C3159F4E8816B
:102BD000F9810084F185E02DCE01199521E0892B42
:102BE00009F420E0822FDF91CF91089580E0FBCFA0
:102BF000CF92DF92EF92FF92CF93DF93EC018C851F
:102C0000883068F40E9495150E9430046B017C01A5
:102C10008C850E94CA15811109C088E08C87DF91DC
:102C2000CF91FF90EF90DF90CF90089561E070E03A
:102C300080E090E00E94FD030E943004AB01BC01E3
:102C40004C195D096E097F098D859E85B0E0A0E075
:102C5000481759076A077B07D8F28C850E94A1158F
:102C6000DCCFCF93FC01C08D80E591E00E94CF02C4
:102C700060E270E08C2F0E94851562E070E08C2F7E
:102C80000E94771584FD16C062E070E08C2F0E94D0
:102C9000771583FF0AC048E162E070E08C2F0E9444
:102CA000AA0780E090E0CF91089580E591E00E942E
:102CB000CF02E3CF40E162E070E08C2F0E94AA07D0
:102CC00081E0F0CFDA01E0910605F0E0FE2FEE277B
:102CD000E60FF71F90E0982F8827A901BD018E0FFE
:102CE0009F1F0C94DF128F929F92AF92BF92CF9250
:102CF000DF92EF92FF920F931F93CF93DF93CDB7A5
:102D0000DEB760970FB6F894DEBF0FBECDBF7C0173
:102D10009091BD05911115C018E0812F60960FB6F6
:102D2000F894DEBF0FBECDBFDF91CF911F910F9101
:102D3000FF90EF90DF90CF90BF90AF909F908F90DB
:102D4000089508E0933309F404E06B0180E591E015
:102D50000E94CF029E012F5F3F4F5901490110E0B1
:102D600063E070E0812F0E947715F40181934F0199
:102D70008823C1F01F5F0113F3CF00E0F5018191BB
:102D80005F018D3149F0883139F08A51823020F06D
:102D90000F5F1013F3CFC0CF60E170E0802F0E946F
:102DA0008515102FA12EB12C83EE93E00197F1F73A
:102DB00042E870E060E0812F0E94AA074FEF62E0D6
:102DC00070E0812F0E94AA07B601C114D10491F4CA
:102DD000809101029091020201968115F0EC9F070B
:102DE00008F45CC09093020280930102609101029A
:102DF00070910202812F0E94940786E0E2E2F2E0E5
:102E0000DE01199601900D928A95E1F7F701838111
:102E10008F778C8784818D8785818E87A7014E5F10
:102E20005F4F24E030E06CE070E0812F0E946D077E
:102E3000B601812F0E947E0726E030E0AE01475F99
:102E40005F4F66E070E0812F0E946D0761E070E0E7
:102E5000812F0E94851527E02A9DC0012B9D900D92
:102E600011249C012B573A4F7901F90111821082EC
:102E700022E030E0AE01415F5F4F68E270E0812FF9
:102E80000E9462168F859889982789279827F701CD
:102E9000938382831682158214823FCF80E090EC68
:102EA000A1CFCF92DF92EF92FF920F931F93CF9318
:102EB000DF9300D000D0CDB7DEB78C016B017A0173
:102EC000FC01808D883010F40E94A1158DE992E0FC
:102ED0009A838983F60182819381A481B5818B8352
:102EE0009C83AD83BE83B701CE0101960E94731609
:102EF000F801808F8830A0F4F586E486128E118E5A
:102F000081E026960FB6F894DEBF0FBECDBFDF91ED
:102F1000CF911F910F91FF90EF90DF90CF90089588
:102F200080E0EFCF7F928F929F92AF92BF92CF922D
:102F3000DF92EF92FF920F931F93CF93DF931F9235
:102F40001F92CDB7DEB7782E8B014A01590122E0DE
:102F500030E0AE014F5F5F4F64E270E00E946216A6
:102F6000E980FA80FE24EF24FE24E00EF11E970192
:102F700037704091BD05072D10E0433309F042C082
:102F8000085F1F4F102F0027110F110F110FC901DC
:102F9000800F911F4733C9F1A9014A0D5B1D4130D4
:102FA000584098F160E078E06B01C21AD30AA6019C
:102FB000B4010E949E06A5014C195D09B4016C0D77
:102FC0007D1DC8010E949E06EA0CFB1CF982EA8264
:102FD00022E030E0AE014F5F5F4F64E270E0872D8A
:102FE0000E946D070F900F90DF91CF911F910F916D
:102FF000FF90EF90DF90CF90BF90AF909F908F9019
:103000007F900895005F1F4FBDCFA501B401DACFB7
:10301000EF92FF921F93CF93DF931F921F92CDB732
:10302000DEB7182F22E030E0AE014F5F5F4F60E265
:1030300070E00E946216E980FA80FE24EF24FE24EC
:1030400022E030E0AE014F5F5F4F60E270E0812F21
:103050000E94621689819A81982789279827E81605
:10306000F90689F487E0189FF0011124EB57FA4F15
:10307000F582E482C7010F900F90DF91CF911F91ED
:10308000FF90EF9008957C01DBCF1F93CF93DF93E8
:10309000182F80E591E00E94CF02812F0E9408182E
:1030A000EC0163E070E0812F0E947715873121F0F9
:1030B0008C3111F0D0E0C0E0CE01DF91CF911F91B3
:1030C0000895CF93DF93EC018C85883060F40E94E3
:1030D000CA15873111F08C3131F48C850E94451866
:1030E0008115984088F3DF91CF910895FC01848584
:1030F000883010F40C94451890E080E008959F9279
:10310000AF92BF92CF92DF92EF92FF920F931F93F5
:10311000CF93DF938C015B01942EE52EFC01C688D2
:10312000D788F08C80E591E00E94CF028F2D0E941D
:103130000818C92DDE2D8C179D0708F4EC019E019F
:10314000A501B6018F2D0E949217F80186899789F3
:103150008C0F9D1F978B868BCE01DF91CF911F9196
:103160000F91FF90EF90DF90CF90BF90AF909F9026
:1031700008958F929F92AF92BF92CF92DF92EF927B
:10318000FF920F931F93CF936C015B018A01FC01A7
:10319000C485C830F0F57A014130584018F0E12C70
:1031A00088E0F82E80E591E00E94CF028C2F0E94EB
:1031B00008184C0163E070E08C2F0E94771587316E
:1031C00011F08C3149F58E149F0460F380E591E095
:1031D0000E94CF029701A50170E060E08C2F0E9451
:1031E000921760E270E08C2F0E94851562E070E01B
:1031F0008C2F0E94771584FD17C063E070E08C2F40
:103200000E94771581110BC081E090E0F601938355
:10321000828310E000E010C0F12CE12CD7CF80E5D4
:1032200091E00E94CF02E2CF40E162E070E08C2F9B
:103230000E94AA07EF2841F3C801CF911F910F9177
:10324000FF90EF90DF90CF90BF90AF909F908F90C6
:103250000895FF920F931F93CF93DF931F921F92B6
:10326000CDB7DEB7F82E22E030E0AE014F5F5F4F02
:1032700066E270E00E94621609811A811027012718
:10328000102722E030E0AE014F5F5F4F66E270E052
:103290008F2D0E94621689819A8198278927982705
:1032A0000817190749F4C8010F900F90DF91CF91CB
:1032B0001F910F91FF9008958C01E3CF1F93CF933F
:1032C000DF93182F87E0189FE0011124CB57DA4FC6
:1032D00088819981009761F480E591E00E94CF0296
:1032E000812F0E9429192E81821B9109998388833D
:1032F000DF91CF911F910895FC018485883010F4EF
:103300000C945E1990E080E008954F925F927F9256
:103310008F929F92AF92BF92CF92DF92EF92FF92E5
:103320000F931F93CF93DF931F921F92CDB7DEB7FA
:10333000782E6B014A01A82EB12C27E0829FC00194
:103340001124FC01EB57FA4F7F010081118180E5C8
:1033500091E00E94CF020815190554F4872D0E94B0
:103360002919F70126818C01021B110911830083A1
:103370000115110529F563E070E0872D0E9477158E
:10338000843159F0882349F001E010E08C3111F4C8
:1033900010E000E0119501951109C8010F900F9000
:1033A000DF91CF911F910F91FF90EF90DF90CF9021
:1033B000BF90AF909F908F907F905F904F900895B7
:1033C000801691060CF4840187E08A9DF0018B9DA4
:1033D000F00D1124EB57FA4FE280F380C114D104B1
:1033E00051F12701F7E05F22872D0E945F07840DCE
:1033F000951D2091BD05273309F453C09801240D74
:10340000351D2130384008F44CC020E038E0490137
:1034100084189508A401B6010E94DF122601480C09
:10342000591C6801C818D908872D0E945F07A6019A
:10343000B2010E94DF12E00EF11E87E08A9DF001CA
:103440008B9DF00D1124EB57FA4FF382E28220811D
:103450003181201B310B318320838681800F912F96
:10346000911D8A3F910510F4232BF1F487E08A9D8A
:10347000F0018B9DF00D1124EB57FA4F1682F98263
:10348000EA8222E030E0AE014F5F5F4F68E270E019
:10349000872D0E946D0760E470E0872D0E948515DE
:1034A0007CCFA801B601C5CF868377CFCF93DF93BA
:1034B000FC01218D328D2115310529F48FEF9FEF0D
:1034C000DF91CF910895EC01808D4217530708F0EA
:1034D000A9010E9485191816190684F7298D3A8DBD
:1034E000281B390B3A8F298FEBCF0F931F93CF9364
:1034F000DF931F92CDB7DEB7FC01218D328D232BD8
:1035000041F48FEF9FEF0F90DF91CF911F910F91BB
:1035100008958C0141E050E0BE016F5F7F4FFC01D8
:10352000808D0E948519181619065CF7F801818DA7
:10353000928D0197928F818F898190E0E4CF0F93D4
:103540001F93CF93DF9300D000D01F921F92CDB76F
:10355000DEB78C01D80159964D915C915A9741156F
:10356000510551F0ED91FC91048CF58DE02D70E04A
:1035700060E0C8011995EECFF801808D0E945E19B8
:10358000892BB1F148E050E0BE016F5F7F4FD80159
:1035900058968C910E94851918161906F4F4D801D2
:1035A000509684E0FE01319601900D928A95E1F7E4
:1035B0008D8190E0982F88272E81820F911DF80130
:1035C000958B848B8F81282F30E0322F222788859E
:1035D000820F932F911D928F818F28960FB6F894AA
:1035E000DEBF0FBECDBFDF91CF911F910F91089528
:1035F00090E080E0F2CFCF93DF931F92CDB7DEB79C
:1036000041E050E0BE016F5F7F4FFC0184850E9466
:1036100085191816190634F4898190E00F90DF910E
:10362000CF9108958FEF9FEFF9CFFC01848588300B
:1036300010F40C94851990E080E008958F929F9289
:10364000AF92BF92CF92DF92EF92FF920F931F93B0
:10365000CF93DF9300D000D000D01F92CDB7DEB75C
:103660009091BD05911115C018E0812F2A960FB6D3
:10367000F894DEBF0FBECDBFDF91CF911F910F91A8
:10368000FF90EF90DF90CF90BF90AF909F908F9082
:10369000089528E0F22E933311F494E0F92E6B0193
:1036A000082F80E591E00E94CF029E012F5F3F4FDF
:1036B0005901490110E063E070E0812F0E94771505
:1036C000F40181934F018823C1F01F5FF112F3CF02
:1036D000F12CF50191915F019D3149F0983139F05C
:1036E0009A51923020F0F3941F11F3CFBDCF60E1D7
:1036F00070E08F2D0E9485151F2DE12EF12C83EE99
:1037000093E00197F1F7402F70E060E0812F0E9475
:10371000AA074FEF62E070E0812F0E94AA07B6016E
:10372000CD2889F4809101029091020201968115C1
:10373000F0EC9F0798F19093020280930102609150
:10374000010270910202812F0E94940761E070E0F3
:10375000812F0E94851527E02E9DC0012F9D900D81
:1037600011249C012B573A4F7901F90111821082E3
:1037700022E030E0AE01475F5F4F68E270E0812FEA
:103780000E94621689859A85982789279827F701CC
:103790009383828316821582148267CF80E090EC37
:1037A000CACF0F931F93CF93DF93EC018B01888DCA
:1037B000883010F40E94A115B80182E00E941E1BFF
:1037C000888F883050F41D870C871A8E198E81E0FF
:1037D000DF91CF911F910F91089580E0F9CF4F9223
:1037E0005F926F927F928F929F92AF92BF92CF9291
:1037F000DF92EF92FF920F931F93CF93DF93CDB79A
:10380000DEB763970FB6F894DEBF0FBECDBF7C0165
:103810006B013A01FB0120E090E080E06AE0319129
:10382000332309F461C040ED430F4A3008F04DC026
:10383000689FA001699F500D1124CA01C097830F92
:10384000911D37FD9A958F3F910549F340F3F7019C
:1038500042815381648175818091630690916406F1
:10386000A0916506B0916606481759076A077B075D
:1038700009F40DC28701085F1F4F0E9430046F706A
:1038800077277C5FC8010E94D11B813009F004C2F8
:103890008DE992E09A838983F70182819381A481E3
:1038A000B5818B839C83AD83BE8345E350E0BE012D
:1038B0006F5F7F4FC8010E940608892BA9F5D12CA4
:1038C000C12CC8010E94AD1517C03E3209F0BFCF10
:1038D000233009F4BCCFD301A20FB11D12968C93F3
:1038E0002F5F90E080E09BCF233009F0B0CFF30151
:1038F0008583CC24C394D12CC60163960FB6F8946B
:10390000DEBF0FBECDBFDF91CF911F910F91FF9012
:10391000EF90DF90CF90BF90AF909F908F907F906F
:103920006F905F904F9008950E943004F701778365
:10393000668342E050E0B7016A5F7F4FC8010E9492
:103940007F1881E090E09A83898342E050E0BE01D5
:103950006F5F7F4FC8010E947F1880E091E09A83DB
:10396000898342E050E0BE016F5F7F4FC8010E9433
:103970007F181A82198242E050E0BE016F5F7F4FCC
:10398000C8010E947F1842E050E0BE016F5F7F4F88
:10399000C8010E947F1842E050E0BE016F5F7F4F78
:1039A000C8010E947F185601F6018081882301F129
:1039B0006501F60181912F01882311F08E32B1F457
:1039C00046018A189B081814190474F48D8641E086
:1039D00050E0BE01635F7F4FC8010E947F18A401C1
:1039E000B501C8010E947F185201DECF6201E1CF0C
:1039F0001D8641E050E0BE01635F7F4FC8010E9419
:103A00007F18C12CDD24D394DA82C98242E050E0D1
:103A1000BE016F5F7F4FC8010E947F18DA82C982A2
:103A200042E050E0BE016F5F7F4FC8010E947F18E7
:103A3000C8010E943116892B09F441CFF3E0AF2E63
:103A4000B12C230122E0420E511CD4C0F701428167
:103A5000538164817581808D918DA28DB38D4817BE
:103A600059076A077B0709F008C1848D958DC597B2
:103A700009F003C181A192A15DEFC52EDD24DA9486
:103A80000C970CF4ADC04CE050E0BE016F5F7F4F6F
:103A9000C8010E94561A8B819C81982789279827F4
:103AA0009A8B898BF7014681578129813A81421788
:103AB000530709F0E7C097FFE5C08F7092703BEFA6
:103AC000C32EDD24DA94892B09F08AC06F807884B4
:103AD0007624672476242AEFC22EDD24DA9461143A
:103AE000710409F47DC0D12CC12C8D819E81982751
:103AF00089279827C816D906F8F441E050E0BE019E
:103B0000635F7F4FC8010E94561A4D85442331F0F0
:103B100050E070E060E0C8010E94561A8D85811166
:103B2000ECCF44E050E070E060E0C8010E94561A1B
:103B3000FFEFCF1ADF0AD9CF912C812C41E050E062
:103B4000BE016D5E7F4FC8010E94561A4B89842FBB
:103B5000807C09F06CC0442331F050E070E060E0FC
:103B6000C8010E94561A8B898111E8CF42E050E0CB
:103B7000BE01615F7F4FC8010E94561A42E050E0CB
:103B8000BE01635F7F4FC8010E94561A44E050E0B7
:103B900070E060E0C8010E94561A42E050E0BE01A9
:103BA0006F5E7F4FC8010E94561A8F859889498998
:103BB0005A898115914009F043C0CD84DE84DC240C
:103BC000CD24DC2481E0C816D104D1F54115544040
:103BD00009F04AC044E050E0B201C8010E94561A00
:103BE00021E0A21AB10809F46CCEFFEFCF16DF0670
:103BF00009F067CE0E9430043B014C01C8010E94CD
:103C00009F1A181619060CF421CF0E943004661969
:103C1000770988099909693873418105910548F543
:103C200062E370E080E090E00E94FD03E7CF41E0B6
:103C300050E070E060E0C8010E94561A1B8A93CFE2
:103C400054274527542770E060E0C8010E94561AA7
:103C5000FFEF8F1A9F0A6814790409F06FCF96EF6F
:103C6000C92EDD24DA94BCCFE7EFCE2EDD24DA9422
:103C7000B7CFCC24CA94DC2CB3CF6EEFC62EDD2494
:103C8000DA94AECF4CEFC42EDD24DA94A9CF8EEFB8
:103C9000C82EDD24DA9430CED12CC12C2DCECF927B
:103CA000DF92EF92FF920F931F93CF93DF93CDB7E5
:103CB000DEB7AF970FB6F894DEBF0FBECDBF7C0165
:103CC0006A010DE912E01A8309831C861B8688EEBF
:103CD00093E0A0E0B0E08D879E87AF87B88B8CE241
:103CE00092E09A878987188F0F8B198E1A8E1B8EF8
:103CF0001C8E88E089A31BA70AA71CA61DA61EA6CA
:103D00001FA68091870690918806A0918906B091A0
:103D10008A068EA39FA3A8A7B9A78B839C83AD8394
:103D2000BE8318861F82AE01465D5F4FCE010196AD
:103D30000E94EF1B81309105B1F4D701ED91FC9108
:103D40000488F589E02D1DA30CA38CA59DA5AEA527
:103D5000BFA58EA39FA3A8A7B9A7A601BE016C5DAE
:103D60007F4FC7011995AF960FB6F894DEBF0FBE0F
:103D7000CDBFDF91CF911F910F91FF90EF90DF901A
:103D8000CF900895CF92DF92EF92FF920F931F93FF
:103D9000CF93DF93CDB7DEB7AF970FB6F894DEBF02
:103DA0000FBECDBF8C016B017A018DE992E09A8341
:103DB00089831B821C821D821E821C861B8648EE04
:103DC00053E060E070E04D875E876F87788B2CE270
:103DD00032E03A872987988F8F8B198E1A8E1B8E27
:103DE0001C8E28E029A39BA78AA71CA61DA61EA699
:103DF0001FA6D8011C968C91883060F40E94CA15C9
:103E0000882321F0F80184850E94951588E0D80167
:103E10001C968C938091870690918806A0918906C4
:103E2000B0918A068EA39FA3A8A7B9A78B839C8372
:103E3000AD83BE8318861F82AE01465D5F4FB6011B
:103E4000CE0101960E94EF1B0097C1F0D801ED91C1
:103E5000FC910684F785E02D8DE992E09DA38CA36B
:103E60008CA59DA5AEA5BFA58EA39FA3A8A7B9A706
:103E7000A701BE016C5D7F4FC8011995AF960FB6C3
:103E8000F894DEBF0FBECDBFDF91CF911F910F9190
:103E9000FF90EF90DF90CF900895CF92DF92EF9256
:103EA000FF921F93CF93DF93EC017B016A018C8516
:103EB000883048F40E94CA15882319F08C850E9426
:103EC000951588E08C87F70182819381A481B58163
:103ED0000097A105B10551F490E080E0DF91CF910A
:103EE0001F91FF90EF90DF90CF9008958F3F9F4FED
:103EF000AF4FBF4F89F370E060E081E20E941E1B6C
:103F0000182F8C87883040F780E591E00E94CF021F
:103F1000A7014E5F5F4F24E030E06CE070E0812F3E
:103F20000E946D07B601812F0E947E0764E070E059
:103F3000812F0E9485150E9430046B017C018C85C5
:103F40000E94CA15873111F18C3101F1882321F2C9
:103F50000E943004AB01BC014C195D096E097F0958
:103F60008D859E85B0E0A0E084179507A607B7076A
:103F700038F061E070E080E090E00E94FD03DFCF68
:103F80008C850E94A11588E08C87A6CF81E090E007
:103F9000A5CF0F931F93CF93DF931F921F92CDB79F
:103FA000DEB7FC0124852830E0F48C0180E591E047
:103FB0000E94CF0222E030E0AE014F5F5F4F60E130
:103FC00070E0F80184850E94621689819A819827A1
:103FD000892798270F900F90DF91CF911F910F9114
:103FE000089590E080E0F6CFEF92FF920F931F9339
:103FF000CF93DF9300D01F92CDB7DEB78C017B014A
:10400000FB0184858830A8F08DE992E0F801918366
:1040100080831282138214821582C8010F900F9040
:104020000F900F90DF91CF911F910F91FF90EF9024
:10403000089580E591E00E94CF0224E030E0AE01D7
:104040004F5F5F4F6CE070E0F70184850E9462165D
:10405000BE016F5F7F4FC8010E94E20DDECF0F935C
:104060001F93CF93DF931F921F92CDB7DEB7FC0152
:1040700024852830E0F48C0180E591E00E94CF0295
:1040800022E030E0AE014F5F5F4F64E070E0F80186
:1040900084850E94621689819A81982789279827AA
:1040A0000F900F90DF91CF911F910F91089590E0A5
:1040B00080E0F6CFFC0124813581232B39F421E007
:1040C000FB018081882349F020E007C08081918135
:1040D0000E94D83221E0892BB9F7822F08957F9270
:1040E0008F929F92AF92BF92CF92DF92EF92FF9208
:1040F0000F931F93CF93DF93CDB7DEB7A6970FB67D
:10410000F894DEBF0FBECDBF8C01762E942E852E87
:1041100020E2A22ECE0101967C01DC01EA2D1D9247
:10412000EA95E9F76801F3E4CF0ED11C8DE992E03E
:104130009AA389A38FEF8BA38CA38DA38EA343E4B3
:1041400050E0BE016F5D7F4FC6010E9406080196D8
:1041500009F4BFC081E089838A8386E0B82EBB82E0
:104160001C82D80114966D917D918D919C91179729
:104170000E94AE306D837E838F83988789869A866E
:1041800080E890E09C878B874CE150E0B701C60146
:104190000E947F18FE0137968AE1DF011D928A9501
:1041A000E9F74801B8E08B0E911CF401D7010190AA
:1041B0000D92BA94E1F740E150E0B701C6010E94C8
:1041C0007F18F7011192AA94E9F796E0A92EB12C75
:1041D00040E250E0B701C6010E947F18F1E0AF1A3B
:1041E000B108B1F783E6898392E89A8393E59B83CC
:1041F0008C8385E38D8381E08E837F829DE3988726
:1042000097E099878A8786E0F401DE011B9601908A
:104210000D928A95E1F78CE0898B8A8B6DEF72E0C5
:10422000CE0143960E94E132D8011B966C91CE01DB
:1042300049960E94F102F8016485CE014B960E94D6
:10424000F102D8011D966C91CE014D960E94F102AB
:104250004EE150E0B701C6010E947F18B3E07B1227
:104260001EC082E3898384E08A83F80196859B835C
:1042700097859C8390899D8391899E8396E39F83F4
:104280008887828D8987838D8A87848D8B87858DAA
:104290008C874CE050E0B701C6010E947F1887E38D
:1042A000898386E08A8391E09B8393E09C838D835E
:1042B0008FE08E838AE38F838BE388878FEF8987F4
:1042C00049E050E0B701C6010E947F18C6010E9474
:1042D0003116A6960FB6F894DEBF0FBECDBFDF91A4
:1042E000CF911F910F91FF90EF90DF90CF90BF90F3
:1042F000AF909F908F907F9008950F931F93CF93CF
:10430000DF93EC0188819981009759F02A813B81E4
:104310002617370730F081E0DF91CF911F910F9181
:1043200008958B016F5F7F4F0E94DA31009759F03B
:10433000998388831B830A832C813D81232B59F722
:10434000FC011082E8CF80E0E7CFEF92FF920F935D
:104350001F93CF93DF936115710541F480E0DF91E6
:10436000CF911F910F91FF90EF9008954115510546
:10437000B1F07B01EC010C811D81040F151FB80108
:104380000E947D21882351F3288139818C819D8170
:10439000B701820F931F0E94E1321D830C8381E0DD
:1043A000DECFCF93DF93EC0188819981009711F0E4
:1043B0000E945131198218821D821C821B821A822E
:1043C000DF91CF910895CF93DF93EC01FB01019032
:1043D0000020E9F73197AF01461B570B0E94A5213A
:1043E000811103C0CE010E94D121CE01DF91CF9176
:1043F0000895CF93DF93EC01FB01448155816081E7
:1044000071810E94A521811103C0CE010E94D1219A
:10441000CE01DF91CF910895EF92FF920F931F93FA
:10442000CF93DF93EC017B018A01BA010E947D21C9
:1044300081110BC0CE010E94D121CE01DF91CF911D
:104440001F910F91FF90EF9008951D830C83B7018A
:10445000888199810E94E132F0CFEF92FF920F9311
:104460001F93CF93DF93CDB7DEB761970FB6F89464
:10447000DEBF0FBECDBF8C01CB01F80111821082CF
:1044800013821282158214824AE09E012F5F3F4FF1
:104490007901B9010E941930F70101900020E9F774
:1044A0003197AF014E195F09B701C8010E940C2274
:1044B00061960FB6F894DEBF0FBECDBFDF91CF91EE
:1044C0001F910F91FF90EF900895EF92FF920F933D
:1044D0001F93CF93DF93CDB7DEB762970FB6F894F3
:1044E000DEBF0FBECDBF8C01CB01F801118210825F
:1044F00013821282158214824AE09E012F5F3F4F81
:104500007901B9010E940E30F70101900020E9F70E
:104510003197AF014E195F09B701C8010E940C2203
:1045200062960FB6F894DEBF0FBECDBFDF91CF917C
:104530001F910F91FF90EF900895CF93DF93EC01BF
:10454000FB018617970749F060817181611571053C
:1045500041F0448155810E940C22CE01DF91CF9120
:1045600008950E94D121F9CFFC011182108213829B
:104570001282158214820C949D22FC0111821082F9
:1045800013821282158214826115710551F0FB01AC
:1045900001900020E9F73197AF01461B570B0C94AF
:1045A0000C220895FC0180819181009711F00C94F8
:1045B00051310895EF92FF920F931F93CF93DF93A2
:1045C00000D000D0CDB7DEB77C018B0164E073E092
:1045D0000E945A20882321F161E173E0C8010E9402
:1045E0005A20882309F4AAC086E193E00E94B90DFD
:1045F00061E086E00E94930381E08093740560E0AF
:1046000074E0CE0101960E946522BE016F5F7F4F6C
:104610008CE193E00E943A0ECE0101960E94D222D4
:104620006FE373E0C7010E945A20882321F161E102
:1046300073E0C8010E945A20882309F4A8C08CE4C2
:1046400093E00E94B90D61E087E00E94930381E04E
:104650008093750560E074E0CE0101960E946522AA
:10466000BE016F5F7F4F82E593E00E943A0ECE015C
:1046700001960E94D2226FE673E0C7010E945A2081
:10468000882321F161E173E0C8010E945A20882348
:1046900009F4A6C08CE793E00E94B90D61E088E0C0
:1046A0000E94930381E08093760560E074E0CE0180
:1046B00001960E946522BE016F5F7F4F82E893E002
:1046C0000E943A0ECE0101960E94D2226FE973E059
:1046D000C7010E945A20882321F161E173E0C801DB
:1046E0000E945A20882309F4A4C08CEA93E00E9417
:1046F000B90D61E089E00E94930381E08093770522
:1047000060E074E0CE0101960E946522BE016F5FF9
:104710007F4F82EB93E00E943A0ECE0101960E94F9
:10472000D22226960FB6F894DEBF0FBECDBFDF9122
:10473000CF911F910F91FF90EF90089560E373E088
:10474000C8010E945A20882309F46ACF60E086E0FD
:104750000E9493031092740570E060E0CE01019610
:104760000E946522BE016F5F7F4F8CE193E00E9443
:104770003A0ECE0101960E94D22266E373E08EEBE0
:1047800095E00E94FD0CC8010E940C0D49CF60E32A
:1047900073E0C8010E945A20882309F46CCF60E0BE
:1047A00087E00E9493031092750570E060E0CE01EF
:1047B00001960E946522BE016F5F7F4F82E593E004
:1047C0000E943A0ECE0101960E94D22266E673E064
:1047D0008EEB95E00E94FD0CC8010E940C0D4BCFA2
:1047E00060E373E0C8010E945A20882309F46ECF69
:1047F00060E088E00E9493031092760570E060E02C
:10480000CE0101960E946522BE016F5F7F4F82E854
:1048100093E00E943A0ECE0101960E94D22266E9F0
:1048200073E08EEB95E00E94FD0CC8010E940C0D18
:104830004DCF60E373E0C8010E945A20882309F439
:1048400070CF60E089E00E9493031092750570E0DC
:1048500060E0CE0101960E946522BE016F5F7F4F2E
:1048600082EB93E00E943A0ECE0101960E94D22282
:1048700066E373E08EEB95E00E94FD0CC8010E9498
:104880000C0D4FCF4F925F926F927F928F929F92BB
:10489000AF92BF92CF92DF92EF92FF920F931F934E
:1048A000CF93DF93CDB7DEB769970FB6F894DEBF2D
:1048B0000FBECDBF4B0129013A01AB8ABC8ACD8A1C
:1048C000DE8AEF8AF88E098FCDB6DEB60E891F8993
:1048D000A88CB98CC90101962DB73EB7281B390B9E
:1048E0000FB6F8943EBF0FBE2DBF8DB79EB7019691
:1048F0007C01A201B3010E94C8324E0C5F1CD201A0
:104900001C920115110521F0F801EA0DFB1D108222
:10491000D4011496ED91FC911597309739F19501DA
:10492000A801B7018D919C9119950FB6F894DEBE40
:104930000FBECDBE0FB6F894DEBE0FBECDBE6996DB
:104940000FB6F894DEBF0FBECDBFDF91CF911F91A0
:104950000F91FF90EF90DF90CF90BF90AF909F901E
:104960008F907F906F905F904F900895F4018281B7
:104970009381892BD1F2B701CE0107960E94BD2207
:1049800061EA72E0CE010D960E94BD22011511056B
:1049900009F1B801CE0101960E94BD228D859E8548
:1049A000009769F169817A816115710531F14F854F
:1049B00058892D813E8142175307F8F00E94E13259
:1049C0008D819E819A8B898B1E821D82CE010196DC
:1049D0000E94D222D4011296ED91FC91BE01635F38
:1049E0007F4FCE0107961995CE010D960E94D222D7
:1049F000CE0107960E94D22298CF0E945131898120
:104A00009A819E878D878B819C81988B8F878D81E2
:104A10009E819A8B898B1A8219821C821B82D4CF29
:104A20003F924F925F926F927F928F929F92AF923E
:104A3000BF92CF92DF92EF92FF920F931F93CF938B
:104A4000DF93CDB7DEB7EA970FB6F894DEBF0FBE9F
:104A5000CDBF7C012A013B0169010E9430044B015A
:104A60005C0187010D5B1F4FC8010E949F1A181639
:104A700019069CF00E943004681979098A099B097B
:104A8000461657066806790608F466C162E370E0C8
:104A900080E090E00E94FD03E7CF42E250E0BE01DB
:104AA0006F5F7F4FC8010E94561A89818230D1F012
:104AB000312C832DEA960FB6F894DEBF0FBECDBF22
:104AC000DF91CF911F910F91FF90EF90DF90CF90EA
:104AD000BF90AF909F908F907F906F905F904F901E
:104AE0003F900895F801848995898334910501F7F1
:104AF0006D817E818F8198850E94AE304B015C0173
:104B0000F60180829182A282B38246E050E0B70132
:104B1000685F7F4FCE014D960E94BB32892B41F6D4
:104B2000F70180819181A281B38188169906AA0636
:104B3000BB0608F4BDCF84819581A681B781881515
:104B40009905AA05BB0508F4B3CF89899A89AB8971
:104B5000BC8986879787A08BB18B4EEC50E070E0C4
:104B600060E0C8010E94561A312CC701829698ABAA
:104B70008FA7F701B696FAABE9AB08969CAB8BAB67
:104B800067019AE1C90ED11CBD96FEABEDABC70122
:104B9000429698AF8FABFD97FAAFE9AF4701FEE1C0
:104BA0008F0E911CF801818D928D181619060CF04C
:104BB00080CFC8010E94751A8333910509F4B2C0F1
:104BC00014F58130910509F464C044F4892B51F344
:104BD000C8010E94751AAC01552775C08330910534
:104BE00009F462C00697A1F7C8010E94751AB82E91
:104BF00044E050E0B401C8010E94561AEB2DE45085
:104C0000FF0BAF0160C08A33910509F45FC084F5E2
:104C100085339105B1F1C697D9F6C8010E94751A7E
:104C20005C01B601CE0189960E94E20D8BA59CA580
:104C3000ADA5BEA5892B8A2B8B2BB1F0EDA9FEA9C2
:104C40004080518062807380B601CE0183960E94BD
:104C5000E20D8DA19EA1AFA1B8A5A50148165906E8
:104C60006A067B0609F0B8CF44E050E0B60118C0F0
:104C70008B33910509F440C08F3F910509F492CF21
:104C8000A7CFC8010E94751AC8010E94751A382E54
:104C900089CFC8010E94751A44E050E06FA978AD31
:104CA000C8010E94561A7ECFC8010E94751AB82EFC
:104CB00044E050E069AD7AADC8010E94561A8B2DD0
:104CC0008450990BAC0170E060E0EACFC8010E940B
:104CD000751A44E050E069A97AA9C8010E94561AE1
:104CE000F70166A177A180A591A50E94AE3066A3C9
:104CF00077A380A791A756CFC8010E94751A44E0F8
:104D000050E06BA97CA9C8010E94561AF70162A560
:104D100073A584A595A50E94AE3062A773A784A74A
:104D200095A740CFC8010E94751A44E050E06FA5D6
:104D300078A9C8010E94561AF70162A173A184A143
:104D400095A10E94AE3062A373A384A395A366A726
:104D500077A780AB91AB26CF33243A94AACE1F928B
:104D60000F920FB60F9211242F933F938F939F931F
:104D7000AF93BF9380917D0590917E05A0917F05B3
:104D8000B091800530917C0523E0230F2D3758F535
:104D90000196A11DB11D20937C0580937D05909304
:104DA0007E05A0937F05B093800580918105909149
:104DB0008205A0918305B09184050196A11DB11DC6
:104DC0008093810590938205A0938305B093840519
:104DD000BF91AF919F918F913F912F910F900FBEF7
:104DE0000F901F90189526E8230F0296A11DB11D64
:104DF000D2CF1F920F920FB60F9211240BB60F92C3
:104E00002F933F934F935F936F937F938F939F93D2
:104E1000AF93BF93EF93FF938EEB95E00E94A805AD
:104E2000FF91EF91BF91AF919F918F917F916F9182
:104E30005F914F913F912F910F900BBE0F900FBE3E
:104E40000F901F9018951F920F920FB60F9211247A
:104E50000BB60F922F938F939F93EF93FF93E09155
:104E6000CE05F091CF058081E091D405F091D50574
:104E700082FD1DC090818091D7058F5F8F73209137
:104E8000D805821741F0E091D705F0E0E254FA4FDF
:104E9000958F8093D705FF91EF919F918F912F91DF
:104EA0000F900BBE0F900FBE0F901F901895808132
:104EB000F2CFDF92EF92FF920F931F93CF93DF9386
:104EC000EEEBF5E01382128288EE93E0A0E0B0E012
:104ED00084839583A683B7832DE532E031832083D5
:104EE00025EC30E03587248724EC30E037872687AF
:104EF00020EC30E0318B208B21EC30E0338B228BA7
:104F000022EC30E0358B248B26EC30E0378B268B7F
:104F1000118E128E138E148EEBE5F6E00DE912E081
:104F2000118300831282138214821582E1E6F6E077
:104F3000118300831282138214821582E7E6F6E061
:104F4000118300831282138214821582EDE6F6E04B
:104F5000118300831282138214821582E3E7F6E044
:104F6000118300831282138214821582E9E7F6E02E
:104F7000118300831282138214821582EFE7F6E018
:104F8000118300831282138214821582EBE8F6E00B
:104F9000118300831282138214821582E5E8F6E001
:104FA000118300831282138214821582E1E9F6E0F4
:104FB000118300831282138214821582EAE1F7E0E2
:104FC000118300831282138214821582E4E1F7E0D8
:104FD0001183008320ECD22ED28238EAE32EE382C2
:104FE00044E6F42EF48221EB2583EEE0F7E0118312
:104FF0000083D282E382F48221E02583EFEFF6E0A2
:105000001382128284839583A683B7834FE652E08E
:105010005183408338E0348748EE53E05687458714
:10502000CDE9D6E04AE050E05F834E832887898748
:105030009A87AB87BC871E861D86188A1F861A8BA7
:10504000098B1B8A1C8A1D8A1E8A188E1F8A1A8E3B
:10505000198E1C8E1B8E1E8E1D8E18A21F8E1AA2DC
:1050600019A21BA21CA21DA21EA21FA218A619A64D
:105070001AA61CA61BA61DA61EA61FA618AA19AA1C
:105080001AAA1BAA1CAA1EAA1DAAE4EDF6E084E235
:10509000DF011D928A95E9F71092F8061092FA0640
:1050A0001092F9061092FC061092FB061092FE0672
:1050B0001092FD0680E890E09983888381E890E073
:1050C0000E94B5309B838A8380E890E00E94B530CF
:1050D0009D838C83E7E9F6E011830083D282E3822B
:1050E000F4828BE98583DF91CF911F910F91FF901F
:1050F000EF90DF900895CF93DF93CDB7DEB7E097C1
:105100000FB6F894DEBF0FBECDBF789484B5826031
:1051100084BD84B5816084BD85B5826085BD85B55B
:10512000816085BD80916E00816080936E001092D9
:105130008100809181008260809381008091810054
:1051400081608093810080918000816080938000E5
:105150008091B10084608093B1008091B000816043
:105160008093B00080919100826080939100809143
:105170009100816080939100809190008160809384
:1051800090008091A10082608093A1008091A10095
:1051900081608093A1008091A00081608093A00035
:1051A00080912101826080932101809121018160A1
:1051B0008093210180912001816080932001809162
:1051C0007A00846080937A0080917A008260809374
:1051D0007A0080917A00816080937A0080917A00D1
:1051E000806880937A001092C100E091CE05F09122
:1051F000CF0582E08083E091CA05F091CB05108253
:10520000E091CC05F091CD0580E180831092D60528
:10521000E091D205F091D30586E08083E091D0053E
:10522000F091D105808180618083E091D005F0917B
:10523000D105808188608083E091D005F091D1050F
:10524000808180688083E091D005F091D1058081D4
:105250008F7D808386EC93E00E94B90D87E1809377
:1052600000028091680581112AC0109250051092A9
:105270004F0588EE93E0A0E0B0E080935105909355
:105280005205A0935305B09354058CE292E090939D
:105290004E0580934D058DE992E090935C058093D7
:1052A0005B0510925D0510925E0510925F051092ED
:1052B000600588E08093650581E0809368058AE059
:1052C00095E090930905809308050E94E4138823D4
:1052D00009F456C580E591E00E94CF0246E050E017
:1052E00063E072E089E090E00E949E068DE992E022
:1052F0009A8389831B821C821D821E82CE010396A3
:105300000E94FE0710922C0510922D0510922E057A
:1053100010922F051092300510923105109232052F
:10532000109233051092340510923505109236050F
:105330001092370580E69AEEA0E0B0E08093400539
:1053400090934105A0934205B093430580EA9FE006
:10535000A0E0B0E08093440590934505A0934605F6
:10536000B0934705E8E1F5E084E1DF011D928A95FD
:10537000E9F786E0E3E0F2E0A2E1B5E001900D920A
:105380008A95E1F710924C050E94B62F2FEC37E07A
:1053900040E050E00E944330DC01CB010196A11DAA
:1053A000B11D80930E0590930F05A0931005B09347
:1053B000110580930A0590930B05A0930C05B093FB
:1053C0000D058DE495E00E94AD1564E470E08DE478
:1053D00095E00E94D11B882309F4D2C40E943004B6
:1053E0006B017C0158EE452E53E0552E612C712C3B
:1053F00063E0962E02E0B12CA12C80914C05833005
:1054000009F440C08111BBC380910E0590910F0536
:10541000A0911005B09111050196A11DB11D8093B9
:105420000E0590930F05A0931005B09311050E94EF
:1054300030046C197D098E099F09A30192010E9415
:105440007530A90161E08AE095E00E946F2081E05B
:1054500080934C0591E0A916B10479F20E943004C2
:105460006C197D098E099F092091400530914105F5
:1054700040914205509143052617370748075907C1
:1054800008F0B9CF8DE495E00E94AD1580910E052E
:1054900090910F05A0911005B09111050196A11DE5
:1054A000B11D80930E0590930F05A0931005B09346
:1054B00011050E943004609348057093490580935C
:1054C0004A0590934B05AA94AB2809F059C480E58E
:1054D00091E00E94CF020091080510910905B801E2
:1054E000625F7F4FCE0101960E94E20DCE010396CE
:1054F0000E94FE07B8016A5E7F4FCE0101960E94AE
:10550000E20D44E050E0BE016D5F7F4F81E090E02E
:105510000E949E06B8016E5E7F4FCE0101960E94EA
:10552000E20D44E050E0BE016D5F7F4F85E090E00A
:105530000E949E06B801625E7F4FCE0101960E94D6
:10554000E20D8B819C81AD81BE8180938706909313
:105550008806A0938906B0938A060E94D8037F73B9
:1055600080910102909102026827792770930202CC
:105570006093010265EE73E08EEB95E00E94FD0CF6
:105580008DE992E09A8389831B821C821D821E8290
:1055900080E591E00E94CF0244E050E0BE016D5FE3
:1055A0007F4F8FE090E00E94DF126EEB75E0CE013E
:1055B00001960E946F0D6FE972E08EEB95E00E94FC
:1055C000FD0C8091990690919A06A0919B06B0914E
:1055D0009C0689879A87AB87BC878FEF96E090936C
:1055E000AB068093AA0680919D0690919E0620911D
:1055F0009F063091A0064091A1065091A20661E05D
:1056000070E07093D5066093D4061092D60610927F
:10561000D7061092D8061092D9061092DA06509347
:10562000E0064093DF069093DC068093DB06309320
:10563000E2062093E1069093DE068093DD06109249
:10564000E4061092E3061092E6061092E506109228
:10565000E8061092E7061092EA061092E906109208
:10566000EC061092EB061092F5061092F7061092D7
:10567000F60680EC96E09093EE068093ED068AECB9
:1056800096E09093F0068093EF068CE394E090937D
:10569000F2068093F10682E594E09093F4068093FD
:1056A000F30640E050E0BA0180EC96E00E943C0432
:1056B000E091F106F091F20640E050E0BA018091ED
:1056C000EF069091F00619958EEB96E09093E80620
:1056D0008093E7068EE894E09093EA068093E906CB
:1056E0008AE195E09093EC068093EB0688EB96E0D8
:1056F0009093E6068093E50682E494E29093E406B4
:105700008093E3068DE992E09A83898389859A855F
:10571000AB85BC858B839C83AD83BE83CE01019614
:105720000E94CB018DE996E09093B9068093B8066C
:105730008AED92E29093BB068093BA061092BD0662
:105740001092BC060E94F40E83EFE82EFF24FA9418
:1057500090ECD92ECC24C39486E30E94C10390938D
:105760007B0580937A0587E30E94C10390937905B6
:10577000809378050E946F0361E070E0892B11F43B
:1057800070E060E0CE0101960E946522BE016F5F6D
:105790007F4F88E894E00E943A0ECE0101960E9465
:1057A000D22260917A0570917B05CE018B960E9482
:1057B0002D2261EA74E0CE0101960E94BD22BE0155
:1057C000655D7F4FCE0101960E94F92160EB74E088
:1057D0000E94E321BC01CE018B960E949D22CE0146
:1057E00001960E94D2226091780570917905CE01D0
:1057F00085960E942D2263EB74E0CE0101960E94F3
:10580000BD22BE016B5D7F4FCE0101960E94F92142
:1058100060EB74E00E94E321BC01CE0185960E94FA
:105820009D22CE0101960E94D2226091740570E003
:10583000CE0101960E9465226EEB74E0CE010796C0
:105840000E94BD22BE016F5F7F4FCE0107960E946E
:10585000F92160EB74E00E94E321BC01CE014F9678
:105860000E94B422CE0107960E94D222CE01019658
:105870000E94D2226091750570E0CE0101960E94CF
:1058800065226BEC74E0CE0107960E94BD22BE013A
:105890006F5F7F4FCE0107960E94F92160EB74E0A5
:1058A0000E94E321BC01CE0149960E94B422CE01A0
:1058B00007960E94D222CE0101960E94D2226091C8
:1058C000760570E0CE0101960E94652268ED74E0D5
:1058D000CE0107960E94BD22BE016F5F7F4FCE01B1
:1058E00007960E94F92160EB74E00E94E321BC015D
:1058F000CE0143960E94B422CE0107960E94D22286
:10590000CE0101960E94D2226091770570E0CE010F
:1059100001960E94652265EE74E0CE0107960E9412
:10592000BD22BE016F5F7F4FCE0107960E94F92115
:1059300061EB74E00E94E321BC01CE010D960E9450
:10594000B422CE0107960E94D222CE0101960E9477
:10595000D22262EF74E0CE0101960E94BD22BE0108
:10596000655D7F4FCE0101960E94F921BE016B5DFE
:105970007F4F0E94F921BE01615E7F4F0E94F92195
:10598000BE01675E7F4F0E94F921BE016D5E7F4FB1
:105990000E94F921BE01635F7F4F0E94F92164EFED
:1059A00074E00E94E321BC01CE0107960E94B4225C
:1059B000CE0101960E94D2220E946F030E94BB0278
:1059C000882309F48FC08091AA069091AB06DC0170
:1059D000ED91FC910084F185E02D19958C01892BC6
:1059E00009F14091A6065091A7066091A806709112
:1059F000A906E091F106F091F2068091EF069091F0
:105A0000F00619951A82198250E040E0B801CE01E3
:105A100001960E943B0A009709F01FC21092FC06F3
:105A20001092FB064091A6065091A7066091A80629
:105A30007091A906E091F106F091F2068091EF06CF
:105A40009091F00619958091D6069091D706A09175
:105A5000D806B091D906892B8A2B8B2B09F43EC02E
:105A6000E091F306F091F4068091ED069091EE0638
:105A70001995161617061806190684F18091DA068C
:105A80008111E2C16091DB067091DC060091DF06B6
:105A90001091E0061A830983600F711F6017710768
:105AA00009F4D9C1F801D08289819A8101969A833B
:105AB000898320E030E0A901CE0101960E945F08B1
:105AC000009709F0CAC189819A81801B910B0E94BD
:105AD000EC01009709F0C1C1C092DA061092FC06F1
