:100000000C948B010C94BC010C94BC010C94BC01AD
:100010000C94BC010C94BC010C94BC010C94BC016C
:100020000C94BC010C94BC010C94BC010C94BC015C
:100030000C94BC010C94BC010C94BC010C94BC014C
:100040000C94BC010C94BC010C94BC010C94BC013C
:100050000C94BC010C94BC010C94BC010C9475264E
:100060000C94BC010C94E9260C94BF260C94BC01A2
:100070000C94BC010C94BC010C94BC010C94BC010C
:100080000C94BC010C94BC010C94BC010C94BC01FC
:100090000C94BC010C94BC010C94BC010C94BC01EC
:1000A0000C94BC010C94BC010C94BC010C94BC01DC
:1000B0000C94BC010C94BC010C94BC010C94BC01CC
:1000C0000C94BC010C94BC010C94BC010C94BC01BC
:1000D0000C94BC010C94BC010C94BC010C94BC01AC
:1000E0000C94BC010C94A3070C942B030C943605C0
:1000F0000C9403080C947F180C94F51F0C942208A0
:100100000C9442030C9451030C948D070C94171714
:100110000C94B60C0C94DD050C9480150C94E00442
:100120000C9430030C94F7150C940B080C94561394
:100130000C94350D0C94F6020C94C11A0C946513B2
:100140000C94881E0C9445180C947D030C94650344
:100150000C9427180C94971B0C941C1A0C94AC0C40
:100160000C94CC070C9454040C94DB1A0C944A03A2
:100170000C9446030C94A80C0C944E030C949C1500
:100180000C9442190C9418040C941F270C947703B8
:100190000C943B1A0C9461030C9473030C9481032C
:1001A0000C94BB0C0C9407080C94BE150C948F1F78
:1001B0000C9469030C946F030C9473150C94FA045B
:1001C0000C9402040C9408240C9457030C94BA1F4A
:1001D0000C94B80C0C943C180C941B080C94651AE5
:1001E0000C94151E0C94FA020C9458050C94DD2EF8
:1001F0000C945B030C94AE070C9490050C944A0588
:100200000C9427050C94A0220C94131F00000A0BD9
:1002100002090C0D0E080703040100000000000095
:1002200000000000000000000000000000000000CE
:10023000000000000000000012111000000000008B
:1002400000000000000000000000000000000000AE
:10025000000000002200250028002B002E003100A5
:10026000340002010000050108010B01000021001B
:10027000240027002A002D00300033000101000077
:10028000040107010A010505050507050808080816
:10029000020202020A0A080804040404010101011E
:1002A0000101010103030303030303030407070719
:1002B0000C0C0C0C0C0C0C0C0202020206060606BE
:1002C000060606060B0B0B0B0B0B0B0B010210208B
:1002D000200808102040102040800201020108047C
:1002E0000201010204081020408080402010080410
:1002F0000201800402018040201008040201080469
:1003000002010102040810204080010204081020AC
:1003100040801F27DD2E11241FBECFEFD1E2DEBFAC
:10032000CDBF00E00CBF14E0A0E0B2E0EAE4F5E6E7
:1003300000E00BBF02C007900D92AA3EB107D9F7AB
:1003400027E0AAEEB4E001C01D92AC30B207E1F79D
:1003500011E0CAE8D1E000E006C021970109802F32
:10036000FE010E945130C938D10780E00807A9F783
:100370000E9441280C9493320C940000CF93DF9399
:10038000E5E8F6E0EC018A819B81AC81BD81838B3D
:10039000948BA58BB68B8BE597E0908F878BDF9145
:1003A000CF9108951092E006809192069091930665
:1003B000DC01ED91FC910488F589E02D1994AF9250
:1003C000BF92CF92DF92EF92FF920F931F93CF9342
:1003D000DF931F921F92CDB7DEB75C01D12CC12CE9
:1003E000CA14DB04A0F04091BE065091BF06609194
:1003F000C0067091C106E091D906F091DA068091AD
:10040000D5069091D606199590E080E030C0E09135
:10041000DB06F091DC068091D7069091D8061995FD
:100420007B018C011E141F0410061106F4F41A82BD
:1004300019826091C7067091C8066C0D7D1DE09110
:10044000D306F091D4069E012F5F3F4FA5014C19B2
:100450005D098091CF069091D0061995009739F4E7
:1004600089819A81C80ED91EBBCF8CEF9FEF0F9068
:100470000F90DF91CF911F910F91FF90EF90DF9040
:10048000CF90BF90AF9008958F929F92AF92BF92FE
:10049000CF92DF92EF92FF920F931F93CF93DF9350
:1004A0001F921F92CDB7DEB79C01260F371F4091D8
:1004B000C5065091C6064217530708F44CC05B01AD
:1004C0004C01D12CC12CCA14DB0418F090E080E060
:1004D00033C0E091DB06F091DC068091D706909165
:1004E000D80619957B018C011E141F0410061106F5
:1004F0000CF51A8219826091C9067091CA06C4016E
:100500008C0D9D1D680F791FE091D106F091D206E8
:100510009E012F5F3F4FA5014C195D098091CF06C9
:100520009091D0061995009739F489819A81C80E67
:10053000D91EC9CF8CEF9FEF0F900F90DF91CF9115
:100540001F910F91FF90EF90DF90CF90BF90AF90F1
:100550009F908F9008958FEF9FEFEECF809192063E
:1005600090919306009711F480E00895DC01ED91DD
:10057000FC910688F789E02D19958130A9F78091C3
:10058000E00608958CBD9DBD089590E0FC01E45304
:10059000FD4F24918A579D4FFC018491882399F047
:1005A00090E0880F991FFC01E459FD4FA591B4918B
:1005B000FC01EE5AFD4F859194918FB7F894EC9120
:1005C000E22BEC938FBF089520E3FC012083329649
:1005D000862F82958F706F706A3030F4605D629301
:1005E000682F8111F5CF0895695CF9CFFC01818DE9
:1005F000928D08950895282F30E0F901E45FFD4FB2
:100600009491F901E453FD4F44912A573D4FF9016C
:100610002491222309F435C0992311F1915092318C
:10062000F8F4E92FF0E08827E75EFC4F8F4F0C9439
:1006300051304A034E032B03420346033003510358
:1006400057035B036103650369036F03730330039F
:1006500077037D038103809180008F7780938000F2
:10066000E22FF0E0EE0FFF1FEE5AFD4FA591B4917F
:100670008FB7F894EC91611148C040954E234C938C
:100680008FBF0895809180008F7DE8CF809180009A
:10069000877FE4CF84B58F7784BDE2CF84B58F7D2B
:1006A000FBCF8091B0008F778093B000D9CF80913D
:1006B000B0008F7DF9CF809190008F77809390006C
:1006C000CFCF809190008F7DF9CF80919000877F70
:1006D000F5CF8091A0008F778093A000C1CF80914B
:1006E000A0008F7DF9CF8091A000877FF5CF80910A
:1006F00020018F7780932001B3CF809120018F7DDF
:10070000F9CF80912001877FF5CF4E2BB8CF909104
:100710007B00977F90937B008653806480937C005E
:1007200080917A00806480937A0080917A0086FDBF
:10073000FCCF809178009091790008953FB7F894AC
:100740008091690590916A05A0916B05B0916C0547
:1007500026B5A89B05C02F3F19F00196A11DB11D1C
:100760003FBFBA2FA92F982F8827BC01CD01620F58
:10077000711D811D911D42E0660F771F881F991F13
:100780004A95D1F708958F929F92AF92BF92CF92E0
:10079000DF92EF92FF926B017C010E949E034B015E
:1007A0005C01C114D104E104F104B9F00E949E037C
:1007B000681979098A099B09683E7340810591058A
:1007C00080F321E0C21AD108E108F10888EE880E12
:1007D00083E0981EA11CB11CE4CFFF90EF90DF9046
:1007E000CF90BF90AF909F908F9008952FB7F894BF
:1007F0006091650570916605809167059091680527
:100800002FBF0895CF93DF93EC014C835D836E83FC
:100810007F83E885F985309741F01995688379835E
:100820008A839B83DF91CF9108950E94F603F6CFD0
:10083000CF92DF92EF92FF920F931F93CF93DF93AC
:10084000EC01E885F985309739F11995088119810E
:100850002A813B81601771078207930700F5009595
:10086000109520953095600F711F821F931F0C818A
:100870001D812E813F8168017901C61AD70AE80AD5
:10088000F90AC701B601DF91CF911F910F91FF9037
:10089000EF90DF90CF9008950E94F603D7CF601BB2
:1008A000710B820B930BE3CF2F923F924F925F928B
:1008B0006F927F928F929F92AF92BF92CF92DF9270
:1008C000EF92FF920F931F93CF93DF9300D01F926D
:1008D000CDB7DEB79A8389836B015C834B831901A3
:1008E000270138010E94F6034B015C01D1011D92E2
:1008F0001C92EB81FC81EF2B89F10E94F6036819B1
:1009000079098A099B09641575058605970530F5EF
:10091000A981BA818D919C91DC01ED91FC910288B5
:10092000F389E02D4B815C81B601199518161906E3
:100930009CF160E070E0CB010E94C303A981BA8101
:100940008D919C91DC01ED91FC910688F789E02D59
:1009500019958111CECF8BEF9FEF07C0F1018081F8
:100960009181892B51F190E080E00F900F900F90D2
:100970000F90DF91CF911F910F91FF90EF90DF903B
:10098000CF90BF90AF909F908F907F906F905F902F
:100990004F903F902F900895C80ED91ED1012D91F0
:1009A0003C911197280F391F2D933C93EB81FC81CB
:1009B000E81BF90BFC83EB839CCF8CEF9FEFD5CF2B
:1009C000CF93DF93E901DC018D919C91DC01ED91E6
:1009D000FC910280F381E02D199599838883892BFE
:1009E00029F090E080E0DF91CF9108958AEF9FEFAA
:1009F000FACF0895AF92BF92CF92DF92EF92FF921B
:100A00000F931F93CF93DF936C017B018B01040F36
:100A1000151FEB015E01AE18BF08C017D10759F0D2
:100A20006991D601ED91FC910190F081E02DC60114
:100A30001995892B79F7C501DF91CF911F910F91FE
:100A4000FF90EF90DF90CF90BF90AF900895FC01A2
:100A5000538D448D252F30E0842F90E0821B930B23
:100A6000541710F0CF96089501970895FC01918DC9
:100A7000828D981761F0A28DAE0FBF2FB11D5D96CC
:100A80008C91928D9F5F9F73928F90E008958FEF6E
:100A90009FEF0895FC01918D828D981731F0828D22
:100AA000E80FF11D858D90E008958FEF9FEF089579
:100AB000FC01918D228D892F90E0805C9F4F821BDD
:100AC00091098F739927089586EA95E00E94580549
:100AD00021E0892B09F420E0822F0895FC01A48DE8
:100AE000A80FB92FB11DA35ABF4F2C91848D90E050
:100AF00001968F739927848FA689B7892C93A08933
:100B0000B1898C91837080648C93938D848D9813BC
:100B100006C00288F389E02D80818F7D808308954F
:100B2000EF92FF920F931F93CF93DF93EC0181E03D
:100B3000888F9B8D8C8D98131AC0E889F9898081E4
:100B400085FF15C09FB7F894EE89FF896083E88917
:100B5000F98980818370806480839FBF81E090E009
:100B6000DF91CF911F910F91FF90EF900895F62E96
:100B70000B8D10E00F5F1F4F0F731127E02E8C8D30
:100B80008E110CC00FB607FCFACFE889F989808175
:100B900085FFF5CFCE010E946E05F1CFEB8DEC0FF6
:100BA000FD2FF11DE35AFF4FF0829FB7F8940B8F92
:100BB000EA89FB8980818062CFCFCF93DF93EC01FC
:100BC000888D8823B9F0AA89BB89E889F9898C9135
:100BD00085FD03C0808186FD0DC00FB607FCF7CFF1
:100BE0008C9185FFF2CF808185FFEDCFCE010E94F1
:100BF0006E05E9CFDF91CF91089580E090E0892BD9
:100C000029F00E94640581110E94000080E090E0BC
:100C1000892B49F080E090E0892B29F00E940000A8
:100C200081110E94000080E090E0892B49F080E073
:100C300090E0892B29F00E94000081110E940000A1
:100C400080E090E0892B49F080E090E0892B29F04A
:100C50000E94000081110C9400000895FC01208185
:100C60002EBD9B012150310941F051810DB407FE89
:100C7000FDCF4EB55EBD4193F5CF61507109860F32
:100C8000971F0DB407FEFDCF2EB5FC0120830895FC
:100C9000E091EB04F091EC0480819091EA04892BBF
:100CA00080830895E091EB04F091EC0490818091B1
:100CB000EA0480958923808308958EBD00000DB4D9
:100CC00007FEFDCF8EB50895AF92BF92CF92DF920F
:100CD000EF92FF920F931F93CF93DF9300D000D03A
:100CE0001F921F92CDB7DEB78C017B016A01809104
:100CF000A5058333E1F45801A40EB51EA016B10674
:100D000009F46FC00E94520680EF0E945D06812F99
:100D10000E945D06802F0E945D060F5F1F4FF70146
:100D200081917F010E945D060E944806E7CF5B012A
:100D3000A40EB51E8433C1F40E94520619830A839F
:100D40008D2D80688B83CC8264E070E0CE010196AB
:100D50000E942E06AE14BF0409F441C0F701819130
:100D60007F010E945D06F6CF0E9452060F3F1105DB
:100D700009F028F419820A8384E08B830CC017FDE4
:100D800017C019820A8333E0169507953A95E1F763
:100D9000007E0C600B8386E0C816D104A0F5F70135
:100DA000DE011496EA15FB0599F081918D93FACF37
:100DB000C80126E0969587952A95E1F7807E1983EC
:100DC0000A830115104C10F48461D7CF8C61D5CF04
:100DD000B6016D5F7F4FCE0101960E942E060E94E4
:100DE0004806C60128960FB6F894DEBF0FBECDBFE9
:100DF000DF91CF911F910F91FF90EF90DF90CF90F7
:100E0000BF90AF90089563E070E0CE0101960E941C
:100E10002E06F70181917F010E945D06AE14BF048A
:100E2000C1F7DDCFCF93DF931F92CDB7DEB78983B4
:100E300041E050E0BE016F5F7F4F90E080E00E9494
:100E400064060F90DF91CF91089590E02091A50561
:100E5000233339F40C96982F990F990F990F80E04E
:100E600008954896F8CFDA01E091EE04F0E0FE2F05
:100E7000EE27E60FF71F90E0982F8827A901BD0104
:100E80008E0F9F1F0C946406CF93DF931F921F92C7
:100E9000CDB7DEB779836A8322E030E0AE014F5FE1
:100EA0005F4F60E170E00E9433070F900F90DF9179
:100EB000CF910895CF93DF931F921F92CDB7DEB7E6
:100EC00079836A8322E030E0AE014F5F5F4F64E0D8
:100ED00070E00E9433070F900F90DF91CF9108953B
:100EE000CF93DF931F92CDB7DEB72091EE0430E0B1
:100EF000322F2227260F371F90E0982F882749830B
:100F000041E050E0BE016F5F7F4F820F931F0E9450
:100F100064060F90DF91CF910895CF93DF931F92D6
:100F2000CDB7DEB76983DC01ED91FC910280F381DE
:100F3000E02D41E050E0BE016F5F7F4F19950F90AB
:100F4000DF91CF910895FC019485FB01848598136E
:100F500003C081E0983008F080E00895CF93DF93DC
:100F60001F92CDB7DEB76983DC01ED91FC91028061
:100F7000F381E02D41E050E0BE016F5F7F4F199596
:100F80000F90DF91CF91089544E050E0BC018FE0D5
:100F900090E00C9464060895FF920F931F93CF93F3
:100FA000DF93EB01FC01178A168A2A81211109C0FF
:100FB0002B81211106C02C81211103C02D812223F8
:100FC00001F141155105E9F08A01FC01F08C80E541
:100FD00091E00E94C202AE014E5F5F4F24E030E01C
:100FE0006CE070E08F2D0E943307B8018F2D0E94B6
:100FF000440781E090E0DF91CF911F910F91FF9026
:10100000089580E0F7CFFC01848595850895FC0163
:101010008489958908952DE932E0FC01318320838C
:10102000FB014089518962897389FC0142835383A2
:10103000648375830895DC01ED91FC91048CF58D3A
:10104000E02D199490E080E008950F931F93CF93C3
:10105000DF93EC01B0E0A0E0E881F9818D010F5F42
:101060001F4FCB018E1B9F0B8017910758F1822FCA
:101070008F7797E056954795379527959A95D1F7AD
:10108000211531054105510509F08068EA0FFB1F64
:101090008083211531054105510569F488819981C5
:1010A000800F911F9983888390E080E0DF91CF913A
:1010B0001F910F910895D8010430110569F68EEF44
:1010C0009FEFF4CF8FEF9FEFF1CF4F925F926F9230
:1010D0007F929F92AF92BF92CF92DF92EF92FF9258
:1010E0000F931F93CF93DF936C018A01DA011D9256
:1010F0001D921D921C921397DC01ED91FC917B01D6
:10110000EE1AFF0A5F01D0E0C0E0412C512C320101
:1011100043942196EC16FD06E0F1C530D105E1F1CE
:10112000D5019D905D01A92DAF77B0E0A30192019B
:101130000E940D30D8012D913D914D915C911397F6
:10114000260F371F481F591F2D933D934D935C93D6
:10115000139787E0440C551C661C771C8A95D1F7C1
:1011600097FCD7CFEC0FFD1FD601ED93FC9390E0D9
:1011700080E0DF91CF911F910F91FF90EF90DF9072
:10118000CF90BF90AF909F907F906F905F904F9067
:1011900008958FEF9FEFEDCF8EEF9FEFEACFFA012B
:1011A000603871058105910538F481E090E0918304
:1011B000808390E080E00895611520E47207810546
:1011C000910518F482E090E0F2CF6F3F2FEF7207A5
:1011D0002FE18207910518F483E090E0E8CF6F3F9C
:1011E0007F4F8F4F9F4018F484E090E0E0CF118252
:1011F00010828EEF9FEF0895FC01A081B181A617A8
:10120000B70729F4DA011C928FEF9FEF08958C91B4
:10121000DA018C938081918101969183808390E0A3
:1012200080E00895FC01A081B1816A1B7B0B6230D4
:10123000710568F05C93A081B18111964C93808117
:10124000918102969183808390E080E008958FEFF2
:101250009FEF0895AF92BF92CF92DF92EF92FF92ED
:101260000F931F93CF93DF931F921F92CDB7DEB7DB
:101270007C01E60EF71EE1E0F0E02630310511F0CA
:10128000F0E0E0E0EE0FFF1F74E0220F331F7A95CD
:10129000E1F7E22BE816F90669F16A015C01DC016D
:1012A000ED93BA83A98322E030E040E050E0B7013B
:1012B000CE0101960E942508009779F4A801B70194
:1012C000CE0101960E941209009739F429813A81D2
:1012D0002A193B09F601318320830F900F90DF918B
:1012E000CF911F910F91FF90EF90DF90CF90BF9023
:1012F000AF9008958FEF9FEFF0CFCF93DF93DC0196
:10130000ED91FC9111976E1B7F0B6230710540F4DB
:10131000EA01198218828FEF9FEFDF91CF91089534
:10132000208130E0322F22279181290F311DEA01DF
:10133000398328833296ED93FC9390E080E0EDCFE3
:10134000AF92BF92CF92DF92EF92FF920F931F93D3
:10135000CF93DF9300D000D01F92CDB7DEB75A01F4
:1013600069019E838D837C01E60EF71E1F82AE010C
:10137000495F5F4FB701CE0105960E94FC080097B8
:1013800049F52F81822F807F90E034E095958795F5
:101390003A95E1F78A159B0571F523FB222720F981
:1013A000F6012083AE014F5F5F4FB701CE01059676
:1013B0000E946508009771F489819A81AB81BC8194
:1013C0000297A105B105D1F4A801B701CE01059698
:1013D0000E947D0927960FB6F894DEBF0FBECDBFE1
:1013E000DF91CF911F910F91FF90EF90DF90CF9001
:1013F000BF90AF90089587EF9FEFECCF88EF9FEFFE
:10140000E9CF2F923F924F925F926F927F928F928D
:101410009F92AF92BF92CF92DF92EF92FF920F9383
:101420001F93CF93DF93CDB7DEB766970FB6F894CF
:10143000DEBF0FBECDBF3C017E8B6D8B1A01F12C40
:10144000E12CF3011182108261E070E090E080E015
:101450000E9444028C3FFFEF9F0709F420C10097D0
:1014600009F05AC06091C9067091CA06F301118251
:1014700010827A8369836F5F7F4FAE01485F5F4F51
:10148000CE0101960E94FC08009709F045C08885AE
:10149000807F90E034E0959587953A95E1F7F301E8
:1014A000918380838930910579F04CF402970697F7
:1014B00058F0F3011182108287EF9FEF2DC08B301F
:1014C000910511F00D97A9F719821A821B821C82CF
:1014D00010E000E02801FFEF4F1A5F0A61E070E0C2
:1014E000C2010E9444020097B9F46091C90670914C
:1014F000CA066F5F7F4F79876887640D751DAE01DF
:101500004F5F5F4FCE0108960E9465088E3F2FEF18
:101510009207D9F489EF9FEF66960FB6F894DEBF75
:101520000FBECDBFDF91CF911F910F91FF90EF9034
:10153000DF90CF90BF90AF909F908F907F906F90F3
:101540005F904F903F902F9008950097C9F4698164
:101550007A818B819C814B012091DD0621111AC07B
:10156000611571058105910509F091C089809A8006
:10157000FFEF8F1A9F0A8E0C9F1C840C951C35C0A0
:1015800019821A821B821C8282018F3F980709F4FC
:10159000A1CFC2CF98012E5F3F4F5B016C01A20E1D
:1015A000B31EC11CD11C2091C5063091C60650E067
:1015B00040E02A153B054C055D0590F68114910429
:1015C00089F5F30111821082E091DE06F091DF06C9
:1015D000309759F080819181A281B3810196A11D3C
:1015E000B11D80839183A283B383F30180819181B4
:1015F000009709F491C18530910509F43AC108F0CA
:1016000050C0039709F457C02114310409F47BC179
:10161000F301808191812816390609F080C190E09C
:1016200080E07ACFE091DB06F091DC068091D7066E
:101630009091D80619957B018C011E141F04100689
:10164000110614F54091C5065091C60684169506FC
:1016500008F4A401198618866091C9067091CA061B
:10166000E091D106F091D2069E01285F3F4F809114
:10167000CF069091D0061995009709F04DCF888537
:101680009985881A990A9ACF8CEF9FEF45CFC801A8
:1016900002960E944402009709F468CF3DCF4701AB
:1016A000A4CF8630910509F410C10D9709F0ACCF95
:1016B0001092C206A9CF8091C5069091C606E0900F
:1016C000C906F090CA06FF86EE86E80EF91EAE0146
:1016D000405F5F4FB701CE010E960E94FC08009755
:1016E00009F01ACF8889982F907F903309F0E4CEC3
:1016F000982F91709B83867090E0959587958130A7
:1017000009F49AC0512C412C823019F492E0492EF0
:10171000512CAE01485F5F4FB701CE010E960E947B
:101720006508009709F0F8CE488559856A857B855C
:10173000423051056105710508F498C00E851F857A
:10174000E01AF10AC701FF0CAA0BBB0B841795071F
:10175000A607B70708F4DDC0040F151FAE01445FEC
:101760005F4FB801CE010E960E947D09009709F0E7
:10177000D3CE2C853D852115310509F061C01C8A29
:101780001B8A3A8B298B4114510409F469C0AE01BC
:10179000445F5F4FB801CE010E960E947D0900970D
:1017A00009F0BACE8E859F85081B190B1F830E8307
:1017B000012B09F058C01D821C82E091CB06F091EC
:1017C000CC063097A1F06091CD067091CE06A42C86
:1017D0005A824982BA80CB80DC80ED80FE800F8106
:1017E00029893A894B895C898CEB96E019954114DB
:1017F000510409F409CF24E030E04A94452811F05F
:1018000025E030E00C851D856091C3067091C4060B
:10181000AE01485F5F4F8091C7069091C8060E9455
:101820002A09009709F078CE888599850E94DF0102
:10183000009709F4E9CE70CE44244394512C69CF2B
:101840008E859F85A801481B590B4217530708F442
:1018500060C09C8B8B8B820F931F9F878E8791CF4D
:101860001D861C869FCF9D838C83A7CF88EF9FEF1B
:1018700053CE6091C5067091C6068E01085F1F4F5A
:101880009E01245F3F4F45E050E08091C906909152
:10189000CA060E94A009009709F03ECE0885198566
:1018A0006091C3067091C40626E030E0AE014F5F40
:1018B0005F4F8091C7069091C8060E942A09009741
:1018C00009F02ACE89819A81B1CF6091C5067091C5
:1018D000C6068E01085F1F4F9E01245F3F4F46E002
:1018E00050E08091C9069091CA060E94A009009715
:1018F00009F012CE088519856091C3067091C4065F
:1019000027E030E0D3CF8D899E89892B09F080CEE6
:1019100086CE8FEF9FEF00CE21143104A1F3E0912A
:10192000DB06F091DC068091D7069091D8061995D8
:1019300016161706180619060CF071CEED89FE89E9
:10194000309721F08E169F0608F069CE740179CD8C
:10195000FC01768765870895DC01ED91FC91068C8A
:10196000F78DE02D199591E089270895862F089528
:1019700081E08627089521E0FC018485883008F005
:1019800020E0822F0895FB0101900020E9F73197B4
:10199000AF01461B570BDC01ED91FC910280F381F6
:1019A000E02D1994CF93DF93FC0144815581608130
:1019B000718186EA95E00E94FA04EC016FE972E019
:1019C00086EA95E00E94C30C8C0F9D1FDF91CF919A
:1019D00008958F929F92AF92BF92EF92FF920F93D2
:1019E0001F93CF93DF93CDB7DEB7A1970FB6F894CF
:1019F000DEBF0FBECDBF7C01FA01CB0119A22230A0
:101A000008F42AE08E010F5D1F4F822E912CB12C1D
:101A1000A12CBF01A50194010E942030F901CA0147
:101A20006A300CF5605DD8016E938D01232B242B59
:101A3000252B79F790E080E0109721F0BD01C701D8
:101A40000E94C30CA1960FB6F894DEBF0FBECDBFA7
:101A5000DF91CF911F910F91FF90EF90BF90AF90CA
:101A60009F908F900895695CDECF8F929F92AF9286
:101A7000BF92CF92DF92EF92FF920F931F93CF937B
:101A8000DF937C01EB016C0182E0C80ED11C4701A1
:101A9000E5E08E0E911C10E000E0F60141916F012F
:101AA00050E070E060E02AE0CE010E94E90C5C01A9
:101AB000E881F9810190F081E02D6EE2CE01199567
:101AC0008A0D9B1D080F191FC814D90431F7F7019F
:101AD000458150E070E060E02AE0CE010E94E90C10
:101AE000800F911FDF91CF911F910F91FF90EF9089
:101AF000DF90CF90BF90AF909F908F900895CF933D
:101B0000DF93D0E0C0E0009731F0BC0186EA95E0B9
:101B10000E94C30CEC016FE972E086EA95E00E9436
:101B2000C30C8C0F9D1FDF91CF910895DC0160E005
:101B300070E0CB01109709F40895FD010190002099
:101B4000E9F73197EA1BFB0BB9F3BF01CD0108950B
:101B5000DC018DE992E08D939D9384E0FB0101907F
:101B60000D928A95E1F708950F931F93CF93DF931A
:101B7000EC012115310591F088819981681B790B61
:101B80006217730790F08901BA01A9010E947332AC
:101B900028813981200F311F3983288390E080E02C
:101BA000DF91CF911F910F9108958FEF9FEFF8CFA5
:101BB000CF92DF92EF92FF920F931F93CF93DF9319
:101BC000EC018B0169017A01A9010E9412090097B9
:101BD00071F49601A701B801CE01DF91CF911F9159
:101BE0000F91FF90EF90DF90CF900C94B40DDF91A8
:101BF000CF911F910F91FF90EF90DF90CF900895BC
:101C00002F923F924F925F926F927F928F929F920C
:101C1000AF92BF92CF92DF92EF92FF920F931F93FA
:101C2000CF93DF9300D01F921F92CDB7DEB78C0108
:101C3000FB01C080D180F60101900020E9F73197C7
:101C40007F01EC18FD080E94AE028D83882309F401
:101C500075C080908E0690908F06A0909006B090F0
:101C60009106C8010E94960D2B013C01E091D90616
:101C7000F091DA06B501A4018091D7069091D806BB
:101C800019950091C3061091C4062090C7063090A4
:101C9000C8063C822B82020D131DC2010296470129
:101CA000B12CA12C880E991EA11CB11CAE014F5F56
:101CB0005F4FC501B4010E94CF080296C1F1EB81CC
:101CC000FC81E017F10709F452C080E380838B8127
:101CD0009C8101969C838B83A5019401B801CE0160
:101CE00003960E9425080097D1F4A3019201B80140
:101CF000CE0103960E94D80D009789F49701A601A2
:101D0000B801CE0103960E94B40D009741F48B8177
:101D10009C81821993090E94DF01009759F09093EA
:101D2000E4068093E3060E94D2011D8207C089EF7A
:101D30009FEFF5CF1092E4061092E3068D810F908D
:101D40000F900F900F900F90DF91CF911F910F91F7
:101D5000FF90EF90DF90CF90BF90AF909F908F90CB
:101D60007F906F905F904F903F902F9008958FEFEE
:101D70009FEFD5CF2F923F924F925F926F927F92BB
:101D80008F929F92AF92BF92CF92DF92EF92FF928B
:101D90000F931F93CF93DF93CDB7DEB7EB970FB6BB
:101DA000F894DEBF0FBECDBF62EA72E086EA95E02E
:101DB0000E94C30C26E0822E912C37EF232E332471
:101DC0003A940E94AE0281110E94D2018091920643
:101DD000909193069093A7068093A606609194062F
:101DE0007091950640919C0650919D06DC01ED9105
:101DF000FC9161157105D1F00088F189E02D1995EC
:101E00001816190654F18DEF9FEF9093E406809316
:101E1000E3066EEA72E086EA95E00E94C30C68EE83
:101E200073E080E090E00E94C303CBCF0684F78587
:101E3000E02D2DE932E038A32F8F00919806109104
:101E4000990620919A0630919B0609A31AA32BA309
:101E50003CA3BE01615E7F4FD2CF8FE0E3E1F2E0B1
:101E6000DE015F9601900D928A95E1F7A0908B06B6
:101E7000B0908C0630918D063AAF80EB92E00E94D4
:101E8000960D6F8F78A389A39AA340918E065091E7
:101E90008F066091900670919106E0909E06F090FA
:101EA0009F06BCA2ABA28AAD8DA38FE0FE017F96F8
:101EB000DE01509601900D928A95E1F7E091D906E6
:101EC000F091DA068091D7069091D8061995950180
:101ED000A8EEB3E00E944230AB01BC014093BE06C5
:101EE0005093BF066093C0067093C106E091D90677
:101EF000F091DA068091D5069091D6061995109248
:101F0000C2069092E2068092E1060091C30610910B
:101F1000C406C090C706D090C8068FE0FE01709638
:101F2000DE01119601900D928A95E1F74888598853
:101F3000DBAACAAA0C0D1D1D92E0490E511C712C82
:101F4000612CAAE04A0E511C611C711CE114F104C1
:101F500061F0F7018081918127813085820F931F85
:101F60000496480E591E611C711CAE01425D5F4F04
:101F7000C301B2010E94CF08029609F408C1EAA980
:101F8000FBA9E017F10709F4DAC280E180838AA98E
:101F90009BA901969BAB8AABA3019201B801CE012C
:101FA000C2960E942508009709F0ECC089EB92E0E8
:101FB0000E94960D9B01AC01B801CE01C2960E9411
:101FC000D80D009709F0DEC0EAA9FBA9E017F107D8
:101FD00009F4B5C284E08083EAA9FBA99F012F5FC1
:101FE0003F4F3BAB2AAB8AAD482F50E0440F551F03
:101FF000842FE114F10489F0D70114968C91149781
:10200000880F880F880F4460842B8F7D16964C9123
:10201000B0E24B9FA0011124842B2017310709F453
:102020008EC281838AA99BA901969BAB8AABA5012D
:10203000B801CE01C2960E941209009709F0A2C011
:1020400029813A814B815C81B801CE01C2960E9400
:10205000D80D009709F096C0E114F10409F06EC0A4
:102060008AA99BA98C199D090E94DF01009709F09C
:1020700089C01DAA1CAA42E050E070E060E0CE01D9
:10208000C4960E94010A009709F07CC08CA99DA902
:10209000029709F075C18091C5069091C60600911E
:1020A000C9061091CA061BAB0AAB080F191FAE0177
:1020B000475C5F4FB801CE01C2960E94FC080097B2
:1020C00009F060C089AD807F803209F053C1AE0154
:1020D000425D5F4FB801CE01C2960E94650800972D
:1020E00009F050C08EA59FA5A8A9B9A90297A1057E
:1020F000B10509F03CC1AE01485C5F4FB801CE01AB
:10210000C2960E94FC080097E9F5AE014A5C5F4F59
:10211000B801CE01C2960E94FC08009799F58EA9DD
:10212000823009F41BC1B0F58823F1F1813009F444
:102130000EC19092E2068092E1063AC0F70120813A
:10214000318142815381B801CE01C2960E94D80DDF
:102150000097C1F4D70117964D915C91B801CE015B
:10216000C2960E941209009769F4F7012781308511
:1021700041855285B801CE01C2960E94B40D0097E8
:1021800009F46ECF9093E4068093E306FDC089EFD7
:102190009FEFF8CF843009F4E7C008F4E2C085303F
:1021A00041F685E090E0D5C01092E2061092E1067B
:1021B0008091E1069091E206892B09F0DEC0109231
:1021C000E4061092E30681E08093E0068EEB92E055
:1021D0000E947F0D6AEC72E086EA95E00E94C30CD3
:1021E00081EE92E00E947F0D0E94AE02882309F4E6
:1021F000E3C0C0908E06D0908F06E0909006F090DD
:10220000910681EE92E00E94960D4B015C01E091F7
:10221000D906F091DA06B701A6018091D706909110
:10222000D8061995C090BC06D090BD06FFEFCF161A
:10223000DF0609F0ACC021E030E03093BD0620930A
:10224000BC06CC24C394D12CE090C306F090C40605
:102250008091C7069091C8069BAF8AAF9FA78EA7B3
:10226000E80EF91E140193E0290E311C512C412C6B
:10227000A2E02A0E311C411C511CAE01415E5F4F91
:10228000C201B1010E94CF08029609F488C0EEA5F0
:10229000FFA5EE15FF0509F455C182E880838EA5E0
:1022A0009FA501969FA78EA7A2019101B701CE011C
:1022B0008E960E9425088C01892B09F008C1A60181
:1022C000B701CE018E960E9412098C01892B09F06C
:1022D000FEC0A5019401B701CE018E960E94D80DD3
:1022E0008C01892B09F0F3C0EEA5FFA5EE15FF05C3
:1022F00009F428C110828EA59FA50196EAADFBAD19
:102300008E1B9F0B0E94DF018C01892B09F0DFC01F
:102310001FAA1EAA49E050E070E060E0CE01C69618
:102320000E94010A8C01892B09F0D1C08EA99FA9B6
:10233000099709F448C00FB6F894DEBF0FBECDBFB1
:1023400087EF9FEF9093E4068093E30633C081E02C
:1023500090E09093E2068093E1062ACF82E090E03D
:10236000F8CF83E090E0F5CF84E090E0F2CF88EF03
:102370009FEF08CF87EF9FEF05CF86EF9FEF02CF4C
:102380003092E4062092E3060E94D20142CD3FEF54
:10239000C31AD30AD092BD06C092BC0655CF0FB661
:1023A000F894DEBF0FBECDBF29EF3FEF3093E406B8
:1023B0002093E3060E94D2016BEE72E086EA95E07C
:1023C0000E94C30C11CF8091C5069091C606E09083
:1023D000C906F090CA06FBAAEAAAE80EF91EAE01E9
:1023E000475C5F4FB701CE01C2960E94FC088C018A
:1023F000892B09F06CC089AD807F803909F09BCFB3
:10240000AE01415E5F4FB701CE01C2960E946508E2
:102410008C01892B09F05BC08F8D98A1A9A1BAA16D
:102420000397A105B10540F40FB6F894DEBF0FBEC7
:10243000CDBF88EF9FEF86CFAE014C5C5F4FB701F9
:10244000CE01C2960E947D098C01892B09F03FC004
:102450004E013EE2830E911C6401B12CA12C8F8DA4
:1024600098A10297A816B9061CF090E080E060C021
:1024700082E0A816B10441F1AE01485C5F4FB7019C
:10248000CE01C2960E94FC08009701F588AD81300C
:10249000A9F050F0E2E0F0E0823011F0E0E8F0E086
:1024A000D601ED93FC9303C0D6011D921C92FFEF61
:1024B000AF1ABF0A22E0C20ED11CD1CF21E030E01A
:1024C000F60131832083F3CF84EF9FEF8C010FB6A9
:1024D000F894DEBF0FBECDBF1093E4060093E30671
:1024E000012B09F067CF8DEE92E00E947F0DEB96F5
:1024F0000FB6F894DEBF0FBECDBFDF91CF911F9115
:102500000F91FF90EF90DF90CF90BF90AF909F9092
:102510008F907F906F905F904F903F902F90089595
:10252000D4012D913D914D012038310529F00196BE
:102530008A159B05A9F7CBCF05EF1FEFC8CF8FEF0B
:102540009FEF20CE0FEF1FEFC2CFAF92BF92CF927F
:10255000DF92EF92FF920F931F93CF93DF9300D000
:102560001F92CDB7DEB78C016B017A018091A50572
:102570008333E9F45B016801C40ED51EC016D10691
:10258000A9F10E9452068FE00E945D06812F0E94F1
:102590005D06802F0E945D060F5F1F4F80E00E9446
:1025A0005D06F50181935F010E944806E7CF843301
:1025B00069F50E94520619830A838F2D8F778B83CA
:1025C000EC8264E070E0CE0101960E942E06A70125
:1025D00070E060E0C6010E947C32E114F10421F059
:1025E000B701C6010E942E060E944806C7010F903F
:1025F0000F900F900F90DF91CF911F910F91FF904F
:10260000EF90DF90CF90BF90AF9008950E94520658
:102610000F3F110509F030F419820A831B8263E031
:1026200070E0D1CF17FD0BC019820A8333E01695F5
:1026300007953A95E1F7007E08600B83F0CFC8015B
:1026400026E0969587952A95E1F7807E19830A837F
:102650000115104C18F480618B83E1CF8861FCCFA9
:102660001F93CF93DF931F92CDB7DEB7182F80E56E
:1026700091E00E94C202812F0E94250727E0129F4D
:10268000F0011124E359FA4F22813381377041E080
:1026900050E0BE016F5F7F4F820F931F0E94A51213
:1026A00089810F90DF91CF911F910895FC01808D5A
:1026B000883040F4218D328D232B21F00E9430137D
:1026C00090E008958FEF9FEF0895CF93DF93FC0183
:1026D0002485283028F08FEF9FEFDF91CF91089568
:1026E000EC010190F081E02D0084F185E02D199539
:1026F000892B89F38C850E94301390E0EECFCF9325
:10270000DF931F92CDB7DEB741E050E0BE016F5FAF
:102710007F4F0E94A51289810F90DF91CF9108957C
:1027200090E080E00C947F13CF93DF93C4E1D0E07E
:102730000E949013882361F061E070E080E090E0F7
:102740000E94C3032197A1F780E0DF91CF91089504
:1027500081E0FBCF1F93CF93DF931F921F92CDB7E2
:10276000DEB78091EF048111FDC060E372E080E08C
:1027700090E00E94C3031FB7F8948091ED0481118B
:1027800024C0EBEBF2E08491E1E0F3E09491E82FD8
:10279000F0E0EE0FFF1FE459FD4FA591B491EC91CD
:1027A000E92321F461E085E30E94FB0285E30E94B6
:1027B000C5028CB580618CBD8CB580648CBD84E312
:1027C0000E94C50283E30E94C5028091ED048F5FE1
:1027D0008093ED041FBF80910002282F30E0F901A3
:1027E000EA57FD4FE491F0E0EE0FFF1FEE5AFD4F68
:1027F000459154915093EC044093EB04F901E45358
:10280000FD4FE491E093EA040E94C5020E9448064D
:1028100080E591E00E94C20284E38093A50580E8F0
:102820000E9412070E949413882391F188E00E946D
:1028300012070E949013883059F580E10E94120718
:102840000E949013803121F580E00E9412070E94BF
:102850009013182F81111CC08FE190E00E947F130C
:102860008330B1F480E48093EE0442E06EE170E0E6
:10287000812F0E94700742E06FE170E0812F0E947B
:1028800070071F5F183089F781E08093EF0464C000
:1028900087E38093A50580E80E9412070E949413A5
:1028A0008823F9F088E00E9412070E949013883074
:1028B000C1F480E10E9412070E949013182F80310A
:1028C00081F480E00E9412070E949013811109C0D8
:1028D00089E390E00E947F13843019F41093EE0492
:1028E000D3CF83E38093A50580E80E9412070E945E
:1028F0009413882371F180E10E9412070E949013C3
:10290000803139F582E10E9412070E9490138231D2
:1029100001F580E00E9412070E949013811119C0F6
:1029200084E08093EE0415E51A8341E050E0BE0197
:102930006E5F7F4F8BE190E00E946406198341E057
:1029400050E0BE016F5F7F4F8AE190E00E94640615
:102950009BCF1092A50580E00F900F90DF91CF9153
:102960001F91089581E0F8CFCF92DF92EF92FF920E
:102970000F931F93CF93DF93CDB7DEB7E0970FB6DA
:10298000F894DEBF0FBECDBFFB01DC0112964D9166
:102990005D916D917C9115974DA75EA76FA778AB60
:1029A00031E038AB8DA59EA5AFA5B8A98B8F9C8FC4
:1029B000AD8FBE8FC280D380E480F5808DE992E038
:1029C0009C8B8B8B2FEF2D8B2E8B2F8B188E9E87B6
:1029D0008D873E8F0B8D1C8D2D8D3E8D0F87188B17
:1029E000298B3A8BC986DA86EB86FC869A838983A3
:1029F0004B835C836D837E830E94AA13882371F1CD
:102A000080E591E00E94C20246E050E063E072E09F
:102A100089E090E00E946406CE0103960E94C407FC
:102A200044E050E0BE01615F7F4F81E090E00E9492
:102A3000640644E050E0BE016B5E7F4F85E090E0AD
:102A40000E94640689859A85AB85BC8580936F0654
:102A500090937006A0937106B0937206E0960FB63D
:102A6000F894DEBF0FBECDBFDF91CF911F910F91C4
:102A7000FF90EF90DF90CF9008952091EE0430E02A
:102A8000322F2227620F731F90E0982F8827860F1E
:102A9000971F0C947F13CF93C82F462F61E070E0EF
:102AA0000E94700761E070E08C2F0E943D1581113B
:102AB000F9CFCF910895CF93C82F80E591E00E9480
:102AC000C20268E070E08C2FCF910C944B15CF932D
:102AD000C82F80E591E00E94C20260E170E08C2F77
:102AE000CF910C944B15CF93DF93EC01888D8830F8
:102AF00020F40E94671588E0888FDF91CF910895B8
:102B0000CF93FC01C08D80E591E00E94C20260E29B
:102B100070E08C2F0E944B1581E090E0CF910895DA
:102B2000CF93C82F80E591E00E94C20263E070E07D
:102B30008C2FCF910C943D15CF93DF93EC018C85B6
:102B40008830D0F40E949015843189F0882379F080
:102B5000883169F021E08C3159F4E881F9810084F1
:102B6000F185E02DCE01199521E0892B09F420E0B3
:102B7000822FDF91CF91089580E0FBCFCF92DF923B
:102B8000EF92FF92CF93DF93EC018C85883068F44D
:102B90000E945B150E94F6036B017C018C850E94EC
:102BA0009015811109C088E08C87DF91CF91FF904B
:102BB000EF90DF90CF90089561E070E080E090E0CA
:102BC0000E94C3030E94F603AB01BC014C195D09CE
:102BD0006E097F098D859E85B0E0A0E048175907F2
:102BE0006A077B07D8F28C850E946715DCCFCF93EC
:102BF000FC01C08D80E591E00E94C20260E270E0BD
:102C00008C2F0E944B1562E070E08C2F0E943D15C6
:102C100084FD16C062E070E08C2F0E943D1583FF9A
:102C20000AC048E162E070E08C2F0E94700780E0EB
:102C300090E0CF91089580E591E00E94C202E3CF39
:102C400040E162E070E08C2F0E94700781E0F0CFDD
:102C5000DA01E091EE04F0E0FE2FEE27E60FF71F19
:102C600090E0982F8827A901BD018E0F9F1F0C941B
:102C7000A5128F929F92AF92BF92CF92DF92EF9266
:102C8000FF920F931F93CF93DF93CDB7DEB760977B
:102C90000FB6F894DEBF0FBECDBF7C019091A505A5
:102CA000911115C018E0812F60960FB6F894DEBF21
:102CB0000FBECDBFDF91CF911F910F91FF90EF908D
:102CC000DF90CF90BF90AF909F908F90089508E0D5
:102CD000933309F404E06B0180E591E00E94C202A5
:102CE0009E012F5F3F4F5901490110E063E070E002
:102CF000812F0E943D15F40181934F018823C1F07B
:102D00001F5F0113F3CF00E0F50181915F018D3169
:102D100049F0883139F08A51823020F00F5F10136A
:102D2000F3CFC0CF60E170E0802F0E944B15102FD1
:102D3000A12EB12C83EE93E00197F1F742E870E009
:102D400060E0812F0E9470074FEF62E070E0812FFA
:102D50000E947007B601C114D10491F48091010260
:102D60009091020201968115F0EC9F0708F45CC077
:102D7000909302028093010260910102709102021D
:102D8000812F0E945A0786E0E2E2F2E0DE01199606
:102D900001900D928A95E1F7F70183818F778C87F7
:102DA00084818D8785818E87A7014E5F5F4F24E0E8
:102DB00030E06CE070E0812F0E943307B601812F74
:102DC0000E94440726E030E0AE01475F5F4F66E0B7
:102DD00070E0812F0E94330761E070E0812F0E9434
:102DE0004B1527E02A9DC0012B9D900D11249C01BD
:102DF00023593A4F7901F9011182108222E030E023
:102E0000AE01415F5F4F68E270E0812F0E9428169B
:102E10008F859889982789279827F701938382833C
:102E20001682158214823FCF80E090ECA1CFCF9222
:102E3000DF92EF92FF920F931F93CF93DF9300D017
:102E400000D0CDB7DEB78C016B017A01FC01808D1B
:102E5000883010F40E9467158DE992E09A83898387
:102E6000F60182819381A481B5818B839C83AD839C
:102E7000BE83B701CE0101960E943916F801808FFA
:102E80008830A0F4F586E486128E118E81E02696B5
:102E90000FB6F894DEBF0FBECDBFDF91CF911F916B
:102EA0000F91FF90EF90DF90CF90089580E0EFCFEB
:102EB0007F928F929F92AF92BF92CF92DF92EF92CA
:102EC000FF920F931F93CF93DF931F921F92CDB763
:102ED000DEB7782E8B014A01590122E030E0AE01C5
:102EE0004F5F5F4F64E270E00E942816E980FA802D
:102EF000FE24EF24FE24E00EF11E9701377040916E
:102F0000A505072D10E0433309F042C0085F1F4FAD
:102F1000102F0027110F110F110FC901800F911FE2
:102F20004733C9F1A9014A0D5B1D4130584098F162
:102F300060E078E06B01C21AD30AA601B4010E94D6
:102F40006406A5014C195D09B4016C0D7D1DC80115
:102F50000E946406EA0CFB1CF982EA8222E030E05F
:102F6000AE014F5F5F4F64E270E0872D0E94330730
:102F70000F900F90DF91CF911F910F91FF90EF90E5
:102F8000DF90CF90BF90AF909F908F907F900895EB
:102F9000005F1F4FBDCFA501B401DACFEF92FF92C2
:102FA0001F93CF93DF931F921F92CDB7DEB7182FD9
:102FB00022E030E0AE014F5F5F4F60E270E00E94C0
:102FC0002816E980FA80FE24EF24FE2422E030E077
:102FD000AE014F5F5F4F60E270E0812F0E942816C4
:102FE00089819A81982789279827E816F90689F414
:102FF00087E0189FF0011124E359FA4FF582E4822B
:10300000C7010F900F90DF91CF911F91FF90EF902C
:1030100008957C01DBCF1F93CF93DF93182F80E5BA
:1030200091E00E94C202812F0E94CE17EC0163E062
:1030300070E0812F0E943D15873121F08C3111F015
:10304000D0E0C0E0CE01DF91CF911F910895CF93E2
:10305000DF93EC018C85883060F40E9490158731F5
:1030600011F08C3131F48C850E940B188115984039
:1030700088F3DF91CF910895FC018485883010F4A6
:103080000C940B1890E080E008959F92AF92BF924D
:10309000CF92DF92EF92FF920F931F93CF93DF9324
:1030A0008C015B01942EE52EFC01C688D788F08C3C
:1030B00080E591E00E94C2028F2D0E94CE17C92D9B
:1030C000DE2D8C179D0708F4EC019E01A501B601C9
:1030D0008F2D0E945817F801868997898C0F9D1FA4
:1030E000978B868BCE01DF91CF911F910F91FF902F
:1030F000EF90DF90CF90BF90AF909F9008958F9208
:103100009F92AF92BF92CF92DF92EF92FF920F9376
:103110001F93CF936C015B018A01FC01C485C83009
:10312000F0F57A014130584018F0E12C88E0F82E93
:1031300080E591E00E94C2028C2F0E94CE174C01C4
:1031400063E070E08C2F0E943D15873111F08C31C7
:1031500049F58E149F0460F380E591E00E94C2025D
:103160009701A50170E060E08C2F0E94581760E283
:1031700070E08C2F0E944B1562E070E08C2F0E9453
:103180003D1584FD17C063E070E08C2F0E943D1553
:1031900081110BC081E090E0F6019383828310E0FF
:1031A00000E010C0F12CE12CD7CF80E591E00E9427
:1031B000C202E2CF40E162E070E08C2F0E94700713
:1031C000EF2841F3C801CF911F910F91FF90EF902D
:1031D000DF90CF90BF90AF909F908F900895FF9217
:1031E0000F931F93CF93DF931F921F92CDB7DEB73C
:1031F000F82E22E030E0AE014F5F5F4F66E270E0F4
:103200000E94281609811A8110270127102722E021
:1032100030E0AE014F5F5F4F66E270E08F2D0E949D
:10322000281689819A8198278927982708171907CE
:1032300049F4C8010F900F90DF91CF911F910F912A
:10324000FF9008958C01E3CF1F93CF93DF93182F46
:1032500087E0189FE0011124C359DA4F88819981D2
:10326000009761F480E591E00E94C202812F0E94E4
:10327000EF182E81821B910999838883DF91CF916A
:103280001F910895FC018485883010F40C94241952
:1032900090E080E008954F925F927F928F929F928C
:1032A000AF92BF92CF92DF92EF92FF920F931F9354
:1032B000CF93DF931F921F92CDB7DEB7782E6B01AD
:1032C0004A01A82EB12C27E0829FC0011124FC01E5
:1032D000E359FA4F7F010081118180E591E00E945E
:1032E000C2020815190554F4872D0E94EF18F70142
:1032F00026818C01021B1109118300830115110520
:1033000029F563E070E0872D0E943D15843159F066
:10331000882349F001E010E08C3111F410E000E066
:10332000119501951109C8010F900F90DF91CF9170
:103330001F910F91FF90EF90DF90CF90BF90AF90D3
:103340009F908F907F905F904F9008958016910688
:103350000CF4840187E08A9DF0018B9DF00D11240F
:10336000E359FA4FE280F380C114D10451F12701EF
:10337000F7E05F22872D0E942507840D951D20917F
:10338000A505273309F453C09801240D351D2130BC
:10339000384008F44CC020E038E049018418950812
:1033A000A401B6010E94A5122601480C591C68010F
:1033B000C818D908872D0E942507A601B2010E94CE
:1033C000A512E00EF11E87E08A9DF0018B9DF00DA5
:1033D0001124E359FA4FF382E28220813181201BCC
:1033E000310B318320838681800F912F911D8A3F7D
:1033F000910510F4232BF1F487E08A9DF0018B9D59
:10340000F00D1124E359FA4F1682F982EA8222E084
:1034100030E0AE014F5F5F4F68E270E0872D0E94A1
:10342000330760E470E0872D0E944B157CCFA80124
:10343000B601C5CF868377CFCF93DF93FC01218D73
:10344000328D2115310529F48FEF9FEFDF91CF9158
:103450000895EC01808D4217530708F0A9010E94DE
:103460004B191816190684F7298D3A8D281B390B2C
:103470003A8F298FEBCF0F931F93CF93DF931F9238
:10348000CDB7DEB7FC01218D328D232B41F48FEFB8
:103490009FEF0F90DF91CF911F910F9108958C01B5
:1034A00041E050E0BE016F5F7F4FFC01808D0E94C4
:1034B0004B19181619065CF7F801818D928D01974A
:1034C000928F818F898190E0E4CF0F931F93CF93E8
:1034D000DF9300D000D01F921F92CDB7DEB78C01D2
:1034E000D80159964D915C915A974115510551F06B
:1034F000ED91FC91048CF58DE02D70E060E0C80149
:103500001995EECFF801808D0E942419892BB1F115
:1035100048E050E0BE016F5F7F4FD80158968C9114
:103520000E944B1918161906F4F4D801509684E03D
:10353000FE01319601900D928A95E1F78D8190E020
:10354000982F88272E81820F911DF801958B848BEF
:103550008F81282F30E0322F22278885820F932FEA
:10356000911D928F818F28960FB6F894DEBF0FBE03
:10357000CDBFDF91CF911F910F91089590E080E032
:10358000F2CFCF93DF931F92CDB7DEB741E050E08B
:10359000BE016F5F7F4FFC0184850E944B19181696
:1035A000190634F4898190E00F90DF91CF9108954E
:1035B0008FEF9FEFF9CFFC018485883010F40C94D5
:1035C0004B1990E080E008958F929F92AF92BF9246
:1035D000CF92DF92EF92FF920F931F93CF93DF93DF
:1035E00000D000D000D01F92CDB7DEB79091A505D6
:1035F000911115C018E0812F2A960FB6F894DEBFFE
:103600000FBECDBFDF91CF911F910F91FF90EF9033
:10361000DF90CF90BF90AF909F908F90089528E05B
:10362000F22E933311F494E0F92E6B01082F80E50C
:1036300091E00E94C2029E012F5F3F4F5901490154
:1036400010E063E070E0812F0E943D15F40181934A
:103650004F018823C1F01F5FF112F3CFF12CF50168
:1036600091915F019D3149F0983139F09A51923032
:1036700020F0F3941F11F3CFBDCF60E170E08F2DE8
:103680000E944B151F2DE12EF12C83EE93E0019744
:10369000F1F7402F70E060E0812F0E9470074FEF3C
:1036A00062E070E0812F0E947007B601CD2889F496
:1036B000809101029091020201968115F0EC9F0722
:1036C00098F190930202809301026091010270913F
:1036D0000202812F0E945A0761E070E0812F0E9450
:1036E0004B1527E02E9DC0012F9D900D11249C01AC
:1036F00023593A4F7901F9011182108222E030E01A
:10370000AE01475F5F4F68E270E0812F0E9428168C
:1037100089859A85982789279827F701938382833B
:1037200016821582148267CF80E090ECCACF0F9387
:103730001F93CF93DF93EC018B01888D883010F4B9
:103740000E946715B80182E00E94E41A888F8830D1
:1037500050F41D870C871A8E198E81E0DF91CF916E
:103760001F910F91089580E0F9CF4F925F926F9271
:103770007F928F929F92AF92BF92CF92DF92EF9201
:10378000FF920F931F93CF93DF93CDB7DEB763976D
:103790000FB6F894DEBF0FBECDBF7C016B013A01BE
:1037A000FB0120E090E080E06AE03191332309F4EE
:1037B00061C040ED430F4A3008F04DC0689FA00142
:1037C000699F500D1124CA01C097830F911D37FDC9
:1037D0009A958F3F910549F340F3F7014281538158
:1037E0006481758180914B0690914C06A0914D06A5
:1037F000B0914E06481759076A077B0709F40DC2B6
:103800008701085F1F4F0E94F6036F7077277C5F68
:10381000C8010E94971B813009F004C28DE992E033
:103820009A838983F70182819381A481B5818B83F7
:103830009C83AD83BE8345E350E0BE016F5F7F4F45
:10384000C8010E94CC07892BA9F5D12CC12CC80135
:103850000E94731517C03E3209F0BFCF233009F420
:10386000BCCFD301A20FB11D12968C932F5F90E0B5
:1038700080E09BCF233009F0B0CFF3018583CC24C7
:10388000C394D12CC60163960FB6F894DEBF0FBE69
:10389000CDBFDF91CF911F910F91FF90EF90DF90FF
:1038A000CF90BF90AF909F908F907F906F905F90E0
:1038B0004F9008950E94F603F7017783668342E0F4
:1038C00050E0B7016A5F7F4FC8010E94451881E050
:1038D00090E09A83898342E050E0BE016F5F7F4FA2
:1038E000C8010E94451880E091E09A83898342E0F4
:1038F00050E0BE016F5F7F4FC8010E9445181A82D9
:10390000198242E050E0BE016F5F7F4FC8010E9404
:10391000451842E050E0BE016F5F7F4FC8010E9432
:10392000451842E050E0BE016F5F7F4FC8010E9422
:1039300045185601F6018081882301F16501F601E1
:1039400081912F01882311F08E32B1F446018A183B
:103950009B081814190474F48D8641E050E0BE01F0
:10396000635F7F4FC8010E944518A401B501C801DB
:103970000E9445185201DECF6201E1CF1D8641E071
:1039800050E0BE01635F7F4FC8010E944518C12C03
:10399000DD24D394DA82C98242E050E0BE016F5F39
:1039A0007F4FC8010E944518DA82C98242E050E088
:1039B000BE016F5F7F4FC8010E944518C8010E9479
:1039C000F715892B09F441CFF3E0AF2EB12C230179
:1039D00022E0420E511CD4C0F70142815381648120
:1039E0007581808D918DA28DB38D481759076A0717
:1039F0007B0709F008C1848D958DC59709F003C137
:103A000081A192A15DEFC52EDD24DA940C970CF410
:103A1000ADC04CE050E0BE016F5F7F4FC8010E9417
:103A20001C1A8B819C819827892798279A8B898BD0
:103A3000F7014681578129813A814217530709F0DE
:103A4000E7C097FFE5C08F7092703BEFC32EDD2477
:103A5000DA94892B09F08AC06F80788476246724F1
:103A600076242AEFC22EDD24DA946114710409F45D
:103A70007DC0D12CC12C8D819E81982789279827C4
:103A8000C816D906F8F441E050E0BE01635F7F4FED
:103A9000C8010E941C1A4D85442331F050E070E0AB
:103AA00060E0C8010E941C1A8D858111ECCF44E0B2
:103AB00050E070E060E0C8010E941C1AFFEFCF1ACE
:103AC000DF0AD9CF912C812C41E050E0BE016D5E20
:103AD0007F4FC8010E941C1A4B89842F807C09F0FB
:103AE0006CC0442331F050E070E060E0C8010E94F7
:103AF0001C1A8B898111E8CF42E050E0BE01615F62
:103B00007F4FC8010E941C1A42E050E0BE01635F73
:103B10007F4FC8010E941C1A44E050E070E060E052
:103B2000C8010E941C1A42E050E0BE016F5E7F4F48
:103B3000C8010E941C1A8F85988949895A89811564
:103B4000914009F043C0CD84DE84DC24CD24DC2404
:103B500081E0C816D104D1F54115544009F04AC09E
:103B600044E050E0B201C8010E941C1A21E0A21AF0
:103B7000B10809F46CCEFFEFCF16DF0609F067CE6F
:103B80000E94F6033B014C01C8010E94651A1816F9
:103B900019060CF421CF0E94F603661977098809EB
:103BA0009909693873418105910548F562E370E030
:103BB00080E090E00E94C303E7CF41E050E070E076
:103BC00060E0C8010E941C1A1B8A93CF5427452726
:103BD000542770E060E0C8010E941C1AFFEF8F1AA2
:103BE0009F0A6814790409F06FCF96EFC92EDD247F
:103BF000DA94BCCFE7EFCE2EDD24DA94B7CFCC2415
:103C0000CA94DC2CB3CF6EEFC62EDD24DA94AECF8F
:103C10004CEFC42EDD24DA94A9CF8EEFC82EDD241C
:103C2000DA9430CED12CC12C2DCECF92DF92EF92F0
:103C3000FF920F931F93CF93DF93CDB7DEB7AF976C
:103C40000FB6F894DEBF0FBECDBF7C016A010DE94F
:103C500012E01A8309831C861B8688EE93E0A0E09D
:103C6000B0E08D879E87AF87B88B8CE292E09A8711
:103C70008987188F0F8B198E1A8E1B8E1C8E88E0E9
:103C800089A31BA70AA71CA61DA61EA61FA6809176
:103C90006F0690917006A0917106B09172068EA386
:103CA0009FA3A8A7B9A78B839C83AD83BE831886E7
:103CB0001F82AE01465D5F4FCE0101960E94B51B8B
:103CC00081309105B1F4D701ED91FC910488F5891B
:103CD000E02D1DA30CA38CA59DA5AEA5BFA58EA30D
:103CE0009FA3A8A7B9A7A601BE016C5D7F4FC7011E
:103CF0001995AF960FB6F894DEBF0FBECDBFDF911A
:103D0000CF911F910F91FF90EF90DF90CF9008958A
:103D1000CF92DF92EF92FF920F931F93CF93DF9397
:103D2000CDB7DEB7AF970FB6F894DEBF0FBECDBFED
:103D30008C016B017A018DE992E09A8389831B8261
:103D40001C821D821E821C861B8648EE53E060E0AA
:103D500070E04D875E876F87788B2CE232E03A8780
:103D60002987988F8F8B198E1A8E1B8E1C8E28E0B8
:103D700029A39BA78AA71CA61DA61EA61FA6D8011D
:103D80001C968C91883060F40E949015882321F055
:103D9000F80184850E945B1588E0D8011C968C93FD
:103DA00080916F0690917006A0917106B091720695
:103DB0008EA39FA3A8A7B9A78B839C83AD83BE8343
:103DC00018861F82AE01465D5F4FB601CE01019697
:103DD0000E94B51B0097C1F0D801ED91FC910684BB
:103DE000F785E02D8DE992E09DA38CA38CA59DA580
:103DF000AEA5BFA58EA39FA3A8A7B9A7A701BE0183
:103E00006C5D7F4FC8011995AF960FB6F894DEBF71
:103E10000FBECDBFDF91CF911F910F91FF90EF901B
:103E2000DF90CF900895CF92DF92EF92FF921F9391
:103E3000CF93DF93EC017B016A018C85883048F4D5
:103E40000E949015882319F08C850E945B1588E0EC
:103E50008C87F70182819381A481B5810097A105A8
:103E6000B10551F490E080E0DF91CF911F91FF9078
:103E7000EF90DF90CF9008958F3F9F4FAF4FBF4F90
:103E800089F370E060E081E20E94E41A182F8C87C9
:103E9000883040F780E591E00E94C202A7014E5FA2
:103EA0005F4F24E030E06CE070E0812F0E94330728
:103EB000B601812F0E94440764E070E0812F0E94C8
:103EC0004B150E94F6036B017C018C850E949015B6
:103ED000873111F18C3101F1882321F20E94F60320
:103EE000AB01BC014C195D096E097F098D859E856A
:103EF000B0E0A0E084179507A607B70738F061E0A7
:103F000070E080E090E00E94C303DFCF8C850E94C8
:103F1000671588E08C87A6CF81E090E0A5CF0F934E
:103F20001F93CF93DF931F921F92CDB7DEB7FC0193
:103F300024852830E0F48C0180E591E00E94C202E3
:103F400022E030E0AE014F5F5F4F60E170E0F801CA
:103F500084850E94281689819A8198278927982725
:103F60000F900F90DF91CF911F910F91089590E0E6
:103F700080E0F6CFEF92FF920F931F93CF93DF93E2
:103F800000D01F92CDB7DEB78C017B01FB01848589
:103F90008830A8F08DE992E0F80191838083128245
:103FA000138214821582C8010F900F900F900F900A
:103FB000DF91CF911F910F91FF90EF90089580E5D1
:103FC00091E00E94C20224E030E0AE014F5F5F4FFB
:103FD0006CE070E0F70184850E942816BE016F5FD7
:103FE0007F4FC8010E94A80DDECF0F931F93CF9380
:103FF000DF931F921F92CDB7DEB7FC0124852830D6
:10400000E0F48C0180E591E00E94C20222E030E001
:10401000AE014F5F5F4F64E070E0F80184850E945D
:10402000281689819A819827892798270F900F90C1
:10403000DF91CF911F910F91089590E080E0F6CF2E
:10404000FC0124813581232B39F421E0FB0180819F
:10405000882349F020E007C0808191810E9483324B
:1040600021E0892BB9F7822F08957F928F929F923A
:10407000AF92BF92CF92DF92EF92FF920F931F9376
:10408000CF93DF93CDB7DEB7A6970FB6F894DEBF18
:104090000FBECDBF8C01762E942E852E20E2A22E4F
:1040A000CE0101967C01DC01EA2D1D92EA95E9F72B
:1040B0006801F3E4CF0ED11C8DE992E09AA389A3A5
:1040C0008FEF8BA38CA38DA38EA343E450E0BE019E
:1040D0006F5D7F4FC6010E94CC07019609F4BFC0F7
:1040E00081E089838A8386E0B82EBB821C82D80156
:1040F00014966D917D918D919C9117970E945930E6
:104100006D837E838F83988789869A8680E890E086
:104110009C878B874CE150E0B701C6010E9445188F
:10412000FE0137968AE1DF011D928A95E9F7480181
:10413000B8E08B0E911CF401D70101900D92BA9456
:10414000E1F740E150E0B701C6010E944518F701D0
:104150001192AA94E9F796E0A92EB12C40E250E022
:10416000B701C6010E944518F1E0AF1AB108B1F7D6
:1041700083E6898392E89A8393E59B838C8385E326
:104180008D8381E08E837F829DE3988797E0998776
:104190008A8786E0F401DE011B9601900D928A95D4
:1041A000E1F78CE0898B8A8B6DEF72E0CE0143964C
:1041B0000E948C32D8011B966C91CE0149960E94C8
:1041C000E402F8016485CE014B960E94E402D80116
:1041D0001D966C91CE014D960E94E4024EE150E096
:1041E000B701C6010E944518B3E07B121EC082E3EE
:1041F000898384E08A83F80196859B8397859C83D5
:1042000090899D8391899E8396E39F838887828D81
:104210008987838D8A87848D8B87858D8C874CE0F9
:1042200050E0B701C6010E94451887E3898386E004
:104230008A8391E09B8393E09C838D838FE08E83C0
:104240008AE38F838BE388878FEF898749E050E08B
:10425000B701C6010E944518C6010E94F715A6962F
:104260000FB6F894DEBF0FBECDBFDF91CF911F9187
:104270000F91FF90EF90DF90CF90BF90AF909F9005
:104280008F907F9008950F931F93CF93DF93EC014E
:1042900088819981009759F02A813B812617370739
:1042A00030F081E0DF91CF911F910F9108958B0144
:1042B0006F5F7F4F0E948531009759F09983888303
:1042C0001B830A832C813D81232B59F7FC0110822B
:1042D000E8CF80E0E7CFEF92FF920F931F93CF9349
:1042E000DF936115710541F480E0DF91CF911F915B
:1042F0000F91FF90EF90089541155105B1F07B01AA
:10430000EC010C811D81040F151FB8010E9443218F
:10431000882351F3288139818C819D81B701820FD7
:10432000931F0E948C321D830C8381E0DECFCF93DC
:10433000DF93EC0188819981009711F00E94FC3095
:10434000198218821D821C821B821A82DF91CF91F2
:104350000895CF93DF93EC01FB0101900020E9F772
:104360003197AF01461B570B0E946B21811103C08F
:10437000CE010E949721CE01DF91CF910895CF9376
:10438000DF93EC01FB0144815581608171810E94C2
:104390006B21811103C0CE010E949721CE01DF91D4
:1043A000CF910895EF92FF920F931F93CF93DF93D6
:1043B000EC017B018A01BA010E94432181110BC0EB
:1043C000CE010E949721CE01DF91CF911F910F91D5
:1043D000FF90EF9008951D830C83B7018881998128
:1043E0000E948C32F0CFEF92FF920F931F93CF93E6
:1043F000DF93CDB7DEB761970FB6F894DEBF0FBE7F
:10440000CDBF8C01CB01F801118210821382128280
:10441000158214824AE09E012F5F3F4F7901B90156
:104420000E94C42FF70101900020E9F73197AF01F6
:104430004E195F09B701C8010E94D22161960FB6DB
:10444000F894DEBF0FBECDBFDF91CF911F910F91CA
:10445000FF90EF900895EF92FF920F931F93CF93E9
:10446000DF93CDB7DEB762970FB6F894DEBF0FBE0D
:10447000CDBF8C01CB01F801118210821382128210
:10448000158214824AE09E012F5F3F4F7901B901E6
:104490000E94B92FF70101900020E9F73197AF0191
:1044A0004E195F09B701C8010E94D22162960FB66A
:1044B000F894DEBF0FBECDBFDF91CF911F910F915A
:1044C000FF90EF900895CF93DF93EC01FB018617E7
:1044D000970749F0608171816115710541F0448150
:1044E00055810E94D221CE01DF91CF9108950E9483
:1044F0009721F9CFFC01118210821382128215825A
:1045000014820C946322FC011182108213821282A5
:10451000158214826115710551F0FB010190002094
:10452000E9F73197AF01461B570B0C94D221089540
:10453000FC0180819181009711F00C94FC3008956A
:10454000EF92FF920F931F93CF93DF9300D000D091
:10455000CDB7DEB77C018B0164E073E00E942020C0
:10456000882321F161E173E0C8010E9420208823A3
:1045700009F4AAC086E193E00E947F0D61E086E025
:104580000E94FB0281E080935C0560E074E0CE0154
:1045900001960E942B22BE016F5F7F4F8CE193E05A
:1045A0000E94000ECE0101960E9498226FE373E0F4
:1045B000C7010E942020882321F161E173E0C80136
:1045C0000E942020882309F4A8C08CE493E00E9474
:1045D0007F0D61E087E00E94FB0281E080935D0532
:1045E00060E074E0CE0101960E942B22BE016F5F55
:1045F0007F4F82E593E00E94000ECE0101960E945B
:1046000098226FE673E0C7010E942020882321F1E1
:1046100061E173E0C8010E942020882309F4A6C04C
:104620008CE793E00E947F0D61E088E00E94FB022E
:1046300081E080935E0560E074E0CE0101960E9407
:104640002B22BE016F5F7F4F82E893E00E94000E35
:10465000CE0101960E9498226FE973E0C7010E9483
:104660002020882321F161E173E0C8010E9420200D
:10467000882309F4A4C08CEA93E00E947F0D61E0D6
:1046800089E00E94FB0281E080935F0560E074E0B6
:10469000CE0101960E942B22BE016F5F7F4F82EBFD
:1046A00093E00E94000ECE0101960E949822269669
:1046B0000FB6F894DEBF0FBECDBFDF91CF911F9133
:1046C0000F91FF90EF90089560E373E0C8010E949E
:1046D0002020882309F46ACF60E086E00E94FB0274
:1046E00010925C0570E060E0CE0101960E942B22E2
:1046F000BE016F5F7F4F8CE193E00E94000ECE0100
:1047000001960E94982266E373E086EA95E00E9493
:10471000C30CC8010E94D20C49CF60E373E0C8010A
:104720000E942020882309F46CCF60E087E00E947B
:10473000FB0210925D0570E060E0CE0101960E94E0
:104740002B22BE016F5F7F4F82E593E00E94000E37
:10475000CE0101960E94982266E673E086EA95E013
:104760000E94C30CC8010E94D20C4BCF60E373E0DF
:10477000C8010E942020882309F46ECF60E088E001
:104780000E94FB0210925E0570E060E0CE0101968F
:104790000E942B22BE016F5F7F4F82E893E00E9450
:1047A000000ECE0101960E94982266E973E086EA27
:1047B00095E00E94C30CC8010E94D20C4DCF60E36B
:1047C00073E0C8010E942020882309F470CF60E0C4
:1047D00089E00E94FB0210925D0570E060E0CE016E
:1047E00001960E942B22BE016F5F7F4F82EB93E008
:1047F0000E94000ECE0101960E94982266E373E0AB
:1048000086EA95E00E94C30CC8010E94D20C4FCFEB
:104810004F925F926F927F928F929F92AF92BF92D0
:10482000CF92DF92EF92FF920F931F93CF93DF937C
:10483000CDB7DEB769970FB6F894DEBF0FBECDBF18
:104840004B0129013A01AB8ABC8ACD8ADE8AEF8A04
:10485000F88E098FCDB6DEB60E891F89A88CB98C6B
:10486000C90101962DB73EB7281B390B0FB6F89436
:104870003EBF0FBE2DBF8DB79EB701967C01A20132
:10488000B3010E9473324E0C5F1CD2011C920115C1
:10489000110521F0F801EA0DFB1D1082D4011496D8
:1048A000ED91FC911597309739F19501A801B70169
:1048B0008D919C9119950FB6F894DEBE0FBECDBEBA
:1048C0000FB6F894DEBE0FBECDBE69960FB6F89453
:1048D000DEBF0FBECDBFDF91CF911F910F91FF9033
:1048E000EF90DF90CF90BF90AF909F908F907F9090
:1048F0006F905F904F900895F40182819381892B8E
:10490000D1F2B701CE0107960E94832261EA72E0DC
:10491000CE010D960E9483220115110509F1B801FF
:10492000CE0101960E9483228D859E85009769F1B4
:1049300069817A816115710531F14F8558892D8121
:104940003E8142175307F8F00E948C328D819E8180
:104950009A8B898B1E821D82CE0101960E9498221D
:10496000D4011296ED91FC91BE01635F7F4FCE01A1
:1049700007961995CE010D960E949822CE010796B2
:104980000E94982298CF0E94FC3089819A819E874C
:104990008D878B819C81988B8F878D819E819A8B4F
:1049A000898B1A8219821C821B82D4CF3F924F922C
:1049B0005F926F927F928F929F92AF92BF92CF92AF
:1049C000DF92EF92FF920F931F93CF93DF93CDB7B8
:1049D000DEB7EA970FB6F894DEBF0FBECDBF7C01FD
:1049E0002A013B0169010E94F6034B015C0187012A
:1049F0000D5B1F4FC8010E94651A181619069CF01E
:104A00000E94F603681979098A099B094616570618
:104A10006806790608F466C162E370E080E090E021
:104A20000E94C303E7CF42E250E0BE016F5F7F4FB9
:104A3000C8010E941C1A89818230D1F0312C832D4B
:104A4000EA960FB6F894DEBF0FBECDBFDF91CF91CF
:104A50001F910F91FF90EF90DF90CF90BF90AF909C
:104A60009F908F907F906F905F904F903F900895B0
:104A7000F801848995898334910501F76D817E81E0
:104A80008F8198850E9459304B015C01F60180822C
:104A90009182A282B38246E050E0B701685F7F4F07
:104AA000CE014D960E946632892B41F6F701808136
:104AB0009181A281B38188169906AA06BB0608F4E3
:104AC000BDCF84819581A681B78188159905AA05F6
:104AD000BB0508F4B3CF89899A89AB89BC898687DD
:104AE0009787A08BB18B4EEC50E070E060E0C8017E
:104AF0000E941C1A312CC701829698AB8FA7F70130
:104B0000B696FAABE9AB08969CAB8BAB67019AE122
:104B1000C90ED11CBD96FEABEDABC701429698AF56
:104B20008FABFD97FAAFE9AF4701FEE18F0E911C05
:104B3000F801818D928D181619060CF080CFC801EE
:104B40000E943B1A8333910509F4B2C014F58130F9
:104B5000910509F464C044F4892B51F3C8010E9403
:104B60003B1AAC01552775C08330910509F462C02A
:104B70000697A1F7C8010E943B1AB82E44E050E006
:104B8000B401C8010E941C1AEB2DE450FF0BAF01C9
:104B900060C08A33910509F45FC084F585339105BF
:104BA000B1F1C697D9F6C8010E943B1A5C01B60163
:104BB000CE0189960E94A80D8BA59CA5ADA5BEA58A
:104BC000892B8A2B8B2BB1F0EDA9FEA94080518057
:104BD00062807380B601CE0183960E94A80D8DA1DC
:104BE0009EA1AFA1B8A5A501481659066A067B0685
:104BF00009F0B8CF44E050E0B60118C08B339105FE
:104C000009F440C08F3F910509F492CFA7CFC801A6
:104C10000E943B1AC8010E943B1A382E89CFC80156
:104C20000E943B1A44E050E06FA978ADC8010E9491
:104C30001C1A7ECFC8010E943B1AB82E44E050E0F7
:104C400069AD7AADC8010E941C1A8B2D8450990B56
:104C5000AC0170E060E0EACFC8010E943B1A44E07A
:104C600050E069A97AA9C8010E941C1AF70166A13F
:104C700077A180A591A50E94593066A377A380A74C
:104C800091A756CFC8010E943B1A44E050E06BA99F
:104C90007CA9C8010E941C1AF70162A573A584A50E
:104CA00095A50E94593062A773A784A795A740CF06
:104CB000C8010E943B1A44E050E06FA578A9C801E2
:104CC0000E941C1AF70162A173A184A195A10E9400
:104CD000593062A373A384A395A366A777A780AB7B
:104CE00091AB26CF33243A94AACE1F920F920FB6DF
:104CF0000F9211242F933F938F939F93AF93BF9362
:104D00008091650590916605A0916705B091680551
:104D10003091640523E0230F2D3758F50196A11D2E
:104D2000B11D209364058093650590936605A0935B
:104D30006705B09368058091690590916A05A09117
:104D40006B05B0916C050196A11DB11D809369059D
:104D500090936A05A0936B05B0936C05BF91AF91DA
:104D60009F918F913F912F910F900FBE0F901F90A9
:104D7000189526E8230F0296A11DB11DD2CF1F92D0
:104D80000F920FB60F9211240BB60F922F933F93F1
:104D90004F935F936F937F938F939F93AF93BF9343
:104DA000EF93FF9386EA95E00E946E05FF91EF91E5
:104DB000BF91AF919F918F917F916F915F914F9133
:104DC0003F912F910F900BBE0F900FBE0F901F9031
:104DD00018951F920F920FB60F9211240BB60F92D7
:104DE0002F938F939F93EF93FF93E091B605F091EC
:104DF000B7058081E091BC05F091BD0582FD1DC025
:104E000090818091BF058F5F8F732091C0058217BD
:104E100041F0E091BF05F0E0EA55FA4F958F80939D
:104E2000BF05FF91EF919F918F912F910F900BBE36
:104E30000F900FBE0F901F9018958081F2CFDF92D8
:104E4000EF92FF920F931F93CF93DF93E6EAF5E083
:104E50001382128288EE93E0A0E0B0E08483958311
:104E6000A683B7832DE532E03183208325EC30E043
:104E70003587248724EC30E03787268720EC30E024
:104E8000318B208B21EC30E0338B228B22EC30E015
:104E9000358B248B26EC30E0378B268B118E128ECF
:104EA000138E148EE3E4F6E00DE912E01183008323
:104EB0001282138214821582E9E4F6E011830083E2
:104EC0001282138214821582EFE4F6E011830083CC
:104ED0001282138214821582E5E5F6E011830083C5
:104EE0001282138214821582EBE5F6E011830083AF
:104EF0001282138214821582E1E6F6E011830083A8
:104F00001282138214821582E7E6F6E01183008391
:104F10001282138214821582E3E7F6E01183008384
:104F20001282138214821582EDE6F6E0118300836B
:104F30001282138214821582E9E7F6E0118300835E
:104F40001282138214821582E2E0F7E0118300835B
:104F50001282138214821582ECEFF6E01183008333
:104F600020ECD22ED28238EAE32EE38244E6F42EFD
:104F7000F48221EB2583E6EFF6E011830083D282F1
:104F8000E382F48221E02583E7EEF6E013821282C9
:104F900084839583A683B7834FE652E05183408391
:104FA00038E0348748EE53E056874587C5E8D6E0B9
:104FB0004AE050E05F834E83288789879A87AB87D2
:104FC000BC871E861D86188A1F861A8B098B1B8A32
:104FD0001C8A1D8A1E8A188E1F8A1A8E198E1C8E94
:104FE0001B8E1E8E1D8E18A21F8E1AA219A21BA226
:104FF0001CA21DA21EA21FA218A619A61AA61CA6B4
:105000001BA61DA61EA61FA618AA19AA1AAA1BAA85
:105010001CAA1EAA1DAAECEBF6E084E2DF011D9299
:105020008A95E9F71092E0061092E2061092E106E6
:105030001092E4061092E3061092E6061092E5063E
:1050400080E890E09983888381E890E00E94603056
:105050009B838A8380E890E00E9460309D838C83EC
:10506000EFE7F6E011830083D282E382F4828BE9DA
:105070008583DF91CF911F910F91FF90EF90DF908B
:105080000895CF93DF93CDB7DEB7E0970FB6F894CE
:10509000DEBF0FBECDBF789484B5826084BD84B579
:1050A000816084BD85B5826085BD85B5816085BD23
:1050B00080916E00816080936E00109281008091DB
:1050C0008100826080938100809181008160809363
:1050D0008100809180008160809380008091B10088
:1050E00084608093B1008091B00081608093B000B3
:1050F0008091910082608093910080919100816005
:1051000080939100809190008160809390008091C5
:10511000A10082608093A1008091A10081608093B2
:10512000A1008091A00081608093A0008091210166
:10513000826080932101809121018160809321010F
:105140008091200181608093200180917A008460A9
:1051500080937A0080917A00826080937A008091B7
:105160007A00816080937A0080917A0080688093D1
:105170007A001092C100E091B605F091B70582E087
:105180008083E091B205F091B3051082E091B405FF
:10519000F091B50580E180831092BE05E091BA05DB
:1051A000F091BB0586E08083E091B805F091B905E8
:1051B000808180618083E091B805F091B90580819C
:1051C00088608083E091B805F091B905808180689E
:1051D0008083E091B805F091B90580818F7D80834F
:1051E00086EC93E00E947F0D87E18093000280911E
:1051F000500581112AC0109238051092370588EEAB
:1052000093E0A0E0B0E08093390590933A05A09335
:105210003B05B0933C058CE292E090933605809379
:1052200035058DE992E090934405809343051092F3
:10523000450510924605109247051092480588E0F2
:1052400080934D0581E08093500582EF94E0909328
:10525000F1048093F0040E94AA13882309F43BC54B
:1052600080E591E00E94C20246E050E063E072E017
:1052700089E090E00E9464068DE992E09A83898338
:105280001B821C821D821E82CE0103960E94C407CF
:10529000109214051092150510921605109217051C
:1052A000109218051092190510921A0510921B05FC
:1052B00010921C0510921D0510921E0510921F05DC
:1052C00080E69AEEA0E0B0E080932805909329054F
:1052D000A0932A05B0932B0580EA9FE0A0E0B0E000
:1052E00080932C0590932D05A0932E05B0932F0548
:1052F000E0E0F5E084E1DF011D928A95E9F786E0C0
:10530000E3E0F2E0AAEFB4E001900D928A95E1F7B4
:10531000109234050E94612F2FEC37E040E050E0FE
:105320000E94EE2FDC01CB010196A11DB11D8093DF
:10533000F6049093F704A093F804B093F9048093D3
:10534000F2049093F304A093F404B093F50485E37E
:1053500095E00E94731564E470E085E395E00E9497
:10536000971B882309F4B7C40E94F6036B017C01E4
:1053700058EE452E53E0552E612C712C63E0962E8D
:1053800002E0B12CA12C80913405833009F440C097
:105390008111A0C38091F6049091F704A091F804C4
:1053A000B091F9040196A11DB11D8093F60490936C
:1053B000F704A093F804B093F9040E94F6036C1963
:1053C0007D098E099F09A30192010E942030A90145
:1053D00061E082EF94E00E94352081E08093340503
:1053E00091E0A916B10479F20E94F6036C197D09C7
:1053F0008E099F09209128053091290540912A05A1
:1054000050912B05261737074807590708F0B9CFE1
:1054100085E395E00E9473158091F6049091F7045E
:10542000A091F804B091F9040196A11DB11D8093DB
:10543000F6049093F704A093F804B093F9040E9443
:10544000F603609330057093310580933205909395
:105450003305AA94AB2809F03EC480E591E00E9490
:10546000C2020091F0041091F104B801625F7F4F15
:10547000CE0101960E94A80DCE0103960E94C4079A
:10548000B8016A5E7F4FCE0101960E94A80D44E0EC
:1054900050E0BE016D5F7F4F81E090E00E946406A6
:1054A000B8016E5E7F4FCE0101960E94A80D44E0C8
:1054B00050E0BE016D5F7F4F85E090E00E94640682
:1054C000B801625E7F4FCE0101960E94A80D8B81CC
:1054D0009C81AD81BE8180936F0690937006A093EE
:1054E0007106B09372060E949E037F738091010241
:1054F000909102026827792770930202609301025B
:1055000065EE73E086EA95E00E94C30C8DE992E0B7
:105510009A8389831B821C821D821E8280E591E012
:105520000E94C20244E050E0BE016D5F7F4F8FE0F9
:1055300090E00E94A51266EA75E0CE0101960E94F5
:10554000350D6FE972E086EA95E00E94C30C809108
:10555000810690918206A0918306B0918406898786
:105560009A87AB87BC8787EE96E0909393068093EB
:10557000920680918506909186062091870630914B
:1055800088064091890650918A0661E070E0709328
:10559000BD066093BC061092BE061092BF06109224
:1055A000C0061092C1061092C2065093C8064093DE
:1055B000C7069093C4068093C3063093CA0620930F
:1055C000C9069093C6068093C5061092CC06109229
:1055D000CB061092CE061092CD061092D0061092F5
:1055E000CF061092D2061092D1061092D4061092D5
:1055F000D3061092DD061092DF061092DE0688EACE
:1056000096E09093D6068093D50682EB96E0909331
:10561000D8068093D70682E094E09093DA068093D0
:10562000D90688E194E09093DC068093DB0640E0A5
:1056300050E0BA0188EA96E00E940204E091D9069F
:10564000F091DA0640E050E0BA018091D7069091DF
:10565000D806199586EA96E09093D0068093CF06F7
:1056600084E594E09093D2068093D10680EE94E096
:105670009093D4068093D30680EA96E09093CE066A
:105680008093CD0688E094E29093CC068093CB067D
:105690008DE992E09A83898389859A85AB85BC855B
:1056A0008B839C83AD83BE83CE0101960E94BE0195
:1056B00085E896E09093A1068093A00680EA92E2A6
:1056C0009093A3068093A2061092A5061092A406BA
:1056D0000E94BA0E83EFE82EFF24FA9490ECD92EA4
:1056E000CC24C39486E30E9487038C0190936305C6
:1056F0008093620587E30E948703909361058093FE
:105700006005B801CE018B960E94F32168E874E031
:10571000CE0101960E948322BE01655D7F4FCE01BE
:1057200001960E94BF2167E974E00E94A921BC0193
:10573000CE018B960E946322CE0101960E94982290
:105740006091600570916105CE0185960E94F321FC
:105750006AE974E0CE0101960E948322BE016B5D6E
:105760007F4FCE0101960E94BF2167E974E00E943D
:10577000A921BC01CE0185960E946322CE0101962B
:105780000E94982260915C0570E0CE0101960E9413
:105790002B2265EA74E0CE0107960E948322BE01A7
:1057A0006F5F7F4FCE0107960E94BF2167E974E0CB
:1057B0000E94A921BC01CE014F960E947A22CE01FF
:1057C00007960E949822CE0101960E94982260912D
:1057D0005D0570E0CE0101960E942B2262EB74E021
:1057E000CE0107960E948322BE016F5F7F4FCE01DC
:1057F00007960E94BF2167E974E00E94A921BC01BD
:10580000CE0149960E947A22CE0107960E949822E4
:10581000CE0101960E94982260915E0570E0CE0153
:1058200001960E942B226FEB74E0CE0107960E9436
:105830008322BE016F5F7F4FCE0107960E94BF217A
:1058400067E974E00E94A921BC01CE0143960E9441
:105850007A22CE0107960E949822CE0101960E94DC
:10586000982260915F0570E0CE0101960E942B2284
:105870006CEC74E0CE0107960E948322BE016F5F3C
:105880007F4FCE0107960E94BF2168E974E00E9415
:10589000A921BC01CE010D960E947A22CE01079665
:1058A0000E949822CE0101960E94982269ED74E030
:1058B000CE0101960E948322BE01655D7F4FCE011D
:1058C00001960E94BF21BE016B5D7F4F0E94BF21E8
:1058D000BE01615E7F4F0E94BF21BE01675E7F4FA8
:1058E0000E94BF21BE016D5E7F4F0E94BF21BE019D
:1058F000635F7F4F0E94BF216BED74E00E94A9217E
:10590000BC01CE0107960E947A22CE0101960E9428
:1059100098220E94AE02882309F48FC080919206DB
:1059200090919306DC01ED91FC910084F185E02DCE
:1059300019958C01892B09F140918E0650918F06A3
:105940006091900670919106E091D906F091DA0687
:105950008091D7069091D80619951A82198250E045
:1059600040E0B801CE0101960E94010A009709F0BB
:105970001FC21092E4061092E30640918E065091E9
:105980008F066091900670919106E091D906F09192
:10599000DA068091D7069091D80619958091BE06B7
:1059A0009091BF06A091C006B091C106892B8A2BA9
:1059B0008B2B09F43EC0E091DB06F091DC06809170
:1059C000D5069091D60619951616170618061906CB
:1059D00084F18091C2068111E2C16091C306709189
:1059E000C4060091C7061091C8061A830983600F88
:1059F000711F6017710709F4D9C1F801D08289813C
:105A00009A8101969A83898320E030E0A901CE0132
:105A100001960E942508009709F0CAC189819A81E0
:105A2000801B910B0E94DF01009709F0C1C1C09259
:105A3000C2061092E4061092E3060E94AE028111A3
:105A400002C00E94BA0E0E94F60300915805109100
:105A5000590520915A0530915B05601B710B820B33
:105A6000930B693E734081059105A8F00E94F603EF
:105A7000609358057093590580935A0590935B0580
:105A8000BE01695F7F4F8DED94E00E94000ECE0154
:105A900007960E94D20CCE0107960E949822CE0152
:105AA0000D960E949822CE0143960E949822CE0124
:105AB00049960E949822CE014F960E949822CE01CC
:105AC00085960E949822CE018B960E9498220E9471
:105AD000FD0508CE843031F58091F6049091F704ED
