:100000000C9435010C9466010C9466010C94660105
:100010000C9466010C9466010C9466010C946601C4
:100020000C9466010C9466010C9466010C946601B4
:100030000C9466010C9466010C9466010C946601A4
:100040000C9466010C9466010C9466010C94660194
:100050000C9466010C9466010C9466010C94DB050B
:100060000C9466010C944F060C9425060C946601C2
:100070000C9466010C9466010C9466010C94660164
:100080000C9466010C9466010C9466010C94660154
:100090000C9466010C9466010C9466010C94660144
:1000A0000C9466010C9466010C9466010C94660134
:1000B0000C9466010C9466010C9466010C94660124
:1000C0000C9466010C9466010C9466010C94660114
:1000D0000C9466010C9466010C9466010C94660104
:1000E0000C9466010C94C9010C942E030C94B1017C
:1000F0000C94A2010C94CF010C9450030C949C011D
:100100000C94AE010C94B7010C94DC010C948803A0
:100110000C941F030C94A6010C94DD010C94C501F2
:100120000C94F2020C94E1010C94AA010C94850643
:100130000C94D5030C94D3010C94C1010C9442038C
:100140000C94D7010C94BB0100002100240027006F
:100150002A002D00300033000101000004010701D6
:100160000A0100002200250028002B002E0031008B
:10017000340002010000050108010B01000020000D
:100180002300260029002C002F003200000100006F
:10019000030106010901050505050705080808080A
:1001A000020202020A0A080804040404010101010F
:1001B000010101010303030303030303040707070A
:1001C0000C0C0C0C0C0C0C0C0202020206060606AF
:1001D000060606060B0B0B0B0B0B0B0B010210207C
:1001E000200808102040102040800201020108046D
:1001F0000201010204081020408080402010080401
:100200000201800402018040201008040201080459
:10021000020101020408102040800102040810209D
:10022000408000000A0B02090C0D0E0807030401B0
:1002300000000000000000000000000000000000BE
:10024000000000000000000000000000000012118B
:10025000100000000000000000000000000000008E
:100260000000000000000000850611241FBECFEF33
:10027000D1E2DEBFCDBF00E00CBF12E0A0E0B2E0F3
:10028000E8E7F8E100E00BBF02C007900D92AC3444
:10029000B107D9F723E0ACE4B2E001C01D92AA395E
:1002A000B207E1F711E0C5E3D1E000E006C0219715
:1002B0000109802FFE010E94EF09C433D10780E0BD
:1002C0000807A9F70E9417070C943A0C0C94000039
:1002D00080917B00886080937B0080E480937C0029
:1002E00080917A00806480937A0080917A0086FD04
:1002F000FCCF8091780090917900089581508231EF
:1003000008F05AC0E82FF0E08827E657FE4F8F4FDD
:100310000C94EF09AA01AE019C01A201A601DC0127
:10032000B101B701BB01C101C501C901CF01D301B1
:10033000DC01D701DD01E101809180008F7780939E
:1003400080000895809180008F7DF9CF809180009A
:10035000877FF5CF84B58F7784BD089584B58F7D71
:10036000FBCF8091B0008F778093B000089580918B
:10037000B0008F7DF9CF809190008F7780939000AF
:100380000895809190008F7DF9CF80919000877FB4
:10039000F5CF8091A0008F778093A0000895809181
:1003A000A0008F7DF9CF8091A000877FF5CF80914D
:1003B00020018F77809320010895809120018F7D07
:1003C000F9CF80912001877FF5CFCF93DF93282F3E
:1003D00030E0F901EE5DFD4F8491F901E452FE4FEA
:1003E000D491F901EA56FE4FC491CC23A1F08111BA
:1003F0000E947E01EC2FF0E0EE0FFF1FE458FE4F4D
:10040000A591B491EC91ED2381E090E009F480E0B6
:10041000DF91CF91089580E090E0FACF1F93CF93C2
:10042000DF93282F30E0F901EE5DFD4F8491F90153
:10043000E452FE4FD491F901EA56FE4FC491CC2309
:10044000A9F0162F81110E947E01EC2FF0E0EE0F33
:10045000FF1FEE59FE4FA591B4918FB7F894EC9120
:10046000111108C0D095DE23DC938FBFDF91CF91AF
:100470001F910895DE2BF8CFCF93DF939F70EC018F
:10048000D06190919803809199039CBD8DBD60E0EF
:10049000809196030E940E02DEBD00000DB407FE9F
:1004A000FDCF8EB5CEBD00000DB407FEFDCF8EB5DD
:1004B00061E080919603DF91CF910C940E02CF936F
:1004C000DF9390E0FC01E452FE4F24918A569E4F48
:1004D000FC0184918823C9F090E0880F991FFC01EA
:1004E000E85BFE4FA591B491FC01EE59FE4FC5911A
:1004F000D49161110DC09FB7F8948C9120958223FF
:100500008C938881282328839FBFDF91CF91089502
:10051000623051F49FB7F8943C91822F80958323E9
:100520008C93E8812E2BEFCF8FB7F894EC912E2B84
:100530002C938FBFEACF3FB7F894809152029091ED
:100540005302A0915402B091550226B5A89B05C054
:100550002F3F19F00196A11DB11D3FBFBA2FA92F42
:10056000982F8827BC01CD01620F711D811D911D3F
:1005700042E0660F771F881F991F4A95D1F70895AB
:100580008F929F92AF92BF92CF92DF92EF92FF92A3
:100590004B015C010E949B026B017C010E949B024B
:1005A0006C197D098E099F09683E7340810591058C
:1005B000A8F321E0821A9108A108B10888EEC80EBC
:1005C00083E0D81EE11CF11C81149104A104B10444
:1005D00029F7FF90EF90DF90CF90BF90AF909F9062
:1005E0008F900895AF92BF92CF92DF92EF92FF92D9
:1005F0000F931F93CF93DF936C017B018B01040F4B
:10060000151FEB015E01AE18BF08C017D10759F0E6
:100610006991D601ED91FC910190F081E02DC60128
:100620001995892B79F7C501DF91CF911F910F9112
:10063000FF90EF90DF90CF90BF90AF900895FC01B6
:10064000538D448D252F30E0842F90E0821B930B37
:10065000541710F0CF96089501970895FC01918DDD
:10066000828D981761F0A28DAE0FBF2FB11D5D96E0
:100670008C91928D9F5F9F73928F90E008958FEF82
:100680009FEF0895FC01918D828D981731F0828D36
:10069000E80FF11D858D90E008958FEF9FEF08958D
:1006A000FC01918D228D892F90E0805C9F4F821BF1
:1006B00091098F739927089586E592E00E9450036F
:1006C00021E0892B09F420E0822F0895FC01A48DFC
:1006D000A80FB92FB11DA35ABF4F2C91848D90E064
:1006E00001968F739927848FA689B7892C93A08947
:1006F000B1898C91837080648C93938D848D9813D1
:1007000006C00288F389E02D80818F7D8083089563
:10071000EF92FF920F931F93CF93DF93EC0181E051
:10072000888F9B8D8C8D98131AC0E889F9898081F8
:1007300085FF15C09FB7F894EE89FF896083E8892B
:10074000F98980818370806480839FBF81E090E01D
:10075000DF91CF911F910F91FF90EF900895F62EAA
:100760000B8D10E00F5F1F4F0F731127E02E8C8D44
:100770008E110CC00FB607FCFACFE889F989808189
:1007800085FFF5CFCE010E946603F1CFEB8DEC0F14
:10079000FD2FF11DE35AFF4FF0829FB7F8940B8FA6
:1007A000EA89FB8980818062CFCFCF93DF93EC0110
:1007B000888D8823B9F0AA89BB89E889F9898C9149
:1007C00085FD03C0808186FD0DC00FB607FCF7CF05
:1007D0008C9185FFF2CF808185FFEDCFCE010E9405
:1007E0006603E9CFDF91CF91089580E090E0892BF7
:1007F00029F00E945C0381110E94000080E090E0DB
:10080000892B49F080E090E0892B29F00E940000BC
:1008100081110E94000080E090E0892B49F080E087
:1008200090E0892B29F00E94000081110E940000B5
:1008300080E090E0892B49F080E090E0892B29F05E
:100840000E94000081110C9400000895CF93DF9363
:10085000EC018D8160E0811162E088810E945F027D
:1008600088810E94E5019C0181E02115310509F490
:1008700080E08F838E81882329F091E0232B09F07B
:1008800090E09F832FB7F89480914E0290914F0291
:10089000A0915002B09151022FBF8A879B87AC87ED
:1008A000BD872F81288719868E879F87A88BB98B54
:1008B000DF91CF910895CF92DF92EF92FF9220E0E7
:1008C00030E048EC52E40E94700A20E030EF4FE73D
:1008D00055E40E94C80B6B017C0120E030EF4FE72C
:1008E00055E40E946B0A87FF19C0C701B6010E9438
:1008F000E20ACB010E943C0280919503882389F093
:1009000060E0809197030E940E0261E0809197035E
:10091000FF90EF90DF90CF900C940E028FEF9FE04E
:10092000E9CFFF90EF90DF90CF900895FC01019008
:100930000020E9F73197AF01481B590BBC0186E550
:1009400092E00C94F2028F929F92AF92BF920F931B
:100950001F93CF93DF93CDB7DEB7A1970FB6F8946F
:10096000DEBF0FBECDBF19A2423008F44AE08E01AF
:100970000F5D1F4F842E912CB12CA12CA501940149
:100980000E94BE09E62FB901CA01EA30F4F4E05D25
:10099000D801EE938D01232B242B252B79F790E0A2
:1009A00080E0109719F0CD010E949604A1960FB631
:1009B000F894DEBF0FBECDBFDF91CF911F910F9195
:1009C000BF90AF909F908F900895E95CE1CFCF9357
:1009D000DF930E949604EC0186E192E00E94960467
:1009E0008C0F9D1FDF91CF9108958F929F92AF92B0
:1009F000BF92CF92DF92EF92FF926B017C0120E0D9
:100A000030E040E85AE30E94C80B20E030EF4FE7A7
:100A100055E40E94C80B4B015C0120E030EF4FE72A
:100A200055E40E946B0A87FF31C0C501B4010E94E2
:100A3000E20ACB010E943C0280919503882351F089
:100A400060E0809197030E940E0261E0809197031D
:100A50000E940E0289E192E00E949604A70196018D
:100A6000C701B6010E94350C882399F081E292E01B
:100A70000E94960486E192E0FF90EF90DF90CF9085
:100A8000BF90AF909F908F900C9496048FEF9FE053
:100A9000D1CF46015701E894B7F82FEF3FEF4FE76A
:100AA0005FE7C501B4010E94350C81110DC02FEF25
:100AB0003FEF4FE75FE7C501B4010E946B0A1816CC
:100AC0001CF485E292E0D4CF2FEF3FEF4FE75FE4D5
:100AD000C701B6010E94C30B18161CF489E292E00C
:100AE000C7CF2FEF3FEF4FE75FECC701B6010E9482
:100AF0006B0A87FDF3CF20E030E0A901C701B60102
:100B00000E946B0A87FF09C06DE286E592E00E94B1
:100B10008803F7FAF094F7F8F0942AE037ED43EA07
:100B20005BE3C701B6010E94FF094B015C010E9413
:100B3000E20A6B017C010E94110B9B01AC01C50113
:100B4000B4010E94FE094B015C014AE0C701B601F5
:100B50000E94A3046EE286E592E00E94880320E0F2
:100B600030E040E251E4C501B4010E94C80B4B01E2
:100B70005C010E94E20A6B01F12CE12C4AE0C70102
:100B8000B6010E94A304C701B6010E94110B9B018C
:100B9000AC01C501B4010E94FE0920E030E040E252
:100BA00051E40E94C80B0E94E20A90E080E04AE013
:100BB0000E94A3045FCF1F920F920FB60F921124D1
:100BC0002F933F938F939F93AF93BF9380914E0248
:100BD00090914F02A0915002B091510230914D027C
:100BE00023E0230F2D3758F50196A11DB11D209349
:100BF0004D0280934E0290934F02A0935002B09307
:100C000051028091520290915302A0915402B091EE
:100C100055020196A11DB11D80935202909353027B
:100C2000A0935402B0935502BF91AF919F918F91C1
:100C30003F912F910F900FBE0F901F90189526E8AF
:100C4000230F0296A11DB11DD2CF1F920F920FB696
:100C50000F9211240BB60F922F933F934F935F93F4
:100C60006F937F938F939F93AF93BF93EF93FF9374
:100C700086E592E00E946603FF91EF91BF91AF91EC
:100C80009F918F917F916F915F914F913F912F91A4
:100C90000F900BBE0F900FBE0F901F9018951F92D4
:100CA0000F920FB60F9211240BB60F922F938F93C2
:100CB0009F93EF93FF93E0916602F091670280812A
:100CC000E0916C02F0916D0282FD1DC090818091D7
:100CD0006F028F5F8F7320917002821741F0E09155
:100CE0006F02F0E0EA5AFD4F958F80936F02FF91FB
:100CF000EF919F918F912F910F900BBE0F900FBE90
:100D00000F901F9018958081F2CFE6E5F2E01382F4
:100D1000128288EE93E0A0E0B0E084839583A683FE
:100D2000B78388E092E09183808385EC90E095879B
:100D3000848784EC90E09787868780EC90E0918BA5
:100D4000808B81EC90E0938B828B82EC90E0958B92
:100D5000848B86EC90E0978B868B118E128E138E8F
:100D6000148EE5E9F3E0108211821282E3E8F3E0E9
:100D700080E4808349E150E060E070E04183528389
:100D80006383748381E085838683E1E7F3E091E404
:100D90009083418352836383748385838683EFE5E5
:100DA000F3E092E490834183528363837483858369
:100DB0008683EDE4F3E093E490834183528363837D
:100DC00074838583868392E1E3E8F3E0A5E0B3E0F2
:100DD00001900D929A95E1F792E1E1E7F3E0A7E146
:100DE000B3E001900D929A95E1F792E1EFE5F3E01F
:100DF000A9E2B3E001900D929A95E1F792E1EDE45A
:100E0000F3E0ABE3B3E001900D929A95E1F7E3EFE5
:100E1000F2E09FE3908341835283638374838583ED
:100E20008683E8E9F3E090E59083818308957894E0
:100E300084B5826084BD84B5816084BD85B58260DF
:100E400085BD85B5816085BD80916E008160809390
:100E50006E001092810080918100826080938100F9
:100E60008091810081608093810080918000816009
:100E7000809380008091B10084608093B100809164
:100E8000B00081608093B000809191008260809377
:100E900091008091910081608093910080919000F9
:100EA0008160809390008091A10082608093A10076
:100EB0008091A10081608093A1008091A000816059
:100EC0008093A00080912101826080932101809114
:100ED00021018160809321018091200181608093B4
:100EE000200180917A00846080937A0080917A005A
:100EF000826080937A0080917A00816080937A008A
:100F000080917A00806880937A001092C100E0910D
:100F10006602F091670282E08083E0916202F091C4
:100F200063021082E0916402F091650280E18083A7
:100F300010926E02E0916A02F0916B0286E080836B
:100F4000E0916802F0916902808180618083E09184
:100F50006802F0916902808188608083E091680274
:100F6000F0916902808180688083E0916802F0914D
:100F7000690280818F7D808361E08DE00E945F0245
:100F800061E08CE00E945F0261E08BE00E945F0202
:100F900061E086E00E945F0261E087E00E945F02FC
:100FA00061E088E00E945F0261E089E00E945F02E8
:100FB00061E08AE00E945F0261E08CE20E945F02D1
:100FC00061E08DE20E945F0261E08EE20E945F02BA
:100FD00080E3809396031092950361E00E940E02D5
:100FE00061E0809196030E945F02CFB7F8948091F0
:100FF0004C02811127C0EBECF1E08491E1E1F2E0D9
:101000009491E82FF0E0EE0FFF1FE85BFE4FA591F3
:10101000B491EC91E92321F461E085E30E940E0292
:1010200061E085E30E945F028CB580618CBD8CB568
:1010300080648CBD61E084E30E945F0261E083E331
:101040000E945F0280914C028F5F80934C02CFBF61
:1010500081E0809395038FE28093970361E00E9483
:101060000E0261E0809197030E945F0283EF92E09D
:101070000E94260483E893E00E94260481E793E01F
:101080000E9426048FE593E00E9426048DE493E0FD
:101090000E9426048DE292E00E94E70488248A944C
:1010A00023E0922EA12CB12C0DE413E085E392E015
:1010B0000E94E7040E94680180910C03882309F4D0
:1010C00079C08FB7F89440904E0250904F026090D4
:1010D0005002709051028FBF61E088E00E940E02C2
:1010E00061E089E00E940E0261E086E00E940E024B
:1010F00061E087E00E940E0289E392E00E94E7042B
:10110000052C000C660877082FB7F89480914E02E2
:1011100090914F02A0915002B09151022FBF8419BB
:101120009509A609B70981349B44AC44B10570F513
:101130000E94680122E330E0DC010E94F709A5016A
:1011400094010E949F0969017A01B901330F880B4C
:10115000990B0E94130B0E945B044AE0C701B60181
:10116000F7FE0DC06DE286E592E00E9488036627D7
:101170007727CB016C197D098E099F094AE00E94EF
:10118000A30486E192E00E949604BECF83E492E03D
:101190000E94E70460E088E00E940E0260E089E0BF
:1011A0000E940E0260E086E00E940E0260E087E08E
:1011B0000E940E02C5E0D3E090E0292E92E0392E85
:1011C0000E94680124E630E0DC010E94F709A501D5
:1011D00094010E949F09B901330F880B990B0E945B
:1011E000130B0E945B048FB7F89440904E0250900E
:1011F0004F0260905002709051028FBF88810E9410
:10120000E5019C018E8191E0811104C0232B21F422
:1012100090E002C0232BE1F74E855F8568897989CC
:1012200073016201C41AD50AE60AF70A49815A8194
:101230006B817C81C416D506E606F70608F071C0FE
:1012400019864A865B866C867D86F10181911F0135
:101250009F8161E0911101C060E00E940E026296E0
:101260000C171D0709F0ACCF60E070E080EA92E453
:101270000E945B0460E47CE980E090E00E94C00290
:1012800060E070E0CB010E945B0460E27EE480E0FD
:1012900090E00E94C002CBE0D0E0C12CD12C7601BE
:1012A00020E030E040E051E4C701B6010E94C80BE5
:1012B0000E94F50468EE73E080E090E00E94C002B6
:1012C00020E030E040E85FE3C701B6010E94FF097B
:1012D0006B017C01219721F7C12CD12C88ECE82EE1
:1012E00082E4F82EC701B6010E94F50468EE73E0AF
:1012F00080E090E00E94C0022DEC3CEC4CEC5DE301
:10130000C701B6010E94FF096B017C0120E030E0BB
:101310004FEA53E40E946B0A181624F70E94F50363
:10132000C5CE8F8188879F83282F292729878917F2
:1013300009F487CF4E865F86688A798A82CF052E28
:1013400097FB1EF400940E94B60957FD07D00E9437
:10135000BE0907FC03D04EF40C94B6095095409595
:10136000309521953F4F4F4F5F4F08959095809551
:10137000709561957F4F8F4F9F4F0895A1E21A2E70
:10138000AA1BBB1BFD010DC0AA1FBB1FEE1FFF1F29
:10139000A217B307E407F50720F0A21BB30BE40B79
:1013A000F50B661F771F881F991F1A9469F76095C0
:1013B0007095809590959B01AC01BD01CF0108957A
:1013C000A29FB001B39FC001A39F700D811D112486
:1013D000911DB29F700D811D1124911D0895EE0F76
:1013E000FF1F881F8BBF0790F691E02D19940E9474
:1013F000E009B7FF0895821B930B08955058BB274F
:10140000AA270E94160A0C94890B0E947B0B38F0C5
:101410000E94820B20F039F49F3F19F426F40C94BB
:10142000780B0EF4E095E7FB0C94720BE92F0E9409
:101430009A0B58F3BA17620773078407950720F0D1
:1014400079F4A6F50C94BC0B0EF4E0950B2EBA2F94
:10145000A02D0B01B90190010C01CA01A0011124BA
:10146000FF27591B99F0593F50F4503E68F11A1666
:10147000F040A22F232F342F4427585FF3CF4695F7
:1014800037952795A795F0405395C9F77EF41F1619
:10149000BA0B620B730B840BBAF09150A1F0FF0FE3
:1014A000BB1F661F771F881FC2F70EC0BA0F621FCF
:1014B000731F841F48F4879577956795B795F795BF
:1014C0009E3F08F0B0CF9395880F08F09927EE0F54
:1014D0009795879508950E944E0B08F481E0089532
:1014E0000E94840A0C94890B0E94820B58F00E947F
:1014F0007B0B40F029F45F3F29F00C94720B5111E3
:101500000C94BD0B0C94780B0E949A0B68F39923F2
:10151000B1F3552391F3951B550BBB27AA276217EF
:101520007307840738F09F5F5F4F220F331F441FFC
:10153000AA1FA9F335D00E2E3AF0E0E832D0915030
:101540005040E695001CCAF72BD0FE2F29D0660F1D
:10155000771F881FBB1F261737074807AB07B0E860
:1015600009F0BB0B802DBF01FF2793585F4F3AF066
:101570009E3F510578F00C94720B0C94BD0B5F3FAD
:10158000E4F3983ED4F3869577956795B795F795EC
:101590009F5FC9F7880F911D9695879597F90895D4
:1015A000E1E0660F771F881FBB1F62177307840770
:1015B000BA0720F0621B730B840BBA0BEE1F88F77F
:1015C000E09508950E94A20B88F09F5798F0B92FDC
:1015D0009927B751B0F0E1F0660F771F881F991F68
:1015E0001AF0BA95C9F714C0B13091F00E94BC0B43
:1015F000B1E008950C94BC0B672F782F8827B85F53
:1016000039F0B93FCCF3869577956795B395D9F7BF
:101610003EF490958095709561957F4F8F4F9F4FC9
:101620000895E89409C097FB3EF4909580957095D5
:1016300061957F4F8F4F9F4F9923A9F0F92F96E91E
:10164000BB279395F695879577956795B795F11193
:10165000F8CFFAF4BB0F11F460FF1BC06F5F7F4F30
:101660008F4F9F4F16C0882311F096E911C0772342
:1016700021F09EE8872F762F05C0662371F096E84B
:10168000862F70E060E02AF09A95660F771F881F1A
:10169000DAF7880F9695879597F90895990F0008BE
:1016A000550FAA0BE0E8FEEF16161706E807F90734
:1016B000C0F012161306E407F50798F0621B730BCF
:1016C000840B950B39F40A2661F0232B242B252B50
:1016D00021F408950A2609F4A140A6958FEF811DF3
:1016E000811D089597F99F6780E870E060E0089594
:1016F0009FEF80EC089500240A941616170618062A
:101700000906089500240A94121613061406050605
:101710000895092E0394000C11F4882352F0BB0F96
:1017200040F4BF2B11F460FF04C06F5F7F4F8F4FF9
:101730009F4F089557FD9058440F551F59F05F3F34
:1017400071F04795880F97FB991F61F09F3F79F0E3
:1017500087950895121613061406551FF2CF469565
:10176000F1DF08C0161617061806991FF1CF8695E7
:101770007105610508940895E894BB2766277727CB
:10178000CB0197F908950E944E0B08F48FEF08954E
:101790000E94DB0B0C94890B0E947B0B38F00E949B
:1017A000820B20F0952311F00C94720B0C94780BA3
:1017B00011240C94BD0B0E949A0B70F3959FC1F3FA
:1017C000950F50E0551F629FF001729FBB27F00DEF
:1017D000B11D639FAA27F00DB11DAA1F649F662744
:1017E000B00DA11D661F829F2227B00DA11D621F93
:1017F000739FB00DA11D621F839FA00D611D221F4D
:10180000749F3327A00D611D231F849F600D211D30
:10181000822F762F6A2F11249F5750409AF0F1F0B3
:1018200088234AF0EE0FFF1FBB1F661F771F881F1C
:1018300091505040A9F79E3F510580F00C94720BD7
:101840000C94BD0B5F3FE4F3983ED4F386957795F7
:101850006795B795F795E7959F5FC1F7FE2B880FC2
:10186000911D9695879597F908950E944E0B880BC8
:08187000990B0895F894FFCFD5
:1018780008090607000000008803F2021F03D503C9
:1018880050032E0342030D0A005245475F696E3D1F
:10189800006E616E00696E66006F76660053746153
:1018A8007274656400626C61002F2F7374617274C6
:0C18B8002F2F002F2F73746F702F2F0044
:00000001FF
